{
	"Smart Contract/ReverseAuction.sol": {
		"ReverseAuction": {
			"abi": [
				{
					"anonymous": false,
					"inputs": [
						{
							"indexed": false,
							"internalType": "address",
							"name": "consumer",
							"type": "address"
						},
						{
							"indexed": false,
							"internalType": "address",
							"name": "winner",
							"type": "address"
						},
						{
							"indexed": false,
							"internalType": "uint256",
							"name": "lowestBid",
							"type": "uint256"
						}
					],
					"name": "AuctionEnded",
					"type": "event"
				},
				{
					"anonymous": false,
					"inputs": [
						{
							"indexed": false,
							"internalType": "address",
							"name": "consumer",
							"type": "address"
						},
						{
							"indexed": false,
							"internalType": "string",
							"name": "features",
							"type": "string"
						},
						{
							"indexed": false,
							"internalType": "uint256",
							"name": "duration",
							"type": "uint256"
						}
					],
					"name": "AuctionStarted",
					"type": "event"
				},
				{
					"anonymous": false,
					"inputs": [
						{
							"indexed": false,
							"internalType": "address",
							"name": "provider",
							"type": "address"
						},
						{
							"indexed": false,
							"internalType": "address",
							"name": "consumer",
							"type": "address"
						},
						{
							"indexed": false,
							"internalType": "uint256",
							"name": "bid",
							"type": "uint256"
						}
					],
					"name": "BidPlaced",
					"type": "event"
				},
				{
					"anonymous": false,
					"inputs": [
						{
							"indexed": false,
							"internalType": "address",
							"name": "consumer",
							"type": "address"
						}
					],
					"name": "ConsumerRegistered",
					"type": "event"
				},
				{
					"anonymous": false,
					"inputs": [
						{
							"indexed": false,
							"internalType": "address",
							"name": "provider",
							"type": "address"
						}
					],
					"name": "ProviderRegistered",
					"type": "event"
				},
				{
					"anonymous": false,
					"inputs": [
						{
							"indexed": false,
							"internalType": "address",
							"name": "provider",
							"type": "address"
						},
						{
							"indexed": false,
							"internalType": "string",
							"name": "serviceName",
							"type": "string"
						},
						{
							"indexed": false,
							"internalType": "string",
							"name": "features",
							"type": "string"
						},
						{
							"indexed": false,
							"internalType": "uint256",
							"name": "price",
							"type": "uint256"
						}
					],
					"name": "ServiceOffered",
					"type": "event"
				},
				{
					"anonymous": false,
					"inputs": [
						{
							"indexed": false,
							"internalType": "address",
							"name": "provider",
							"type": "address"
						},
						{
							"indexed": false,
							"internalType": "address",
							"name": "consumer",
							"type": "address"
						},
						{
							"indexed": false,
							"internalType": "string",
							"name": "serviceName",
							"type": "string"
						},
						{
							"indexed": false,
							"internalType": "uint256",
							"name": "price",
							"type": "uint256"
						}
					],
					"name": "ServicePurchased",
					"type": "event"
				},
				{
					"anonymous": false,
					"inputs": [
						{
							"indexed": false,
							"internalType": "address",
							"name": "provider",
							"type": "address"
						},
						{
							"indexed": false,
							"internalType": "address",
							"name": "consumer",
							"type": "address"
						},
						{
							"indexed": false,
							"internalType": "string",
							"name": "serviceName",
							"type": "string"
						}
					],
					"name": "ServiceRejected",
					"type": "event"
				},
				{
					"inputs": [
						{
							"internalType": "address",
							"name": "consumerAddress",
							"type": "address"
						}
					],
					"name": "acceptOffer",
					"outputs": [],
					"stateMutability": "nonpayable",
					"type": "function"
				},
				{
					"inputs": [
						{
							"internalType": "address",
							"name": "",
							"type": "address"
						}
					],
					"name": "auctions",
					"outputs": [
						{
							"internalType": "string",
							"name": "features",
							"type": "string"
						},
						{
							"internalType": "uint256",
							"name": "duration",
							"type": "uint256"
						},
						{
							"internalType": "bool",
							"name": "auctionEnded",
							"type": "bool"
						},
						{
							"internalType": "address",
							"name": "winner",
							"type": "address"
						},
						{
							"internalType": "uint256",
							"name": "lowestBid",
							"type": "uint256"
						}
					],
					"stateMutability": "view",
					"type": "function"
				},
				{
					"inputs": [
						{
							"internalType": "address",
							"name": "",
							"type": "address"
						}
					],
					"name": "consumers",
					"outputs": [
						{
							"internalType": "bool",
							"name": "isRegistered",
							"type": "bool"
						},
						{
							"internalType": "bool",
							"name": "hasPurchased",
							"type": "bool"
						},
						{
							"internalType": "address",
							"name": "consumerAddress",
							"type": "address"
						},
						{
							"internalType": "address",
							"name": "providerAddress",
							"type": "address"
						}
					],
					"stateMutability": "view",
					"type": "function"
				},
				{
					"inputs": [
						{
							"internalType": "address",
							"name": "consumer",
							"type": "address"
						}
					],
					"name": "endAuction",
					"outputs": [],
					"stateMutability": "nonpayable",
					"type": "function"
				},
				{
					"inputs": [
						{
							"internalType": "address",
							"name": "consumer",
							"type": "address"
						}
					],
					"name": "getAuctionDetails",
					"outputs": [
						{
							"internalType": "string",
							"name": "",
							"type": "string"
						},
						{
							"internalType": "uint256",
							"name": "",
							"type": "uint256"
						},
						{
							"internalType": "bool",
							"name": "",
							"type": "bool"
						},
						{
							"internalType": "address",
							"name": "",
							"type": "address"
						},
						{
							"internalType": "uint256",
							"name": "",
							"type": "uint256"
						}
					],
					"stateMutability": "view",
					"type": "function"
				},
				{
					"inputs": [
						{
							"internalType": "string",
							"name": "serviceName",
							"type": "string"
						},
						{
							"internalType": "string",
							"name": "features",
							"type": "string"
						},
						{
							"internalType": "uint256",
							"name": "price",
							"type": "uint256"
						}
					],
					"name": "offerService",
					"outputs": [],
					"stateMutability": "nonpayable",
					"type": "function"
				},
				{
					"inputs": [
						{
							"internalType": "address",
							"name": "consumer",
							"type": "address"
						}
					],
					"name": "placeBid",
					"outputs": [],
					"stateMutability": "payable",
					"type": "function"
				},
				{
					"inputs": [
						{
							"internalType": "address",
							"name": "",
							"type": "address"
						}
					],
					"name": "providers",
					"outputs": [
						{
							"internalType": "string",
							"name": "serviceName",
							"type": "string"
						},
						{
							"internalType": "string",
							"name": "features",
							"type": "string"
						},
						{
							"internalType": "uint256",
							"name": "price",
							"type": "uint256"
						},
						{
							"internalType": "bool",
							"name": "isRegistered",
							"type": "bool"
						},
						{
							"internalType": "bool",
							"name": "isServiceAvailable",
							"type": "bool"
						},
						{
							"internalType": "address",
							"name": "providerAddress",
							"type": "address"
						}
					],
					"stateMutability": "view",
					"type": "function"
				},
				{
					"inputs": [
						{
							"internalType": "address",
							"name": "providerAddress",
							"type": "address"
						}
					],
					"name": "purchaseService",
					"outputs": [],
					"stateMutability": "payable",
					"type": "function"
				},
				{
					"inputs": [],
					"name": "registerConsumer",
					"outputs": [],
					"stateMutability": "nonpayable",
					"type": "function"
				},
				{
					"inputs": [],
					"name": "registerProvider",
					"outputs": [],
					"stateMutability": "nonpayable",
					"type": "function"
				},
				{
					"inputs": [
						{
							"internalType": "string",
							"name": "hash",
							"type": "string"
						}
					],
					"name": "setIPFSHash",
					"outputs": [],
					"stateMutability": "nonpayable",
					"type": "function"
				},
				{
					"inputs": [
						{
							"internalType": "string",
							"name": "features",
							"type": "string"
						},
						{
							"internalType": "uint256",
							"name": "duration",
							"type": "uint256"
						}
					],
					"name": "startAuction",
					"outputs": [],
					"stateMutability": "nonpayable",
					"type": "function"
				}
			],
			"devdoc": {
				"kind": "dev",
				"methods": {},
				"version": 1
			},
			"evm": {
				"assembly": "    /* \"Smart Contract/ReverseAuction.sol\":67:2779  contract ReverseAuction is DecentralizedMarketplace {... */\n  mstore(0x40, 0x80)\n  callvalue\n  dup1\n  iszero\n  tag_1\n  jumpi\n  0x00\n  dup1\n  revert\ntag_1:\n  pop\n  dataSize(sub_0)\n  dup1\n  dataOffset(sub_0)\n  0x00\n  codecopy\n  0x00\n  return\nstop\n\nsub_0: assembly {\n        /* \"Smart Contract/ReverseAuction.sol\":67:2779  contract ReverseAuction is DecentralizedMarketplace {... */\n      mstore(0x40, 0x80)\n      jumpi(tag_1, lt(calldatasize, 0x04))\n      shr(0xe0, calldataload(0x00))\n      dup1\n      0x87ea07fb\n      gt\n      tag_15\n      jumpi\n      dup1\n      0xb8a76f54\n      gt\n      tag_16\n      jumpi\n      dup1\n      0xb8a76f54\n      eq\n      tag_11\n      jumpi\n      dup1\n      0xcb1ce0c7\n      eq\n      tag_12\n      jumpi\n      dup1\n      0xe4940157\n      eq\n      tag_13\n      jumpi\n      dup1\n      0xf769c6d0\n      eq\n      tag_14\n      jumpi\n      jump(tag_1)\n    tag_16:\n      dup1\n      0x87ea07fb\n      eq\n      tag_8\n      jumpi\n      dup1\n      0xb46506de\n      eq\n      tag_9\n      jumpi\n      dup1\n      0xb6261d0a\n      eq\n      tag_10\n      jumpi\n      jump(tag_1)\n    tag_15:\n      dup1\n      0x0787bc27\n      eq\n      tag_2\n      jumpi\n      dup1\n      0x0bf53668\n      eq\n      tag_3\n      jumpi\n      dup1\n      0x1d59410a\n      eq\n      tag_4\n      jumpi\n      dup1\n      0x2872abbc\n      eq\n      tag_5\n      jumpi\n      dup1\n      0x7f593d9e\n      eq\n      tag_6\n      jumpi\n      dup1\n      0x862882e5\n      eq\n      tag_7\n      jumpi\n    tag_1:\n      0x00\n      dup1\n      revert\n        /* \"Smart Contract/DecentralizedMarketplace.sol\":441:486  mapping(address => Provider) public providers */\n    tag_2:\n      callvalue\n      dup1\n      iszero\n      tag_17\n      jumpi\n      0x00\n      dup1\n      revert\n    tag_17:\n      pop\n      tag_18\n      0x04\n      dup1\n      calldatasize\n      sub\n      dup2\n      add\n      swap1\n      tag_19\n      swap2\n      swap1\n      tag_20\n      jump\t// in\n    tag_19:\n      tag_21\n      jump\t// in\n    tag_18:\n      mload(0x40)\n      tag_22\n      swap7\n      swap6\n      swap5\n      swap4\n      swap3\n      swap2\n      swap1\n      tag_23\n      jump\t// in\n    tag_22:\n      mload(0x40)\n      dup1\n      swap2\n      sub\n      swap1\n      return\n        /* \"Smart Contract/DecentralizedMarketplace.sol\":492:537  mapping(address => Consumer) public consumers */\n    tag_3:\n      callvalue\n      dup1\n      iszero\n      tag_24\n      jumpi\n      0x00\n      dup1\n      revert\n    tag_24:\n      pop\n      tag_25\n      0x04\n      dup1\n      calldatasize\n      sub\n      dup2\n      add\n      swap1\n      tag_26\n      swap2\n      swap1\n      tag_20\n      jump\t// in\n    tag_26:\n      tag_27\n      jump\t// in\n    tag_25:\n      mload(0x40)\n      tag_28\n      swap5\n      swap4\n      swap3\n      swap2\n      swap1\n      tag_29\n      jump\t// in\n    tag_28:\n      mload(0x40)\n      dup1\n      swap2\n      sub\n      swap1\n      return\n        /* \"Smart Contract/ReverseAuction.sol\":311:354  mapping(address => Auction) public auctions */\n    tag_4:\n      callvalue\n      dup1\n      iszero\n      tag_30\n      jumpi\n      0x00\n      dup1\n      revert\n    tag_30:\n      pop\n      tag_31\n      0x04\n      dup1\n      calldatasize\n      sub\n      dup2\n      add\n      swap1\n      tag_32\n      swap2\n      swap1\n      tag_20\n      jump\t// in\n    tag_32:\n      tag_33\n      jump\t// in\n    tag_31:\n      mload(0x40)\n      tag_34\n      swap6\n      swap5\n      swap4\n      swap3\n      swap2\n      swap1\n      tag_35\n      jump\t// in\n    tag_34:\n      mload(0x40)\n      dup1\n      swap2\n      sub\n      swap1\n      return\n        /* \"Smart Contract/ReverseAuction.sol\":1875:2378  function endAuction(address consumer) external onlyRegisteredWithTokenIdentity {... */\n    tag_5:\n      callvalue\n      dup1\n      iszero\n      tag_36\n      jumpi\n      0x00\n      dup1\n      revert\n    tag_36:\n      pop\n      tag_37\n      0x04\n      dup1\n      calldatasize\n      sub\n      dup2\n      add\n      swap1\n      tag_38\n      swap2\n      swap1\n      tag_20\n      jump\t// in\n    tag_38:\n      tag_39\n      jump\t// in\n    tag_37:\n      stop\n        /* \"Smart Contract/ReverseAuction.sol\":2384:2777  function getAuctionDetails(address consumer) external view onlyRegisteredWithTokenIdentity returns (string memory, uint256, bool, address, uint256) {... */\n    tag_6:\n      callvalue\n      dup1\n      iszero\n      tag_40\n      jumpi\n      0x00\n      dup1\n      revert\n    tag_40:\n      pop\n      tag_41\n      0x04\n      dup1\n      calldatasize\n      sub\n      dup2\n      add\n      swap1\n      tag_42\n      swap2\n      swap1\n      tag_20\n      jump\t// in\n    tag_42:\n      tag_43\n      jump\t// in\n    tag_41:\n      mload(0x40)\n      tag_44\n      swap6\n      swap5\n      swap4\n      swap3\n      swap2\n      swap1\n      tag_35\n      jump\t// in\n    tag_44:\n      mload(0x40)\n      dup1\n      swap2\n      sub\n      swap1\n      return\n        /* \"Smart Contract/ReverseAuction.sol\":855:1221  function startAuction(string memory features, uint256 duration) external onlyRegisteredWithTokenIdentity {... */\n    tag_7:\n      callvalue\n      dup1\n      iszero\n      tag_45\n      jumpi\n      0x00\n      dup1\n      revert\n    tag_45:\n      pop\n      tag_46\n      0x04\n      dup1\n      calldatasize\n      sub\n      dup2\n      add\n      swap1\n      tag_47\n      swap2\n      swap1\n      tag_48\n      jump\t// in\n    tag_47:\n      tag_49\n      jump\t// in\n    tag_46:\n      stop\n        /* \"Smart Contract/DecentralizedMarketplace.sol\":3005:3814  function purchaseService(address providerAddress) external payable onlyRegisteredConsumer {... */\n    tag_8:\n      tag_50\n      0x04\n      dup1\n      calldatasize\n      sub\n      dup2\n      add\n      swap1\n      tag_51\n      swap2\n      swap1\n      tag_20\n      jump\t// in\n    tag_51:\n      tag_52\n      jump\t// in\n    tag_50:\n      stop\n        /* \"Smart Contract/DecentralizedMarketplace.sol\":1490:1747  function registerConsumer() external {... */\n    tag_9:\n      callvalue\n      dup1\n      iszero\n      tag_53\n      jumpi\n      0x00\n      dup1\n      revert\n    tag_53:\n      pop\n      tag_54\n      tag_55\n      jump\t// in\n    tag_54:\n      stop\n        /* \"Smart Contract/DecentralizedMarketplace.sol\":3820:4356  function acceptOffer(address consumerAddress) external onlyRegisteredProvider {... */\n    tag_10:\n      callvalue\n      dup1\n      iszero\n      tag_56\n      jumpi\n      0x00\n      dup1\n      revert\n    tag_56:\n      pop\n      tag_57\n      0x04\n      dup1\n      calldatasize\n      sub\n      dup2\n      add\n      swap1\n      tag_58\n      swap2\n      swap1\n      tag_20\n      jump\t// in\n    tag_58:\n      tag_59\n      jump\t// in\n    tag_57:\n      stop\n        /* \"Smart Contract/DecentralizedMarketplace.sol\":2033:2482  function setIPFSHash(string memory hash) external onlyRegisteredConsumerOrProvider {... */\n    tag_11:\n      callvalue\n      dup1\n      iszero\n      tag_60\n      jumpi\n      0x00\n      dup1\n      revert\n    tag_60:\n      pop\n      tag_61\n      0x04\n      dup1\n      calldatasize\n      sub\n      dup2\n      add\n      swap1\n      tag_62\n      swap2\n      swap1\n      tag_63\n      jump\t// in\n    tag_62:\n      tag_64\n      jump\t// in\n    tag_61:\n      stop\n        /* \"Smart Contract/DecentralizedMarketplace.sol\":2488:2999  function offerService(string memory serviceName, string memory features, uint256 price) external onlyRegisteredProvider {... */\n    tag_12:\n      callvalue\n      dup1\n      iszero\n      tag_65\n      jumpi\n      0x00\n      dup1\n      revert\n    tag_65:\n      pop\n      tag_66\n      0x04\n      dup1\n      calldatasize\n      sub\n      dup2\n      add\n      swap1\n      tag_67\n      swap2\n      swap1\n      tag_68\n      jump\t// in\n    tag_67:\n      tag_69\n      jump\t// in\n    tag_66:\n      stop\n        /* \"Smart Contract/ReverseAuction.sol\":1227:1869  function placeBid(address consumer) external payable onlyRegisteredProvider {... */\n    tag_13:\n      tag_70\n      0x04\n      dup1\n      calldatasize\n      sub\n      dup2\n      add\n      swap1\n      tag_71\n      swap2\n      swap1\n      tag_20\n      jump\t// in\n    tag_71:\n      tag_72\n      jump\t// in\n    tag_70:\n      stop\n        /* \"Smart Contract/DecentralizedMarketplace.sol\":1753:2027  function registerProvider() external {... */\n    tag_14:\n      callvalue\n      dup1\n      iszero\n      tag_73\n      jumpi\n      0x00\n      dup1\n      revert\n    tag_73:\n      pop\n      tag_74\n      tag_75\n      jump\t// in\n    tag_74:\n      stop\n        /* \"Smart Contract/DecentralizedMarketplace.sol\":441:486  mapping(address => Provider) public providers */\n    tag_21:\n      mstore(0x20, 0x00)\n      dup1\n      0x00\n      mstore\n      keccak256(0x00, 0x40)\n      0x00\n      swap2\n      pop\n      swap1\n      pop\n      dup1\n      0x00\n      add\n      dup1\n      sload\n      tag_76\n      swap1\n      tag_77\n      jump\t// in\n    tag_76:\n      dup1\n      0x1f\n      add\n      0x20\n      dup1\n      swap2\n      div\n      mul\n      0x20\n      add\n      mload(0x40)\n      swap1\n      dup2\n      add\n      0x40\n      mstore\n      dup1\n      swap3\n      swap2\n      swap1\n      dup2\n      dup2\n      mstore\n      0x20\n      add\n      dup3\n      dup1\n      sload\n      tag_78\n      swap1\n      tag_77\n      jump\t// in\n    tag_78:\n      dup1\n      iszero\n      tag_79\n      jumpi\n      dup1\n      0x1f\n      lt\n      tag_80\n      jumpi\n      0x0100\n      dup1\n      dup4\n      sload\n      div\n      mul\n      dup4\n      mstore\n      swap2\n      0x20\n      add\n      swap2\n      jump(tag_79)\n    tag_80:\n      dup3\n      add\n      swap2\n      swap1\n      0x00\n      mstore\n      keccak256(0x00, 0x20)\n      swap1\n    tag_81:\n      dup2\n      sload\n      dup2\n      mstore\n      swap1\n      0x01\n      add\n      swap1\n      0x20\n      add\n      dup1\n      dup4\n      gt\n      tag_81\n      jumpi\n      dup3\n      swap1\n      sub\n      0x1f\n      and\n      dup3\n      add\n      swap2\n    tag_79:\n      pop\n      pop\n      pop\n      pop\n      pop\n      swap1\n      dup1\n      0x01\n      add\n      dup1\n      sload\n      tag_82\n      swap1\n      tag_77\n      jump\t// in\n    tag_82:\n      dup1\n      0x1f\n      add\n      0x20\n      dup1\n      swap2\n      div\n      mul\n      0x20\n      add\n      mload(0x40)\n      swap1\n      dup2\n      add\n      0x40\n      mstore\n      dup1\n      swap3\n      swap2\n      swap1\n      dup2\n      dup2\n      mstore\n      0x20\n      add\n      dup3\n      dup1\n      sload\n      tag_83\n      swap1\n      tag_77\n      jump\t// in\n    tag_83:\n      dup1\n      iszero\n      tag_84\n      jumpi\n      dup1\n      0x1f\n      lt\n      tag_85\n      jumpi\n      0x0100\n      dup1\n      dup4\n      sload\n      div\n      mul\n      dup4\n      mstore\n      swap2\n      0x20\n      add\n      swap2\n      jump(tag_84)\n    tag_85:\n      dup3\n      add\n      swap2\n      swap1\n      0x00\n      mstore\n      keccak256(0x00, 0x20)\n      swap1\n    tag_86:\n      dup2\n      sload\n      dup2\n      mstore\n      swap1\n      0x01\n      add\n      swap1\n      0x20\n      add\n      dup1\n      dup4\n      gt\n      tag_86\n      jumpi\n      dup3\n      swap1\n      sub\n      0x1f\n      and\n      dup3\n      add\n      swap2\n    tag_84:\n      pop\n      pop\n      pop\n      pop\n      pop\n      swap1\n      dup1\n      0x02\n      add\n      sload\n      swap1\n      dup1\n      0x03\n      add\n      0x00\n      swap1\n      sload\n      swap1\n      0x0100\n      exp\n      swap1\n      div\n      0xff\n      and\n      swap1\n      dup1\n      0x03\n      add\n      0x01\n      swap1\n      sload\n      swap1\n      0x0100\n      exp\n      swap1\n      div\n      0xff\n      and\n      swap1\n      dup1\n      0x03\n      add\n      0x02\n      swap1\n      sload\n      swap1\n      0x0100\n      exp\n      swap1\n      div\n      0xffffffffffffffffffffffffffffffffffffffff\n      and\n      swap1\n      pop\n      dup7\n      jump\t// out\n        /* \"Smart Contract/DecentralizedMarketplace.sol\":492:537  mapping(address => Consumer) public consumers */\n    tag_27:\n      mstore(0x20, 0x01)\n      dup1\n      0x00\n      mstore\n      keccak256(0x00, 0x40)\n      0x00\n      swap2\n      pop\n      swap1\n      pop\n      dup1\n      0x00\n      add\n      0x00\n      swap1\n      sload\n      swap1\n      0x0100\n      exp\n      swap1\n      div\n      0xff\n      and\n      swap1\n      dup1\n      0x00\n      add\n      0x01\n      swap1\n      sload\n      swap1\n      0x0100\n      exp\n      swap1\n      div\n      0xff\n      and\n      swap1\n      dup1\n      0x00\n      add\n      0x02\n      swap1\n      sload\n      swap1\n      0x0100\n      exp\n      swap1\n      div\n      0xffffffffffffffffffffffffffffffffffffffff\n      and\n      swap1\n      dup1\n      0x01\n      add\n      0x00\n      swap1\n      sload\n      swap1\n      0x0100\n      exp\n      swap1\n      div\n      0xffffffffffffffffffffffffffffffffffffffff\n      and\n      swap1\n      pop\n      dup5\n      jump\t// out\n        /* \"Smart Contract/ReverseAuction.sol\":311:354  mapping(address => Auction) public auctions */\n    tag_33:\n      mstore(0x20, 0x02)\n      dup1\n      0x00\n      mstore\n      keccak256(0x00, 0x40)\n      0x00\n      swap2\n      pop\n      swap1\n      pop\n      dup1\n      0x00\n      add\n      dup1\n      sload\n      tag_87\n      swap1\n      tag_77\n      jump\t// in\n    tag_87:\n      dup1\n      0x1f\n      add\n      0x20\n      dup1\n      swap2\n      div\n      mul\n      0x20\n      add\n      mload(0x40)\n      swap1\n      dup2\n      add\n      0x40\n      mstore\n      dup1\n      swap3\n      swap2\n      swap1\n      dup2\n      dup2\n      mstore\n      0x20\n      add\n      dup3\n      dup1\n      sload\n      tag_88\n      swap1\n      tag_77\n      jump\t// in\n    tag_88:\n      dup1\n      iszero\n      tag_89\n      jumpi\n      dup1\n      0x1f\n      lt\n      tag_90\n      jumpi\n      0x0100\n      dup1\n      dup4\n      sload\n      div\n      mul\n      dup4\n      mstore\n      swap2\n      0x20\n      add\n      swap2\n      jump(tag_89)\n    tag_90:\n      dup3\n      add\n      swap2\n      swap1\n      0x00\n      mstore\n      keccak256(0x00, 0x20)\n      swap1\n    tag_91:\n      dup2\n      sload\n      dup2\n      mstore\n      swap1\n      0x01\n      add\n      swap1\n      0x20\n      add\n      dup1\n      dup4\n      gt\n      tag_91\n      jumpi\n      dup3\n      swap1\n      sub\n      0x1f\n      and\n      dup3\n      add\n      swap2\n    tag_89:\n      pop\n      pop\n      pop\n      pop\n      pop\n      swap1\n      dup1\n      0x01\n      add\n      sload\n      swap1\n      dup1\n      0x03\n      add\n      0x00\n      swap1\n      sload\n      swap1\n      0x0100\n      exp\n      swap1\n      div\n      0xff\n      and\n      swap1\n      dup1\n      0x03\n      add\n      0x01\n      swap1\n      sload\n      swap1\n      0x0100\n      exp\n      swap1\n      div\n      0xffffffffffffffffffffffffffffffffffffffff\n      and\n      swap1\n      dup1\n      0x04\n      add\n      sload\n      swap1\n      pop\n      dup6\n      jump\t// out\n        /* \"Smart Contract/ReverseAuction.sol\":1875:2378  function endAuction(address consumer) external onlyRegisteredWithTokenIdentity {... */\n    tag_39:\n        /* \"Smart Contract/ReverseAuction.sol\":662:671  consumers */\n      0x01\n        /* \"Smart Contract/ReverseAuction.sol\":662:683  consumers[msg.sender] */\n      0x00\n        /* \"Smart Contract/ReverseAuction.sol\":672:682  msg.sender */\n      caller\n        /* \"Smart Contract/ReverseAuction.sol\":662:683  consumers[msg.sender] */\n      0xffffffffffffffffffffffffffffffffffffffff\n      and\n      0xffffffffffffffffffffffffffffffffffffffff\n      and\n      dup2\n      mstore\n      0x20\n      add\n      swap1\n      dup2\n      mstore\n      0x20\n      add\n      0x00\n      keccak256\n        /* \"Smart Contract/ReverseAuction.sol\":662:696  consumers[msg.sender].isRegistered */\n      0x00\n      add\n      0x00\n      swap1\n      sload\n      swap1\n      0x0100\n      exp\n      swap1\n      div\n      0xff\n      and\n        /* \"Smart Contract/ReverseAuction.sol\":662:734  consumers[msg.sender].isRegistered || providers[msg.sender].isRegistered */\n      dup1\n      tag_93\n      jumpi\n      pop\n        /* \"Smart Contract/ReverseAuction.sol\":700:709  providers */\n      0x00\n        /* \"Smart Contract/ReverseAuction.sol\":700:721  providers[msg.sender] */\n      dup1\n        /* \"Smart Contract/ReverseAuction.sol\":710:720  msg.sender */\n      caller\n        /* \"Smart Contract/ReverseAuction.sol\":700:721  providers[msg.sender] */\n      0xffffffffffffffffffffffffffffffffffffffff\n      and\n      0xffffffffffffffffffffffffffffffffffffffff\n      and\n      dup2\n      mstore\n      0x20\n      add\n      swap1\n      dup2\n      mstore\n      0x20\n      add\n      0x00\n      keccak256\n        /* \"Smart Contract/ReverseAuction.sol\":700:734  providers[msg.sender].isRegistered */\n      0x03\n      add\n      0x00\n      swap1\n      sload\n      swap1\n      0x0100\n      exp\n      swap1\n      div\n      0xff\n      and\n        /* \"Smart Contract/ReverseAuction.sol\":662:734  consumers[msg.sender].isRegistered || providers[msg.sender].isRegistered */\n    tag_93:\n        /* \"Smart Contract/ReverseAuction.sol\":641:831  require(... */\n      tag_94\n      jumpi\n      mload(0x40)\n      0x08c379a000000000000000000000000000000000000000000000000000000000\n      dup2\n      mstore\n      0x04\n      add\n      tag_95\n      swap1\n      tag_96\n      jump\t// in\n    tag_95:\n      mload(0x40)\n      dup1\n      swap2\n      sub\n      swap1\n      revert\n    tag_94:\n        /* \"Smart Contract/ReverseAuction.sol\":1964:1987  Auction storage auction */\n      0x00\n        /* \"Smart Contract/ReverseAuction.sol\":1990:1998  auctions */\n      0x02\n        /* \"Smart Contract/ReverseAuction.sol\":1990:2008  auctions[consumer] */\n      0x00\n        /* \"Smart Contract/ReverseAuction.sol\":1999:2007  consumer */\n      dup4\n        /* \"Smart Contract/ReverseAuction.sol\":1990:2008  auctions[consumer] */\n      0xffffffffffffffffffffffffffffffffffffffff\n      and\n      0xffffffffffffffffffffffffffffffffffffffff\n      and\n      dup2\n      mstore\n      0x20\n      add\n      swap1\n      dup2\n      mstore\n      0x20\n      add\n      0x00\n      keccak256\n        /* \"Smart Contract/ReverseAuction.sol\":1964:2008  Auction storage auction = auctions[consumer] */\n      swap1\n      pop\n        /* \"Smart Contract/ReverseAuction.sol\":2053:2054  0 */\n      0x00\n        /* \"Smart Contract/ReverseAuction.sol\":2026:2033  auction */\n      dup2\n        /* \"Smart Contract/ReverseAuction.sol\":2026:2043  auction.providers */\n      0x02\n      add\n        /* \"Smart Contract/ReverseAuction.sol\":2026:2050  auction.providers.length */\n      dup1\n      sload\n      swap1\n      pop\n        /* \"Smart Contract/ReverseAuction.sol\":2026:2054  auction.providers.length > 0 */\n      gt\n        /* \"Smart Contract/ReverseAuction.sol\":2018:2081  require(auction.providers.length > 0, \"Auction does not exist\") */\n      tag_98\n      jumpi\n      mload(0x40)\n      0x08c379a000000000000000000000000000000000000000000000000000000000\n      dup2\n      mstore\n      0x04\n      add\n      tag_99\n      swap1\n      tag_100\n      jump\t// in\n    tag_99:\n      mload(0x40)\n      dup1\n      swap2\n      sub\n      swap1\n      revert\n    tag_98:\n        /* \"Smart Contract/ReverseAuction.sol\":2100:2107  auction */\n      dup1\n        /* \"Smart Contract/ReverseAuction.sol\":2100:2120  auction.auctionEnded */\n      0x03\n      add\n      0x00\n      swap1\n      sload\n      swap1\n      0x0100\n      exp\n      swap1\n      div\n      0xff\n      and\n        /* \"Smart Contract/ReverseAuction.sol\":2099:2120  !auction.auctionEnded */\n      iszero\n        /* \"Smart Contract/ReverseAuction.sol\":2091:2150  require(!auction.auctionEnded, \"Auction has already ended\") */\n      tag_101\n      jumpi\n      mload(0x40)\n      0x08c379a000000000000000000000000000000000000000000000000000000000\n      dup2\n      mstore\n      0x04\n      add\n      tag_102\n      swap1\n      tag_103\n      jump\t// in\n    tag_102:\n      mload(0x40)\n      dup1\n      swap2\n      sub\n      swap1\n      revert\n    tag_101:\n        /* \"Smart Contract/ReverseAuction.sol\":2180:2190  msg.sender */\n      caller\n        /* \"Smart Contract/ReverseAuction.sol\":2168:2190  consumer == msg.sender */\n      0xffffffffffffffffffffffffffffffffffffffff\n      and\n        /* \"Smart Contract/ReverseAuction.sol\":2168:2176  consumer */\n      dup3\n        /* \"Smart Contract/ReverseAuction.sol\":2168:2190  consumer == msg.sender */\n      0xffffffffffffffffffffffffffffffffffffffff\n      and\n      eq\n        /* \"Smart Contract/ReverseAuction.sol\":2168:2222  consumer == msg.sender || auction.winner == msg.sender */\n      dup1\n      tag_104\n      jumpi\n      pop\n        /* \"Smart Contract/ReverseAuction.sol\":2212:2222  msg.sender */\n      caller\n        /* \"Smart Contract/ReverseAuction.sol\":2194:2222  auction.winner == msg.sender */\n      0xffffffffffffffffffffffffffffffffffffffff\n      and\n        /* \"Smart Contract/ReverseAuction.sol\":2194:2201  auction */\n      dup2\n        /* \"Smart Contract/ReverseAuction.sol\":2194:2208  auction.winner */\n      0x03\n      add\n      0x01\n      swap1\n      sload\n      swap1\n      0x0100\n      exp\n      swap1\n      div\n      0xffffffffffffffffffffffffffffffffffffffff\n      and\n        /* \"Smart Contract/ReverseAuction.sol\":2194:2222  auction.winner == msg.sender */\n      0xffffffffffffffffffffffffffffffffffffffff\n      and\n      eq\n        /* \"Smart Contract/ReverseAuction.sol\":2168:2222  consumer == msg.sender || auction.winner == msg.sender */\n    tag_104:\n        /* \"Smart Contract/ReverseAuction.sol\":2160:2261  require(consumer == msg.sender || auction.winner == msg.sender, \"Not authorized to end this auction\") */\n      tag_105\n      jumpi\n      mload(0x40)\n      0x08c379a000000000000000000000000000000000000000000000000000000000\n      dup2\n      mstore\n      0x04\n      add\n      tag_106\n      swap1\n      tag_107\n      jump\t// in\n    tag_106:\n      mload(0x40)\n      dup1\n      swap2\n      sub\n      swap1\n      revert\n    tag_105:\n        /* \"Smart Contract/ReverseAuction.sol\":2295:2299  true */\n      0x01\n        /* \"Smart Contract/ReverseAuction.sol\":2272:2279  auction */\n      dup2\n        /* \"Smart Contract/ReverseAuction.sol\":2272:2292  auction.auctionEnded */\n      0x03\n      add\n      0x00\n        /* \"Smart Contract/ReverseAuction.sol\":2272:2299  auction.auctionEnded = true */\n      0x0100\n      exp\n      dup2\n      sload\n      dup2\n      0xff\n      mul\n      not\n      and\n      swap1\n      dup4\n      iszero\n      iszero\n      mul\n      or\n      swap1\n      sstore\n      pop\n        /* \"Smart Contract/ReverseAuction.sol\":2314:2371  AuctionEnded(consumer, auction.winner, auction.lowestBid) */\n      0x8d08286bc520f0199dd11872725cfed598c29e3b91002b37ccf3e0d701e7cf9e\n        /* \"Smart Contract/ReverseAuction.sol\":2327:2335  consumer */\n      dup3\n        /* \"Smart Contract/ReverseAuction.sol\":2337:2344  auction */\n      dup3\n        /* \"Smart Contract/ReverseAuction.sol\":2337:2351  auction.winner */\n      0x03\n      add\n      0x01\n      swap1\n      sload\n      swap1\n      0x0100\n      exp\n      swap1\n      div\n      0xffffffffffffffffffffffffffffffffffffffff\n      and\n        /* \"Smart Contract/ReverseAuction.sol\":2353:2360  auction */\n      dup4\n        /* \"Smart Contract/ReverseAuction.sol\":2353:2370  auction.lowestBid */\n      0x04\n      add\n      sload\n        /* \"Smart Contract/ReverseAuction.sol\":2314:2371  AuctionEnded(consumer, auction.winner, auction.lowestBid) */\n      mload(0x40)\n      tag_108\n      swap4\n      swap3\n      swap2\n      swap1\n      tag_109\n      jump\t// in\n    tag_108:\n      mload(0x40)\n      dup1\n      swap2\n      sub\n      swap1\n      log1\n        /* \"Smart Contract/ReverseAuction.sol\":1954:2378  {... */\n      pop\n        /* \"Smart Contract/ReverseAuction.sol\":1875:2378  function endAuction(address consumer) external onlyRegisteredWithTokenIdentity {... */\n      pop\n      jump\t// out\n        /* \"Smart Contract/ReverseAuction.sol\":2384:2777  function getAuctionDetails(address consumer) external view onlyRegisteredWithTokenIdentity returns (string memory, uint256, bool, address, uint256) {... */\n    tag_43:\n        /* \"Smart Contract/ReverseAuction.sol\":2484:2497  string memory */\n      0x60\n        /* \"Smart Contract/ReverseAuction.sol\":2499:2506  uint256 */\n      0x00\n        /* \"Smart Contract/ReverseAuction.sol\":2508:2512  bool */\n      dup1\n        /* \"Smart Contract/ReverseAuction.sol\":2514:2521  address */\n      0x00\n        /* \"Smart Contract/ReverseAuction.sol\":2523:2530  uint256 */\n      dup1\n        /* \"Smart Contract/ReverseAuction.sol\":662:671  consumers */\n      0x01\n        /* \"Smart Contract/ReverseAuction.sol\":662:683  consumers[msg.sender] */\n      0x00\n        /* \"Smart Contract/ReverseAuction.sol\":672:682  msg.sender */\n      caller\n        /* \"Smart Contract/ReverseAuction.sol\":662:683  consumers[msg.sender] */\n      0xffffffffffffffffffffffffffffffffffffffff\n      and\n      0xffffffffffffffffffffffffffffffffffffffff\n      and\n      dup2\n      mstore\n      0x20\n      add\n      swap1\n      dup2\n      mstore\n      0x20\n      add\n      0x00\n      keccak256\n        /* \"Smart Contract/ReverseAuction.sol\":662:696  consumers[msg.sender].isRegistered */\n      0x00\n      add\n      0x00\n      swap1\n      sload\n      swap1\n      0x0100\n      exp\n      swap1\n      div\n      0xff\n      and\n        /* \"Smart Contract/ReverseAuction.sol\":662:734  consumers[msg.sender].isRegistered || providers[msg.sender].isRegistered */\n      dup1\n      tag_111\n      jumpi\n      pop\n        /* \"Smart Contract/ReverseAuction.sol\":700:709  providers */\n      0x00\n        /* \"Smart Contract/ReverseAuction.sol\":700:721  providers[msg.sender] */\n      dup1\n        /* \"Smart Contract/ReverseAuction.sol\":710:720  msg.sender */\n      caller\n        /* \"Smart Contract/ReverseAuction.sol\":700:721  providers[msg.sender] */\n      0xffffffffffffffffffffffffffffffffffffffff\n      and\n      0xffffffffffffffffffffffffffffffffffffffff\n      and\n      dup2\n      mstore\n      0x20\n      add\n      swap1\n      dup2\n      mstore\n      0x20\n      add\n      0x00\n      keccak256\n        /* \"Smart Contract/ReverseAuction.sol\":700:734  providers[msg.sender].isRegistered */\n      0x03\n      add\n      0x00\n      swap1\n      sload\n      swap1\n      0x0100\n      exp\n      swap1\n      div\n      0xff\n      and\n        /* \"Smart Contract/ReverseAuction.sol\":662:734  consumers[msg.sender].isRegistered || providers[msg.sender].isRegistered */\n    tag_111:\n        /* \"Smart Contract/ReverseAuction.sol\":641:831  require(... */\n      tag_112\n      jumpi\n      mload(0x40)\n      0x08c379a000000000000000000000000000000000000000000000000000000000\n      dup2\n      mstore\n      0x04\n      add\n      tag_113\n      swap1\n      tag_96\n      jump\t// in\n    tag_113:\n      mload(0x40)\n      dup1\n      swap2\n      sub\n      swap1\n      revert\n    tag_112:\n        /* \"Smart Contract/ReverseAuction.sol\":2542:2565  Auction storage auction */\n      0x00\n        /* \"Smart Contract/ReverseAuction.sol\":2568:2576  auctions */\n      0x02\n        /* \"Smart Contract/ReverseAuction.sol\":2568:2586  auctions[consumer] */\n      0x00\n        /* \"Smart Contract/ReverseAuction.sol\":2577:2585  consumer */\n      dup9\n        /* \"Smart Contract/ReverseAuction.sol\":2568:2586  auctions[consumer] */\n      0xffffffffffffffffffffffffffffffffffffffff\n      and\n      0xffffffffffffffffffffffffffffffffffffffff\n      and\n      dup2\n      mstore\n      0x20\n      add\n      swap1\n      dup2\n      mstore\n      0x20\n      add\n      0x00\n      keccak256\n        /* \"Smart Contract/ReverseAuction.sol\":2542:2586  Auction storage auction = auctions[consumer] */\n      swap1\n      pop\n        /* \"Smart Contract/ReverseAuction.sol\":2631:2632  0 */\n      0x00\n        /* \"Smart Contract/ReverseAuction.sol\":2604:2611  auction */\n      dup2\n        /* \"Smart Contract/ReverseAuction.sol\":2604:2621  auction.providers */\n      0x02\n      add\n        /* \"Smart Contract/ReverseAuction.sol\":2604:2628  auction.providers.length */\n      dup1\n      sload\n      swap1\n      pop\n        /* \"Smart Contract/ReverseAuction.sol\":2604:2632  auction.providers.length > 0 */\n      gt\n        /* \"Smart Contract/ReverseAuction.sol\":2596:2659  require(auction.providers.length > 0, \"Auction does not exist\") */\n      tag_115\n      jumpi\n      mload(0x40)\n      0x08c379a000000000000000000000000000000000000000000000000000000000\n      dup2\n      mstore\n      0x04\n      add\n      tag_116\n      swap1\n      tag_100\n      jump\t// in\n    tag_116:\n      mload(0x40)\n      dup1\n      swap2\n      sub\n      swap1\n      revert\n    tag_115:\n        /* \"Smart Contract/ReverseAuction.sol\":2678:2685  auction */\n      dup1\n        /* \"Smart Contract/ReverseAuction.sol\":2678:2694  auction.features */\n      0x00\n      add\n        /* \"Smart Contract/ReverseAuction.sol\":2696:2703  auction */\n      dup2\n        /* \"Smart Contract/ReverseAuction.sol\":2696:2712  auction.duration */\n      0x01\n      add\n      sload\n        /* \"Smart Contract/ReverseAuction.sol\":2714:2721  auction */\n      dup3\n        /* \"Smart Contract/ReverseAuction.sol\":2714:2734  auction.auctionEnded */\n      0x03\n      add\n      0x00\n      swap1\n      sload\n      swap1\n      0x0100\n      exp\n      swap1\n      div\n      0xff\n      and\n        /* \"Smart Contract/ReverseAuction.sol\":2736:2743  auction */\n      dup4\n        /* \"Smart Contract/ReverseAuction.sol\":2736:2750  auction.winner */\n      0x03\n      add\n      0x01\n      swap1\n      sload\n      swap1\n      0x0100\n      exp\n      swap1\n      div\n      0xffffffffffffffffffffffffffffffffffffffff\n      and\n        /* \"Smart Contract/ReverseAuction.sol\":2752:2759  auction */\n      dup5\n        /* \"Smart Contract/ReverseAuction.sol\":2752:2769  auction.lowestBid */\n      0x04\n      add\n      sload\n        /* \"Smart Contract/ReverseAuction.sol\":2670:2770  return (auction.features, auction.duration, auction.auctionEnded, auction.winner, auction.lowestBid) */\n      dup5\n      dup1\n      sload\n      tag_117\n      swap1\n      tag_77\n      jump\t// in\n    tag_117:\n      dup1\n      0x1f\n      add\n      0x20\n      dup1\n      swap2\n      div\n      mul\n      0x20\n      add\n      mload(0x40)\n      swap1\n      dup2\n      add\n      0x40\n      mstore\n      dup1\n      swap3\n      swap2\n      swap1\n      dup2\n      dup2\n      mstore\n      0x20\n      add\n      dup3\n      dup1\n      sload\n      tag_118\n      swap1\n      tag_77\n      jump\t// in\n    tag_118:\n      dup1\n      iszero\n      tag_119\n      jumpi\n      dup1\n      0x1f\n      lt\n      tag_120\n      jumpi\n      0x0100\n      dup1\n      dup4\n      sload\n      div\n      mul\n      dup4\n      mstore\n      swap2\n      0x20\n      add\n      swap2\n      jump(tag_119)\n    tag_120:\n      dup3\n      add\n      swap2\n      swap1\n      0x00\n      mstore\n      keccak256(0x00, 0x20)\n      swap1\n    tag_121:\n      dup2\n      sload\n      dup2\n      mstore\n      swap1\n      0x01\n      add\n      swap1\n      0x20\n      add\n      dup1\n      dup4\n      gt\n      tag_121\n      jumpi\n      dup3\n      swap1\n      sub\n      0x1f\n      and\n      dup3\n      add\n      swap2\n    tag_119:\n      pop\n      pop\n      pop\n      pop\n      pop\n      swap5\n      pop\n      swap6\n      pop\n      swap6\n      pop\n      swap6\n      pop\n      swap6\n      pop\n      swap6\n      pop\n      pop\n        /* \"Smart Contract/ReverseAuction.sol\":2384:2777  function getAuctionDetails(address consumer) external view onlyRegisteredWithTokenIdentity returns (string memory, uint256, bool, address, uint256) {... */\n      swap2\n      swap4\n      swap6\n      swap1\n      swap3\n      swap5\n      pop\n      jump\t// out\n        /* \"Smart Contract/ReverseAuction.sol\":855:1221  function startAuction(string memory features, uint256 duration) external onlyRegisteredWithTokenIdentity {... */\n    tag_49:\n        /* \"Smart Contract/ReverseAuction.sol\":662:671  consumers */\n      0x01\n        /* \"Smart Contract/ReverseAuction.sol\":662:683  consumers[msg.sender] */\n      0x00\n        /* \"Smart Contract/ReverseAuction.sol\":672:682  msg.sender */\n      caller\n        /* \"Smart Contract/ReverseAuction.sol\":662:683  consumers[msg.sender] */\n      0xffffffffffffffffffffffffffffffffffffffff\n      and\n      0xffffffffffffffffffffffffffffffffffffffff\n      and\n      dup2\n      mstore\n      0x20\n      add\n      swap1\n      dup2\n      mstore\n      0x20\n      add\n      0x00\n      keccak256\n        /* \"Smart Contract/ReverseAuction.sol\":662:696  consumers[msg.sender].isRegistered */\n      0x00\n      add\n      0x00\n      swap1\n      sload\n      swap1\n      0x0100\n      exp\n      swap1\n      div\n      0xff\n      and\n        /* \"Smart Contract/ReverseAuction.sol\":662:734  consumers[msg.sender].isRegistered || providers[msg.sender].isRegistered */\n      dup1\n      tag_123\n      jumpi\n      pop\n        /* \"Smart Contract/ReverseAuction.sol\":700:709  providers */\n      0x00\n        /* \"Smart Contract/ReverseAuction.sol\":700:721  providers[msg.sender] */\n      dup1\n        /* \"Smart Contract/ReverseAuction.sol\":710:720  msg.sender */\n      caller\n        /* \"Smart Contract/ReverseAuction.sol\":700:721  providers[msg.sender] */\n      0xffffffffffffffffffffffffffffffffffffffff\n      and\n      0xffffffffffffffffffffffffffffffffffffffff\n      and\n      dup2\n      mstore\n      0x20\n      add\n      swap1\n      dup2\n      mstore\n      0x20\n      add\n      0x00\n      keccak256\n        /* \"Smart Contract/ReverseAuction.sol\":700:734  providers[msg.sender].isRegistered */\n      0x03\n      add\n      0x00\n      swap1\n      sload\n      swap1\n      0x0100\n      exp\n      swap1\n      div\n      0xff\n      and\n        /* \"Smart Contract/ReverseAuction.sol\":662:734  consumers[msg.sender].isRegistered || providers[msg.sender].isRegistered */\n    tag_123:\n        /* \"Smart Contract/ReverseAuction.sol\":641:831  require(... */\n      tag_124\n      jumpi\n      mload(0x40)\n      0x08c379a000000000000000000000000000000000000000000000000000000000\n      dup2\n      mstore\n      0x04\n      add\n      tag_125\n      swap1\n      tag_96\n      jump\t// in\n    tag_125:\n      mload(0x40)\n      dup1\n      swap2\n      sub\n      swap1\n      revert\n    tag_124:\n        /* \"Smart Contract/ReverseAuction.sol\":978:987  consumers */\n      0x01\n        /* \"Smart Contract/ReverseAuction.sol\":978:999  consumers[msg.sender] */\n      0x00\n        /* \"Smart Contract/ReverseAuction.sol\":988:998  msg.sender */\n      caller\n        /* \"Smart Contract/ReverseAuction.sol\":978:999  consumers[msg.sender] */\n      0xffffffffffffffffffffffffffffffffffffffff\n      and\n      0xffffffffffffffffffffffffffffffffffffffff\n      and\n      dup2\n      mstore\n      0x20\n      add\n      swap1\n      dup2\n      mstore\n      0x20\n      add\n      0x00\n      keccak256\n        /* \"Smart Contract/ReverseAuction.sol\":978:1012  consumers[msg.sender].isRegistered */\n      0x00\n      add\n      0x00\n      swap1\n      sload\n      swap1\n      0x0100\n      exp\n      swap1\n      div\n      0xff\n      and\n        /* \"Smart Contract/ReverseAuction.sol\":970:1052  require(consumers[msg.sender].isRegistered, \"Only consumers can start an auction\") */\n      tag_127\n      jumpi\n      mload(0x40)\n      0x08c379a000000000000000000000000000000000000000000000000000000000\n      dup2\n      mstore\n      0x04\n      add\n      tag_128\n      swap1\n      tag_129\n      jump\t// in\n    tag_128:\n      mload(0x40)\n      dup1\n      swap2\n      sub\n      swap1\n      revert\n    tag_127:\n        /* \"Smart Contract/ReverseAuction.sol\":1086:1153  Auction(features, duration, new address[](0), false, address(0), 0) */\n      mload(0x40)\n      dup1\n      0xc0\n      add\n      0x40\n      mstore\n      dup1\n        /* \"Smart Contract/ReverseAuction.sol\":1094:1102  features */\n      dup4\n        /* \"Smart Contract/ReverseAuction.sol\":1086:1153  Auction(features, duration, new address[](0), false, address(0), 0) */\n      dup2\n      mstore\n      0x20\n      add\n        /* \"Smart Contract/ReverseAuction.sol\":1104:1112  duration */\n      dup3\n        /* \"Smart Contract/ReverseAuction.sol\":1086:1153  Auction(features, duration, new address[](0), false, address(0), 0) */\n      dup2\n      mstore\n      0x20\n      add\n        /* \"Smart Contract/ReverseAuction.sol\":1128:1129  0 */\n      0x00\n        /* \"Smart Contract/ReverseAuction.sol\":1114:1130  new address[](0) */\n      0xffffffffffffffff\n      dup2\n      gt\n      iszero\n      tag_130\n      jumpi\n      tag_131\n      tag_132\n      jump\t// in\n    tag_131:\n    tag_130:\n      mload(0x40)\n      swap1\n      dup1\n      dup3\n      mstore\n      dup1\n      0x20\n      mul\n      0x20\n      add\n      dup3\n      add\n      0x40\n      mstore\n      dup1\n      iszero\n      tag_133\n      jumpi\n      dup2\n      0x20\n      add\n      0x20\n      dup3\n      mul\n      dup1\n      calldatasize\n      dup4\n      calldatacopy\n      dup1\n      dup3\n      add\n      swap2\n      pop\n      pop\n      swap1\n      pop\n    tag_133:\n      pop\n        /* \"Smart Contract/ReverseAuction.sol\":1086:1153  Auction(features, duration, new address[](0), false, address(0), 0) */\n      dup2\n      mstore\n      0x20\n      add\n        /* \"Smart Contract/ReverseAuction.sol\":1132:1137  false */\n      0x00\n        /* \"Smart Contract/ReverseAuction.sol\":1086:1153  Auction(features, duration, new address[](0), false, address(0), 0) */\n      iszero\n      iszero\n      dup2\n      mstore\n      0x20\n      add\n        /* \"Smart Contract/ReverseAuction.sol\":1147:1148  0 */\n      0x00\n        /* \"Smart Contract/ReverseAuction.sol\":1086:1153  Auction(features, duration, new address[](0), false, address(0), 0) */\n      0xffffffffffffffffffffffffffffffffffffffff\n      and\n      dup2\n      mstore\n      0x20\n      add\n        /* \"Smart Contract/ReverseAuction.sol\":1151:1152  0 */\n      0x00\n        /* \"Smart Contract/ReverseAuction.sol\":1086:1153  Auction(features, duration, new address[](0), false, address(0), 0) */\n      dup2\n      mstore\n      pop\n        /* \"Smart Contract/ReverseAuction.sol\":1063:1071  auctions */\n      0x02\n        /* \"Smart Contract/ReverseAuction.sol\":1063:1083  auctions[msg.sender] */\n      0x00\n        /* \"Smart Contract/ReverseAuction.sol\":1072:1082  msg.sender */\n      caller\n        /* \"Smart Contract/ReverseAuction.sol\":1063:1083  auctions[msg.sender] */\n      0xffffffffffffffffffffffffffffffffffffffff\n      and\n      0xffffffffffffffffffffffffffffffffffffffff\n      and\n      dup2\n      mstore\n      0x20\n      add\n      swap1\n      dup2\n      mstore\n      0x20\n      add\n      0x00\n      keccak256\n        /* \"Smart Contract/ReverseAuction.sol\":1063:1153  auctions[msg.sender] = Auction(features, duration, new address[](0), false, address(0), 0) */\n      0x00\n      dup3\n      add\n      mload\n      dup2\n      0x00\n      add\n      swap1\n      dup2\n      tag_134\n      swap2\n      swap1\n      tag_135\n      jump\t// in\n    tag_134:\n      pop\n      0x20\n      dup3\n      add\n      mload\n      dup2\n      0x01\n      add\n      sstore\n      0x40\n      dup3\n      add\n      mload\n      dup2\n      0x02\n      add\n      swap1\n      dup1\n      mload\n      swap1\n      0x20\n      add\n      swap1\n      tag_136\n      swap3\n      swap2\n      swap1\n      tag_137\n      jump\t// in\n    tag_136:\n      pop\n      0x60\n      dup3\n      add\n      mload\n      dup2\n      0x03\n      add\n      exp(0x0100, 0x00)\n      dup2\n      sload\n      dup2\n      0xff\n      mul\n      not\n      and\n      swap1\n      dup4\n      iszero\n      iszero\n      mul\n      or\n      swap1\n      sstore\n      pop\n      0x80\n      dup3\n      add\n      mload\n      dup2\n      0x03\n      add\n      exp(0x0100, 0x01)\n      dup2\n      sload\n      dup2\n      0xffffffffffffffffffffffffffffffffffffffff\n      mul\n      not\n      and\n      swap1\n      dup4\n      0xffffffffffffffffffffffffffffffffffffffff\n      and\n      mul\n      or\n      swap1\n      sstore\n      pop\n      0xa0\n      dup3\n      add\n      mload\n      dup2\n      0x04\n      add\n      sstore\n      swap1\n      pop\n      pop\n        /* \"Smart Contract/ReverseAuction.sol\":1168:1214  AuctionStarted(msg.sender, features, duration) */\n      0x3842f077057074c5b505a9e77a772028d7808b38c902ff35febc0ea170498b41\n        /* \"Smart Contract/ReverseAuction.sol\":1183:1193  msg.sender */\n      caller\n        /* \"Smart Contract/ReverseAuction.sol\":1195:1203  features */\n      dup4\n        /* \"Smart Contract/ReverseAuction.sol\":1205:1213  duration */\n      dup4\n        /* \"Smart Contract/ReverseAuction.sol\":1168:1214  AuctionStarted(msg.sender, features, duration) */\n      mload(0x40)\n      tag_138\n      swap4\n      swap3\n      swap2\n      swap1\n      tag_139\n      jump\t// in\n    tag_138:\n      mload(0x40)\n      dup1\n      swap2\n      sub\n      swap1\n      log1\n        /* \"Smart Contract/ReverseAuction.sol\":855:1221  function startAuction(string memory features, uint256 duration) external onlyRegisteredWithTokenIdentity {... */\n      pop\n      pop\n      jump\t// out\n        /* \"Smart Contract/DecentralizedMarketplace.sol\":3005:3814  function purchaseService(address providerAddress) external payable onlyRegisteredConsumer {... */\n    tag_52:\n        /* \"Smart Contract/DecentralizedMarketplace.sol\":971:980  consumers */\n      0x01\n        /* \"Smart Contract/DecentralizedMarketplace.sol\":971:992  consumers[msg.sender] */\n      0x00\n        /* \"Smart Contract/DecentralizedMarketplace.sol\":981:991  msg.sender */\n      caller\n        /* \"Smart Contract/DecentralizedMarketplace.sol\":971:992  consumers[msg.sender] */\n      0xffffffffffffffffffffffffffffffffffffffff\n      and\n      0xffffffffffffffffffffffffffffffffffffffff\n      and\n      dup2\n      mstore\n      0x20\n      add\n      swap1\n      dup2\n      mstore\n      0x20\n      add\n      0x00\n      keccak256\n        /* \"Smart Contract/DecentralizedMarketplace.sol\":971:1005  consumers[msg.sender].isRegistered */\n      0x00\n      add\n      0x00\n      swap1\n      sload\n      swap1\n      0x0100\n      exp\n      swap1\n      div\n      0xff\n      and\n        /* \"Smart Contract/DecentralizedMarketplace.sol\":963:1065  require(consumers[msg.sender].isRegistered, \"Only registered consumers can access this functionality\") */\n      tag_141\n      jumpi\n      mload(0x40)\n      0x08c379a000000000000000000000000000000000000000000000000000000000\n      dup2\n      mstore\n      0x04\n      add\n      tag_142\n      swap1\n      tag_143\n      jump\t// in\n    tag_142:\n      mload(0x40)\n      dup1\n      swap2\n      sub\n      swap1\n      revert\n    tag_141:\n        /* \"Smart Contract/DecentralizedMarketplace.sol\":3105:3130  Provider storage provider */\n      0x00\n        /* \"Smart Contract/DecentralizedMarketplace.sol\":3133:3142  providers */\n      dup1\n        /* \"Smart Contract/DecentralizedMarketplace.sol\":3133:3159  providers[providerAddress] */\n      0x00\n        /* \"Smart Contract/DecentralizedMarketplace.sol\":3143:3158  providerAddress */\n      dup4\n        /* \"Smart Contract/DecentralizedMarketplace.sol\":3133:3159  providers[providerAddress] */\n      0xffffffffffffffffffffffffffffffffffffffff\n      and\n      0xffffffffffffffffffffffffffffffffffffffff\n      and\n      dup2\n      mstore\n      0x20\n      add\n      swap1\n      dup2\n      mstore\n      0x20\n      add\n      0x00\n      keccak256\n        /* \"Smart Contract/DecentralizedMarketplace.sol\":3105:3159  Provider storage provider = providers[providerAddress] */\n      swap1\n      pop\n        /* \"Smart Contract/DecentralizedMarketplace.sol\":3169:3194  Consumer storage consumer */\n      0x00\n        /* \"Smart Contract/DecentralizedMarketplace.sol\":3197:3206  consumers */\n      0x01\n        /* \"Smart Contract/DecentralizedMarketplace.sol\":3197:3218  consumers[msg.sender] */\n      0x00\n        /* \"Smart Contract/DecentralizedMarketplace.sol\":3207:3217  msg.sender */\n      caller\n        /* \"Smart Contract/DecentralizedMarketplace.sol\":3197:3218  consumers[msg.sender] */\n      0xffffffffffffffffffffffffffffffffffffffff\n      and\n      0xffffffffffffffffffffffffffffffffffffffff\n      and\n      dup2\n      mstore\n      0x20\n      add\n      swap1\n      dup2\n      mstore\n      0x20\n      add\n      0x00\n      keccak256\n        /* \"Smart Contract/DecentralizedMarketplace.sol\":3169:3218  Consumer storage consumer = consumers[msg.sender] */\n      swap1\n      pop\n        /* \"Smart Contract/DecentralizedMarketplace.sol\":3237:3245  provider */\n      dup2\n        /* \"Smart Contract/DecentralizedMarketplace.sol\":3237:3258  provider.isRegistered */\n      0x03\n      add\n      0x00\n      swap1\n      sload\n      swap1\n      0x0100\n      exp\n      swap1\n      div\n      0xff\n      and\n        /* \"Smart Contract/DecentralizedMarketplace.sol\":3229:3289  require(provider.isRegistered, \"Provider is not registered\") */\n      tag_145\n      jumpi\n      mload(0x40)\n      0x08c379a000000000000000000000000000000000000000000000000000000000\n      dup2\n      mstore\n      0x04\n      add\n      tag_146\n      swap1\n      tag_147\n      jump\t// in\n    tag_146:\n      mload(0x40)\n      dup1\n      swap2\n      sub\n      swap1\n      revert\n    tag_145:\n        /* \"Smart Contract/DecentralizedMarketplace.sol\":3307:3315  provider */\n      dup2\n        /* \"Smart Contract/DecentralizedMarketplace.sol\":3307:3334  provider.isServiceAvailable */\n      0x03\n      add\n      0x01\n      swap1\n      sload\n      swap1\n      0x0100\n      exp\n      swap1\n      div\n      0xff\n      and\n        /* \"Smart Contract/DecentralizedMarketplace.sol\":3299:3363  require(provider.isServiceAvailable, \"Service is not available\") */\n      tag_148\n      jumpi\n      mload(0x40)\n      0x08c379a000000000000000000000000000000000000000000000000000000000\n      dup2\n      mstore\n      0x04\n      add\n      tag_149\n      swap1\n      tag_150\n      jump\t// in\n    tag_149:\n      mload(0x40)\n      dup1\n      swap2\n      sub\n      swap1\n      revert\n    tag_148:\n        /* \"Smart Contract/DecentralizedMarketplace.sol\":3382:3390  consumer */\n      dup1\n        /* \"Smart Contract/DecentralizedMarketplace.sol\":3382:3403  consumer.hasPurchased */\n      0x00\n      add\n      0x01\n      swap1\n      sload\n      swap1\n      0x0100\n      exp\n      swap1\n      div\n      0xff\n      and\n        /* \"Smart Contract/DecentralizedMarketplace.sol\":3381:3403  !consumer.hasPurchased */\n      iszero\n        /* \"Smart Contract/DecentralizedMarketplace.sol\":3373:3448  require(!consumer.hasPurchased, \"Consumer has already purchased a service\") */\n      tag_151\n      jumpi\n      mload(0x40)\n      0x08c379a000000000000000000000000000000000000000000000000000000000\n      dup2\n      mstore\n      0x04\n      add\n      tag_152\n      swap1\n      tag_153\n      jump\t// in\n    tag_152:\n      mload(0x40)\n      dup1\n      swap2\n      sub\n      swap1\n      revert\n    tag_151:\n        /* \"Smart Contract/DecentralizedMarketplace.sol\":3479:3487  provider */\n      dup2\n        /* \"Smart Contract/DecentralizedMarketplace.sol\":3479:3493  provider.price */\n      0x02\n      add\n      sload\n        /* \"Smart Contract/DecentralizedMarketplace.sol\":3466:3475  msg.value */\n      callvalue\n        /* \"Smart Contract/DecentralizedMarketplace.sol\":3466:3493  msg.value >= provider.price */\n      lt\n      iszero\n        /* \"Smart Contract/DecentralizedMarketplace.sol\":3458:3518  require(msg.value >= provider.price, \"Insufficient payment\") */\n      tag_154\n      jumpi\n      mload(0x40)\n      0x08c379a000000000000000000000000000000000000000000000000000000000\n      dup2\n      mstore\n      0x04\n      add\n      tag_155\n      swap1\n      tag_156\n      jump\t// in\n    tag_155:\n      mload(0x40)\n      dup1\n      swap2\n      sub\n      swap1\n      revert\n    tag_154:\n        /* \"Smart Contract/DecentralizedMarketplace.sol\":3529:3537  provider */\n      dup2\n        /* \"Smart Contract/DecentralizedMarketplace.sol\":3529:3547  provider.consumers */\n      0x04\n      add\n        /* \"Smart Contract/DecentralizedMarketplace.sol\":3553:3563  msg.sender */\n      caller\n        /* \"Smart Contract/DecentralizedMarketplace.sol\":3529:3564  provider.consumers.push(msg.sender) */\n      swap1\n      dup1\n      0x01\n      dup2\n      sload\n      add\n      dup1\n      dup3\n      sstore\n      dup1\n      swap2\n      pop\n      pop\n      0x01\n      swap1\n      sub\n      swap1\n      0x00\n      mstore\n      keccak256(0x00, 0x20)\n      add\n      0x00\n      swap1\n      swap2\n      swap1\n      swap2\n      swap1\n      swap2\n      0x0100\n      exp\n      dup2\n      sload\n      dup2\n      0xffffffffffffffffffffffffffffffffffffffff\n      mul\n      not\n      and\n      swap1\n      dup4\n      0xffffffffffffffffffffffffffffffffffffffff\n      and\n      mul\n      or\n      swap1\n      sstore\n      pop\n        /* \"Smart Contract/DecentralizedMarketplace.sol\":3601:3616  providerAddress */\n      dup3\n        /* \"Smart Contract/DecentralizedMarketplace.sol\":3574:3582  consumer */\n      dup2\n        /* \"Smart Contract/DecentralizedMarketplace.sol\":3574:3598  consumer.providerAddress */\n      0x01\n      add\n      0x00\n        /* \"Smart Contract/DecentralizedMarketplace.sol\":3574:3616  consumer.providerAddress = providerAddress */\n      0x0100\n      exp\n      dup2\n      sload\n      dup2\n      0xffffffffffffffffffffffffffffffffffffffff\n      mul\n      not\n      and\n      swap1\n      dup4\n      0xffffffffffffffffffffffffffffffffffffffff\n      and\n      mul\n      or\n      swap1\n      sstore\n      pop\n        /* \"Smart Contract/DecentralizedMarketplace.sol\":3650:3654  true */\n      0x01\n        /* \"Smart Contract/DecentralizedMarketplace.sol\":3626:3634  consumer */\n      dup2\n        /* \"Smart Contract/DecentralizedMarketplace.sol\":3626:3647  consumer.hasPurchased */\n      0x00\n      add\n      0x01\n        /* \"Smart Contract/DecentralizedMarketplace.sol\":3626:3654  consumer.hasPurchased = true */\n      0x0100\n      exp\n      dup2\n      sload\n      dup2\n      0xff\n      mul\n      not\n      and\n      swap1\n      dup4\n      iszero\n      iszero\n      mul\n      or\n      swap1\n      sstore\n      pop\n        /* \"Smart Contract/DecentralizedMarketplace.sol\":3673:3688  providerAddress */\n      dup3\n        /* \"Smart Contract/DecentralizedMarketplace.sol\":3665:3698  payable(providerAddress).transfer */\n      0xffffffffffffffffffffffffffffffffffffffff\n      and\n        /* \"Smart Contract/DecentralizedMarketplace.sol\":3665:3709  payable(providerAddress).transfer(msg.value) */\n      0x08fc\n        /* \"Smart Contract/DecentralizedMarketplace.sol\":3699:3708  msg.value */\n      callvalue\n        /* \"Smart Contract/DecentralizedMarketplace.sol\":3665:3709  payable(providerAddress).transfer(msg.value) */\n      swap1\n      dup2\n      iszero\n      mul\n      swap1\n      mload(0x40)\n      0x00\n      mload(0x40)\n      dup1\n      dup4\n      sub\n      dup2\n      dup6\n      dup9\n      dup9\n      call\n      swap4\n      pop\n      pop\n      pop\n      pop\n      iszero\n      dup1\n      iszero\n      tag_159\n      jumpi\n      returndatasize\n      0x00\n      dup1\n      returndatacopy\n      revert(0x00, returndatasize)\n    tag_159:\n      pop\n        /* \"Smart Contract/DecentralizedMarketplace.sol\":3724:3807  ServicePurchased(providerAddress, msg.sender, provider.serviceName, provider.price) */\n      0x1d535a21afe01218bf19b671abad59ebd9a84ec50622a8ebba23a41ea7e6e76e\n        /* \"Smart Contract/DecentralizedMarketplace.sol\":3741:3756  providerAddress */\n      dup4\n        /* \"Smart Contract/DecentralizedMarketplace.sol\":3758:3768  msg.sender */\n      caller\n        /* \"Smart Contract/DecentralizedMarketplace.sol\":3770:3778  provider */\n      dup5\n        /* \"Smart Contract/DecentralizedMarketplace.sol\":3770:3790  provider.serviceName */\n      0x00\n      add\n        /* \"Smart Contract/DecentralizedMarketplace.sol\":3792:3800  provider */\n      dup6\n        /* \"Smart Contract/DecentralizedMarketplace.sol\":3792:3806  provider.price */\n      0x02\n      add\n      sload\n        /* \"Smart Contract/DecentralizedMarketplace.sol\":3724:3807  ServicePurchased(providerAddress, msg.sender, provider.serviceName, provider.price) */\n      mload(0x40)\n      tag_160\n      swap5\n      swap4\n      swap3\n      swap2\n      swap1\n      tag_161\n      jump\t// in\n    tag_160:\n      mload(0x40)\n      dup1\n      swap2\n      sub\n      swap1\n      log1\n        /* \"Smart Contract/DecentralizedMarketplace.sol\":3095:3814  {... */\n      pop\n      pop\n        /* \"Smart Contract/DecentralizedMarketplace.sol\":3005:3814  function purchaseService(address providerAddress) external payable onlyRegisteredConsumer {... */\n      pop\n      jump\t// out\n        /* \"Smart Contract/DecentralizedMarketplace.sol\":1490:1747  function registerConsumer() external {... */\n    tag_55:\n        /* \"Smart Contract/DecentralizedMarketplace.sol\":1546:1555  consumers */\n      0x01\n        /* \"Smart Contract/DecentralizedMarketplace.sol\":1546:1567  consumers[msg.sender] */\n      0x00\n        /* \"Smart Contract/DecentralizedMarketplace.sol\":1556:1566  msg.sender */\n      caller\n        /* \"Smart Contract/DecentralizedMarketplace.sol\":1546:1567  consumers[msg.sender] */\n      0xffffffffffffffffffffffffffffffffffffffff\n      and\n      0xffffffffffffffffffffffffffffffffffffffff\n      and\n      dup2\n      mstore\n      0x20\n      add\n      swap1\n      dup2\n      mstore\n      0x20\n      add\n      0x00\n      keccak256\n        /* \"Smart Contract/DecentralizedMarketplace.sol\":1546:1580  consumers[msg.sender].isRegistered */\n      0x00\n      add\n      0x00\n      swap1\n      sload\n      swap1\n      0x0100\n      exp\n      swap1\n      div\n      0xff\n      and\n        /* \"Smart Contract/DecentralizedMarketplace.sol\":1545:1580  !consumers[msg.sender].isRegistered */\n      iszero\n        /* \"Smart Contract/DecentralizedMarketplace.sol\":1537:1615  require(!consumers[msg.sender].isRegistered, \"Consumer is already registered\") */\n      tag_163\n      jumpi\n      mload(0x40)\n      0x08c379a000000000000000000000000000000000000000000000000000000000\n      dup2\n      mstore\n      0x04\n      add\n      tag_164\n      swap1\n      tag_165\n      jump\t// in\n    tag_164:\n      mload(0x40)\n      dup1\n      swap2\n      sub\n      swap1\n      revert\n    tag_163:\n        /* \"Smart Contract/DecentralizedMarketplace.sol\":1650:1695  Consumer(true, false, msg.sender, address(0)) */\n      mload(0x40)\n      dup1\n      0x80\n      add\n      0x40\n      mstore\n      dup1\n        /* \"Smart Contract/DecentralizedMarketplace.sol\":1659:1663  true */\n      0x01\n        /* \"Smart Contract/DecentralizedMarketplace.sol\":1650:1695  Consumer(true, false, msg.sender, address(0)) */\n      iszero\n      iszero\n      dup2\n      mstore\n      0x20\n      add\n        /* \"Smart Contract/DecentralizedMarketplace.sol\":1665:1670  false */\n      0x00\n        /* \"Smart Contract/DecentralizedMarketplace.sol\":1650:1695  Consumer(true, false, msg.sender, address(0)) */\n      iszero\n      iszero\n      dup2\n      mstore\n      0x20\n      add\n        /* \"Smart Contract/DecentralizedMarketplace.sol\":1672:1682  msg.sender */\n      caller\n        /* \"Smart Contract/DecentralizedMarketplace.sol\":1650:1695  Consumer(true, false, msg.sender, address(0)) */\n      0xffffffffffffffffffffffffffffffffffffffff\n      and\n      dup2\n      mstore\n      0x20\n      add\n        /* \"Smart Contract/DecentralizedMarketplace.sol\":1692:1693  0 */\n      0x00\n        /* \"Smart Contract/DecentralizedMarketplace.sol\":1650:1695  Consumer(true, false, msg.sender, address(0)) */\n      0xffffffffffffffffffffffffffffffffffffffff\n      and\n      dup2\n      mstore\n      pop\n        /* \"Smart Contract/DecentralizedMarketplace.sol\":1626:1635  consumers */\n      0x01\n        /* \"Smart Contract/DecentralizedMarketplace.sol\":1626:1647  consumers[msg.sender] */\n      0x00\n        /* \"Smart Contract/DecentralizedMarketplace.sol\":1636:1646  msg.sender */\n      caller\n        /* \"Smart Contract/DecentralizedMarketplace.sol\":1626:1647  consumers[msg.sender] */\n      0xffffffffffffffffffffffffffffffffffffffff\n      and\n      0xffffffffffffffffffffffffffffffffffffffff\n      and\n      dup2\n      mstore\n      0x20\n      add\n      swap1\n      dup2\n      mstore\n      0x20\n      add\n      0x00\n      keccak256\n        /* \"Smart Contract/DecentralizedMarketplace.sol\":1626:1695  consumers[msg.sender] = Consumer(true, false, msg.sender, address(0)) */\n      0x00\n      dup3\n      add\n      mload\n      dup2\n      0x00\n      add\n      exp(0x0100, 0x00)\n      dup2\n      sload\n      dup2\n      0xff\n      mul\n      not\n      and\n      swap1\n      dup4\n      iszero\n      iszero\n      mul\n      or\n      swap1\n      sstore\n      pop\n      0x20\n      dup3\n      add\n      mload\n      dup2\n      0x00\n      add\n      exp(0x0100, 0x01)\n      dup2\n      sload\n      dup2\n      0xff\n      mul\n      not\n      and\n      swap1\n      dup4\n      iszero\n      iszero\n      mul\n      or\n      swap1\n      sstore\n      pop\n      0x40\n      dup3\n      add\n      mload\n      dup2\n      0x00\n      add\n      exp(0x0100, 0x02)\n      dup2\n      sload\n      dup2\n      0xffffffffffffffffffffffffffffffffffffffff\n      mul\n      not\n      and\n      swap1\n      dup4\n      0xffffffffffffffffffffffffffffffffffffffff\n      and\n      mul\n      or\n      swap1\n      sstore\n      pop\n      0x60\n      dup3\n      add\n      mload\n      dup2\n      0x01\n      add\n      exp(0x0100, 0x00)\n      dup2\n      sload\n      dup2\n      0xffffffffffffffffffffffffffffffffffffffff\n      mul\n      not\n      and\n      swap1\n      dup4\n      0xffffffffffffffffffffffffffffffffffffffff\n      and\n      mul\n      or\n      swap1\n      sstore\n      pop\n      swap1\n      pop\n      pop\n        /* \"Smart Contract/DecentralizedMarketplace.sol\":1710:1740  ConsumerRegistered(msg.sender) */\n      0x20f06cf92183fb3bd87d074ec788beb83367293faf2388c274b4bad9aecae725\n        /* \"Smart Contract/DecentralizedMarketplace.sol\":1729:1739  msg.sender */\n      caller\n        /* \"Smart Contract/DecentralizedMarketplace.sol\":1710:1740  ConsumerRegistered(msg.sender) */\n      mload(0x40)\n      tag_166\n      swap2\n      swap1\n      tag_167\n      jump\t// in\n    tag_166:\n      mload(0x40)\n      dup1\n      swap2\n      sub\n      swap1\n      log1\n        /* \"Smart Contract/DecentralizedMarketplace.sol\":1490:1747  function registerConsumer() external {... */\n      jump\t// out\n        /* \"Smart Contract/DecentralizedMarketplace.sol\":3820:4356  function acceptOffer(address consumerAddress) external onlyRegisteredProvider {... */\n    tag_59:\n        /* \"Smart Contract/DecentralizedMarketplace.sol\":1141:1150  providers */\n      0x00\n        /* \"Smart Contract/DecentralizedMarketplace.sol\":1141:1162  providers[msg.sender] */\n      dup1\n        /* \"Smart Contract/DecentralizedMarketplace.sol\":1151:1161  msg.sender */\n      caller\n        /* \"Smart Contract/DecentralizedMarketplace.sol\":1141:1162  providers[msg.sender] */\n      0xffffffffffffffffffffffffffffffffffffffff\n      and\n      0xffffffffffffffffffffffffffffffffffffffff\n      and\n      dup2\n      mstore\n      0x20\n      add\n      swap1\n      dup2\n      mstore\n      0x20\n      add\n      0x00\n      keccak256\n        /* \"Smart Contract/DecentralizedMarketplace.sol\":1141:1175  providers[msg.sender].isRegistered */\n      0x03\n      add\n      0x00\n      swap1\n      sload\n      swap1\n      0x0100\n      exp\n      swap1\n      div\n      0xff\n      and\n        /* \"Smart Contract/DecentralizedMarketplace.sol\":1133:1235  require(providers[msg.sender].isRegistered, \"Only registered providers can access this functionality\") */\n      tag_169\n      jumpi\n      mload(0x40)\n      0x08c379a000000000000000000000000000000000000000000000000000000000\n      dup2\n      mstore\n      0x04\n      add\n      tag_170\n      swap1\n      tag_171\n      jump\t// in\n    tag_170:\n      mload(0x40)\n      dup1\n      swap2\n      sub\n      swap1\n      revert\n    tag_169:\n        /* \"Smart Contract/DecentralizedMarketplace.sol\":3908:3933  Consumer storage consumer */\n      0x00\n        /* \"Smart Contract/DecentralizedMarketplace.sol\":3936:3945  consumers */\n      0x01\n        /* \"Smart Contract/DecentralizedMarketplace.sol\":3936:3962  consumers[consumerAddress] */\n      0x00\n        /* \"Smart Contract/DecentralizedMarketplace.sol\":3946:3961  consumerAddress */\n      dup4\n        /* \"Smart Contract/DecentralizedMarketplace.sol\":3936:3962  consumers[consumerAddress] */\n      0xffffffffffffffffffffffffffffffffffffffff\n      and\n      0xffffffffffffffffffffffffffffffffffffffff\n      and\n      dup2\n      mstore\n      0x20\n      add\n      swap1\n      dup2\n      mstore\n      0x20\n      add\n      0x00\n      keccak256\n        /* \"Smart Contract/DecentralizedMarketplace.sol\":3908:3962  Consumer storage consumer = consumers[consumerAddress] */\n      swap1\n      pop\n        /* \"Smart Contract/DecentralizedMarketplace.sol\":3972:3997  Provider storage provider */\n      0x00\n        /* \"Smart Contract/DecentralizedMarketplace.sol\":4000:4009  providers */\n      dup1\n        /* \"Smart Contract/DecentralizedMarketplace.sol\":4000:4021  providers[msg.sender] */\n      0x00\n        /* \"Smart Contract/DecentralizedMarketplace.sol\":4010:4020  msg.sender */\n      caller\n        /* \"Smart Contract/DecentralizedMarketplace.sol\":4000:4021  providers[msg.sender] */\n      0xffffffffffffffffffffffffffffffffffffffff\n      and\n      0xffffffffffffffffffffffffffffffffffffffff\n      and\n      dup2\n      mstore\n      0x20\n      add\n      swap1\n      dup2\n      mstore\n      0x20\n      add\n      0x00\n      keccak256\n        /* \"Smart Contract/DecentralizedMarketplace.sol\":3972:4021  Provider storage provider = providers[msg.sender] */\n      swap1\n      pop\n        /* \"Smart Contract/DecentralizedMarketplace.sol\":4040:4048  consumer */\n      dup2\n        /* \"Smart Contract/DecentralizedMarketplace.sol\":4040:4061  consumer.isRegistered */\n      0x00\n      add\n      0x00\n      swap1\n      sload\n      swap1\n      0x0100\n      exp\n      swap1\n      div\n      0xff\n      and\n        /* \"Smart Contract/DecentralizedMarketplace.sol\":4032:4092  require(consumer.isRegistered, \"Consumer is not registered\") */\n      tag_173\n      jumpi\n      mload(0x40)\n      0x08c379a000000000000000000000000000000000000000000000000000000000\n      dup2\n      mstore\n      0x04\n      add\n      tag_174\n      swap1\n      tag_175\n      jump\t// in\n    tag_174:\n      mload(0x40)\n      dup1\n      swap2\n      sub\n      swap1\n      revert\n    tag_173:\n        /* \"Smart Contract/DecentralizedMarketplace.sol\":4138:4148  msg.sender */\n      caller\n        /* \"Smart Contract/DecentralizedMarketplace.sol\":4110:4148  provider.providerAddress == msg.sender */\n      0xffffffffffffffffffffffffffffffffffffffff\n      and\n        /* \"Smart Contract/DecentralizedMarketplace.sol\":4110:4118  provider */\n      dup2\n        /* \"Smart Contract/DecentralizedMarketplace.sol\":4110:4134  provider.providerAddress */\n      0x03\n      add\n      0x02\n      swap1\n      sload\n      swap1\n      0x0100\n      exp\n      swap1\n      div\n      0xffffffffffffffffffffffffffffffffffffffff\n      and\n        /* \"Smart Contract/DecentralizedMarketplace.sol\":4110:4148  provider.providerAddress == msg.sender */\n      0xffffffffffffffffffffffffffffffffffffffff\n      and\n      eq\n        /* \"Smart Contract/DecentralizedMarketplace.sol\":4102:4167  require(provider.providerAddress == msg.sender, \"Not authorized\") */\n      tag_176\n      jumpi\n      mload(0x40)\n      0x08c379a000000000000000000000000000000000000000000000000000000000\n      dup2\n      mstore\n      0x04\n      add\n      tag_177\n      swap1\n      tag_178\n      jump\t// in\n    tag_177:\n      mload(0x40)\n      dup1\n      swap2\n      sub\n      swap1\n      revert\n    tag_176:\n        /* \"Smart Contract/DecentralizedMarketplace.sol\":4182:4190  consumer */\n      dup2\n        /* \"Smart Contract/DecentralizedMarketplace.sol\":4182:4203  consumer.hasPurchased */\n      0x00\n      add\n      0x01\n      swap1\n      sload\n      swap1\n      0x0100\n      exp\n      swap1\n      div\n      0xff\n      and\n        /* \"Smart Contract/DecentralizedMarketplace.sol\":4178:4350  if (consumer.hasPurchased) {... */\n      iszero\n      tag_179\n      jumpi\n        /* \"Smart Contract/DecentralizedMarketplace.sol\":4249:4254  false */\n      0x00\n        /* \"Smart Contract/DecentralizedMarketplace.sol\":4219:4227  provider */\n      dup2\n        /* \"Smart Contract/DecentralizedMarketplace.sol\":4219:4246  provider.isServiceAvailable */\n      0x03\n      add\n      0x01\n        /* \"Smart Contract/DecentralizedMarketplace.sol\":4219:4254  provider.isServiceAvailable = false */\n      0x0100\n      exp\n      dup2\n      sload\n      dup2\n      0xff\n      mul\n      not\n      and\n      swap1\n      dup4\n      iszero\n      iszero\n      mul\n      or\n      swap1\n      sstore\n      pop\n        /* \"Smart Contract/DecentralizedMarketplace.sol\":4273:4339  ServiceRejected(msg.sender, consumerAddress, provider.serviceName) */\n      0x1dd2954a39bc3b38938d38ec872f7d0eb780f62cb4eac654cb83f3c62af02689\n        /* \"Smart Contract/DecentralizedMarketplace.sol\":4289:4299  msg.sender */\n      caller\n        /* \"Smart Contract/DecentralizedMarketplace.sol\":4301:4316  consumerAddress */\n      dup5\n        /* \"Smart Contract/DecentralizedMarketplace.sol\":4318:4326  provider */\n      dup4\n        /* \"Smart Contract/DecentralizedMarketplace.sol\":4318:4338  provider.serviceName */\n      0x00\n      add\n        /* \"Smart Contract/DecentralizedMarketplace.sol\":4273:4339  ServiceRejected(msg.sender, consumerAddress, provider.serviceName) */\n      mload(0x40)\n      tag_180\n      swap4\n      swap3\n      swap2\n      swap1\n      tag_181\n      jump\t// in\n    tag_180:\n      mload(0x40)\n      dup1\n      swap2\n      sub\n      swap1\n      log1\n        /* \"Smart Contract/DecentralizedMarketplace.sol\":4178:4350  if (consumer.hasPurchased) {... */\n    tag_179:\n        /* \"Smart Contract/DecentralizedMarketplace.sol\":3898:4356  {... */\n      pop\n      pop\n        /* \"Smart Contract/DecentralizedMarketplace.sol\":3820:4356  function acceptOffer(address consumerAddress) external onlyRegisteredProvider {... */\n      pop\n      jump\t// out\n        /* \"Smart Contract/DecentralizedMarketplace.sol\":2033:2482  function setIPFSHash(string memory hash) external onlyRegisteredConsumerOrProvider {... */\n    tag_64:\n        /* \"Smart Contract/DecentralizedMarketplace.sol\":1321:1330  consumers */\n      0x01\n        /* \"Smart Contract/DecentralizedMarketplace.sol\":1321:1342  consumers[msg.sender] */\n      0x00\n        /* \"Smart Contract/DecentralizedMarketplace.sol\":1331:1341  msg.sender */\n      caller\n        /* \"Smart Contract/DecentralizedMarketplace.sol\":1321:1342  consumers[msg.sender] */\n      0xffffffffffffffffffffffffffffffffffffffff\n      and\n      0xffffffffffffffffffffffffffffffffffffffff\n      and\n      dup2\n      mstore\n      0x20\n      add\n      swap1\n      dup2\n      mstore\n      0x20\n      add\n      0x00\n      keccak256\n        /* \"Smart Contract/DecentralizedMarketplace.sol\":1321:1355  consumers[msg.sender].isRegistered */\n      0x00\n      add\n      0x00\n      swap1\n      sload\n      swap1\n      0x0100\n      exp\n      swap1\n      div\n      0xff\n      and\n        /* \"Smart Contract/DecentralizedMarketplace.sol\":1321:1393  consumers[msg.sender].isRegistered || providers[msg.sender].isRegistered */\n      dup1\n      tag_183\n      jumpi\n      pop\n        /* \"Smart Contract/DecentralizedMarketplace.sol\":1359:1368  providers */\n      0x00\n        /* \"Smart Contract/DecentralizedMarketplace.sol\":1359:1380  providers[msg.sender] */\n      dup1\n        /* \"Smart Contract/DecentralizedMarketplace.sol\":1369:1379  msg.sender */\n      caller\n        /* \"Smart Contract/DecentralizedMarketplace.sol\":1359:1380  providers[msg.sender] */\n      0xffffffffffffffffffffffffffffffffffffffff\n      and\n      0xffffffffffffffffffffffffffffffffffffffff\n      and\n      dup2\n      mstore\n      0x20\n      add\n      swap1\n      dup2\n      mstore\n      0x20\n      add\n      0x00\n      keccak256\n        /* \"Smart Contract/DecentralizedMarketplace.sol\":1359:1393  providers[msg.sender].isRegistered */\n      0x03\n      add\n      0x00\n      swap1\n      sload\n      swap1\n      0x0100\n      exp\n      swap1\n      div\n      0xff\n      and\n        /* \"Smart Contract/DecentralizedMarketplace.sol\":1321:1393  consumers[msg.sender].isRegistered || providers[msg.sender].isRegistered */\n    tag_183:\n        /* \"Smart Contract/DecentralizedMarketplace.sol\":1313:1466  require(consumers[msg.sender].isRegistered || providers[msg.sender].isRegistered, \"Only registered consumers or providers can access this functionality\") */\n      tag_184\n      jumpi\n      mload(0x40)\n      0x08c379a000000000000000000000000000000000000000000000000000000000\n      dup2\n      mstore\n      0x04\n      add\n      tag_185\n      swap1\n      tag_186\n      jump\t// in\n    tag_185:\n      mload(0x40)\n      dup1\n      swap2\n      sub\n      swap1\n      revert\n    tag_184:\n        /* \"Smart Contract/DecentralizedMarketplace.sol\":2130:2139  consumers */\n      0x01\n        /* \"Smart Contract/DecentralizedMarketplace.sol\":2130:2151  consumers[msg.sender] */\n      0x00\n        /* \"Smart Contract/DecentralizedMarketplace.sol\":2140:2150  msg.sender */\n      caller\n        /* \"Smart Contract/DecentralizedMarketplace.sol\":2130:2151  consumers[msg.sender] */\n      0xffffffffffffffffffffffffffffffffffffffff\n      and\n      0xffffffffffffffffffffffffffffffffffffffff\n      and\n      dup2\n      mstore\n      0x20\n      add\n      swap1\n      dup2\n      mstore\n      0x20\n      add\n      0x00\n      keccak256\n        /* \"Smart Contract/DecentralizedMarketplace.sol\":2130:2164  consumers[msg.sender].isRegistered */\n      0x00\n      add\n      0x00\n      swap1\n      sload\n      swap1\n      0x0100\n      exp\n      swap1\n      div\n      0xff\n      and\n        /* \"Smart Contract/DecentralizedMarketplace.sol\":2126:2360  if (consumers[msg.sender].isRegistered) {... */\n      iszero\n      tag_188\n      jumpi\n        /* \"Smart Contract/DecentralizedMarketplace.sol\":2228:2229  0 */\n      0x00\n        /* \"Smart Contract/DecentralizedMarketplace.sol\":2180:2189  consumers */\n      0x01\n        /* \"Smart Contract/DecentralizedMarketplace.sol\":2180:2201  consumers[msg.sender] */\n      0x00\n        /* \"Smart Contract/DecentralizedMarketplace.sol\":2190:2200  msg.sender */\n      caller\n        /* \"Smart Contract/DecentralizedMarketplace.sol\":2180:2201  consumers[msg.sender] */\n      0xffffffffffffffffffffffffffffffffffffffff\n      and\n      0xffffffffffffffffffffffffffffffffffffffff\n      and\n      dup2\n      mstore\n      0x20\n      add\n      swap1\n      dup2\n      mstore\n      0x20\n      add\n      0x00\n      keccak256\n        /* \"Smart Contract/DecentralizedMarketplace.sol\":2180:2217  consumers[msg.sender].providerAddress */\n      0x01\n      add\n      0x00\n        /* \"Smart Contract/DecentralizedMarketplace.sol\":2180:2230  consumers[msg.sender].providerAddress = address(0) */\n      0x0100\n      exp\n      dup2\n      sload\n      dup2\n      0xffffffffffffffffffffffffffffffffffffffff\n      mul\n      not\n      and\n      swap1\n      dup4\n      0xffffffffffffffffffffffffffffffffffffffff\n      and\n      mul\n      or\n      swap1\n      sstore\n      pop\n        /* \"Smart Contract/DecentralizedMarketplace.sol\":2126:2360  if (consumers[msg.sender].isRegistered) {... */\n      jump(tag_189)\n    tag_188:\n        /* \"Smart Contract/DecentralizedMarketplace.sol\":2251:2260  providers */\n      0x00\n        /* \"Smart Contract/DecentralizedMarketplace.sol\":2251:2272  providers[msg.sender] */\n      dup1\n        /* \"Smart Contract/DecentralizedMarketplace.sol\":2261:2271  msg.sender */\n      caller\n        /* \"Smart Contract/DecentralizedMarketplace.sol\":2251:2272  providers[msg.sender] */\n      0xffffffffffffffffffffffffffffffffffffffff\n      and\n      0xffffffffffffffffffffffffffffffffffffffff\n      and\n      dup2\n      mstore\n      0x20\n      add\n      swap1\n      dup2\n      mstore\n      0x20\n      add\n      0x00\n      keccak256\n        /* \"Smart Contract/DecentralizedMarketplace.sol\":2251:2285  providers[msg.sender].isRegistered */\n      0x03\n      add\n      0x00\n      swap1\n      sload\n      swap1\n      0x0100\n      exp\n      swap1\n      div\n      0xff\n      and\n        /* \"Smart Contract/DecentralizedMarketplace.sol\":2247:2360  if (providers[msg.sender].isRegistered) {... */\n      iszero\n      tag_190\n      jumpi\n        /* \"Smart Contract/DecentralizedMarketplace.sol\":2344:2349  false */\n      0x00\n        /* \"Smart Contract/DecentralizedMarketplace.sol\":2301:2310  providers */\n      dup1\n        /* \"Smart Contract/DecentralizedMarketplace.sol\":2301:2322  providers[msg.sender] */\n      0x00\n        /* \"Smart Contract/DecentralizedMarketplace.sol\":2311:2321  msg.sender */\n      caller\n        /* \"Smart Contract/DecentralizedMarketplace.sol\":2301:2322  providers[msg.sender] */\n      0xffffffffffffffffffffffffffffffffffffffff\n      and\n      0xffffffffffffffffffffffffffffffffffffffff\n      and\n      dup2\n      mstore\n      0x20\n      add\n      swap1\n      dup2\n      mstore\n      0x20\n      add\n      0x00\n      keccak256\n        /* \"Smart Contract/DecentralizedMarketplace.sol\":2301:2341  providers[msg.sender].isServiceAvailable */\n      0x03\n      add\n      0x01\n        /* \"Smart Contract/DecentralizedMarketplace.sol\":2301:2349  providers[msg.sender].isServiceAvailable = false */\n      0x0100\n      exp\n      dup2\n      sload\n      dup2\n      0xff\n      mul\n      not\n      and\n      swap1\n      dup4\n      iszero\n      iszero\n      mul\n      or\n      swap1\n      sstore\n      pop\n        /* \"Smart Contract/DecentralizedMarketplace.sol\":2247:2360  if (providers[msg.sender].isRegistered) {... */\n    tag_190:\n        /* \"Smart Contract/DecentralizedMarketplace.sol\":2126:2360  if (consumers[msg.sender].isRegistered) {... */\n    tag_189:\n        /* \"Smart Contract/DecentralizedMarketplace.sol\":2374:2475  ServiceRejected(msg.sender, consumers[msg.sender].consumerAddress, providers[msg.sender].serviceName) */\n      0x1dd2954a39bc3b38938d38ec872f7d0eb780f62cb4eac654cb83f3c62af02689\n        /* \"Smart Contract/DecentralizedMarketplace.sol\":2390:2400  msg.sender */\n      caller\n        /* \"Smart Contract/DecentralizedMarketplace.sol\":2402:2411  consumers */\n      0x01\n        /* \"Smart Contract/DecentralizedMarketplace.sol\":2402:2423  consumers[msg.sender] */\n      0x00\n        /* \"Smart Contract/DecentralizedMarketplace.sol\":2412:2422  msg.sender */\n      caller\n        /* \"Smart Contract/DecentralizedMarketplace.sol\":2402:2423  consumers[msg.sender] */\n      0xffffffffffffffffffffffffffffffffffffffff\n      and\n      0xffffffffffffffffffffffffffffffffffffffff\n      and\n      dup2\n      mstore\n      0x20\n      add\n      swap1\n      dup2\n      mstore\n      0x20\n      add\n      0x00\n      keccak256\n        /* \"Smart Contract/DecentralizedMarketplace.sol\":2402:2439  consumers[msg.sender].consumerAddress */\n      0x00\n      add\n      0x02\n      swap1\n      sload\n      swap1\n      0x0100\n      exp\n      swap1\n      div\n      0xffffffffffffffffffffffffffffffffffffffff\n      and\n        /* \"Smart Contract/DecentralizedMarketplace.sol\":2441:2450  providers */\n      0x00\n        /* \"Smart Contract/DecentralizedMarketplace.sol\":2441:2462  providers[msg.sender] */\n      dup1\n        /* \"Smart Contract/DecentralizedMarketplace.sol\":2451:2461  msg.sender */\n      caller\n        /* \"Smart Contract/DecentralizedMarketplace.sol\":2441:2462  providers[msg.sender] */\n      0xffffffffffffffffffffffffffffffffffffffff\n      and\n      0xffffffffffffffffffffffffffffffffffffffff\n      and\n      dup2\n      mstore\n      0x20\n      add\n      swap1\n      dup2\n      mstore\n      0x20\n      add\n      0x00\n      keccak256\n        /* \"Smart Contract/DecentralizedMarketplace.sol\":2441:2474  providers[msg.sender].serviceName */\n      0x00\n      add\n        /* \"Smart Contract/DecentralizedMarketplace.sol\":2374:2475  ServiceRejected(msg.sender, consumers[msg.sender].consumerAddress, providers[msg.sender].serviceName) */\n      mload(0x40)\n      tag_191\n      swap4\n      swap3\n      swap2\n      swap1\n      tag_181\n      jump\t// in\n    tag_191:\n      mload(0x40)\n      dup1\n      swap2\n      sub\n      swap1\n      log1\n        /* \"Smart Contract/DecentralizedMarketplace.sol\":2033:2482  function setIPFSHash(string memory hash) external onlyRegisteredConsumerOrProvider {... */\n      pop\n      jump\t// out\n        /* \"Smart Contract/DecentralizedMarketplace.sol\":2488:2999  function offerService(string memory serviceName, string memory features, uint256 price) external onlyRegisteredProvider {... */\n    tag_69:\n        /* \"Smart Contract/DecentralizedMarketplace.sol\":1141:1150  providers */\n      0x00\n        /* \"Smart Contract/DecentralizedMarketplace.sol\":1141:1162  providers[msg.sender] */\n      dup1\n        /* \"Smart Contract/DecentralizedMarketplace.sol\":1151:1161  msg.sender */\n      caller\n        /* \"Smart Contract/DecentralizedMarketplace.sol\":1141:1162  providers[msg.sender] */\n      0xffffffffffffffffffffffffffffffffffffffff\n      and\n      0xffffffffffffffffffffffffffffffffffffffff\n      and\n      dup2\n      mstore\n      0x20\n      add\n      swap1\n      dup2\n      mstore\n      0x20\n      add\n      0x00\n      keccak256\n        /* \"Smart Contract/DecentralizedMarketplace.sol\":1141:1175  providers[msg.sender].isRegistered */\n      0x03\n      add\n      0x00\n      swap1\n      sload\n      swap1\n      0x0100\n      exp\n      swap1\n      div\n      0xff\n      and\n        /* \"Smart Contract/DecentralizedMarketplace.sol\":1133:1235  require(providers[msg.sender].isRegistered, \"Only registered providers can access this functionality\") */\n      tag_193\n      jumpi\n      mload(0x40)\n      0x08c379a000000000000000000000000000000000000000000000000000000000\n      dup2\n      mstore\n      0x04\n      add\n      tag_194\n      swap1\n      tag_171\n      jump\t// in\n    tag_194:\n      mload(0x40)\n      dup1\n      swap2\n      sub\n      swap1\n      revert\n    tag_193:\n        /* \"Smart Contract/DecentralizedMarketplace.sol\":2627:2636  providers */\n      0x00\n        /* \"Smart Contract/DecentralizedMarketplace.sol\":2627:2648  providers[msg.sender] */\n      dup1\n        /* \"Smart Contract/DecentralizedMarketplace.sol\":2637:2647  msg.sender */\n      caller\n        /* \"Smart Contract/DecentralizedMarketplace.sol\":2627:2648  providers[msg.sender] */\n      0xffffffffffffffffffffffffffffffffffffffff\n      and\n      0xffffffffffffffffffffffffffffffffffffffff\n      and\n      dup2\n      mstore\n      0x20\n      add\n      swap1\n      dup2\n      mstore\n      0x20\n      add\n      0x00\n      keccak256\n        /* \"Smart Contract/DecentralizedMarketplace.sol\":2627:2667  providers[msg.sender].isServiceAvailable */\n      0x03\n      add\n      0x01\n      swap1\n      sload\n      swap1\n      0x0100\n      exp\n      swap1\n      div\n      0xff\n      and\n        /* \"Smart Contract/DecentralizedMarketplace.sol\":2626:2667  !providers[msg.sender].isServiceAvailable */\n      iszero\n        /* \"Smart Contract/DecentralizedMarketplace.sol\":2618:2710  require(!providers[msg.sender].isServiceAvailable, \"Provider has already offered a service\") */\n      tag_196\n      jumpi\n      mload(0x40)\n      0x08c379a000000000000000000000000000000000000000000000000000000000\n      dup2\n      mstore\n      0x04\n      add\n      tag_197\n      swap1\n      tag_198\n      jump\t// in\n    tag_197:\n      mload(0x40)\n      dup1\n      swap2\n      sub\n      swap1\n      revert\n    tag_196:\n        /* \"Smart Contract/DecentralizedMarketplace.sol\":2757:2768  serviceName */\n      dup3\n        /* \"Smart Contract/DecentralizedMarketplace.sol\":2721:2730  providers */\n      0x00\n        /* \"Smart Contract/DecentralizedMarketplace.sol\":2721:2742  providers[msg.sender] */\n      dup1\n        /* \"Smart Contract/DecentralizedMarketplace.sol\":2731:2741  msg.sender */\n      caller\n        /* \"Smart Contract/DecentralizedMarketplace.sol\":2721:2742  providers[msg.sender] */\n      0xffffffffffffffffffffffffffffffffffffffff\n      and\n      0xffffffffffffffffffffffffffffffffffffffff\n      and\n      dup2\n      mstore\n      0x20\n      add\n      swap1\n      dup2\n      mstore\n      0x20\n      add\n      0x00\n      keccak256\n        /* \"Smart Contract/DecentralizedMarketplace.sol\":2721:2754  providers[msg.sender].serviceName */\n      0x00\n      add\n        /* \"Smart Contract/DecentralizedMarketplace.sol\":2721:2768  providers[msg.sender].serviceName = serviceName */\n      swap1\n      dup2\n      tag_199\n      swap2\n      swap1\n      tag_135\n      jump\t// in\n    tag_199:\n      pop\n        /* \"Smart Contract/DecentralizedMarketplace.sol\":2811:2819  features */\n      dup2\n        /* \"Smart Contract/DecentralizedMarketplace.sol\":2778:2787  providers */\n      0x00\n        /* \"Smart Contract/DecentralizedMarketplace.sol\":2778:2799  providers[msg.sender] */\n      dup1\n        /* \"Smart Contract/DecentralizedMarketplace.sol\":2788:2798  msg.sender */\n      caller\n        /* \"Smart Contract/DecentralizedMarketplace.sol\":2778:2799  providers[msg.sender] */\n      0xffffffffffffffffffffffffffffffffffffffff\n      and\n      0xffffffffffffffffffffffffffffffffffffffff\n      and\n      dup2\n      mstore\n      0x20\n      add\n      swap1\n      dup2\n      mstore\n      0x20\n      add\n      0x00\n      keccak256\n        /* \"Smart Contract/DecentralizedMarketplace.sol\":2778:2808  providers[msg.sender].features */\n      0x01\n      add\n        /* \"Smart Contract/DecentralizedMarketplace.sol\":2778:2819  providers[msg.sender].features = features */\n      swap1\n      dup2\n      tag_200\n      swap2\n      swap1\n      tag_135\n      jump\t// in\n    tag_200:\n      pop\n        /* \"Smart Contract/DecentralizedMarketplace.sol\":2859:2864  price */\n      dup1\n        /* \"Smart Contract/DecentralizedMarketplace.sol\":2829:2838  providers */\n      0x00\n        /* \"Smart Contract/DecentralizedMarketplace.sol\":2829:2850  providers[msg.sender] */\n      dup1\n        /* \"Smart Contract/DecentralizedMarketplace.sol\":2839:2849  msg.sender */\n      caller\n        /* \"Smart Contract/DecentralizedMarketplace.sol\":2829:2850  providers[msg.sender] */\n      0xffffffffffffffffffffffffffffffffffffffff\n      and\n      0xffffffffffffffffffffffffffffffffffffffff\n      and\n      dup2\n      mstore\n      0x20\n      add\n      swap1\n      dup2\n      mstore\n      0x20\n      add\n      0x00\n      keccak256\n        /* \"Smart Contract/DecentralizedMarketplace.sol\":2829:2856  providers[msg.sender].price */\n      0x02\n      add\n        /* \"Smart Contract/DecentralizedMarketplace.sol\":2829:2864  providers[msg.sender].price = price */\n      dup2\n      swap1\n      sstore\n      pop\n        /* \"Smart Contract/DecentralizedMarketplace.sol\":2917:2921  true */\n      0x01\n        /* \"Smart Contract/DecentralizedMarketplace.sol\":2874:2883  providers */\n      0x00\n        /* \"Smart Contract/DecentralizedMarketplace.sol\":2874:2895  providers[msg.sender] */\n      dup1\n        /* \"Smart Contract/DecentralizedMarketplace.sol\":2884:2894  msg.sender */\n      caller\n        /* \"Smart Contract/DecentralizedMarketplace.sol\":2874:2895  providers[msg.sender] */\n      0xffffffffffffffffffffffffffffffffffffffff\n      and\n      0xffffffffffffffffffffffffffffffffffffffff\n      and\n      dup2\n      mstore\n      0x20\n      add\n      swap1\n      dup2\n      mstore\n      0x20\n      add\n      0x00\n      keccak256\n        /* \"Smart Contract/DecentralizedMarketplace.sol\":2874:2914  providers[msg.sender].isServiceAvailable */\n      0x03\n      add\n      0x01\n        /* \"Smart Contract/DecentralizedMarketplace.sol\":2874:2921  providers[msg.sender].isServiceAvailable = true */\n      0x0100\n      exp\n      dup2\n      sload\n      dup2\n      0xff\n      mul\n      not\n      and\n      swap1\n      dup4\n      iszero\n      iszero\n      mul\n      or\n      swap1\n      sstore\n      pop\n        /* \"Smart Contract/DecentralizedMarketplace.sol\":2936:2992  ServiceOffered(msg.sender, serviceName, features, price) */\n      0xaf5a1f8d23219255a220656798591da6a58d145fb2a2c3ff5786922c9a6576b8\n        /* \"Smart Contract/DecentralizedMarketplace.sol\":2951:2961  msg.sender */\n      caller\n        /* \"Smart Contract/DecentralizedMarketplace.sol\":2963:2974  serviceName */\n      dup5\n        /* \"Smart Contract/DecentralizedMarketplace.sol\":2976:2984  features */\n      dup5\n        /* \"Smart Contract/DecentralizedMarketplace.sol\":2986:2991  price */\n      dup5\n        /* \"Smart Contract/DecentralizedMarketplace.sol\":2936:2992  ServiceOffered(msg.sender, serviceName, features, price) */\n      mload(0x40)\n      tag_201\n      swap5\n      swap4\n      swap3\n      swap2\n      swap1\n      tag_202\n      jump\t// in\n    tag_201:\n      mload(0x40)\n      dup1\n      swap2\n      sub\n      swap1\n      log1\n        /* \"Smart Contract/DecentralizedMarketplace.sol\":2488:2999  function offerService(string memory serviceName, string memory features, uint256 price) external onlyRegisteredProvider {... */\n      pop\n      pop\n      pop\n      jump\t// out\n        /* \"Smart Contract/ReverseAuction.sol\":1227:1869  function placeBid(address consumer) external payable onlyRegisteredProvider {... */\n    tag_72:\n        /* \"Smart Contract/DecentralizedMarketplace.sol\":1141:1150  providers */\n      0x00\n        /* \"Smart Contract/DecentralizedMarketplace.sol\":1141:1162  providers[msg.sender] */\n      dup1\n        /* \"Smart Contract/DecentralizedMarketplace.sol\":1151:1161  msg.sender */\n      caller\n        /* \"Smart Contract/DecentralizedMarketplace.sol\":1141:1162  providers[msg.sender] */\n      0xffffffffffffffffffffffffffffffffffffffff\n      and\n      0xffffffffffffffffffffffffffffffffffffffff\n      and\n      dup2\n      mstore\n      0x20\n      add\n      swap1\n      dup2\n      mstore\n      0x20\n      add\n      0x00\n      keccak256\n        /* \"Smart Contract/DecentralizedMarketplace.sol\":1141:1175  providers[msg.sender].isRegistered */\n      0x03\n      add\n      0x00\n      swap1\n      sload\n      swap1\n      0x0100\n      exp\n      swap1\n      div\n      0xff\n      and\n        /* \"Smart Contract/DecentralizedMarketplace.sol\":1133:1235  require(providers[msg.sender].isRegistered, \"Only registered providers can access this functionality\") */\n      tag_204\n      jumpi\n      mload(0x40)\n      0x08c379a000000000000000000000000000000000000000000000000000000000\n      dup2\n      mstore\n      0x04\n      add\n      tag_205\n      swap1\n      tag_171\n      jump\t// in\n    tag_205:\n      mload(0x40)\n      dup1\n      swap2\n      sub\n      swap1\n      revert\n    tag_204:\n        /* \"Smart Contract/ReverseAuction.sol\":1359:1360  0 */\n      0x00\n        /* \"Smart Contract/ReverseAuction.sol\":1321:1329  auctions */\n      0x02\n        /* \"Smart Contract/ReverseAuction.sol\":1321:1339  auctions[consumer] */\n      0x00\n        /* \"Smart Contract/ReverseAuction.sol\":1330:1338  consumer */\n      dup4\n        /* \"Smart Contract/ReverseAuction.sol\":1321:1339  auctions[consumer] */\n      0xffffffffffffffffffffffffffffffffffffffff\n      and\n      0xffffffffffffffffffffffffffffffffffffffff\n      and\n      dup2\n      mstore\n      0x20\n      add\n      swap1\n      dup2\n      mstore\n      0x20\n      add\n      0x00\n      keccak256\n        /* \"Smart Contract/ReverseAuction.sol\":1321:1349  auctions[consumer].providers */\n      0x02\n      add\n        /* \"Smart Contract/ReverseAuction.sol\":1321:1356  auctions[consumer].providers.length */\n      dup1\n      sload\n      swap1\n      pop\n        /* \"Smart Contract/ReverseAuction.sol\":1321:1360  auctions[consumer].providers.length > 0 */\n      gt\n        /* \"Smart Contract/ReverseAuction.sol\":1313:1387  require(auctions[consumer].providers.length > 0, \"Auction does not exist\") */\n      tag_207\n      jumpi\n      mload(0x40)\n      0x08c379a000000000000000000000000000000000000000000000000000000000\n      dup2\n      mstore\n      0x04\n      add\n      tag_208\n      swap1\n      tag_100\n      jump\t// in\n    tag_208:\n      mload(0x40)\n      dup1\n      swap2\n      sub\n      swap1\n      revert\n    tag_207:\n        /* \"Smart Contract/ReverseAuction.sol\":1406:1414  auctions */\n      0x02\n        /* \"Smart Contract/ReverseAuction.sol\":1406:1424  auctions[consumer] */\n      0x00\n        /* \"Smart Contract/ReverseAuction.sol\":1415:1423  consumer */\n      dup3\n        /* \"Smart Contract/ReverseAuction.sol\":1406:1424  auctions[consumer] */\n      0xffffffffffffffffffffffffffffffffffffffff\n      and\n      0xffffffffffffffffffffffffffffffffffffffff\n      and\n      dup2\n      mstore\n      0x20\n      add\n      swap1\n      dup2\n      mstore\n      0x20\n      add\n      0x00\n      keccak256\n        /* \"Smart Contract/ReverseAuction.sol\":1406:1437  auctions[consumer].auctionEnded */\n      0x03\n      add\n      0x00\n      swap1\n      sload\n      swap1\n      0x0100\n      exp\n      swap1\n      div\n      0xff\n      and\n        /* \"Smart Contract/ReverseAuction.sol\":1405:1437  !auctions[consumer].auctionEnded */\n      iszero\n        /* \"Smart Contract/ReverseAuction.sol\":1397:1467  require(!auctions[consumer].auctionEnded, \"Auction has already ended\") */\n      tag_209\n      jumpi\n      mload(0x40)\n      0x08c379a000000000000000000000000000000000000000000000000000000000\n      dup2\n      mstore\n      0x04\n      add\n      tag_210\n      swap1\n      tag_103\n      jump\t// in\n    tag_210:\n      mload(0x40)\n      dup1\n      swap2\n      sub\n      swap1\n      revert\n    tag_209:\n        /* \"Smart Contract/ReverseAuction.sol\":1497:1498  0 */\n      0x00\n        /* \"Smart Contract/ReverseAuction.sol\":1485:1494  msg.value */\n      callvalue\n        /* \"Smart Contract/ReverseAuction.sol\":1485:1498  msg.value > 0 */\n      gt\n        /* \"Smart Contract/ReverseAuction.sol\":1477:1538  require(msg.value > 0, \"Bid value must be greater than zero\") */\n      tag_211\n      jumpi\n      mload(0x40)\n      0x08c379a000000000000000000000000000000000000000000000000000000000\n      dup2\n      mstore\n      0x04\n      add\n      tag_212\n      swap1\n      tag_213\n      jump\t// in\n    tag_212:\n      mload(0x40)\n      dup1\n      swap2\n      sub\n      swap1\n      revert\n    tag_211:\n        /* \"Smart Contract/ReverseAuction.sol\":1549:1557  auctions */\n      0x02\n        /* \"Smart Contract/ReverseAuction.sol\":1549:1567  auctions[consumer] */\n      0x00\n        /* \"Smart Contract/ReverseAuction.sol\":1558:1566  consumer */\n      dup3\n        /* \"Smart Contract/ReverseAuction.sol\":1549:1567  auctions[consumer] */\n      0xffffffffffffffffffffffffffffffffffffffff\n      and\n      0xffffffffffffffffffffffffffffffffffffffff\n      and\n      dup2\n      mstore\n      0x20\n      add\n      swap1\n      dup2\n      mstore\n      0x20\n      add\n      0x00\n      keccak256\n        /* \"Smart Contract/ReverseAuction.sol\":1549:1577  auctions[consumer].providers */\n      0x02\n      add\n        /* \"Smart Contract/ReverseAuction.sol\":1583:1593  msg.sender */\n      caller\n        /* \"Smart Contract/ReverseAuction.sol\":1549:1594  auctions[consumer].providers.push(msg.sender) */\n      swap1\n      dup1\n      0x01\n      dup2\n      sload\n      add\n      dup1\n      dup3\n      sstore\n      dup1\n      swap2\n      pop\n      pop\n      0x01\n      swap1\n      sub\n      swap1\n      0x00\n      mstore\n      keccak256(0x00, 0x20)\n      add\n      0x00\n      swap1\n      swap2\n      swap1\n      swap2\n      swap1\n      swap2\n      0x0100\n      exp\n      dup2\n      sload\n      dup2\n      0xffffffffffffffffffffffffffffffffffffffff\n      mul\n      not\n      and\n      swap1\n      dup4\n      0xffffffffffffffffffffffffffffffffffffffff\n      and\n      mul\n      or\n      swap1\n      sstore\n      pop\n        /* \"Smart Contract/ReverseAuction.sol\":1641:1642  0 */\n      0x00\n        /* \"Smart Contract/ReverseAuction.sol\":1609:1617  auctions */\n      0x02\n        /* \"Smart Contract/ReverseAuction.sol\":1609:1627  auctions[consumer] */\n      0x00\n        /* \"Smart Contract/ReverseAuction.sol\":1618:1626  consumer */\n      dup4\n        /* \"Smart Contract/ReverseAuction.sol\":1609:1627  auctions[consumer] */\n      0xffffffffffffffffffffffffffffffffffffffff\n      and\n      0xffffffffffffffffffffffffffffffffffffffff\n      and\n      dup2\n      mstore\n      0x20\n      add\n      swap1\n      dup2\n      mstore\n      0x20\n      add\n      0x00\n      keccak256\n        /* \"Smart Contract/ReverseAuction.sol\":1609:1637  auctions[consumer].lowestBid */\n      0x04\n      add\n      sload\n        /* \"Smart Contract/ReverseAuction.sol\":1609:1642  auctions[consumer].lowestBid == 0 */\n      eq\n        /* \"Smart Contract/ReverseAuction.sol\":1609:1686  auctions[consumer].lowestBid == 0 || msg.value < auctions[consumer].lowestBid */\n      dup1\n      tag_215\n      jumpi\n      pop\n        /* \"Smart Contract/ReverseAuction.sol\":1658:1666  auctions */\n      0x02\n        /* \"Smart Contract/ReverseAuction.sol\":1658:1676  auctions[consumer] */\n      0x00\n        /* \"Smart Contract/ReverseAuction.sol\":1667:1675  consumer */\n      dup3\n        /* \"Smart Contract/ReverseAuction.sol\":1658:1676  auctions[consumer] */\n      0xffffffffffffffffffffffffffffffffffffffff\n      and\n      0xffffffffffffffffffffffffffffffffffffffff\n      and\n      dup2\n      mstore\n      0x20\n      add\n      swap1\n      dup2\n      mstore\n      0x20\n      add\n      0x00\n      keccak256\n        /* \"Smart Contract/ReverseAuction.sol\":1658:1686  auctions[consumer].lowestBid */\n      0x04\n      add\n      sload\n        /* \"Smart Contract/ReverseAuction.sol\":1646:1655  msg.value */\n      callvalue\n        /* \"Smart Contract/ReverseAuction.sol\":1646:1686  msg.value < auctions[consumer].lowestBid */\n      lt\n        /* \"Smart Contract/ReverseAuction.sol\":1609:1686  auctions[consumer].lowestBid == 0 || msg.value < auctions[consumer].lowestBid */\n    tag_215:\n        /* \"Smart Contract/ReverseAuction.sol\":1605:1805  if (auctions[consumer].lowestBid == 0 || msg.value < auctions[consumer].lowestBid) {... */\n      iszero\n      tag_216\n      jumpi\n        /* \"Smart Contract/ReverseAuction.sol\":1733:1742  msg.value */\n      callvalue\n        /* \"Smart Contract/ReverseAuction.sol\":1702:1710  auctions */\n      0x02\n        /* \"Smart Contract/ReverseAuction.sol\":1702:1720  auctions[consumer] */\n      0x00\n        /* \"Smart Contract/ReverseAuction.sol\":1711:1719  consumer */\n      dup4\n        /* \"Smart Contract/ReverseAuction.sol\":1702:1720  auctions[consumer] */\n      0xffffffffffffffffffffffffffffffffffffffff\n      and\n      0xffffffffffffffffffffffffffffffffffffffff\n      and\n      dup2\n      mstore\n      0x20\n      add\n      swap1\n      dup2\n      mstore\n      0x20\n      add\n      0x00\n      keccak256\n        /* \"Smart Contract/ReverseAuction.sol\":1702:1730  auctions[consumer].lowestBid */\n      0x04\n      add\n        /* \"Smart Contract/ReverseAuction.sol\":1702:1742  auctions[consumer].lowestBid = msg.value */\n      dup2\n      swap1\n      sstore\n      pop\n        /* \"Smart Contract/ReverseAuction.sol\":1784:1794  msg.sender */\n      caller\n        /* \"Smart Contract/ReverseAuction.sol\":1756:1764  auctions */\n      0x02\n        /* \"Smart Contract/ReverseAuction.sol\":1756:1774  auctions[consumer] */\n      0x00\n        /* \"Smart Contract/ReverseAuction.sol\":1765:1773  consumer */\n      dup4\n        /* \"Smart Contract/ReverseAuction.sol\":1756:1774  auctions[consumer] */\n      0xffffffffffffffffffffffffffffffffffffffff\n      and\n      0xffffffffffffffffffffffffffffffffffffffff\n      and\n      dup2\n      mstore\n      0x20\n      add\n      swap1\n      dup2\n      mstore\n      0x20\n      add\n      0x00\n      keccak256\n        /* \"Smart Contract/ReverseAuction.sol\":1756:1781  auctions[consumer].winner */\n      0x03\n      add\n      0x01\n        /* \"Smart Contract/ReverseAuction.sol\":1756:1794  auctions[consumer].winner = msg.sender */\n      0x0100\n      exp\n      dup2\n      sload\n      dup2\n      0xffffffffffffffffffffffffffffffffffffffff\n      mul\n      not\n      and\n      swap1\n      dup4\n      0xffffffffffffffffffffffffffffffffffffffff\n      and\n      mul\n      or\n      swap1\n      sstore\n      pop\n        /* \"Smart Contract/ReverseAuction.sol\":1605:1805  if (auctions[consumer].lowestBid == 0 || msg.value < auctions[consumer].lowestBid) {... */\n    tag_216:\n        /* \"Smart Contract/ReverseAuction.sol\":1820:1862  BidPlaced(msg.sender, consumer, msg.value) */\n      0x45a818213e5085f9a2d24b876128d3bb9f7200bcf3170fa08e063e1746f7e9bb\n        /* \"Smart Contract/ReverseAuction.sol\":1830:1840  msg.sender */\n      caller\n        /* \"Smart Contract/ReverseAuction.sol\":1842:1850  consumer */\n      dup3\n        /* \"Smart Contract/ReverseAuction.sol\":1852:1861  msg.value */\n      callvalue\n        /* \"Smart Contract/ReverseAuction.sol\":1820:1862  BidPlaced(msg.sender, consumer, msg.value) */\n      mload(0x40)\n      tag_217\n      swap4\n      swap3\n      swap2\n      swap1\n      tag_109\n      jump\t// in\n    tag_217:\n      mload(0x40)\n      dup1\n      swap2\n      sub\n      swap1\n      log1\n        /* \"Smart Contract/ReverseAuction.sol\":1227:1869  function placeBid(address consumer) external payable onlyRegisteredProvider {... */\n      pop\n      jump\t// out\n        /* \"Smart Contract/DecentralizedMarketplace.sol\":1753:2027  function registerProvider() external {... */\n    tag_75:\n        /* \"Smart Contract/DecentralizedMarketplace.sol\":1809:1818  providers */\n      0x00\n        /* \"Smart Contract/DecentralizedMarketplace.sol\":1809:1830  providers[msg.sender] */\n      dup1\n        /* \"Smart Contract/DecentralizedMarketplace.sol\":1819:1829  msg.sender */\n      caller\n        /* \"Smart Contract/DecentralizedMarketplace.sol\":1809:1830  providers[msg.sender] */\n      0xffffffffffffffffffffffffffffffffffffffff\n      and\n      0xffffffffffffffffffffffffffffffffffffffff\n      and\n      dup2\n      mstore\n      0x20\n      add\n      swap1\n      dup2\n      mstore\n      0x20\n      add\n      0x00\n      keccak256\n        /* \"Smart Contract/DecentralizedMarketplace.sol\":1809:1843  providers[msg.sender].isRegistered */\n      0x03\n      add\n      0x00\n      swap1\n      sload\n      swap1\n      0x0100\n      exp\n      swap1\n      div\n      0xff\n      and\n        /* \"Smart Contract/DecentralizedMarketplace.sol\":1808:1843  !providers[msg.sender].isRegistered */\n      iszero\n        /* \"Smart Contract/DecentralizedMarketplace.sol\":1800:1878  require(!providers[msg.sender].isRegistered, \"Provider is already registered\") */\n      tag_219\n      jumpi\n      mload(0x40)\n      0x08c379a000000000000000000000000000000000000000000000000000000000\n      dup2\n      mstore\n      0x04\n      add\n      tag_220\n      swap1\n      tag_221\n      jump\t// in\n    tag_220:\n      mload(0x40)\n      dup1\n      swap2\n      sub\n      swap1\n      revert\n    tag_219:\n        /* \"Smart Contract/DecentralizedMarketplace.sol\":1913:1975  Provider(\"\", \"\", 0, true, false, msg.sender, new address[](0)) */\n      mload(0x40)\n      dup1\n      0xe0\n      add\n      0x40\n      mstore\n      dup1\n      mload(0x40)\n      dup1\n      0x20\n      add\n      0x40\n      mstore\n      dup1\n      0x00\n      dup2\n      mstore\n      pop\n      dup2\n      mstore\n      0x20\n      add\n      mload(0x40)\n      dup1\n      0x20\n      add\n      0x40\n      mstore\n      dup1\n      0x00\n      dup2\n      mstore\n      pop\n      dup2\n      mstore\n      0x20\n      add\n        /* \"Smart Contract/DecentralizedMarketplace.sol\":1930:1931  0 */\n      0x00\n        /* \"Smart Contract/DecentralizedMarketplace.sol\":1913:1975  Provider(\"\", \"\", 0, true, false, msg.sender, new address[](0)) */\n      dup2\n      mstore\n      0x20\n      add\n        /* \"Smart Contract/DecentralizedMarketplace.sol\":1933:1937  true */\n      0x01\n        /* \"Smart Contract/DecentralizedMarketplace.sol\":1913:1975  Provider(\"\", \"\", 0, true, false, msg.sender, new address[](0)) */\n      iszero\n      iszero\n      dup2\n      mstore\n      0x20\n      add\n        /* \"Smart Contract/DecentralizedMarketplace.sol\":1939:1944  false */\n      0x00\n        /* \"Smart Contract/DecentralizedMarketplace.sol\":1913:1975  Provider(\"\", \"\", 0, true, false, msg.sender, new address[](0)) */\n      iszero\n      iszero\n      dup2\n      mstore\n      0x20\n      add\n        /* \"Smart Contract/DecentralizedMarketplace.sol\":1946:1956  msg.sender */\n      caller\n        /* \"Smart Contract/DecentralizedMarketplace.sol\":1913:1975  Provider(\"\", \"\", 0, true, false, msg.sender, new address[](0)) */\n      0xffffffffffffffffffffffffffffffffffffffff\n      and\n      dup2\n      mstore\n      0x20\n      add\n        /* \"Smart Contract/DecentralizedMarketplace.sol\":1972:1973  0 */\n      0x00\n        /* \"Smart Contract/DecentralizedMarketplace.sol\":1958:1974  new address[](0) */\n      0xffffffffffffffff\n      dup2\n      gt\n      iszero\n      tag_222\n      jumpi\n      tag_223\n      tag_132\n      jump\t// in\n    tag_223:\n    tag_222:\n      mload(0x40)\n      swap1\n      dup1\n      dup3\n      mstore\n      dup1\n      0x20\n      mul\n      0x20\n      add\n      dup3\n      add\n      0x40\n      mstore\n      dup1\n      iszero\n      tag_224\n      jumpi\n      dup2\n      0x20\n      add\n      0x20\n      dup3\n      mul\n      dup1\n      calldatasize\n      dup4\n      calldatacopy\n      dup1\n      dup3\n      add\n      swap2\n      pop\n      pop\n      swap1\n      pop\n    tag_224:\n      pop\n        /* \"Smart Contract/DecentralizedMarketplace.sol\":1913:1975  Provider(\"\", \"\", 0, true, false, msg.sender, new address[](0)) */\n      dup2\n      mstore\n      pop\n        /* \"Smart Contract/DecentralizedMarketplace.sol\":1889:1898  providers */\n      0x00\n        /* \"Smart Contract/DecentralizedMarketplace.sol\":1889:1910  providers[msg.sender] */\n      dup1\n        /* \"Smart Contract/DecentralizedMarketplace.sol\":1899:1909  msg.sender */\n      caller\n        /* \"Smart Contract/DecentralizedMarketplace.sol\":1889:1910  providers[msg.sender] */\n      0xffffffffffffffffffffffffffffffffffffffff\n      and\n      0xffffffffffffffffffffffffffffffffffffffff\n      and\n      dup2\n      mstore\n      0x20\n      add\n      swap1\n      dup2\n      mstore\n      0x20\n      add\n      0x00\n      keccak256\n        /* \"Smart Contract/DecentralizedMarketplace.sol\":1889:1975  providers[msg.sender] = Provider(\"\", \"\", 0, true, false, msg.sender, new address[](0)) */\n      0x00\n      dup3\n      add\n      mload\n      dup2\n      0x00\n      add\n      swap1\n      dup2\n      tag_225\n      swap2\n      swap1\n      tag_135\n      jump\t// in\n    tag_225:\n      pop\n      0x20\n      dup3\n      add\n      mload\n      dup2\n      0x01\n      add\n      swap1\n      dup2\n      tag_226\n      swap2\n      swap1\n      tag_135\n      jump\t// in\n    tag_226:\n      pop\n      0x40\n      dup3\n      add\n      mload\n      dup2\n      0x02\n      add\n      sstore\n      0x60\n      dup3\n      add\n      mload\n      dup2\n      0x03\n      add\n      exp(0x0100, 0x00)\n      dup2\n      sload\n      dup2\n      0xff\n      mul\n      not\n      and\n      swap1\n      dup4\n      iszero\n      iszero\n      mul\n      or\n      swap1\n      sstore\n      pop\n      0x80\n      dup3\n      add\n      mload\n      dup2\n      0x03\n      add\n      exp(0x0100, 0x01)\n      dup2\n      sload\n      dup2\n      0xff\n      mul\n      not\n      and\n      swap1\n      dup4\n      iszero\n      iszero\n      mul\n      or\n      swap1\n      sstore\n      pop\n      0xa0\n      dup3\n      add\n      mload\n      dup2\n      0x03\n      add\n      exp(0x0100, 0x02)\n      dup2\n      sload\n      dup2\n      0xffffffffffffffffffffffffffffffffffffffff\n      mul\n      not\n      and\n      swap1\n      dup4\n      0xffffffffffffffffffffffffffffffffffffffff\n      and\n      mul\n      or\n      swap1\n      sstore\n      pop\n      0xc0\n      dup3\n      add\n      mload\n      dup2\n      0x04\n      add\n      swap1\n      dup1\n      mload\n      swap1\n      0x20\n      add\n      swap1\n      tag_227\n      swap3\n      swap2\n      swap1\n      tag_137\n      jump\t// in\n    tag_227:\n      pop\n      swap1\n      pop\n      pop\n        /* \"Smart Contract/DecentralizedMarketplace.sol\":1990:2020  ProviderRegistered(msg.sender) */\n      0x70abce74777b3838ae60a33a6b9a87d9d25532668fe4fea548554c55868579c0\n        /* \"Smart Contract/DecentralizedMarketplace.sol\":2009:2019  msg.sender */\n      caller\n        /* \"Smart Contract/DecentralizedMarketplace.sol\":1990:2020  ProviderRegistered(msg.sender) */\n      mload(0x40)\n      tag_228\n      swap2\n      swap1\n      tag_167\n      jump\t// in\n    tag_228:\n      mload(0x40)\n      dup1\n      swap2\n      sub\n      swap1\n      log1\n        /* \"Smart Contract/DecentralizedMarketplace.sol\":1753:2027  function registerProvider() external {... */\n      jump\t// out\n    tag_137:\n      dup3\n      dup1\n      sload\n      dup3\n      dup3\n      sstore\n      swap1\n      0x00\n      mstore\n      keccak256(0x00, 0x20)\n      swap1\n      dup2\n      add\n      swap3\n      dup3\n      iszero\n      tag_229\n      jumpi\n      swap2\n      0x20\n      mul\n      dup3\n      add\n    tag_230:\n      dup3\n      dup2\n      gt\n      iszero\n      tag_231\n      jumpi\n      dup3\n      mload\n      dup3\n      exp(0x0100, 0x00)\n      dup2\n      sload\n      dup2\n      0xffffffffffffffffffffffffffffffffffffffff\n      mul\n      not\n      and\n      swap1\n      dup4\n      0xffffffffffffffffffffffffffffffffffffffff\n      and\n      mul\n      or\n      swap1\n      sstore\n      pop\n      swap2\n      0x20\n      add\n      swap2\n      swap1\n      0x01\n      add\n      swap1\n      jump(tag_230)\n    tag_231:\n    tag_229:\n      pop\n      swap1\n      pop\n      tag_232\n      swap2\n      swap1\n      tag_233\n      jump\t// in\n    tag_232:\n      pop\n      swap1\n      jump\t// out\n    tag_233:\n    tag_234:\n      dup1\n      dup3\n      gt\n      iszero\n      tag_235\n      jumpi\n      0x00\n      dup2\n      0x00\n      swap1\n      sstore\n      pop\n      0x01\n      add\n      jump(tag_234)\n    tag_235:\n      pop\n      swap1\n      jump\t// out\n        /* \"#utility.yul\":7:82   */\n    tag_236:\n        /* \"#utility.yul\":40:46   */\n      0x00\n        /* \"#utility.yul\":73:75   */\n      0x40\n        /* \"#utility.yul\":67:76   */\n      mload\n        /* \"#utility.yul\":57:76   */\n      swap1\n      pop\n        /* \"#utility.yul\":7:82   */\n      swap1\n      jump\t// out\n        /* \"#utility.yul\":88:205   */\n    tag_237:\n        /* \"#utility.yul\":197:198   */\n      0x00\n        /* \"#utility.yul\":194:195   */\n      dup1\n        /* \"#utility.yul\":187:199   */\n      revert\n        /* \"#utility.yul\":211:328   */\n    tag_238:\n        /* \"#utility.yul\":320:321   */\n      0x00\n        /* \"#utility.yul\":317:318   */\n      dup1\n        /* \"#utility.yul\":310:322   */\n      revert\n        /* \"#utility.yul\":334:460   */\n    tag_239:\n        /* \"#utility.yul\":371:378   */\n      0x00\n        /* \"#utility.yul\":411:453   */\n      0xffffffffffffffffffffffffffffffffffffffff\n        /* \"#utility.yul\":404:409   */\n      dup3\n        /* \"#utility.yul\":400:454   */\n      and\n        /* \"#utility.yul\":389:454   */\n      swap1\n      pop\n        /* \"#utility.yul\":334:460   */\n      swap2\n      swap1\n      pop\n      jump\t// out\n        /* \"#utility.yul\":466:562   */\n    tag_240:\n        /* \"#utility.yul\":503:510   */\n      0x00\n        /* \"#utility.yul\":532:556   */\n      tag_322\n        /* \"#utility.yul\":550:555   */\n      dup3\n        /* \"#utility.yul\":532:556   */\n      tag_239\n      jump\t// in\n    tag_322:\n        /* \"#utility.yul\":521:556   */\n      swap1\n      pop\n        /* \"#utility.yul\":466:562   */\n      swap2\n      swap1\n      pop\n      jump\t// out\n        /* \"#utility.yul\":568:690   */\n    tag_241:\n        /* \"#utility.yul\":641:665   */\n      tag_324\n        /* \"#utility.yul\":659:664   */\n      dup2\n        /* \"#utility.yul\":641:665   */\n      tag_240\n      jump\t// in\n    tag_324:\n        /* \"#utility.yul\":634:639   */\n      dup2\n        /* \"#utility.yul\":631:666   */\n      eq\n        /* \"#utility.yul\":621:684   */\n      tag_325\n      jumpi\n        /* \"#utility.yul\":680:681   */\n      0x00\n        /* \"#utility.yul\":677:678   */\n      dup1\n        /* \"#utility.yul\":670:682   */\n      revert\n        /* \"#utility.yul\":621:684   */\n    tag_325:\n        /* \"#utility.yul\":568:690   */\n      pop\n      jump\t// out\n        /* \"#utility.yul\":696:835   */\n    tag_242:\n        /* \"#utility.yul\":742:747   */\n      0x00\n        /* \"#utility.yul\":780:786   */\n      dup2\n        /* \"#utility.yul\":767:787   */\n      calldataload\n        /* \"#utility.yul\":758:787   */\n      swap1\n      pop\n        /* \"#utility.yul\":796:829   */\n      tag_327\n        /* \"#utility.yul\":823:828   */\n      dup2\n        /* \"#utility.yul\":796:829   */\n      tag_241\n      jump\t// in\n    tag_327:\n        /* \"#utility.yul\":696:835   */\n      swap3\n      swap2\n      pop\n      pop\n      jump\t// out\n        /* \"#utility.yul\":841:1170   */\n    tag_20:\n        /* \"#utility.yul\":900:906   */\n      0x00\n        /* \"#utility.yul\":949:951   */\n      0x20\n        /* \"#utility.yul\":937:946   */\n      dup3\n        /* \"#utility.yul\":928:935   */\n      dup5\n        /* \"#utility.yul\":924:947   */\n      sub\n        /* \"#utility.yul\":920:952   */\n      slt\n        /* \"#utility.yul\":917:1036   */\n      iszero\n      tag_329\n      jumpi\n        /* \"#utility.yul\":955:1034   */\n      tag_330\n      tag_237\n      jump\t// in\n    tag_330:\n        /* \"#utility.yul\":917:1036   */\n    tag_329:\n        /* \"#utility.yul\":1075:1076   */\n      0x00\n        /* \"#utility.yul\":1100:1153   */\n      tag_331\n        /* \"#utility.yul\":1145:1152   */\n      dup5\n        /* \"#utility.yul\":1136:1142   */\n      dup3\n        /* \"#utility.yul\":1125:1134   */\n      dup6\n        /* \"#utility.yul\":1121:1143   */\n      add\n        /* \"#utility.yul\":1100:1153   */\n      tag_242\n      jump\t// in\n    tag_331:\n        /* \"#utility.yul\":1090:1153   */\n      swap2\n      pop\n        /* \"#utility.yul\":1046:1163   */\n      pop\n        /* \"#utility.yul\":841:1170   */\n      swap3\n      swap2\n      pop\n      pop\n      jump\t// out\n        /* \"#utility.yul\":1176:1275   */\n    tag_243:\n        /* \"#utility.yul\":1228:1234   */\n      0x00\n        /* \"#utility.yul\":1262:1267   */\n      dup2\n        /* \"#utility.yul\":1256:1268   */\n      mload\n        /* \"#utility.yul\":1246:1268   */\n      swap1\n      pop\n        /* \"#utility.yul\":1176:1275   */\n      swap2\n      swap1\n      pop\n      jump\t// out\n        /* \"#utility.yul\":1281:1450   */\n    tag_244:\n        /* \"#utility.yul\":1365:1376   */\n      0x00\n        /* \"#utility.yul\":1399:1405   */\n      dup3\n        /* \"#utility.yul\":1394:1397   */\n      dup3\n        /* \"#utility.yul\":1387:1406   */\n      mstore\n        /* \"#utility.yul\":1439:1443   */\n      0x20\n        /* \"#utility.yul\":1434:1437   */\n      dup3\n        /* \"#utility.yul\":1430:1444   */\n      add\n        /* \"#utility.yul\":1415:1444   */\n      swap1\n      pop\n        /* \"#utility.yul\":1281:1450   */\n      swap3\n      swap2\n      pop\n      pop\n      jump\t// out\n        /* \"#utility.yul\":1456:1702   */\n    tag_245:\n        /* \"#utility.yul\":1537:1538   */\n      0x00\n        /* \"#utility.yul\":1547:1660   */\n    tag_335:\n        /* \"#utility.yul\":1561:1567   */\n      dup4\n        /* \"#utility.yul\":1558:1559   */\n      dup2\n        /* \"#utility.yul\":1555:1568   */\n      lt\n        /* \"#utility.yul\":1547:1660   */\n      iszero\n      tag_337\n      jumpi\n        /* \"#utility.yul\":1646:1647   */\n      dup1\n        /* \"#utility.yul\":1641:1644   */\n      dup3\n        /* \"#utility.yul\":1637:1648   */\n      add\n        /* \"#utility.yul\":1631:1649   */\n      mload\n        /* \"#utility.yul\":1627:1628   */\n      dup2\n        /* \"#utility.yul\":1622:1625   */\n      dup5\n        /* \"#utility.yul\":1618:1629   */\n      add\n        /* \"#utility.yul\":1611:1650   */\n      mstore\n        /* \"#utility.yul\":1583:1585   */\n      0x20\n        /* \"#utility.yul\":1580:1581   */\n      dup2\n        /* \"#utility.yul\":1576:1586   */\n      add\n        /* \"#utility.yul\":1571:1586   */\n      swap1\n      pop\n        /* \"#utility.yul\":1547:1660   */\n      jump(tag_335)\n    tag_337:\n        /* \"#utility.yul\":1694:1695   */\n      0x00\n        /* \"#utility.yul\":1685:1691   */\n      dup5\n        /* \"#utility.yul\":1680:1683   */\n      dup5\n        /* \"#utility.yul\":1676:1692   */\n      add\n        /* \"#utility.yul\":1669:1696   */\n      mstore\n        /* \"#utility.yul\":1518:1702   */\n      pop\n        /* \"#utility.yul\":1456:1702   */\n      pop\n      pop\n      pop\n      jump\t// out\n        /* \"#utility.yul\":1708:1810   */\n    tag_246:\n        /* \"#utility.yul\":1749:1755   */\n      0x00\n        /* \"#utility.yul\":1800:1802   */\n      0x1f\n        /* \"#utility.yul\":1796:1803   */\n      not\n        /* \"#utility.yul\":1791:1793   */\n      0x1f\n        /* \"#utility.yul\":1784:1789   */\n      dup4\n        /* \"#utility.yul\":1780:1794   */\n      add\n        /* \"#utility.yul\":1776:1804   */\n      and\n        /* \"#utility.yul\":1766:1804   */\n      swap1\n      pop\n        /* \"#utility.yul\":1708:1810   */\n      swap2\n      swap1\n      pop\n      jump\t// out\n        /* \"#utility.yul\":1816:2193   */\n    tag_247:\n        /* \"#utility.yul\":1904:1907   */\n      0x00\n        /* \"#utility.yul\":1932:1971   */\n      tag_340\n        /* \"#utility.yul\":1965:1970   */\n      dup3\n        /* \"#utility.yul\":1932:1971   */\n      tag_243\n      jump\t// in\n    tag_340:\n        /* \"#utility.yul\":1987:2058   */\n      tag_341\n        /* \"#utility.yul\":2051:2057   */\n      dup2\n        /* \"#utility.yul\":2046:2049   */\n      dup6\n        /* \"#utility.yul\":1987:2058   */\n      tag_244\n      jump\t// in\n    tag_341:\n        /* \"#utility.yul\":1980:2058   */\n      swap4\n      pop\n        /* \"#utility.yul\":2067:2132   */\n      tag_342\n        /* \"#utility.yul\":2125:2131   */\n      dup2\n        /* \"#utility.yul\":2120:2123   */\n      dup6\n        /* \"#utility.yul\":2113:2117   */\n      0x20\n        /* \"#utility.yul\":2106:2111   */\n      dup7\n        /* \"#utility.yul\":2102:2118   */\n      add\n        /* \"#utility.yul\":2067:2132   */\n      tag_245\n      jump\t// in\n    tag_342:\n        /* \"#utility.yul\":2157:2186   */\n      tag_343\n        /* \"#utility.yul\":2179:2185   */\n      dup2\n        /* \"#utility.yul\":2157:2186   */\n      tag_246\n      jump\t// in\n    tag_343:\n        /* \"#utility.yul\":2152:2155   */\n      dup5\n        /* \"#utility.yul\":2148:2187   */\n      add\n        /* \"#utility.yul\":2141:2187   */\n      swap2\n      pop\n        /* \"#utility.yul\":1908:2193   */\n      pop\n        /* \"#utility.yul\":1816:2193   */\n      swap3\n      swap2\n      pop\n      pop\n      jump\t// out\n        /* \"#utility.yul\":2199:2276   */\n    tag_248:\n        /* \"#utility.yul\":2236:2243   */\n      0x00\n        /* \"#utility.yul\":2265:2270   */\n      dup2\n        /* \"#utility.yul\":2254:2270   */\n      swap1\n      pop\n        /* \"#utility.yul\":2199:2276   */\n      swap2\n      swap1\n      pop\n      jump\t// out\n        /* \"#utility.yul\":2282:2400   */\n    tag_249:\n        /* \"#utility.yul\":2369:2393   */\n      tag_346\n        /* \"#utility.yul\":2387:2392   */\n      dup2\n        /* \"#utility.yul\":2369:2393   */\n      tag_248\n      jump\t// in\n    tag_346:\n        /* \"#utility.yul\":2364:2367   */\n      dup3\n        /* \"#utility.yul\":2357:2394   */\n      mstore\n        /* \"#utility.yul\":2282:2400   */\n      pop\n      pop\n      jump\t// out\n        /* \"#utility.yul\":2406:2496   */\n    tag_250:\n        /* \"#utility.yul\":2440:2447   */\n      0x00\n        /* \"#utility.yul\":2483:2488   */\n      dup2\n        /* \"#utility.yul\":2476:2489   */\n      iszero\n        /* \"#utility.yul\":2469:2490   */\n      iszero\n        /* \"#utility.yul\":2458:2490   */\n      swap1\n      pop\n        /* \"#utility.yul\":2406:2496   */\n      swap2\n      swap1\n      pop\n      jump\t// out\n        /* \"#utility.yul\":2502:2611   */\n    tag_251:\n        /* \"#utility.yul\":2583:2604   */\n      tag_349\n        /* \"#utility.yul\":2598:2603   */\n      dup2\n        /* \"#utility.yul\":2583:2604   */\n      tag_250\n      jump\t// in\n    tag_349:\n        /* \"#utility.yul\":2578:2581   */\n      dup3\n        /* \"#utility.yul\":2571:2605   */\n      mstore\n        /* \"#utility.yul\":2502:2611   */\n      pop\n      pop\n      jump\t// out\n        /* \"#utility.yul\":2617:2735   */\n    tag_252:\n        /* \"#utility.yul\":2704:2728   */\n      tag_351\n        /* \"#utility.yul\":2722:2727   */\n      dup2\n        /* \"#utility.yul\":2704:2728   */\n      tag_240\n      jump\t// in\n    tag_351:\n        /* \"#utility.yul\":2699:2702   */\n      dup3\n        /* \"#utility.yul\":2692:2729   */\n      mstore\n        /* \"#utility.yul\":2617:2735   */\n      pop\n      pop\n      jump\t// out\n        /* \"#utility.yul\":2741:3674   */\n    tag_23:\n        /* \"#utility.yul\":3002:3006   */\n      0x00\n        /* \"#utility.yul\":3040:3043   */\n      0xc0\n        /* \"#utility.yul\":3029:3038   */\n      dup3\n        /* \"#utility.yul\":3025:3044   */\n      add\n        /* \"#utility.yul\":3017:3044   */\n      swap1\n      pop\n        /* \"#utility.yul\":3090:3099   */\n      dup2\n        /* \"#utility.yul\":3084:3088   */\n      dup2\n        /* \"#utility.yul\":3080:3100   */\n      sub\n        /* \"#utility.yul\":3076:3077   */\n      0x00\n        /* \"#utility.yul\":3065:3074   */\n      dup4\n        /* \"#utility.yul\":3061:3078   */\n      add\n        /* \"#utility.yul\":3054:3101   */\n      mstore\n        /* \"#utility.yul\":3118:3196   */\n      tag_353\n        /* \"#utility.yul\":3191:3195   */\n      dup2\n        /* \"#utility.yul\":3182:3188   */\n      dup10\n        /* \"#utility.yul\":3118:3196   */\n      tag_247\n      jump\t// in\n    tag_353:\n        /* \"#utility.yul\":3110:3196   */\n      swap1\n      pop\n        /* \"#utility.yul\":3243:3252   */\n      dup2\n        /* \"#utility.yul\":3237:3241   */\n      dup2\n        /* \"#utility.yul\":3233:3253   */\n      sub\n        /* \"#utility.yul\":3228:3230   */\n      0x20\n        /* \"#utility.yul\":3217:3226   */\n      dup4\n        /* \"#utility.yul\":3213:3231   */\n      add\n        /* \"#utility.yul\":3206:3254   */\n      mstore\n        /* \"#utility.yul\":3271:3349   */\n      tag_354\n        /* \"#utility.yul\":3344:3348   */\n      dup2\n        /* \"#utility.yul\":3335:3341   */\n      dup9\n        /* \"#utility.yul\":3271:3349   */\n      tag_247\n      jump\t// in\n    tag_354:\n        /* \"#utility.yul\":3263:3349   */\n      swap1\n      pop\n        /* \"#utility.yul\":3359:3431   */\n      tag_355\n        /* \"#utility.yul\":3427:3429   */\n      0x40\n        /* \"#utility.yul\":3416:3425   */\n      dup4\n        /* \"#utility.yul\":3412:3430   */\n      add\n        /* \"#utility.yul\":3403:3409   */\n      dup8\n        /* \"#utility.yul\":3359:3431   */\n      tag_249\n      jump\t// in\n    tag_355:\n        /* \"#utility.yul\":3441:3507   */\n      tag_356\n        /* \"#utility.yul\":3503:3505   */\n      0x60\n        /* \"#utility.yul\":3492:3501   */\n      dup4\n        /* \"#utility.yul\":3488:3506   */\n      add\n        /* \"#utility.yul\":3479:3485   */\n      dup7\n        /* \"#utility.yul\":3441:3507   */\n      tag_251\n      jump\t// in\n    tag_356:\n        /* \"#utility.yul\":3517:3584   */\n      tag_357\n        /* \"#utility.yul\":3579:3582   */\n      0x80\n        /* \"#utility.yul\":3568:3577   */\n      dup4\n        /* \"#utility.yul\":3564:3583   */\n      add\n        /* \"#utility.yul\":3555:3561   */\n      dup6\n        /* \"#utility.yul\":3517:3584   */\n      tag_251\n      jump\t// in\n    tag_357:\n        /* \"#utility.yul\":3594:3667   */\n      tag_358\n        /* \"#utility.yul\":3662:3665   */\n      0xa0\n        /* \"#utility.yul\":3651:3660   */\n      dup4\n        /* \"#utility.yul\":3647:3666   */\n      add\n        /* \"#utility.yul\":3638:3644   */\n      dup5\n        /* \"#utility.yul\":3594:3667   */\n      tag_252\n      jump\t// in\n    tag_358:\n        /* \"#utility.yul\":2741:3674   */\n      swap8\n      swap7\n      pop\n      pop\n      pop\n      pop\n      pop\n      pop\n      pop\n      jump\t// out\n        /* \"#utility.yul\":3680:4209   */\n    tag_29:\n        /* \"#utility.yul\":3845:3849   */\n      0x00\n        /* \"#utility.yul\":3883:3886   */\n      0x80\n        /* \"#utility.yul\":3872:3881   */\n      dup3\n        /* \"#utility.yul\":3868:3887   */\n      add\n        /* \"#utility.yul\":3860:3887   */\n      swap1\n      pop\n        /* \"#utility.yul\":3897:3962   */\n      tag_360\n        /* \"#utility.yul\":3959:3960   */\n      0x00\n        /* \"#utility.yul\":3948:3957   */\n      dup4\n        /* \"#utility.yul\":3944:3961   */\n      add\n        /* \"#utility.yul\":3935:3941   */\n      dup8\n        /* \"#utility.yul\":3897:3962   */\n      tag_251\n      jump\t// in\n    tag_360:\n        /* \"#utility.yul\":3972:4038   */\n      tag_361\n        /* \"#utility.yul\":4034:4036   */\n      0x20\n        /* \"#utility.yul\":4023:4032   */\n      dup4\n        /* \"#utility.yul\":4019:4037   */\n      add\n        /* \"#utility.yul\":4010:4016   */\n      dup7\n        /* \"#utility.yul\":3972:4038   */\n      tag_251\n      jump\t// in\n    tag_361:\n        /* \"#utility.yul\":4048:4120   */\n      tag_362\n        /* \"#utility.yul\":4116:4118   */\n      0x40\n        /* \"#utility.yul\":4105:4114   */\n      dup4\n        /* \"#utility.yul\":4101:4119   */\n      add\n        /* \"#utility.yul\":4092:4098   */\n      dup6\n        /* \"#utility.yul\":4048:4120   */\n      tag_252\n      jump\t// in\n    tag_362:\n        /* \"#utility.yul\":4130:4202   */\n      tag_363\n        /* \"#utility.yul\":4198:4200   */\n      0x60\n        /* \"#utility.yul\":4187:4196   */\n      dup4\n        /* \"#utility.yul\":4183:4201   */\n      add\n        /* \"#utility.yul\":4174:4180   */\n      dup5\n        /* \"#utility.yul\":4130:4202   */\n      tag_252\n      jump\t// in\n    tag_363:\n        /* \"#utility.yul\":3680:4209   */\n      swap6\n      swap5\n      pop\n      pop\n      pop\n      pop\n      pop\n      jump\t// out\n        /* \"#utility.yul\":4215:4958   */\n    tag_35:\n        /* \"#utility.yul\":4434:4438   */\n      0x00\n        /* \"#utility.yul\":4472:4475   */\n      0xa0\n        /* \"#utility.yul\":4461:4470   */\n      dup3\n        /* \"#utility.yul\":4457:4476   */\n      add\n        /* \"#utility.yul\":4449:4476   */\n      swap1\n      pop\n        /* \"#utility.yul\":4522:4531   */\n      dup2\n        /* \"#utility.yul\":4516:4520   */\n      dup2\n        /* \"#utility.yul\":4512:4532   */\n      sub\n        /* \"#utility.yul\":4508:4509   */\n      0x00\n        /* \"#utility.yul\":4497:4506   */\n      dup4\n        /* \"#utility.yul\":4493:4510   */\n      add\n        /* \"#utility.yul\":4486:4533   */\n      mstore\n        /* \"#utility.yul\":4550:4628   */\n      tag_365\n        /* \"#utility.yul\":4623:4627   */\n      dup2\n        /* \"#utility.yul\":4614:4620   */\n      dup9\n        /* \"#utility.yul\":4550:4628   */\n      tag_247\n      jump\t// in\n    tag_365:\n        /* \"#utility.yul\":4542:4628   */\n      swap1\n      pop\n        /* \"#utility.yul\":4638:4710   */\n      tag_366\n        /* \"#utility.yul\":4706:4708   */\n      0x20\n        /* \"#utility.yul\":4695:4704   */\n      dup4\n        /* \"#utility.yul\":4691:4709   */\n      add\n        /* \"#utility.yul\":4682:4688   */\n      dup8\n        /* \"#utility.yul\":4638:4710   */\n      tag_249\n      jump\t// in\n    tag_366:\n        /* \"#utility.yul\":4720:4786   */\n      tag_367\n        /* \"#utility.yul\":4782:4784   */\n      0x40\n        /* \"#utility.yul\":4771:4780   */\n      dup4\n        /* \"#utility.yul\":4767:4785   */\n      add\n        /* \"#utility.yul\":4758:4764   */\n      dup7\n        /* \"#utility.yul\":4720:4786   */\n      tag_251\n      jump\t// in\n    tag_367:\n        /* \"#utility.yul\":4796:4868   */\n      tag_368\n        /* \"#utility.yul\":4864:4866   */\n      0x60\n        /* \"#utility.yul\":4853:4862   */\n      dup4\n        /* \"#utility.yul\":4849:4867   */\n      add\n        /* \"#utility.yul\":4840:4846   */\n      dup6\n        /* \"#utility.yul\":4796:4868   */\n      tag_252\n      jump\t// in\n    tag_368:\n        /* \"#utility.yul\":4878:4951   */\n      tag_369\n        /* \"#utility.yul\":4946:4949   */\n      0x80\n        /* \"#utility.yul\":4935:4944   */\n      dup4\n        /* \"#utility.yul\":4931:4950   */\n      add\n        /* \"#utility.yul\":4922:4928   */\n      dup5\n        /* \"#utility.yul\":4878:4951   */\n      tag_249\n      jump\t// in\n    tag_369:\n        /* \"#utility.yul\":4215:4958   */\n      swap7\n      swap6\n      pop\n      pop\n      pop\n      pop\n      pop\n      pop\n      jump\t// out\n        /* \"#utility.yul\":4964:5081   */\n    tag_253:\n        /* \"#utility.yul\":5073:5074   */\n      0x00\n        /* \"#utility.yul\":5070:5071   */\n      dup1\n        /* \"#utility.yul\":5063:5075   */\n      revert\n        /* \"#utility.yul\":5087:5204   */\n    tag_254:\n        /* \"#utility.yul\":5196:5197   */\n      0x00\n        /* \"#utility.yul\":5193:5194   */\n      dup1\n        /* \"#utility.yul\":5186:5198   */\n      revert\n        /* \"#utility.yul\":5210:5390   */\n    tag_132:\n        /* \"#utility.yul\":5258:5335   */\n      0x4e487b7100000000000000000000000000000000000000000000000000000000\n        /* \"#utility.yul\":5255:5256   */\n      0x00\n        /* \"#utility.yul\":5248:5336   */\n      mstore\n        /* \"#utility.yul\":5355:5359   */\n      0x41\n        /* \"#utility.yul\":5352:5353   */\n      0x04\n        /* \"#utility.yul\":5345:5360   */\n      mstore\n        /* \"#utility.yul\":5379:5383   */\n      0x24\n        /* \"#utility.yul\":5376:5377   */\n      0x00\n        /* \"#utility.yul\":5369:5384   */\n      revert\n        /* \"#utility.yul\":5396:5677   */\n    tag_255:\n        /* \"#utility.yul\":5479:5506   */\n      tag_374\n        /* \"#utility.yul\":5501:5505   */\n      dup3\n        /* \"#utility.yul\":5479:5506   */\n      tag_246\n      jump\t// in\n    tag_374:\n        /* \"#utility.yul\":5471:5477   */\n      dup2\n        /* \"#utility.yul\":5467:5507   */\n      add\n        /* \"#utility.yul\":5609:5615   */\n      dup2\n        /* \"#utility.yul\":5597:5607   */\n      dup2\n        /* \"#utility.yul\":5594:5616   */\n      lt\n        /* \"#utility.yul\":5573:5591   */\n      0xffffffffffffffff\n        /* \"#utility.yul\":5561:5571   */\n      dup3\n        /* \"#utility.yul\":5558:5592   */\n      gt\n        /* \"#utility.yul\":5555:5617   */\n      or\n        /* \"#utility.yul\":5552:5640   */\n      iszero\n      tag_375\n      jumpi\n        /* \"#utility.yul\":5620:5638   */\n      tag_376\n      tag_132\n      jump\t// in\n    tag_376:\n        /* \"#utility.yul\":5552:5640   */\n    tag_375:\n        /* \"#utility.yul\":5660:5670   */\n      dup1\n        /* \"#utility.yul\":5656:5658   */\n      0x40\n        /* \"#utility.yul\":5649:5671   */\n      mstore\n        /* \"#utility.yul\":5439:5677   */\n      pop\n        /* \"#utility.yul\":5396:5677   */\n      pop\n      pop\n      jump\t// out\n        /* \"#utility.yul\":5683:5812   */\n    tag_256:\n        /* \"#utility.yul\":5717:5723   */\n      0x00\n        /* \"#utility.yul\":5744:5764   */\n      tag_378\n      tag_236\n      jump\t// in\n    tag_378:\n        /* \"#utility.yul\":5734:5764   */\n      swap1\n      pop\n        /* \"#utility.yul\":5773:5806   */\n      tag_379\n        /* \"#utility.yul\":5801:5805   */\n      dup3\n        /* \"#utility.yul\":5793:5799   */\n      dup3\n        /* \"#utility.yul\":5773:5806   */\n      tag_255\n      jump\t// in\n    tag_379:\n        /* \"#utility.yul\":5683:5812   */\n      swap2\n      swap1\n      pop\n      jump\t// out\n        /* \"#utility.yul\":5818:6126   */\n    tag_257:\n        /* \"#utility.yul\":5880:5884   */\n      0x00\n        /* \"#utility.yul\":5970:5988   */\n      0xffffffffffffffff\n        /* \"#utility.yul\":5962:5968   */\n      dup3\n        /* \"#utility.yul\":5959:5989   */\n      gt\n        /* \"#utility.yul\":5956:6012   */\n      iszero\n      tag_381\n      jumpi\n        /* \"#utility.yul\":5992:6010   */\n      tag_382\n      tag_132\n      jump\t// in\n    tag_382:\n        /* \"#utility.yul\":5956:6012   */\n    tag_381:\n        /* \"#utility.yul\":6030:6059   */\n      tag_383\n        /* \"#utility.yul\":6052:6058   */\n      dup3\n        /* \"#utility.yul\":6030:6059   */\n      tag_246\n      jump\t// in\n    tag_383:\n        /* \"#utility.yul\":6022:6059   */\n      swap1\n      pop\n        /* \"#utility.yul\":6114:6118   */\n      0x20\n        /* \"#utility.yul\":6108:6112   */\n      dup2\n        /* \"#utility.yul\":6104:6119   */\n      add\n        /* \"#utility.yul\":6096:6119   */\n      swap1\n      pop\n        /* \"#utility.yul\":5818:6126   */\n      swap2\n      swap1\n      pop\n      jump\t// out\n        /* \"#utility.yul\":6132:6278   */\n    tag_258:\n        /* \"#utility.yul\":6229:6235   */\n      dup3\n        /* \"#utility.yul\":6224:6227   */\n      dup2\n        /* \"#utility.yul\":6219:6222   */\n      dup4\n        /* \"#utility.yul\":6206:6236   */\n      calldatacopy\n        /* \"#utility.yul\":6270:6271   */\n      0x00\n        /* \"#utility.yul\":6261:6267   */\n      dup4\n        /* \"#utility.yul\":6256:6259   */\n      dup4\n        /* \"#utility.yul\":6252:6268   */\n      add\n        /* \"#utility.yul\":6245:6272   */\n      mstore\n        /* \"#utility.yul\":6132:6278   */\n      pop\n      pop\n      pop\n      jump\t// out\n        /* \"#utility.yul\":6284:6709   */\n    tag_259:\n        /* \"#utility.yul\":6362:6367   */\n      0x00\n        /* \"#utility.yul\":6387:6453   */\n      tag_386\n        /* \"#utility.yul\":6403:6452   */\n      tag_387\n        /* \"#utility.yul\":6445:6451   */\n      dup5\n        /* \"#utility.yul\":6403:6452   */\n      tag_257\n      jump\t// in\n    tag_387:\n        /* \"#utility.yul\":6387:6453   */\n      tag_256\n      jump\t// in\n    tag_386:\n        /* \"#utility.yul\":6378:6453   */\n      swap1\n      pop\n        /* \"#utility.yul\":6476:6482   */\n      dup3\n        /* \"#utility.yul\":6469:6474   */\n      dup2\n        /* \"#utility.yul\":6462:6483   */\n      mstore\n        /* \"#utility.yul\":6514:6518   */\n      0x20\n        /* \"#utility.yul\":6507:6512   */\n      dup2\n        /* \"#utility.yul\":6503:6519   */\n      add\n        /* \"#utility.yul\":6552:6555   */\n      dup5\n        /* \"#utility.yul\":6543:6549   */\n      dup5\n        /* \"#utility.yul\":6538:6541   */\n      dup5\n        /* \"#utility.yul\":6534:6550   */\n      add\n        /* \"#utility.yul\":6531:6556   */\n      gt\n        /* \"#utility.yul\":6528:6640   */\n      iszero\n      tag_388\n      jumpi\n        /* \"#utility.yul\":6559:6638   */\n      tag_389\n      tag_254\n      jump\t// in\n    tag_389:\n        /* \"#utility.yul\":6528:6640   */\n    tag_388:\n        /* \"#utility.yul\":6649:6703   */\n      tag_390\n        /* \"#utility.yul\":6696:6702   */\n      dup5\n        /* \"#utility.yul\":6691:6694   */\n      dup3\n        /* \"#utility.yul\":6686:6689   */\n      dup6\n        /* \"#utility.yul\":6649:6703   */\n      tag_258\n      jump\t// in\n    tag_390:\n        /* \"#utility.yul\":6368:6709   */\n      pop\n        /* \"#utility.yul\":6284:6709   */\n      swap4\n      swap3\n      pop\n      pop\n      pop\n      jump\t// out\n        /* \"#utility.yul\":6729:7069   */\n    tag_260:\n        /* \"#utility.yul\":6785:6790   */\n      0x00\n        /* \"#utility.yul\":6834:6837   */\n      dup3\n        /* \"#utility.yul\":6827:6831   */\n      0x1f\n        /* \"#utility.yul\":6819:6825   */\n      dup4\n        /* \"#utility.yul\":6815:6832   */\n      add\n        /* \"#utility.yul\":6811:6838   */\n      slt\n        /* \"#utility.yul\":6801:6923   */\n      tag_392\n      jumpi\n        /* \"#utility.yul\":6842:6921   */\n      tag_393\n      tag_253\n      jump\t// in\n    tag_393:\n        /* \"#utility.yul\":6801:6923   */\n    tag_392:\n        /* \"#utility.yul\":6959:6965   */\n      dup2\n        /* \"#utility.yul\":6946:6966   */\n      calldataload\n        /* \"#utility.yul\":6984:7063   */\n      tag_394\n        /* \"#utility.yul\":7059:7062   */\n      dup5\n        /* \"#utility.yul\":7051:7057   */\n      dup3\n        /* \"#utility.yul\":7044:7048   */\n      0x20\n        /* \"#utility.yul\":7036:7042   */\n      dup7\n        /* \"#utility.yul\":7032:7049   */\n      add\n        /* \"#utility.yul\":6984:7063   */\n      tag_259\n      jump\t// in\n    tag_394:\n        /* \"#utility.yul\":6975:7063   */\n      swap2\n      pop\n        /* \"#utility.yul\":6791:7069   */\n      pop\n        /* \"#utility.yul\":6729:7069   */\n      swap3\n      swap2\n      pop\n      pop\n      jump\t// out\n        /* \"#utility.yul\":7075:7197   */\n    tag_261:\n        /* \"#utility.yul\":7148:7172   */\n      tag_396\n        /* \"#utility.yul\":7166:7171   */\n      dup2\n        /* \"#utility.yul\":7148:7172   */\n      tag_248\n      jump\t// in\n    tag_396:\n        /* \"#utility.yul\":7141:7146   */\n      dup2\n        /* \"#utility.yul\":7138:7173   */\n      eq\n        /* \"#utility.yul\":7128:7191   */\n      tag_397\n      jumpi\n        /* \"#utility.yul\":7187:7188   */\n      0x00\n        /* \"#utility.yul\":7184:7185   */\n      dup1\n        /* \"#utility.yul\":7177:7189   */\n      revert\n        /* \"#utility.yul\":7128:7191   */\n    tag_397:\n        /* \"#utility.yul\":7075:7197   */\n      pop\n      jump\t// out\n        /* \"#utility.yul\":7203:7342   */\n    tag_262:\n        /* \"#utility.yul\":7249:7254   */\n      0x00\n        /* \"#utility.yul\":7287:7293   */\n      dup2\n        /* \"#utility.yul\":7274:7294   */\n      calldataload\n        /* \"#utility.yul\":7265:7294   */\n      swap1\n      pop\n        /* \"#utility.yul\":7303:7336   */\n      tag_399\n        /* \"#utility.yul\":7330:7335   */\n      dup2\n        /* \"#utility.yul\":7303:7336   */\n      tag_261\n      jump\t// in\n    tag_399:\n        /* \"#utility.yul\":7203:7342   */\n      swap3\n      swap2\n      pop\n      pop\n      jump\t// out\n        /* \"#utility.yul\":7348:8002   */\n    tag_48:\n        /* \"#utility.yul\":7426:7432   */\n      0x00\n        /* \"#utility.yul\":7434:7440   */\n      dup1\n        /* \"#utility.yul\":7483:7485   */\n      0x40\n        /* \"#utility.yul\":7471:7480   */\n      dup4\n        /* \"#utility.yul\":7462:7469   */\n      dup6\n        /* \"#utility.yul\":7458:7481   */\n      sub\n        /* \"#utility.yul\":7454:7486   */\n      slt\n        /* \"#utility.yul\":7451:7570   */\n      iszero\n      tag_401\n      jumpi\n        /* \"#utility.yul\":7489:7568   */\n      tag_402\n      tag_237\n      jump\t// in\n    tag_402:\n        /* \"#utility.yul\":7451:7570   */\n    tag_401:\n        /* \"#utility.yul\":7637:7638   */\n      0x00\n        /* \"#utility.yul\":7626:7635   */\n      dup4\n        /* \"#utility.yul\":7622:7639   */\n      add\n        /* \"#utility.yul\":7609:7640   */\n      calldataload\n        /* \"#utility.yul\":7667:7685   */\n      0xffffffffffffffff\n        /* \"#utility.yul\":7659:7665   */\n      dup2\n        /* \"#utility.yul\":7656:7686   */\n      gt\n        /* \"#utility.yul\":7653:7770   */\n      iszero\n      tag_403\n      jumpi\n        /* \"#utility.yul\":7689:7768   */\n      tag_404\n      tag_238\n      jump\t// in\n    tag_404:\n        /* \"#utility.yul\":7653:7770   */\n    tag_403:\n        /* \"#utility.yul\":7794:7857   */\n      tag_405\n        /* \"#utility.yul\":7849:7856   */\n      dup6\n        /* \"#utility.yul\":7840:7846   */\n      dup3\n        /* \"#utility.yul\":7829:7838   */\n      dup7\n        /* \"#utility.yul\":7825:7847   */\n      add\n        /* \"#utility.yul\":7794:7857   */\n      tag_260\n      jump\t// in\n    tag_405:\n        /* \"#utility.yul\":7784:7857   */\n      swap3\n      pop\n        /* \"#utility.yul\":7580:7867   */\n      pop\n        /* \"#utility.yul\":7906:7908   */\n      0x20\n        /* \"#utility.yul\":7932:7985   */\n      tag_406\n        /* \"#utility.yul\":7977:7984   */\n      dup6\n        /* \"#utility.yul\":7968:7974   */\n      dup3\n        /* \"#utility.yul\":7957:7966   */\n      dup7\n        /* \"#utility.yul\":7953:7975   */\n      add\n        /* \"#utility.yul\":7932:7985   */\n      tag_262\n      jump\t// in\n    tag_406:\n        /* \"#utility.yul\":7922:7985   */\n      swap2\n      pop\n        /* \"#utility.yul\":7877:7995   */\n      pop\n        /* \"#utility.yul\":7348:8002   */\n      swap3\n      pop\n      swap3\n      swap1\n      pop\n      jump\t// out\n        /* \"#utility.yul\":8008:8517   */\n    tag_63:\n        /* \"#utility.yul\":8077:8083   */\n      0x00\n        /* \"#utility.yul\":8126:8128   */\n      0x20\n        /* \"#utility.yul\":8114:8123   */\n      dup3\n        /* \"#utility.yul\":8105:8112   */\n      dup5\n        /* \"#utility.yul\":8101:8124   */\n      sub\n        /* \"#utility.yul\":8097:8129   */\n      slt\n        /* \"#utility.yul\":8094:8213   */\n      iszero\n      tag_408\n      jumpi\n        /* \"#utility.yul\":8132:8211   */\n      tag_409\n      tag_237\n      jump\t// in\n    tag_409:\n        /* \"#utility.yul\":8094:8213   */\n    tag_408:\n        /* \"#utility.yul\":8280:8281   */\n      0x00\n        /* \"#utility.yul\":8269:8278   */\n      dup3\n        /* \"#utility.yul\":8265:8282   */\n      add\n        /* \"#utility.yul\":8252:8283   */\n      calldataload\n        /* \"#utility.yul\":8310:8328   */\n      0xffffffffffffffff\n        /* \"#utility.yul\":8302:8308   */\n      dup2\n        /* \"#utility.yul\":8299:8329   */\n      gt\n        /* \"#utility.yul\":8296:8413   */\n      iszero\n      tag_410\n      jumpi\n        /* \"#utility.yul\":8332:8411   */\n      tag_411\n      tag_238\n      jump\t// in\n    tag_411:\n        /* \"#utility.yul\":8296:8413   */\n    tag_410:\n        /* \"#utility.yul\":8437:8500   */\n      tag_412\n        /* \"#utility.yul\":8492:8499   */\n      dup5\n        /* \"#utility.yul\":8483:8489   */\n      dup3\n        /* \"#utility.yul\":8472:8481   */\n      dup6\n        /* \"#utility.yul\":8468:8490   */\n      add\n        /* \"#utility.yul\":8437:8500   */\n      tag_260\n      jump\t// in\n    tag_412:\n        /* \"#utility.yul\":8427:8500   */\n      swap2\n      pop\n        /* \"#utility.yul\":8223:8510   */\n      pop\n        /* \"#utility.yul\":8008:8517   */\n      swap3\n      swap2\n      pop\n      pop\n      jump\t// out\n        /* \"#utility.yul\":8523:9502   */\n    tag_68:\n        /* \"#utility.yul\":8620:8626   */\n      0x00\n        /* \"#utility.yul\":8628:8634   */\n      dup1\n        /* \"#utility.yul\":8636:8642   */\n      0x00\n        /* \"#utility.yul\":8685:8687   */\n      0x60\n        /* \"#utility.yul\":8673:8682   */\n      dup5\n        /* \"#utility.yul\":8664:8671   */\n      dup7\n        /* \"#utility.yul\":8660:8683   */\n      sub\n        /* \"#utility.yul\":8656:8688   */\n      slt\n        /* \"#utility.yul\":8653:8772   */\n      iszero\n      tag_414\n      jumpi\n        /* \"#utility.yul\":8691:8770   */\n      tag_415\n      tag_237\n      jump\t// in\n    tag_415:\n        /* \"#utility.yul\":8653:8772   */\n    tag_414:\n        /* \"#utility.yul\":8839:8840   */\n      0x00\n        /* \"#utility.yul\":8828:8837   */\n      dup5\n        /* \"#utility.yul\":8824:8841   */\n      add\n        /* \"#utility.yul\":8811:8842   */\n      calldataload\n        /* \"#utility.yul\":8869:8887   */\n      0xffffffffffffffff\n        /* \"#utility.yul\":8861:8867   */\n      dup2\n        /* \"#utility.yul\":8858:8888   */\n      gt\n        /* \"#utility.yul\":8855:8972   */\n      iszero\n      tag_416\n      jumpi\n        /* \"#utility.yul\":8891:8970   */\n      tag_417\n      tag_238\n      jump\t// in\n    tag_417:\n        /* \"#utility.yul\":8855:8972   */\n    tag_416:\n        /* \"#utility.yul\":8996:9059   */\n      tag_418\n        /* \"#utility.yul\":9051:9058   */\n      dup7\n        /* \"#utility.yul\":9042:9048   */\n      dup3\n        /* \"#utility.yul\":9031:9040   */\n      dup8\n        /* \"#utility.yul\":9027:9049   */\n      add\n        /* \"#utility.yul\":8996:9059   */\n      tag_260\n      jump\t// in\n    tag_418:\n        /* \"#utility.yul\":8986:9059   */\n      swap4\n      pop\n        /* \"#utility.yul\":8782:9069   */\n      pop\n        /* \"#utility.yul\":9136:9138   */\n      0x20\n        /* \"#utility.yul\":9125:9134   */\n      dup5\n        /* \"#utility.yul\":9121:9139   */\n      add\n        /* \"#utility.yul\":9108:9140   */\n      calldataload\n        /* \"#utility.yul\":9167:9185   */\n      0xffffffffffffffff\n        /* \"#utility.yul\":9159:9165   */\n      dup2\n        /* \"#utility.yul\":9156:9186   */\n      gt\n        /* \"#utility.yul\":9153:9270   */\n      iszero\n      tag_419\n      jumpi\n        /* \"#utility.yul\":9189:9268   */\n      tag_420\n      tag_238\n      jump\t// in\n    tag_420:\n        /* \"#utility.yul\":9153:9270   */\n    tag_419:\n        /* \"#utility.yul\":9294:9357   */\n      tag_421\n        /* \"#utility.yul\":9349:9356   */\n      dup7\n        /* \"#utility.yul\":9340:9346   */\n      dup3\n        /* \"#utility.yul\":9329:9338   */\n      dup8\n        /* \"#utility.yul\":9325:9347   */\n      add\n        /* \"#utility.yul\":9294:9357   */\n      tag_260\n      jump\t// in\n    tag_421:\n        /* \"#utility.yul\":9284:9357   */\n      swap3\n      pop\n        /* \"#utility.yul\":9079:9367   */\n      pop\n        /* \"#utility.yul\":9406:9408   */\n      0x40\n        /* \"#utility.yul\":9432:9485   */\n      tag_422\n        /* \"#utility.yul\":9477:9484   */\n      dup7\n        /* \"#utility.yul\":9468:9474   */\n      dup3\n        /* \"#utility.yul\":9457:9466   */\n      dup8\n        /* \"#utility.yul\":9453:9475   */\n      add\n        /* \"#utility.yul\":9432:9485   */\n      tag_262\n      jump\t// in\n    tag_422:\n        /* \"#utility.yul\":9422:9485   */\n      swap2\n      pop\n        /* \"#utility.yul\":9377:9495   */\n      pop\n        /* \"#utility.yul\":8523:9502   */\n      swap3\n      pop\n      swap3\n      pop\n      swap3\n      jump\t// out\n        /* \"#utility.yul\":9508:9688   */\n    tag_263:\n        /* \"#utility.yul\":9556:9633   */\n      0x4e487b7100000000000000000000000000000000000000000000000000000000\n        /* \"#utility.yul\":9553:9554   */\n      0x00\n        /* \"#utility.yul\":9546:9634   */\n      mstore\n        /* \"#utility.yul\":9653:9657   */\n      0x22\n        /* \"#utility.yul\":9650:9651   */\n      0x04\n        /* \"#utility.yul\":9643:9658   */\n      mstore\n        /* \"#utility.yul\":9677:9681   */\n      0x24\n        /* \"#utility.yul\":9674:9675   */\n      0x00\n        /* \"#utility.yul\":9667:9682   */\n      revert\n        /* \"#utility.yul\":9694:10014   */\n    tag_77:\n        /* \"#utility.yul\":9738:9744   */\n      0x00\n        /* \"#utility.yul\":9775:9776   */\n      0x02\n        /* \"#utility.yul\":9769:9773   */\n      dup3\n        /* \"#utility.yul\":9765:9777   */\n      div\n        /* \"#utility.yul\":9755:9777   */\n      swap1\n      pop\n        /* \"#utility.yul\":9822:9823   */\n      0x01\n        /* \"#utility.yul\":9816:9820   */\n      dup3\n        /* \"#utility.yul\":9812:9824   */\n      and\n        /* \"#utility.yul\":9843:9861   */\n      dup1\n        /* \"#utility.yul\":9833:9914   */\n      tag_425\n      jumpi\n        /* \"#utility.yul\":9899:9903   */\n      0x7f\n        /* \"#utility.yul\":9891:9897   */\n      dup3\n        /* \"#utility.yul\":9887:9904   */\n      and\n        /* \"#utility.yul\":9877:9904   */\n      swap2\n      pop\n        /* \"#utility.yul\":9833:9914   */\n    tag_425:\n        /* \"#utility.yul\":9961:9963   */\n      0x20\n        /* \"#utility.yul\":9953:9959   */\n      dup3\n        /* \"#utility.yul\":9950:9964   */\n      lt\n        /* \"#utility.yul\":9930:9948   */\n      dup2\n        /* \"#utility.yul\":9927:9965   */\n      sub\n        /* \"#utility.yul\":9924:10008   */\n      tag_426\n      jumpi\n        /* \"#utility.yul\":9980:9998   */\n      tag_427\n      tag_263\n      jump\t// in\n    tag_427:\n        /* \"#utility.yul\":9924:10008   */\n    tag_426:\n        /* \"#utility.yul\":9745:10014   */\n      pop\n        /* \"#utility.yul\":9694:10014   */\n      swap2\n      swap1\n      pop\n      jump\t// out\n        /* \"#utility.yul\":10020:10315   */\n    tag_264:\n        /* \"#utility.yul\":10160:10194   */\n      0x4f6e6c792072656769737465726564207573657273207769746820746f6b656e\n        /* \"#utility.yul\":10156:10157   */\n      0x00\n        /* \"#utility.yul\":10148:10154   */\n      dup3\n        /* \"#utility.yul\":10144:10158   */\n      add\n        /* \"#utility.yul\":10137:10195   */\n      mstore\n        /* \"#utility.yul\":10229:10263   */\n      0x206964656e746974792063616e2061636365737320746869732066756e637469\n        /* \"#utility.yul\":10224:10226   */\n      0x20\n        /* \"#utility.yul\":10216:10222   */\n      dup3\n        /* \"#utility.yul\":10212:10227   */\n      add\n        /* \"#utility.yul\":10205:10264   */\n      mstore\n        /* \"#utility.yul\":10298:10307   */\n      0x6f6e616c69747900000000000000000000000000000000000000000000000000\n        /* \"#utility.yul\":10293:10295   */\n      0x40\n        /* \"#utility.yul\":10285:10291   */\n      dup3\n        /* \"#utility.yul\":10281:10296   */\n      add\n        /* \"#utility.yul\":10274:10308   */\n      mstore\n        /* \"#utility.yul\":10020:10315   */\n      pop\n      jump\t// out\n        /* \"#utility.yul\":10321:10687   */\n    tag_265:\n        /* \"#utility.yul\":10463:10466   */\n      0x00\n        /* \"#utility.yul\":10484:10551   */\n      tag_430\n        /* \"#utility.yul\":10548:10550   */\n      0x47\n        /* \"#utility.yul\":10543:10546   */\n      dup4\n        /* \"#utility.yul\":10484:10551   */\n      tag_244\n      jump\t// in\n    tag_430:\n        /* \"#utility.yul\":10477:10551   */\n      swap2\n      pop\n        /* \"#utility.yul\":10560:10653   */\n      tag_431\n        /* \"#utility.yul\":10649:10652   */\n      dup3\n        /* \"#utility.yul\":10560:10653   */\n      tag_264\n      jump\t// in\n    tag_431:\n        /* \"#utility.yul\":10678:10680   */\n      0x60\n        /* \"#utility.yul\":10673:10676   */\n      dup3\n        /* \"#utility.yul\":10669:10681   */\n      add\n        /* \"#utility.yul\":10662:10681   */\n      swap1\n      pop\n        /* \"#utility.yul\":10321:10687   */\n      swap2\n      swap1\n      pop\n      jump\t// out\n        /* \"#utility.yul\":10693:11112   */\n    tag_96:\n        /* \"#utility.yul\":10859:10863   */\n      0x00\n        /* \"#utility.yul\":10897:10899   */\n      0x20\n        /* \"#utility.yul\":10886:10895   */\n      dup3\n        /* \"#utility.yul\":10882:10900   */\n      add\n        /* \"#utility.yul\":10874:10900   */\n      swap1\n      pop\n        /* \"#utility.yul\":10946:10955   */\n      dup2\n        /* \"#utility.yul\":10940:10944   */\n      dup2\n        /* \"#utility.yul\":10936:10956   */\n      sub\n        /* \"#utility.yul\":10932:10933   */\n      0x00\n        /* \"#utility.yul\":10921:10930   */\n      dup4\n        /* \"#utility.yul\":10917:10934   */\n      add\n        /* \"#utility.yul\":10910:10957   */\n      mstore\n        /* \"#utility.yul\":10974:11105   */\n      tag_433\n        /* \"#utility.yul\":11100:11104   */\n      dup2\n        /* \"#utility.yul\":10974:11105   */\n      tag_265\n      jump\t// in\n    tag_433:\n        /* \"#utility.yul\":10966:11105   */\n      swap1\n      pop\n        /* \"#utility.yul\":10693:11112   */\n      swap2\n      swap1\n      pop\n      jump\t// out\n        /* \"#utility.yul\":11118:11290   */\n    tag_266:\n        /* \"#utility.yul\":11258:11282   */\n      0x41756374696f6e20646f6573206e6f7420657869737400000000000000000000\n        /* \"#utility.yul\":11254:11255   */\n      0x00\n        /* \"#utility.yul\":11246:11252   */\n      dup3\n        /* \"#utility.yul\":11242:11256   */\n      add\n        /* \"#utility.yul\":11235:11283   */\n      mstore\n        /* \"#utility.yul\":11118:11290   */\n      pop\n      jump\t// out\n        /* \"#utility.yul\":11296:11662   */\n    tag_267:\n        /* \"#utility.yul\":11438:11441   */\n      0x00\n        /* \"#utility.yul\":11459:11526   */\n      tag_436\n        /* \"#utility.yul\":11523:11525   */\n      0x16\n        /* \"#utility.yul\":11518:11521   */\n      dup4\n        /* \"#utility.yul\":11459:11526   */\n      tag_244\n      jump\t// in\n    tag_436:\n        /* \"#utility.yul\":11452:11526   */\n      swap2\n      pop\n        /* \"#utility.yul\":11535:11628   */\n      tag_437\n        /* \"#utility.yul\":11624:11627   */\n      dup3\n        /* \"#utility.yul\":11535:11628   */\n      tag_266\n      jump\t// in\n    tag_437:\n        /* \"#utility.yul\":11653:11655   */\n      0x20\n        /* \"#utility.yul\":11648:11651   */\n      dup3\n        /* \"#utility.yul\":11644:11656   */\n      add\n        /* \"#utility.yul\":11637:11656   */\n      swap1\n      pop\n        /* \"#utility.yul\":11296:11662   */\n      swap2\n      swap1\n      pop\n      jump\t// out\n        /* \"#utility.yul\":11668:12087   */\n    tag_100:\n        /* \"#utility.yul\":11834:11838   */\n      0x00\n        /* \"#utility.yul\":11872:11874   */\n      0x20\n        /* \"#utility.yul\":11861:11870   */\n      dup3\n        /* \"#utility.yul\":11857:11875   */\n      add\n        /* \"#utility.yul\":11849:11875   */\n      swap1\n      pop\n        /* \"#utility.yul\":11921:11930   */\n      dup2\n        /* \"#utility.yul\":11915:11919   */\n      dup2\n        /* \"#utility.yul\":11911:11931   */\n      sub\n        /* \"#utility.yul\":11907:11908   */\n      0x00\n        /* \"#utility.yul\":11896:11905   */\n      dup4\n        /* \"#utility.yul\":11892:11909   */\n      add\n        /* \"#utility.yul\":11885:11932   */\n      mstore\n        /* \"#utility.yul\":11949:12080   */\n      tag_439\n        /* \"#utility.yul\":12075:12079   */\n      dup2\n        /* \"#utility.yul\":11949:12080   */\n      tag_267\n      jump\t// in\n    tag_439:\n        /* \"#utility.yul\":11941:12080   */\n      swap1\n      pop\n        /* \"#utility.yul\":11668:12087   */\n      swap2\n      swap1\n      pop\n      jump\t// out\n        /* \"#utility.yul\":12093:12268   */\n    tag_268:\n        /* \"#utility.yul\":12233:12260   */\n      0x41756374696f6e2068617320616c726561647920656e64656400000000000000\n        /* \"#utility.yul\":12229:12230   */\n      0x00\n        /* \"#utility.yul\":12221:12227   */\n      dup3\n        /* \"#utility.yul\":12217:12231   */\n      add\n        /* \"#utility.yul\":12210:12261   */\n      mstore\n        /* \"#utility.yul\":12093:12268   */\n      pop\n      jump\t// out\n        /* \"#utility.yul\":12274:12640   */\n    tag_269:\n        /* \"#utility.yul\":12416:12419   */\n      0x00\n        /* \"#utility.yul\":12437:12504   */\n      tag_442\n        /* \"#utility.yul\":12501:12503   */\n      0x19\n        /* \"#utility.yul\":12496:12499   */\n      dup4\n        /* \"#utility.yul\":12437:12504   */\n      tag_244\n      jump\t// in\n    tag_442:\n        /* \"#utility.yul\":12430:12504   */\n      swap2\n      pop\n        /* \"#utility.yul\":12513:12606   */\n      tag_443\n        /* \"#utility.yul\":12602:12605   */\n      dup3\n        /* \"#utility.yul\":12513:12606   */\n      tag_268\n      jump\t// in\n    tag_443:\n        /* \"#utility.yul\":12631:12633   */\n      0x20\n        /* \"#utility.yul\":12626:12629   */\n      dup3\n        /* \"#utility.yul\":12622:12634   */\n      add\n        /* \"#utility.yul\":12615:12634   */\n      swap1\n      pop\n        /* \"#utility.yul\":12274:12640   */\n      swap2\n      swap1\n      pop\n      jump\t// out\n        /* \"#utility.yul\":12646:13065   */\n    tag_103:\n        /* \"#utility.yul\":12812:12816   */\n      0x00\n        /* \"#utility.yul\":12850:12852   */\n      0x20\n        /* \"#utility.yul\":12839:12848   */\n      dup3\n        /* \"#utility.yul\":12835:12853   */\n      add\n        /* \"#utility.yul\":12827:12853   */\n      swap1\n      pop\n        /* \"#utility.yul\":12899:12908   */\n      dup2\n        /* \"#utility.yul\":12893:12897   */\n      dup2\n        /* \"#utility.yul\":12889:12909   */\n      sub\n        /* \"#utility.yul\":12885:12886   */\n      0x00\n        /* \"#utility.yul\":12874:12883   */\n      dup4\n        /* \"#utility.yul\":12870:12887   */\n      add\n        /* \"#utility.yul\":12863:12910   */\n      mstore\n        /* \"#utility.yul\":12927:13058   */\n      tag_445\n        /* \"#utility.yul\":13053:13057   */\n      dup2\n        /* \"#utility.yul\":12927:13058   */\n      tag_269\n      jump\t// in\n    tag_445:\n        /* \"#utility.yul\":12919:13058   */\n      swap1\n      pop\n        /* \"#utility.yul\":12646:13065   */\n      swap2\n      swap1\n      pop\n      jump\t// out\n        /* \"#utility.yul\":13071:13292   */\n    tag_270:\n        /* \"#utility.yul\":13211:13245   */\n      0x4e6f7420617574686f72697a656420746f20656e642074686973206175637469\n        /* \"#utility.yul\":13207:13208   */\n      0x00\n        /* \"#utility.yul\":13199:13205   */\n      dup3\n        /* \"#utility.yul\":13195:13209   */\n      add\n        /* \"#utility.yul\":13188:13246   */\n      mstore\n        /* \"#utility.yul\":13280:13284   */\n      0x6f6e000000000000000000000000000000000000000000000000000000000000\n        /* \"#utility.yul\":13275:13277   */\n      0x20\n        /* \"#utility.yul\":13267:13273   */\n      dup3\n        /* \"#utility.yul\":13263:13278   */\n      add\n        /* \"#utility.yul\":13256:13285   */\n      mstore\n        /* \"#utility.yul\":13071:13292   */\n      pop\n      jump\t// out\n        /* \"#utility.yul\":13298:13664   */\n    tag_271:\n        /* \"#utility.yul\":13440:13443   */\n      0x00\n        /* \"#utility.yul\":13461:13528   */\n      tag_448\n        /* \"#utility.yul\":13525:13527   */\n      0x22\n        /* \"#utility.yul\":13520:13523   */\n      dup4\n        /* \"#utility.yul\":13461:13528   */\n      tag_244\n      jump\t// in\n    tag_448:\n        /* \"#utility.yul\":13454:13528   */\n      swap2\n      pop\n        /* \"#utility.yul\":13537:13630   */\n      tag_449\n        /* \"#utility.yul\":13626:13629   */\n      dup3\n        /* \"#utility.yul\":13537:13630   */\n      tag_270\n      jump\t// in\n    tag_449:\n        /* \"#utility.yul\":13655:13657   */\n      0x40\n        /* \"#utility.yul\":13650:13653   */\n      dup3\n        /* \"#utility.yul\":13646:13658   */\n      add\n        /* \"#utility.yul\":13639:13658   */\n      swap1\n      pop\n        /* \"#utility.yul\":13298:13664   */\n      swap2\n      swap1\n      pop\n      jump\t// out\n        /* \"#utility.yul\":13670:14089   */\n    tag_107:\n        /* \"#utility.yul\":13836:13840   */\n      0x00\n        /* \"#utility.yul\":13874:13876   */\n      0x20\n        /* \"#utility.yul\":13863:13872   */\n      dup3\n        /* \"#utility.yul\":13859:13877   */\n      add\n        /* \"#utility.yul\":13851:13877   */\n      swap1\n      pop\n        /* \"#utility.yul\":13923:13932   */\n      dup2\n        /* \"#utility.yul\":13917:13921   */\n      dup2\n        /* \"#utility.yul\":13913:13933   */\n      sub\n        /* \"#utility.yul\":13909:13910   */\n      0x00\n        /* \"#utility.yul\":13898:13907   */\n      dup4\n        /* \"#utility.yul\":13894:13911   */\n      add\n        /* \"#utility.yul\":13887:13934   */\n      mstore\n        /* \"#utility.yul\":13951:14082   */\n      tag_451\n        /* \"#utility.yul\":14077:14081   */\n      dup2\n        /* \"#utility.yul\":13951:14082   */\n      tag_271\n      jump\t// in\n    tag_451:\n        /* \"#utility.yul\":13943:14082   */\n      swap1\n      pop\n        /* \"#utility.yul\":13670:14089   */\n      swap2\n      swap1\n      pop\n      jump\t// out\n        /* \"#utility.yul\":14095:14537   */\n    tag_109:\n        /* \"#utility.yul\":14244:14248   */\n      0x00\n        /* \"#utility.yul\":14282:14284   */\n      0x60\n        /* \"#utility.yul\":14271:14280   */\n      dup3\n        /* \"#utility.yul\":14267:14285   */\n      add\n        /* \"#utility.yul\":14259:14285   */\n      swap1\n      pop\n        /* \"#utility.yul\":14295:14366   */\n      tag_453\n        /* \"#utility.yul\":14363:14364   */\n      0x00\n        /* \"#utility.yul\":14352:14361   */\n      dup4\n        /* \"#utility.yul\":14348:14365   */\n      add\n        /* \"#utility.yul\":14339:14345   */\n      dup7\n        /* \"#utility.yul\":14295:14366   */\n      tag_252\n      jump\t// in\n    tag_453:\n        /* \"#utility.yul\":14376:14448   */\n      tag_454\n        /* \"#utility.yul\":14444:14446   */\n      0x20\n        /* \"#utility.yul\":14433:14442   */\n      dup4\n        /* \"#utility.yul\":14429:14447   */\n      add\n        /* \"#utility.yul\":14420:14426   */\n      dup6\n        /* \"#utility.yul\":14376:14448   */\n      tag_252\n      jump\t// in\n    tag_454:\n        /* \"#utility.yul\":14458:14530   */\n      tag_455\n        /* \"#utility.yul\":14526:14528   */\n      0x40\n        /* \"#utility.yul\":14515:14524   */\n      dup4\n        /* \"#utility.yul\":14511:14529   */\n      add\n        /* \"#utility.yul\":14502:14508   */\n      dup5\n        /* \"#utility.yul\":14458:14530   */\n      tag_249\n      jump\t// in\n    tag_455:\n        /* \"#utility.yul\":14095:14537   */\n      swap5\n      swap4\n      pop\n      pop\n      pop\n      pop\n      jump\t// out\n        /* \"#utility.yul\":14543:14765   */\n    tag_272:\n        /* \"#utility.yul\":14683:14717   */\n      0x4f6e6c7920636f6e73756d6572732063616e20737461727420616e2061756374\n        /* \"#utility.yul\":14679:14680   */\n      0x00\n        /* \"#utility.yul\":14671:14677   */\n      dup3\n        /* \"#utility.yul\":14667:14681   */\n      add\n        /* \"#utility.yul\":14660:14718   */\n      mstore\n        /* \"#utility.yul\":14752:14757   */\n      0x696f6e0000000000000000000000000000000000000000000000000000000000\n        /* \"#utility.yul\":14747:14749   */\n      0x20\n        /* \"#utility.yul\":14739:14745   */\n      dup3\n        /* \"#utility.yul\":14735:14750   */\n      add\n        /* \"#utility.yul\":14728:14758   */\n      mstore\n        /* \"#utility.yul\":14543:14765   */\n      pop\n      jump\t// out\n        /* \"#utility.yul\":14771:15137   */\n    tag_273:\n        /* \"#utility.yul\":14913:14916   */\n      0x00\n        /* \"#utility.yul\":14934:15001   */\n      tag_458\n        /* \"#utility.yul\":14998:15000   */\n      0x23\n        /* \"#utility.yul\":14993:14996   */\n      dup4\n        /* \"#utility.yul\":14934:15001   */\n      tag_244\n      jump\t// in\n    tag_458:\n        /* \"#utility.yul\":14927:15001   */\n      swap2\n      pop\n        /* \"#utility.yul\":15010:15103   */\n      tag_459\n        /* \"#utility.yul\":15099:15102   */\n      dup3\n        /* \"#utility.yul\":15010:15103   */\n      tag_272\n      jump\t// in\n    tag_459:\n        /* \"#utility.yul\":15128:15130   */\n      0x40\n        /* \"#utility.yul\":15123:15126   */\n      dup3\n        /* \"#utility.yul\":15119:15131   */\n      add\n        /* \"#utility.yul\":15112:15131   */\n      swap1\n      pop\n        /* \"#utility.yul\":14771:15137   */\n      swap2\n      swap1\n      pop\n      jump\t// out\n        /* \"#utility.yul\":15143:15562   */\n    tag_129:\n        /* \"#utility.yul\":15309:15313   */\n      0x00\n        /* \"#utility.yul\":15347:15349   */\n      0x20\n        /* \"#utility.yul\":15336:15345   */\n      dup3\n        /* \"#utility.yul\":15332:15350   */\n      add\n        /* \"#utility.yul\":15324:15350   */\n      swap1\n      pop\n        /* \"#utility.yul\":15396:15405   */\n      dup2\n        /* \"#utility.yul\":15390:15394   */\n      dup2\n        /* \"#utility.yul\":15386:15406   */\n      sub\n        /* \"#utility.yul\":15382:15383   */\n      0x00\n        /* \"#utility.yul\":15371:15380   */\n      dup4\n        /* \"#utility.yul\":15367:15384   */\n      add\n        /* \"#utility.yul\":15360:15407   */\n      mstore\n        /* \"#utility.yul\":15424:15555   */\n      tag_461\n        /* \"#utility.yul\":15550:15554   */\n      dup2\n        /* \"#utility.yul\":15424:15555   */\n      tag_273\n      jump\t// in\n    tag_461:\n        /* \"#utility.yul\":15416:15555   */\n      swap1\n      pop\n        /* \"#utility.yul\":15143:15562   */\n      swap2\n      swap1\n      pop\n      jump\t// out\n        /* \"#utility.yul\":15568:15709   */\n    tag_274:\n        /* \"#utility.yul\":15617:15621   */\n      0x00\n        /* \"#utility.yul\":15640:15643   */\n      dup2\n        /* \"#utility.yul\":15632:15643   */\n      swap1\n      pop\n        /* \"#utility.yul\":15663:15666   */\n      dup2\n        /* \"#utility.yul\":15660:15661   */\n      0x00\n        /* \"#utility.yul\":15653:15667   */\n      mstore\n        /* \"#utility.yul\":15697:15701   */\n      0x20\n        /* \"#utility.yul\":15694:15695   */\n      0x00\n        /* \"#utility.yul\":15684:15702   */\n      keccak256\n        /* \"#utility.yul\":15676:15702   */\n      swap1\n      pop\n        /* \"#utility.yul\":15568:15709   */\n      swap2\n      swap1\n      pop\n      jump\t// out\n        /* \"#utility.yul\":15715:15808   */\n    tag_275:\n        /* \"#utility.yul\":15752:15758   */\n      0x00\n        /* \"#utility.yul\":15799:15801   */\n      0x20\n        /* \"#utility.yul\":15794:15796   */\n      0x1f\n        /* \"#utility.yul\":15787:15792   */\n      dup4\n        /* \"#utility.yul\":15783:15797   */\n      add\n        /* \"#utility.yul\":15779:15802   */\n      div\n        /* \"#utility.yul\":15769:15802   */\n      swap1\n      pop\n        /* \"#utility.yul\":15715:15808   */\n      swap2\n      swap1\n      pop\n      jump\t// out\n        /* \"#utility.yul\":15814:15921   */\n    tag_276:\n        /* \"#utility.yul\":15858:15866   */\n      0x00\n        /* \"#utility.yul\":15908:15913   */\n      dup3\n        /* \"#utility.yul\":15902:15906   */\n      dup3\n        /* \"#utility.yul\":15898:15914   */\n      shl\n        /* \"#utility.yul\":15877:15914   */\n      swap1\n      pop\n        /* \"#utility.yul\":15814:15921   */\n      swap3\n      swap2\n      pop\n      pop\n      jump\t// out\n        /* \"#utility.yul\":15927:16320   */\n    tag_277:\n        /* \"#utility.yul\":15996:16002   */\n      0x00\n        /* \"#utility.yul\":16046:16047   */\n      0x08\n        /* \"#utility.yul\":16034:16044   */\n      dup4\n        /* \"#utility.yul\":16030:16048   */\n      mul\n        /* \"#utility.yul\":16069:16166   */\n      tag_466\n        /* \"#utility.yul\":16099:16165   */\n      0xffffffffffffffffffffffffffffffffffffffffffffffffffffffffffffffff\n        /* \"#utility.yul\":16088:16097   */\n      dup3\n        /* \"#utility.yul\":16069:16166   */\n      tag_276\n      jump\t// in\n    tag_466:\n        /* \"#utility.yul\":16187:16226   */\n      tag_467\n        /* \"#utility.yul\":16217:16225   */\n      dup7\n        /* \"#utility.yul\":16206:16215   */\n      dup4\n        /* \"#utility.yul\":16187:16226   */\n      tag_276\n      jump\t// in\n    tag_467:\n        /* \"#utility.yul\":16175:16226   */\n      swap6\n      pop\n        /* \"#utility.yul\":16259:16263   */\n      dup1\n        /* \"#utility.yul\":16255:16264   */\n      not\n        /* \"#utility.yul\":16248:16253   */\n      dup5\n        /* \"#utility.yul\":16244:16265   */\n      and\n        /* \"#utility.yul\":16235:16265   */\n      swap4\n      pop\n        /* \"#utility.yul\":16308:16312   */\n      dup1\n        /* \"#utility.yul\":16298:16306   */\n      dup7\n        /* \"#utility.yul\":16294:16313   */\n      and\n        /* \"#utility.yul\":16287:16292   */\n      dup5\n        /* \"#utility.yul\":16284:16314   */\n      or\n        /* \"#utility.yul\":16274:16314   */\n      swap3\n      pop\n        /* \"#utility.yul\":16003:16320   */\n      pop\n      pop\n        /* \"#utility.yul\":15927:16320   */\n      swap4\n      swap3\n      pop\n      pop\n      pop\n      jump\t// out\n        /* \"#utility.yul\":16326:16386   */\n    tag_278:\n        /* \"#utility.yul\":16354:16357   */\n      0x00\n        /* \"#utility.yul\":16375:16380   */\n      dup2\n        /* \"#utility.yul\":16368:16380   */\n      swap1\n      pop\n        /* \"#utility.yul\":16326:16386   */\n      swap2\n      swap1\n      pop\n      jump\t// out\n        /* \"#utility.yul\":16392:16534   */\n    tag_279:\n        /* \"#utility.yul\":16442:16451   */\n      0x00\n        /* \"#utility.yul\":16475:16528   */\n      tag_470\n        /* \"#utility.yul\":16493:16527   */\n      tag_471\n        /* \"#utility.yul\":16502:16526   */\n      tag_472\n        /* \"#utility.yul\":16520:16525   */\n      dup5\n        /* \"#utility.yul\":16502:16526   */\n      tag_248\n      jump\t// in\n    tag_472:\n        /* \"#utility.yul\":16493:16527   */\n      tag_278\n      jump\t// in\n    tag_471:\n        /* \"#utility.yul\":16475:16528   */\n      tag_248\n      jump\t// in\n    tag_470:\n        /* \"#utility.yul\":16462:16528   */\n      swap1\n      pop\n        /* \"#utility.yul\":16392:16534   */\n      swap2\n      swap1\n      pop\n      jump\t// out\n        /* \"#utility.yul\":16540:16615   */\n    tag_280:\n        /* \"#utility.yul\":16583:16586   */\n      0x00\n        /* \"#utility.yul\":16604:16609   */\n      dup2\n        /* \"#utility.yul\":16597:16609   */\n      swap1\n      pop\n        /* \"#utility.yul\":16540:16615   */\n      swap2\n      swap1\n      pop\n      jump\t// out\n        /* \"#utility.yul\":16621:16890   */\n    tag_281:\n        /* \"#utility.yul\":16731:16770   */\n      tag_475\n        /* \"#utility.yul\":16762:16769   */\n      dup4\n        /* \"#utility.yul\":16731:16770   */\n      tag_279\n      jump\t// in\n    tag_475:\n        /* \"#utility.yul\":16792:16883   */\n      tag_476\n        /* \"#utility.yul\":16841:16882   */\n      tag_477\n        /* \"#utility.yul\":16865:16881   */\n      dup3\n        /* \"#utility.yul\":16841:16882   */\n      tag_280\n      jump\t// in\n    tag_477:\n        /* \"#utility.yul\":16833:16839   */\n      dup5\n        /* \"#utility.yul\":16826:16830   */\n      dup5\n        /* \"#utility.yul\":16820:16831   */\n      sload\n        /* \"#utility.yul\":16792:16883   */\n      tag_277\n      jump\t// in\n    tag_476:\n        /* \"#utility.yul\":16786:16790   */\n      dup3\n        /* \"#utility.yul\":16779:16884   */\n      sstore\n        /* \"#utility.yul\":16697:16890   */\n      pop\n        /* \"#utility.yul\":16621:16890   */\n      pop\n      pop\n      pop\n      jump\t// out\n        /* \"#utility.yul\":16896:16969   */\n    tag_282:\n        /* \"#utility.yul\":16941:16944   */\n      0x00\n        /* \"#utility.yul\":16896:16969   */\n      swap1\n      jump\t// out\n        /* \"#utility.yul\":16975:17164   */\n    tag_283:\n        /* \"#utility.yul\":17052:17084   */\n      tag_480\n      tag_282\n      jump\t// in\n    tag_480:\n        /* \"#utility.yul\":17093:17158   */\n      tag_481\n        /* \"#utility.yul\":17151:17157   */\n      dup2\n        /* \"#utility.yul\":17143:17149   */\n      dup5\n        /* \"#utility.yul\":17137:17141   */\n      dup5\n        /* \"#utility.yul\":17093:17158   */\n      tag_281\n      jump\t// in\n    tag_481:\n        /* \"#utility.yul\":17028:17164   */\n      pop\n        /* \"#utility.yul\":16975:17164   */\n      pop\n      pop\n      jump\t// out\n        /* \"#utility.yul\":17170:17356   */\n    tag_284:\n        /* \"#utility.yul\":17230:17350   */\n    tag_483:\n        /* \"#utility.yul\":17247:17250   */\n      dup2\n        /* \"#utility.yul\":17240:17245   */\n      dup2\n        /* \"#utility.yul\":17237:17251   */\n      lt\n        /* \"#utility.yul\":17230:17350   */\n      iszero\n      tag_485\n      jumpi\n        /* \"#utility.yul\":17301:17340   */\n      tag_486\n        /* \"#utility.yul\":17338:17339   */\n      0x00\n        /* \"#utility.yul\":17331:17336   */\n      dup3\n        /* \"#utility.yul\":17301:17340   */\n      tag_283\n      jump\t// in\n    tag_486:\n        /* \"#utility.yul\":17274:17275   */\n      0x01\n        /* \"#utility.yul\":17267:17272   */\n      dup2\n        /* \"#utility.yul\":17263:17276   */\n      add\n        /* \"#utility.yul\":17254:17276   */\n      swap1\n      pop\n        /* \"#utility.yul\":17230:17350   */\n      jump(tag_483)\n    tag_485:\n        /* \"#utility.yul\":17170:17356   */\n      pop\n      pop\n      jump\t// out\n        /* \"#utility.yul\":17362:17905   */\n    tag_285:\n        /* \"#utility.yul\":17463:17465   */\n      0x1f\n        /* \"#utility.yul\":17458:17461   */\n      dup3\n        /* \"#utility.yul\":17455:17466   */\n      gt\n        /* \"#utility.yul\":17452:17898   */\n      iszero\n      tag_488\n      jumpi\n        /* \"#utility.yul\":17497:17535   */\n      tag_489\n        /* \"#utility.yul\":17529:17534   */\n      dup2\n        /* \"#utility.yul\":17497:17535   */\n      tag_274\n      jump\t// in\n    tag_489:\n        /* \"#utility.yul\":17581:17610   */\n      tag_490\n        /* \"#utility.yul\":17599:17609   */\n      dup5\n        /* \"#utility.yul\":17581:17610   */\n      tag_275\n      jump\t// in\n    tag_490:\n        /* \"#utility.yul\":17571:17579   */\n      dup2\n        /* \"#utility.yul\":17567:17611   */\n      add\n        /* \"#utility.yul\":17764:17766   */\n      0x20\n        /* \"#utility.yul\":17752:17762   */\n      dup6\n        /* \"#utility.yul\":17749:17767   */\n      lt\n        /* \"#utility.yul\":17746:17795   */\n      iszero\n      tag_491\n      jumpi\n        /* \"#utility.yul\":17785:17793   */\n      dup2\n        /* \"#utility.yul\":17770:17793   */\n      swap1\n      pop\n        /* \"#utility.yul\":17746:17795   */\n    tag_491:\n        /* \"#utility.yul\":17808:17888   */\n      tag_492\n        /* \"#utility.yul\":17864:17886   */\n      tag_493\n        /* \"#utility.yul\":17882:17885   */\n      dup6\n        /* \"#utility.yul\":17864:17886   */\n      tag_275\n      jump\t// in\n    tag_493:\n        /* \"#utility.yul\":17854:17862   */\n      dup4\n        /* \"#utility.yul\":17850:17887   */\n      add\n        /* \"#utility.yul\":17837:17848   */\n      dup3\n        /* \"#utility.yul\":17808:17888   */\n      tag_284\n      jump\t// in\n    tag_492:\n        /* \"#utility.yul\":17467:17898   */\n      pop\n      pop\n        /* \"#utility.yul\":17452:17898   */\n    tag_488:\n        /* \"#utility.yul\":17362:17905   */\n      pop\n      pop\n      pop\n      jump\t// out\n        /* \"#utility.yul\":17911:18028   */\n    tag_286:\n        /* \"#utility.yul\":17965:17973   */\n      0x00\n        /* \"#utility.yul\":18015:18020   */\n      dup3\n        /* \"#utility.yul\":18009:18013   */\n      dup3\n        /* \"#utility.yul\":18005:18021   */\n      shr\n        /* \"#utility.yul\":17984:18021   */\n      swap1\n      pop\n        /* \"#utility.yul\":17911:18028   */\n      swap3\n      swap2\n      pop\n      pop\n      jump\t// out\n        /* \"#utility.yul\":18034:18203   */\n    tag_287:\n        /* \"#utility.yul\":18078:18084   */\n      0x00\n        /* \"#utility.yul\":18111:18162   */\n      tag_496\n        /* \"#utility.yul\":18159:18160   */\n      0x00\n        /* \"#utility.yul\":18155:18161   */\n      not\n        /* \"#utility.yul\":18147:18152   */\n      dup5\n        /* \"#utility.yul\":18144:18145   */\n      0x08\n        /* \"#utility.yul\":18140:18153   */\n      mul\n        /* \"#utility.yul\":18111:18162   */\n      tag_286\n      jump\t// in\n    tag_496:\n        /* \"#utility.yul\":18107:18163   */\n      not\n        /* \"#utility.yul\":18192:18196   */\n      dup1\n        /* \"#utility.yul\":18186:18190   */\n      dup4\n        /* \"#utility.yul\":18182:18197   */\n      and\n        /* \"#utility.yul\":18172:18197   */\n      swap2\n      pop\n        /* \"#utility.yul\":18085:18203   */\n      pop\n        /* \"#utility.yul\":18034:18203   */\n      swap3\n      swap2\n      pop\n      pop\n      jump\t// out\n        /* \"#utility.yul\":18208:18503   */\n    tag_288:\n        /* \"#utility.yul\":18284:18288   */\n      0x00\n        /* \"#utility.yul\":18430:18459   */\n      tag_498\n        /* \"#utility.yul\":18455:18458   */\n      dup4\n        /* \"#utility.yul\":18449:18453   */\n      dup4\n        /* \"#utility.yul\":18430:18459   */\n      tag_287\n      jump\t// in\n    tag_498:\n        /* \"#utility.yul\":18422:18459   */\n      swap2\n      pop\n        /* \"#utility.yul\":18492:18495   */\n      dup3\n        /* \"#utility.yul\":18489:18490   */\n      0x02\n        /* \"#utility.yul\":18485:18496   */\n      mul\n        /* \"#utility.yul\":18479:18483   */\n      dup3\n        /* \"#utility.yul\":18476:18497   */\n      or\n        /* \"#utility.yul\":18468:18497   */\n      swap1\n      pop\n        /* \"#utility.yul\":18208:18503   */\n      swap3\n      swap2\n      pop\n      pop\n      jump\t// out\n        /* \"#utility.yul\":18508:19903   */\n    tag_135:\n        /* \"#utility.yul\":18625:18662   */\n      tag_500\n        /* \"#utility.yul\":18658:18661   */\n      dup3\n        /* \"#utility.yul\":18625:18662   */\n      tag_243\n      jump\t// in\n    tag_500:\n        /* \"#utility.yul\":18727:18745   */\n      0xffffffffffffffff\n        /* \"#utility.yul\":18719:18725   */\n      dup2\n        /* \"#utility.yul\":18716:18746   */\n      gt\n        /* \"#utility.yul\":18713:18769   */\n      iszero\n      tag_501\n      jumpi\n        /* \"#utility.yul\":18749:18767   */\n      tag_502\n      tag_132\n      jump\t// in\n    tag_502:\n        /* \"#utility.yul\":18713:18769   */\n    tag_501:\n        /* \"#utility.yul\":18793:18831   */\n      tag_503\n        /* \"#utility.yul\":18825:18829   */\n      dup3\n        /* \"#utility.yul\":18819:18830   */\n      sload\n        /* \"#utility.yul\":18793:18831   */\n      tag_77\n      jump\t// in\n    tag_503:\n        /* \"#utility.yul\":18878:18945   */\n      tag_504\n        /* \"#utility.yul\":18938:18944   */\n      dup3\n        /* \"#utility.yul\":18930:18936   */\n      dup3\n        /* \"#utility.yul\":18924:18928   */\n      dup6\n        /* \"#utility.yul\":18878:18945   */\n      tag_285\n      jump\t// in\n    tag_504:\n        /* \"#utility.yul\":18972:18973   */\n      0x00\n        /* \"#utility.yul\":18996:19000   */\n      0x20\n        /* \"#utility.yul\":18983:19000   */\n      swap1\n      pop\n        /* \"#utility.yul\":19028:19030   */\n      0x1f\n        /* \"#utility.yul\":19020:19026   */\n      dup4\n        /* \"#utility.yul\":19017:19031   */\n      gt\n        /* \"#utility.yul\":19045:19046   */\n      0x01\n        /* \"#utility.yul\":19040:19658   */\n      dup2\n      eq\n      tag_506\n      jumpi\n        /* \"#utility.yul\":19702:19703   */\n      0x00\n        /* \"#utility.yul\":19719:19725   */\n      dup5\n        /* \"#utility.yul\":19716:19793   */\n      iszero\n      tag_507\n      jumpi\n        /* \"#utility.yul\":19768:19777   */\n      dup3\n        /* \"#utility.yul\":19763:19766   */\n      dup8\n        /* \"#utility.yul\":19759:19778   */\n      add\n        /* \"#utility.yul\":19753:19779   */\n      mload\n        /* \"#utility.yul\":19744:19779   */\n      swap1\n      pop\n        /* \"#utility.yul\":19716:19793   */\n    tag_507:\n        /* \"#utility.yul\":19819:19886   */\n      tag_508\n        /* \"#utility.yul\":19879:19885   */\n      dup6\n        /* \"#utility.yul\":19872:19877   */\n      dup3\n        /* \"#utility.yul\":19819:19886   */\n      tag_288\n      jump\t// in\n    tag_508:\n        /* \"#utility.yul\":19813:19817   */\n      dup7\n        /* \"#utility.yul\":19806:19887   */\n      sstore\n        /* \"#utility.yul\":19675:19897   */\n      pop\n        /* \"#utility.yul\":19010:19897   */\n      jump(tag_505)\n        /* \"#utility.yul\":19040:19658   */\n    tag_506:\n        /* \"#utility.yul\":19092:19096   */\n      0x1f\n        /* \"#utility.yul\":19088:19097   */\n      not\n        /* \"#utility.yul\":19080:19086   */\n      dup5\n        /* \"#utility.yul\":19076:19098   */\n      and\n        /* \"#utility.yul\":19126:19163   */\n      tag_509\n        /* \"#utility.yul\":19158:19162   */\n      dup7\n        /* \"#utility.yul\":19126:19163   */\n      tag_274\n      jump\t// in\n    tag_509:\n        /* \"#utility.yul\":19185:19186   */\n      0x00\n        /* \"#utility.yul\":19199:19407   */\n    tag_510:\n        /* \"#utility.yul\":19213:19220   */\n      dup3\n        /* \"#utility.yul\":19210:19211   */\n      dup2\n        /* \"#utility.yul\":19207:19221   */\n      lt\n        /* \"#utility.yul\":19199:19407   */\n      iszero\n      tag_512\n      jumpi\n        /* \"#utility.yul\":19292:19301   */\n      dup5\n        /* \"#utility.yul\":19287:19290   */\n      dup10\n        /* \"#utility.yul\":19283:19302   */\n      add\n        /* \"#utility.yul\":19277:19303   */\n      mload\n        /* \"#utility.yul\":19269:19275   */\n      dup3\n        /* \"#utility.yul\":19262:19304   */\n      sstore\n        /* \"#utility.yul\":19343:19344   */\n      0x01\n        /* \"#utility.yul\":19335:19341   */\n      dup3\n        /* \"#utility.yul\":19331:19345   */\n      add\n        /* \"#utility.yul\":19321:19345   */\n      swap2\n      pop\n        /* \"#utility.yul\":19390:19392   */\n      0x20\n        /* \"#utility.yul\":19379:19388   */\n      dup6\n        /* \"#utility.yul\":19375:19393   */\n      add\n        /* \"#utility.yul\":19362:19393   */\n      swap5\n      pop\n        /* \"#utility.yul\":19236:19240   */\n      0x20\n        /* \"#utility.yul\":19233:19234   */\n      dup2\n        /* \"#utility.yul\":19229:19241   */\n      add\n        /* \"#utility.yul\":19224:19241   */\n      swap1\n      pop\n        /* \"#utility.yul\":19199:19407   */\n      jump(tag_510)\n    tag_512:\n        /* \"#utility.yul\":19435:19441   */\n      dup7\n        /* \"#utility.yul\":19426:19433   */\n      dup4\n        /* \"#utility.yul\":19423:19442   */\n      lt\n        /* \"#utility.yul\":19420:19599   */\n      iszero\n      tag_513\n      jumpi\n        /* \"#utility.yul\":19493:19502   */\n      dup5\n        /* \"#utility.yul\":19488:19491   */\n      dup10\n        /* \"#utility.yul\":19484:19503   */\n      add\n        /* \"#utility.yul\":19478:19504   */\n      mload\n        /* \"#utility.yul\":19536:19584   */\n      tag_514\n        /* \"#utility.yul\":19578:19582   */\n      0x1f\n        /* \"#utility.yul\":19570:19576   */\n      dup10\n        /* \"#utility.yul\":19566:19583   */\n      and\n        /* \"#utility.yul\":19555:19564   */\n      dup3\n        /* \"#utility.yul\":19536:19584   */\n      tag_287\n      jump\t// in\n    tag_514:\n        /* \"#utility.yul\":19528:19534   */\n      dup4\n        /* \"#utility.yul\":19521:19585   */\n      sstore\n        /* \"#utility.yul\":19443:19599   */\n      pop\n        /* \"#utility.yul\":19420:19599   */\n    tag_513:\n        /* \"#utility.yul\":19645:19646   */\n      0x01\n        /* \"#utility.yul\":19641:19642   */\n      0x02\n        /* \"#utility.yul\":19633:19639   */\n      dup9\n        /* \"#utility.yul\":19629:19643   */\n      mul\n        /* \"#utility.yul\":19625:19647   */\n      add\n        /* \"#utility.yul\":19619:19623   */\n      dup9\n        /* \"#utility.yul\":19612:19648   */\n      sstore\n        /* \"#utility.yul\":19047:19658   */\n      pop\n      pop\n      pop\n        /* \"#utility.yul\":19010:19897   */\n    tag_505:\n      pop\n        /* \"#utility.yul\":18600:19903   */\n      pop\n      pop\n      pop\n        /* \"#utility.yul\":18508:19903   */\n      pop\n      pop\n      jump\t// out\n        /* \"#utility.yul\":19909:20442   */\n    tag_139:\n        /* \"#utility.yul\":20078:20082   */\n      0x00\n        /* \"#utility.yul\":20116:20118   */\n      0x60\n        /* \"#utility.yul\":20105:20114   */\n      dup3\n        /* \"#utility.yul\":20101:20119   */\n      add\n        /* \"#utility.yul\":20093:20119   */\n      swap1\n      pop\n        /* \"#utility.yul\":20129:20200   */\n      tag_516\n        /* \"#utility.yul\":20197:20198   */\n      0x00\n        /* \"#utility.yul\":20186:20195   */\n      dup4\n        /* \"#utility.yul\":20182:20199   */\n      add\n        /* \"#utility.yul\":20173:20179   */\n      dup7\n        /* \"#utility.yul\":20129:20200   */\n      tag_252\n      jump\t// in\n    tag_516:\n        /* \"#utility.yul\":20247:20256   */\n      dup2\n        /* \"#utility.yul\":20241:20245   */\n      dup2\n        /* \"#utility.yul\":20237:20257   */\n      sub\n        /* \"#utility.yul\":20232:20234   */\n      0x20\n        /* \"#utility.yul\":20221:20230   */\n      dup4\n        /* \"#utility.yul\":20217:20235   */\n      add\n        /* \"#utility.yul\":20210:20258   */\n      mstore\n        /* \"#utility.yul\":20275:20353   */\n      tag_517\n        /* \"#utility.yul\":20348:20352   */\n      dup2\n        /* \"#utility.yul\":20339:20345   */\n      dup6\n        /* \"#utility.yul\":20275:20353   */\n      tag_247\n      jump\t// in\n    tag_517:\n        /* \"#utility.yul\":20267:20353   */\n      swap1\n      pop\n        /* \"#utility.yul\":20363:20435   */\n      tag_518\n        /* \"#utility.yul\":20431:20433   */\n      0x40\n        /* \"#utility.yul\":20420:20429   */\n      dup4\n        /* \"#utility.yul\":20416:20434   */\n      add\n        /* \"#utility.yul\":20407:20413   */\n      dup5\n        /* \"#utility.yul\":20363:20435   */\n      tag_249\n      jump\t// in\n    tag_518:\n        /* \"#utility.yul\":19909:20442   */\n      swap5\n      swap4\n      pop\n      pop\n      pop\n      pop\n      jump\t// out\n        /* \"#utility.yul\":20448:20690   */\n    tag_289:\n        /* \"#utility.yul\":20588:20622   */\n      0x4f6e6c79207265676973746572656420636f6e73756d6572732063616e206163\n        /* \"#utility.yul\":20584:20585   */\n      0x00\n        /* \"#utility.yul\":20576:20582   */\n      dup3\n        /* \"#utility.yul\":20572:20586   */\n      add\n        /* \"#utility.yul\":20565:20623   */\n      mstore\n        /* \"#utility.yul\":20657:20682   */\n      0x6365737320746869732066756e6374696f6e616c697479000000000000000000\n        /* \"#utility.yul\":20652:20654   */\n      0x20\n        /* \"#utility.yul\":20644:20650   */\n      dup3\n        /* \"#utility.yul\":20640:20655   */\n      add\n        /* \"#utility.yul\":20633:20683   */\n      mstore\n        /* \"#utility.yul\":20448:20690   */\n      pop\n      jump\t// out\n        /* \"#utility.yul\":20696:21062   */\n    tag_290:\n        /* \"#utility.yul\":20838:20841   */\n      0x00\n        /* \"#utility.yul\":20859:20926   */\n      tag_521\n        /* \"#utility.yul\":20923:20925   */\n      0x37\n        /* \"#utility.yul\":20918:20921   */\n      dup4\n        /* \"#utility.yul\":20859:20926   */\n      tag_244\n      jump\t// in\n    tag_521:\n        /* \"#utility.yul\":20852:20926   */\n      swap2\n      pop\n        /* \"#utility.yul\":20935:21028   */\n      tag_522\n        /* \"#utility.yul\":21024:21027   */\n      dup3\n        /* \"#utility.yul\":20935:21028   */\n      tag_289\n      jump\t// in\n    tag_522:\n        /* \"#utility.yul\":21053:21055   */\n      0x40\n        /* \"#utility.yul\":21048:21051   */\n      dup3\n        /* \"#utility.yul\":21044:21056   */\n      add\n        /* \"#utility.yul\":21037:21056   */\n      swap1\n      pop\n        /* \"#utility.yul\":20696:21062   */\n      swap2\n      swap1\n      pop\n      jump\t// out\n        /* \"#utility.yul\":21068:21487   */\n    tag_143:\n        /* \"#utility.yul\":21234:21238   */\n      0x00\n        /* \"#utility.yul\":21272:21274   */\n      0x20\n        /* \"#utility.yul\":21261:21270   */\n      dup3\n        /* \"#utility.yul\":21257:21275   */\n      add\n        /* \"#utility.yul\":21249:21275   */\n      swap1\n      pop\n        /* \"#utility.yul\":21321:21330   */\n      dup2\n        /* \"#utility.yul\":21315:21319   */\n      dup2\n        /* \"#utility.yul\":21311:21331   */\n      sub\n        /* \"#utility.yul\":21307:21308   */\n      0x00\n        /* \"#utility.yul\":21296:21305   */\n      dup4\n        /* \"#utility.yul\":21292:21309   */\n      add\n        /* \"#utility.yul\":21285:21332   */\n      mstore\n        /* \"#utility.yul\":21349:21480   */\n      tag_524\n        /* \"#utility.yul\":21475:21479   */\n      dup2\n        /* \"#utility.yul\":21349:21480   */\n      tag_290\n      jump\t// in\n    tag_524:\n        /* \"#utility.yul\":21341:21480   */\n      swap1\n      pop\n        /* \"#utility.yul\":21068:21487   */\n      swap2\n      swap1\n      pop\n      jump\t// out\n        /* \"#utility.yul\":21493:21669   */\n    tag_291:\n        /* \"#utility.yul\":21633:21661   */\n      0x50726f7669646572206973206e6f742072656769737465726564000000000000\n        /* \"#utility.yul\":21629:21630   */\n      0x00\n        /* \"#utility.yul\":21621:21627   */\n      dup3\n        /* \"#utility.yul\":21617:21631   */\n      add\n        /* \"#utility.yul\":21610:21662   */\n      mstore\n        /* \"#utility.yul\":21493:21669   */\n      pop\n      jump\t// out\n        /* \"#utility.yul\":21675:22041   */\n    tag_292:\n        /* \"#utility.yul\":21817:21820   */\n      0x00\n        /* \"#utility.yul\":21838:21905   */\n      tag_527\n        /* \"#utility.yul\":21902:21904   */\n      0x1a\n        /* \"#utility.yul\":21897:21900   */\n      dup4\n        /* \"#utility.yul\":21838:21905   */\n      tag_244\n      jump\t// in\n    tag_527:\n        /* \"#utility.yul\":21831:21905   */\n      swap2\n      pop\n        /* \"#utility.yul\":21914:22007   */\n      tag_528\n        /* \"#utility.yul\":22003:22006   */\n      dup3\n        /* \"#utility.yul\":21914:22007   */\n      tag_291\n      jump\t// in\n    tag_528:\n        /* \"#utility.yul\":22032:22034   */\n      0x20\n        /* \"#utility.yul\":22027:22030   */\n      dup3\n        /* \"#utility.yul\":22023:22035   */\n      add\n        /* \"#utility.yul\":22016:22035   */\n      swap1\n      pop\n        /* \"#utility.yul\":21675:22041   */\n      swap2\n      swap1\n      pop\n      jump\t// out\n        /* \"#utility.yul\":22047:22466   */\n    tag_147:\n        /* \"#utility.yul\":22213:22217   */\n      0x00\n        /* \"#utility.yul\":22251:22253   */\n      0x20\n        /* \"#utility.yul\":22240:22249   */\n      dup3\n        /* \"#utility.yul\":22236:22254   */\n      add\n        /* \"#utility.yul\":22228:22254   */\n      swap1\n      pop\n        /* \"#utility.yul\":22300:22309   */\n      dup2\n        /* \"#utility.yul\":22294:22298   */\n      dup2\n        /* \"#utility.yul\":22290:22310   */\n      sub\n        /* \"#utility.yul\":22286:22287   */\n      0x00\n        /* \"#utility.yul\":22275:22284   */\n      dup4\n        /* \"#utility.yul\":22271:22288   */\n      add\n        /* \"#utility.yul\":22264:22311   */\n      mstore\n        /* \"#utility.yul\":22328:22459   */\n      tag_530\n        /* \"#utility.yul\":22454:22458   */\n      dup2\n        /* \"#utility.yul\":22328:22459   */\n      tag_292\n      jump\t// in\n    tag_530:\n        /* \"#utility.yul\":22320:22459   */\n      swap1\n      pop\n        /* \"#utility.yul\":22047:22466   */\n      swap2\n      swap1\n      pop\n      jump\t// out\n        /* \"#utility.yul\":22472:22646   */\n    tag_293:\n        /* \"#utility.yul\":22612:22638   */\n      0x53657276696365206973206e6f7420617661696c61626c650000000000000000\n        /* \"#utility.yul\":22608:22609   */\n      0x00\n        /* \"#utility.yul\":22600:22606   */\n      dup3\n        /* \"#utility.yul\":22596:22610   */\n      add\n        /* \"#utility.yul\":22589:22639   */\n      mstore\n        /* \"#utility.yul\":22472:22646   */\n      pop\n      jump\t// out\n        /* \"#utility.yul\":22652:23018   */\n    tag_294:\n        /* \"#utility.yul\":22794:22797   */\n      0x00\n        /* \"#utility.yul\":22815:22882   */\n      tag_533\n        /* \"#utility.yul\":22879:22881   */\n      0x18\n        /* \"#utility.yul\":22874:22877   */\n      dup4\n        /* \"#utility.yul\":22815:22882   */\n      tag_244\n      jump\t// in\n    tag_533:\n        /* \"#utility.yul\":22808:22882   */\n      swap2\n      pop\n        /* \"#utility.yul\":22891:22984   */\n      tag_534\n        /* \"#utility.yul\":22980:22983   */\n      dup3\n        /* \"#utility.yul\":22891:22984   */\n      tag_293\n      jump\t// in\n    tag_534:\n        /* \"#utility.yul\":23009:23011   */\n      0x20\n        /* \"#utility.yul\":23004:23007   */\n      dup3\n        /* \"#utility.yul\":23000:23012   */\n      add\n        /* \"#utility.yul\":22993:23012   */\n      swap1\n      pop\n        /* \"#utility.yul\":22652:23018   */\n      swap2\n      swap1\n      pop\n      jump\t// out\n        /* \"#utility.yul\":23024:23443   */\n    tag_150:\n        /* \"#utility.yul\":23190:23194   */\n      0x00\n        /* \"#utility.yul\":23228:23230   */\n      0x20\n        /* \"#utility.yul\":23217:23226   */\n      dup3\n        /* \"#utility.yul\":23213:23231   */\n      add\n        /* \"#utility.yul\":23205:23231   */\n      swap1\n      pop\n        /* \"#utility.yul\":23277:23286   */\n      dup2\n        /* \"#utility.yul\":23271:23275   */\n      dup2\n        /* \"#utility.yul\":23267:23287   */\n      sub\n        /* \"#utility.yul\":23263:23264   */\n      0x00\n        /* \"#utility.yul\":23252:23261   */\n      dup4\n        /* \"#utility.yul\":23248:23265   */\n      add\n        /* \"#utility.yul\":23241:23288   */\n      mstore\n        /* \"#utility.yul\":23305:23436   */\n      tag_536\n        /* \"#utility.yul\":23431:23435   */\n      dup2\n        /* \"#utility.yul\":23305:23436   */\n      tag_294\n      jump\t// in\n    tag_536:\n        /* \"#utility.yul\":23297:23436   */\n      swap1\n      pop\n        /* \"#utility.yul\":23024:23443   */\n      swap2\n      swap1\n      pop\n      jump\t// out\n        /* \"#utility.yul\":23449:23676   */\n    tag_295:\n        /* \"#utility.yul\":23589:23623   */\n      0x436f6e73756d65722068617320616c7265616479207075726368617365642061\n        /* \"#utility.yul\":23585:23586   */\n      0x00\n        /* \"#utility.yul\":23577:23583   */\n      dup3\n        /* \"#utility.yul\":23573:23587   */\n      add\n        /* \"#utility.yul\":23566:23624   */\n      mstore\n        /* \"#utility.yul\":23658:23668   */\n      0x2073657276696365000000000000000000000000000000000000000000000000\n        /* \"#utility.yul\":23653:23655   */\n      0x20\n        /* \"#utility.yul\":23645:23651   */\n      dup3\n        /* \"#utility.yul\":23641:23656   */\n      add\n        /* \"#utility.yul\":23634:23669   */\n      mstore\n        /* \"#utility.yul\":23449:23676   */\n      pop\n      jump\t// out\n        /* \"#utility.yul\":23682:24048   */\n    tag_296:\n        /* \"#utility.yul\":23824:23827   */\n      0x00\n        /* \"#utility.yul\":23845:23912   */\n      tag_539\n        /* \"#utility.yul\":23909:23911   */\n      0x28\n        /* \"#utility.yul\":23904:23907   */\n      dup4\n        /* \"#utility.yul\":23845:23912   */\n      tag_244\n      jump\t// in\n    tag_539:\n        /* \"#utility.yul\":23838:23912   */\n      swap2\n      pop\n        /* \"#utility.yul\":23921:24014   */\n      tag_540\n        /* \"#utility.yul\":24010:24013   */\n      dup3\n        /* \"#utility.yul\":23921:24014   */\n      tag_295\n      jump\t// in\n    tag_540:\n        /* \"#utility.yul\":24039:24041   */\n      0x40\n        /* \"#utility.yul\":24034:24037   */\n      dup3\n        /* \"#utility.yul\":24030:24042   */\n      add\n        /* \"#utility.yul\":24023:24042   */\n      swap1\n      pop\n        /* \"#utility.yul\":23682:24048   */\n      swap2\n      swap1\n      pop\n      jump\t// out\n        /* \"#utility.yul\":24054:24473   */\n    tag_153:\n        /* \"#utility.yul\":24220:24224   */\n      0x00\n        /* \"#utility.yul\":24258:24260   */\n      0x20\n        /* \"#utility.yul\":24247:24256   */\n      dup3\n        /* \"#utility.yul\":24243:24261   */\n      add\n        /* \"#utility.yul\":24235:24261   */\n      swap1\n      pop\n        /* \"#utility.yul\":24307:24316   */\n      dup2\n        /* \"#utility.yul\":24301:24305   */\n      dup2\n        /* \"#utility.yul\":24297:24317   */\n      sub\n        /* \"#utility.yul\":24293:24294   */\n      0x00\n        /* \"#utility.yul\":24282:24291   */\n      dup4\n        /* \"#utility.yul\":24278:24295   */\n      add\n        /* \"#utility.yul\":24271:24318   */\n      mstore\n        /* \"#utility.yul\":24335:24466   */\n      tag_542\n        /* \"#utility.yul\":24461:24465   */\n      dup2\n        /* \"#utility.yul\":24335:24466   */\n      tag_296\n      jump\t// in\n    tag_542:\n        /* \"#utility.yul\":24327:24466   */\n      swap1\n      pop\n        /* \"#utility.yul\":24054:24473   */\n      swap2\n      swap1\n      pop\n      jump\t// out\n        /* \"#utility.yul\":24479:24649   */\n    tag_297:\n        /* \"#utility.yul\":24619:24641   */\n      0x496e73756666696369656e74207061796d656e74000000000000000000000000\n        /* \"#utility.yul\":24615:24616   */\n      0x00\n        /* \"#utility.yul\":24607:24613   */\n      dup3\n        /* \"#utility.yul\":24603:24617   */\n      add\n        /* \"#utility.yul\":24596:24642   */\n      mstore\n        /* \"#utility.yul\":24479:24649   */\n      pop\n      jump\t// out\n        /* \"#utility.yul\":24655:25021   */\n    tag_298:\n        /* \"#utility.yul\":24797:24800   */\n      0x00\n        /* \"#utility.yul\":24818:24885   */\n      tag_545\n        /* \"#utility.yul\":24882:24884   */\n      0x14\n        /* \"#utility.yul\":24877:24880   */\n      dup4\n        /* \"#utility.yul\":24818:24885   */\n      tag_244\n      jump\t// in\n    tag_545:\n        /* \"#utility.yul\":24811:24885   */\n      swap2\n      pop\n        /* \"#utility.yul\":24894:24987   */\n      tag_546\n        /* \"#utility.yul\":24983:24986   */\n      dup3\n        /* \"#utility.yul\":24894:24987   */\n      tag_297\n      jump\t// in\n    tag_546:\n        /* \"#utility.yul\":25012:25014   */\n      0x20\n        /* \"#utility.yul\":25007:25010   */\n      dup3\n        /* \"#utility.yul\":25003:25015   */\n      add\n        /* \"#utility.yul\":24996:25015   */\n      swap1\n      pop\n        /* \"#utility.yul\":24655:25021   */\n      swap2\n      swap1\n      pop\n      jump\t// out\n        /* \"#utility.yul\":25027:25446   */\n    tag_156:\n        /* \"#utility.yul\":25193:25197   */\n      0x00\n        /* \"#utility.yul\":25231:25233   */\n      0x20\n        /* \"#utility.yul\":25220:25229   */\n      dup3\n        /* \"#utility.yul\":25216:25234   */\n      add\n        /* \"#utility.yul\":25208:25234   */\n      swap1\n      pop\n        /* \"#utility.yul\":25280:25289   */\n      dup2\n        /* \"#utility.yul\":25274:25278   */\n      dup2\n        /* \"#utility.yul\":25270:25290   */\n      sub\n        /* \"#utility.yul\":25266:25267   */\n      0x00\n        /* \"#utility.yul\":25255:25264   */\n      dup4\n        /* \"#utility.yul\":25251:25268   */\n      add\n        /* \"#utility.yul\":25244:25291   */\n      mstore\n        /* \"#utility.yul\":25308:25439   */\n      tag_548\n        /* \"#utility.yul\":25434:25438   */\n      dup2\n        /* \"#utility.yul\":25308:25439   */\n      tag_298\n      jump\t// in\n    tag_548:\n        /* \"#utility.yul\":25300:25439   */\n      swap1\n      pop\n        /* \"#utility.yul\":25027:25446   */\n      swap2\n      swap1\n      pop\n      jump\t// out\n        /* \"#utility.yul\":25476:26307   */\n    tag_299:\n        /* \"#utility.yul\":25561:25564   */\n      0x00\n        /* \"#utility.yul\":25598:25603   */\n      dup2\n        /* \"#utility.yul\":25592:25604   */\n      sload\n        /* \"#utility.yul\":25627:25663   */\n      tag_550\n        /* \"#utility.yul\":25653:25662   */\n      dup2\n        /* \"#utility.yul\":25627:25663   */\n      tag_77\n      jump\t// in\n    tag_550:\n        /* \"#utility.yul\":25679:25750   */\n      tag_551\n        /* \"#utility.yul\":25743:25749   */\n      dup2\n        /* \"#utility.yul\":25738:25741   */\n      dup7\n        /* \"#utility.yul\":25679:25750   */\n      tag_244\n      jump\t// in\n    tag_551:\n        /* \"#utility.yul\":25672:25750   */\n      swap5\n      pop\n        /* \"#utility.yul\":25781:25782   */\n      0x01\n        /* \"#utility.yul\":25770:25779   */\n      dup3\n        /* \"#utility.yul\":25766:25783   */\n      and\n        /* \"#utility.yul\":25797:25798   */\n      0x00\n        /* \"#utility.yul\":25792:25956   */\n      dup2\n      eq\n      tag_553\n      jumpi\n        /* \"#utility.yul\":25970:25971   */\n      0x01\n        /* \"#utility.yul\":25965:26301   */\n      dup2\n      eq\n      tag_554\n      jumpi\n        /* \"#utility.yul\":25759:26301   */\n      jump(tag_552)\n        /* \"#utility.yul\":25792:25956   */\n    tag_553:\n        /* \"#utility.yul\":25876:25880   */\n      0xff\n        /* \"#utility.yul\":25872:25881   */\n      not\n        /* \"#utility.yul\":25861:25870   */\n      dup4\n        /* \"#utility.yul\":25857:25882   */\n      and\n        /* \"#utility.yul\":25852:25855   */\n      dup7\n        /* \"#utility.yul\":25845:25883   */\n      mstore\n        /* \"#utility.yul\":25936:25942   */\n      dup2\n        /* \"#utility.yul\":25929:25943   */\n      iszero\n        /* \"#utility.yul\":25922:25944   */\n      iszero\n        /* \"#utility.yul\":25916:25920   */\n      0x20\n        /* \"#utility.yul\":25912:25945   */\n      mul\n        /* \"#utility.yul\":25907:25910   */\n      dup7\n        /* \"#utility.yul\":25903:25946   */\n      add\n        /* \"#utility.yul\":25896:25946   */\n      swap4\n      pop\n        /* \"#utility.yul\":25792:25956   */\n      jump(tag_552)\n        /* \"#utility.yul\":25965:26301   */\n    tag_554:\n        /* \"#utility.yul\":26032:26070   */\n      tag_555\n        /* \"#utility.yul\":26064:26069   */\n      dup6\n        /* \"#utility.yul\":26032:26070   */\n      tag_274\n      jump\t// in\n    tag_555:\n        /* \"#utility.yul\":26092:26093   */\n      0x00\n        /* \"#utility.yul\":26106:26260   */\n    tag_556:\n        /* \"#utility.yul\":26120:26126   */\n      dup4\n        /* \"#utility.yul\":26117:26118   */\n      dup2\n        /* \"#utility.yul\":26114:26127   */\n      lt\n        /* \"#utility.yul\":26106:26260   */\n      iszero\n      tag_558\n      jumpi\n        /* \"#utility.yul\":26194:26201   */\n      dup2\n        /* \"#utility.yul\":26188:26202   */\n      sload\n        /* \"#utility.yul\":26184:26185   */\n      dup2\n        /* \"#utility.yul\":26179:26182   */\n      dup10\n        /* \"#utility.yul\":26175:26186   */\n      add\n        /* \"#utility.yul\":26168:26203   */\n      mstore\n        /* \"#utility.yul\":26244:26245   */\n      0x01\n        /* \"#utility.yul\":26235:26242   */\n      dup3\n        /* \"#utility.yul\":26231:26246   */\n      add\n        /* \"#utility.yul\":26220:26246   */\n      swap2\n      pop\n        /* \"#utility.yul\":26142:26146   */\n      0x20\n        /* \"#utility.yul\":26139:26140   */\n      dup2\n        /* \"#utility.yul\":26135:26147   */\n      add\n        /* \"#utility.yul\":26130:26147   */\n      swap1\n      pop\n        /* \"#utility.yul\":26106:26260   */\n      jump(tag_556)\n    tag_558:\n        /* \"#utility.yul\":26289:26290   */\n      dup1\n        /* \"#utility.yul\":26284:26287   */\n      dup9\n        /* \"#utility.yul\":26280:26291   */\n      add\n        /* \"#utility.yul\":26273:26291   */\n      swap6\n      pop\n        /* \"#utility.yul\":25972:26301   */\n      pop\n      pop\n        /* \"#utility.yul\":25759:26301   */\n    tag_552:\n      pop\n        /* \"#utility.yul\":25565:26307   */\n      pop\n      pop\n        /* \"#utility.yul\":25476:26307   */\n      swap3\n      swap2\n      pop\n      pop\n      jump\t// out\n        /* \"#utility.yul\":26313:26951   */\n    tag_161:\n        /* \"#utility.yul\":26507:26511   */\n      0x00\n        /* \"#utility.yul\":26545:26548   */\n      0x80\n        /* \"#utility.yul\":26534:26543   */\n      dup3\n        /* \"#utility.yul\":26530:26549   */\n      add\n        /* \"#utility.yul\":26522:26549   */\n      swap1\n      pop\n        /* \"#utility.yul\":26559:26630   */\n      tag_560\n        /* \"#utility.yul\":26627:26628   */\n      0x00\n        /* \"#utility.yul\":26616:26625   */\n      dup4\n        /* \"#utility.yul\":26612:26629   */\n      add\n        /* \"#utility.yul\":26603:26609   */\n      dup8\n        /* \"#utility.yul\":26559:26630   */\n      tag_252\n      jump\t// in\n    tag_560:\n        /* \"#utility.yul\":26640:26712   */\n      tag_561\n        /* \"#utility.yul\":26708:26710   */\n      0x20\n        /* \"#utility.yul\":26697:26706   */\n      dup4\n        /* \"#utility.yul\":26693:26711   */\n      add\n        /* \"#utility.yul\":26684:26690   */\n      dup7\n        /* \"#utility.yul\":26640:26712   */\n      tag_252\n      jump\t// in\n    tag_561:\n        /* \"#utility.yul\":26759:26768   */\n      dup2\n        /* \"#utility.yul\":26753:26757   */\n      dup2\n        /* \"#utility.yul\":26749:26769   */\n      sub\n        /* \"#utility.yul\":26744:26746   */\n      0x40\n        /* \"#utility.yul\":26733:26742   */\n      dup4\n        /* \"#utility.yul\":26729:26747   */\n      add\n        /* \"#utility.yul\":26722:26770   */\n      mstore\n        /* \"#utility.yul\":26787:26862   */\n      tag_562\n        /* \"#utility.yul\":26857:26861   */\n      dup2\n        /* \"#utility.yul\":26848:26854   */\n      dup6\n        /* \"#utility.yul\":26787:26862   */\n      tag_299\n      jump\t// in\n    tag_562:\n        /* \"#utility.yul\":26779:26862   */\n      swap1\n      pop\n        /* \"#utility.yul\":26872:26944   */\n      tag_563\n        /* \"#utility.yul\":26940:26942   */\n      0x60\n        /* \"#utility.yul\":26929:26938   */\n      dup4\n        /* \"#utility.yul\":26925:26943   */\n      add\n        /* \"#utility.yul\":26916:26922   */\n      dup5\n        /* \"#utility.yul\":26872:26944   */\n      tag_249\n      jump\t// in\n    tag_563:\n        /* \"#utility.yul\":26313:26951   */\n      swap6\n      swap5\n      pop\n      pop\n      pop\n      pop\n      pop\n      jump\t// out\n        /* \"#utility.yul\":26957:27137   */\n    tag_300:\n        /* \"#utility.yul\":27097:27129   */\n      0x436f6e73756d657220697320616c726561647920726567697374657265640000\n        /* \"#utility.yul\":27093:27094   */\n      0x00\n        /* \"#utility.yul\":27085:27091   */\n      dup3\n        /* \"#utility.yul\":27081:27095   */\n      add\n        /* \"#utility.yul\":27074:27130   */\n      mstore\n        /* \"#utility.yul\":26957:27137   */\n      pop\n      jump\t// out\n        /* \"#utility.yul\":27143:27509   */\n    tag_301:\n        /* \"#utility.yul\":27285:27288   */\n      0x00\n        /* \"#utility.yul\":27306:27373   */\n      tag_566\n        /* \"#utility.yul\":27370:27372   */\n      0x1e\n        /* \"#utility.yul\":27365:27368   */\n      dup4\n        /* \"#utility.yul\":27306:27373   */\n      tag_244\n      jump\t// in\n    tag_566:\n        /* \"#utility.yul\":27299:27373   */\n      swap2\n      pop\n        /* \"#utility.yul\":27382:27475   */\n      tag_567\n        /* \"#utility.yul\":27471:27474   */\n      dup3\n        /* \"#utility.yul\":27382:27475   */\n      tag_300\n      jump\t// in\n    tag_567:\n        /* \"#utility.yul\":27500:27502   */\n      0x20\n        /* \"#utility.yul\":27495:27498   */\n      dup3\n        /* \"#utility.yul\":27491:27503   */\n      add\n        /* \"#utility.yul\":27484:27503   */\n      swap1\n      pop\n        /* \"#utility.yul\":27143:27509   */\n      swap2\n      swap1\n      pop\n      jump\t// out\n        /* \"#utility.yul\":27515:27934   */\n    tag_165:\n        /* \"#utility.yul\":27681:27685   */\n      0x00\n        /* \"#utility.yul\":27719:27721   */\n      0x20\n        /* \"#utility.yul\":27708:27717   */\n      dup3\n        /* \"#utility.yul\":27704:27722   */\n      add\n        /* \"#utility.yul\":27696:27722   */\n      swap1\n      pop\n        /* \"#utility.yul\":27768:27777   */\n      dup2\n        /* \"#utility.yul\":27762:27766   */\n      dup2\n        /* \"#utility.yul\":27758:27778   */\n      sub\n        /* \"#utility.yul\":27754:27755   */\n      0x00\n        /* \"#utility.yul\":27743:27752   */\n      dup4\n        /* \"#utility.yul\":27739:27756   */\n      add\n        /* \"#utility.yul\":27732:27779   */\n      mstore\n        /* \"#utility.yul\":27796:27927   */\n      tag_569\n        /* \"#utility.yul\":27922:27926   */\n      dup2\n        /* \"#utility.yul\":27796:27927   */\n      tag_301\n      jump\t// in\n    tag_569:\n        /* \"#utility.yul\":27788:27927   */\n      swap1\n      pop\n        /* \"#utility.yul\":27515:27934   */\n      swap2\n      swap1\n      pop\n      jump\t// out\n        /* \"#utility.yul\":27940:28162   */\n    tag_167:\n        /* \"#utility.yul\":28033:28037   */\n      0x00\n        /* \"#utility.yul\":28071:28073   */\n      0x20\n        /* \"#utility.yul\":28060:28069   */\n      dup3\n        /* \"#utility.yul\":28056:28074   */\n      add\n        /* \"#utility.yul\":28048:28074   */\n      swap1\n      pop\n        /* \"#utility.yul\":28084:28155   */\n      tag_571\n        /* \"#utility.yul\":28152:28153   */\n      0x00\n        /* \"#utility.yul\":28141:28150   */\n      dup4\n        /* \"#utility.yul\":28137:28154   */\n      add\n        /* \"#utility.yul\":28128:28134   */\n      dup5\n        /* \"#utility.yul\":28084:28155   */\n      tag_252\n      jump\t// in\n    tag_571:\n        /* \"#utility.yul\":27940:28162   */\n      swap3\n      swap2\n      pop\n      pop\n      jump\t// out\n        /* \"#utility.yul\":28168:28410   */\n    tag_302:\n        /* \"#utility.yul\":28308:28342   */\n      0x4f6e6c7920726567697374657265642070726f7669646572732063616e206163\n        /* \"#utility.yul\":28304:28305   */\n      0x00\n        /* \"#utility.yul\":28296:28302   */\n      dup3\n        /* \"#utility.yul\":28292:28306   */\n      add\n        /* \"#utility.yul\":28285:28343   */\n      mstore\n        /* \"#utility.yul\":28377:28402   */\n      0x6365737320746869732066756e6374696f6e616c697479000000000000000000\n        /* \"#utility.yul\":28372:28374   */\n      0x20\n        /* \"#utility.yul\":28364:28370   */\n      dup3\n        /* \"#utility.yul\":28360:28375   */\n      add\n        /* \"#utility.yul\":28353:28403   */\n      mstore\n        /* \"#utility.yul\":28168:28410   */\n      pop\n      jump\t// out\n        /* \"#utility.yul\":28416:28782   */\n    tag_303:\n        /* \"#utility.yul\":28558:28561   */\n      0x00\n        /* \"#utility.yul\":28579:28646   */\n      tag_574\n        /* \"#utility.yul\":28643:28645   */\n      0x37\n        /* \"#utility.yul\":28638:28641   */\n      dup4\n        /* \"#utility.yul\":28579:28646   */\n      tag_244\n      jump\t// in\n    tag_574:\n        /* \"#utility.yul\":28572:28646   */\n      swap2\n      pop\n        /* \"#utility.yul\":28655:28748   */\n      tag_575\n        /* \"#utility.yul\":28744:28747   */\n      dup3\n        /* \"#utility.yul\":28655:28748   */\n      tag_302\n      jump\t// in\n    tag_575:\n        /* \"#utility.yul\":28773:28775   */\n      0x40\n        /* \"#utility.yul\":28768:28771   */\n      dup3\n        /* \"#utility.yul\":28764:28776   */\n      add\n        /* \"#utility.yul\":28757:28776   */\n      swap1\n      pop\n        /* \"#utility.yul\":28416:28782   */\n      swap2\n      swap1\n      pop\n      jump\t// out\n        /* \"#utility.yul\":28788:29207   */\n    tag_171:\n        /* \"#utility.yul\":28954:28958   */\n      0x00\n        /* \"#utility.yul\":28992:28994   */\n      0x20\n        /* \"#utility.yul\":28981:28990   */\n      dup3\n        /* \"#utility.yul\":28977:28995   */\n      add\n        /* \"#utility.yul\":28969:28995   */\n      swap1\n      pop\n        /* \"#utility.yul\":29041:29050   */\n      dup2\n        /* \"#utility.yul\":29035:29039   */\n      dup2\n        /* \"#utility.yul\":29031:29051   */\n      sub\n        /* \"#utility.yul\":29027:29028   */\n      0x00\n        /* \"#utility.yul\":29016:29025   */\n      dup4\n        /* \"#utility.yul\":29012:29029   */\n      add\n        /* \"#utility.yul\":29005:29052   */\n      mstore\n        /* \"#utility.yul\":29069:29200   */\n      tag_577\n        /* \"#utility.yul\":29195:29199   */\n      dup2\n        /* \"#utility.yul\":29069:29200   */\n      tag_303\n      jump\t// in\n    tag_577:\n        /* \"#utility.yul\":29061:29200   */\n      swap1\n      pop\n        /* \"#utility.yul\":28788:29207   */\n      swap2\n      swap1\n      pop\n      jump\t// out\n        /* \"#utility.yul\":29213:29389   */\n    tag_304:\n        /* \"#utility.yul\":29353:29381   */\n      0x436f6e73756d6572206973206e6f742072656769737465726564000000000000\n        /* \"#utility.yul\":29349:29350   */\n      0x00\n        /* \"#utility.yul\":29341:29347   */\n      dup3\n        /* \"#utility.yul\":29337:29351   */\n      add\n        /* \"#utility.yul\":29330:29382   */\n      mstore\n        /* \"#utility.yul\":29213:29389   */\n      pop\n      jump\t// out\n        /* \"#utility.yul\":29395:29761   */\n    tag_305:\n        /* \"#utility.yul\":29537:29540   */\n      0x00\n        /* \"#utility.yul\":29558:29625   */\n      tag_580\n        /* \"#utility.yul\":29622:29624   */\n      0x1a\n        /* \"#utility.yul\":29617:29620   */\n      dup4\n        /* \"#utility.yul\":29558:29625   */\n      tag_244\n      jump\t// in\n    tag_580:\n        /* \"#utility.yul\":29551:29625   */\n      swap2\n      pop\n        /* \"#utility.yul\":29634:29727   */\n      tag_581\n        /* \"#utility.yul\":29723:29726   */\n      dup3\n        /* \"#utility.yul\":29634:29727   */\n      tag_304\n      jump\t// in\n    tag_581:\n        /* \"#utility.yul\":29752:29754   */\n      0x20\n        /* \"#utility.yul\":29747:29750   */\n      dup3\n        /* \"#utility.yul\":29743:29755   */\n      add\n        /* \"#utility.yul\":29736:29755   */\n      swap1\n      pop\n        /* \"#utility.yul\":29395:29761   */\n      swap2\n      swap1\n      pop\n      jump\t// out\n        /* \"#utility.yul\":29767:30186   */\n    tag_175:\n        /* \"#utility.yul\":29933:29937   */\n      0x00\n        /* \"#utility.yul\":29971:29973   */\n      0x20\n        /* \"#utility.yul\":29960:29969   */\n      dup3\n        /* \"#utility.yul\":29956:29974   */\n      add\n        /* \"#utility.yul\":29948:29974   */\n      swap1\n      pop\n        /* \"#utility.yul\":30020:30029   */\n      dup2\n        /* \"#utility.yul\":30014:30018   */\n      dup2\n        /* \"#utility.yul\":30010:30030   */\n      sub\n        /* \"#utility.yul\":30006:30007   */\n      0x00\n        /* \"#utility.yul\":29995:30004   */\n      dup4\n        /* \"#utility.yul\":29991:30008   */\n      add\n        /* \"#utility.yul\":29984:30031   */\n      mstore\n        /* \"#utility.yul\":30048:30179   */\n      tag_583\n        /* \"#utility.yul\":30174:30178   */\n      dup2\n        /* \"#utility.yul\":30048:30179   */\n      tag_305\n      jump\t// in\n    tag_583:\n        /* \"#utility.yul\":30040:30179   */\n      swap1\n      pop\n        /* \"#utility.yul\":29767:30186   */\n      swap2\n      swap1\n      pop\n      jump\t// out\n        /* \"#utility.yul\":30192:30356   */\n    tag_306:\n        /* \"#utility.yul\":30332:30348   */\n      0x4e6f7420617574686f72697a6564000000000000000000000000000000000000\n        /* \"#utility.yul\":30328:30329   */\n      0x00\n        /* \"#utility.yul\":30320:30326   */\n      dup3\n        /* \"#utility.yul\":30316:30330   */\n      add\n        /* \"#utility.yul\":30309:30349   */\n      mstore\n        /* \"#utility.yul\":30192:30356   */\n      pop\n      jump\t// out\n        /* \"#utility.yul\":30362:30728   */\n    tag_307:\n        /* \"#utility.yul\":30504:30507   */\n      0x00\n        /* \"#utility.yul\":30525:30592   */\n      tag_586\n        /* \"#utility.yul\":30589:30591   */\n      0x0e\n        /* \"#utility.yul\":30584:30587   */\n      dup4\n        /* \"#utility.yul\":30525:30592   */\n      tag_244\n      jump\t// in\n    tag_586:\n        /* \"#utility.yul\":30518:30592   */\n      swap2\n      pop\n        /* \"#utility.yul\":30601:30694   */\n      tag_587\n        /* \"#utility.yul\":30690:30693   */\n      dup3\n        /* \"#utility.yul\":30601:30694   */\n      tag_306\n      jump\t// in\n    tag_587:\n        /* \"#utility.yul\":30719:30721   */\n      0x20\n        /* \"#utility.yul\":30714:30717   */\n      dup3\n        /* \"#utility.yul\":30710:30722   */\n      add\n        /* \"#utility.yul\":30703:30722   */\n      swap1\n      pop\n        /* \"#utility.yul\":30362:30728   */\n      swap2\n      swap1\n      pop\n      jump\t// out\n        /* \"#utility.yul\":30734:31153   */\n    tag_178:\n        /* \"#utility.yul\":30900:30904   */\n      0x00\n        /* \"#utility.yul\":30938:30940   */\n      0x20\n        /* \"#utility.yul\":30927:30936   */\n      dup3\n        /* \"#utility.yul\":30923:30941   */\n      add\n        /* \"#utility.yul\":30915:30941   */\n      swap1\n      pop\n        /* \"#utility.yul\":30987:30996   */\n      dup2\n        /* \"#utility.yul\":30981:30985   */\n      dup2\n        /* \"#utility.yul\":30977:30997   */\n      sub\n        /* \"#utility.yul\":30973:30974   */\n      0x00\n        /* \"#utility.yul\":30962:30971   */\n      dup4\n        /* \"#utility.yul\":30958:30975   */\n      add\n        /* \"#utility.yul\":30951:30998   */\n      mstore\n        /* \"#utility.yul\":31015:31146   */\n      tag_589\n        /* \"#utility.yul\":31141:31145   */\n      dup2\n        /* \"#utility.yul\":31015:31146   */\n      tag_307\n      jump\t// in\n    tag_589:\n        /* \"#utility.yul\":31007:31146   */\n      swap1\n      pop\n        /* \"#utility.yul\":30734:31153   */\n      swap2\n      swap1\n      pop\n      jump\t// out\n        /* \"#utility.yul\":31159:31686   */\n    tag_181:\n        /* \"#utility.yul\":31325:31329   */\n      0x00\n        /* \"#utility.yul\":31363:31365   */\n      0x60\n        /* \"#utility.yul\":31352:31361   */\n      dup3\n        /* \"#utility.yul\":31348:31366   */\n      add\n        /* \"#utility.yul\":31340:31366   */\n      swap1\n      pop\n        /* \"#utility.yul\":31376:31447   */\n      tag_591\n        /* \"#utility.yul\":31444:31445   */\n      0x00\n        /* \"#utility.yul\":31433:31442   */\n      dup4\n        /* \"#utility.yul\":31429:31446   */\n      add\n        /* \"#utility.yul\":31420:31426   */\n      dup7\n        /* \"#utility.yul\":31376:31447   */\n      tag_252\n      jump\t// in\n    tag_591:\n        /* \"#utility.yul\":31457:31529   */\n      tag_592\n        /* \"#utility.yul\":31525:31527   */\n      0x20\n        /* \"#utility.yul\":31514:31523   */\n      dup4\n        /* \"#utility.yul\":31510:31528   */\n      add\n        /* \"#utility.yul\":31501:31507   */\n      dup6\n        /* \"#utility.yul\":31457:31529   */\n      tag_252\n      jump\t// in\n    tag_592:\n        /* \"#utility.yul\":31576:31585   */\n      dup2\n        /* \"#utility.yul\":31570:31574   */\n      dup2\n        /* \"#utility.yul\":31566:31586   */\n      sub\n        /* \"#utility.yul\":31561:31563   */\n      0x40\n        /* \"#utility.yul\":31550:31559   */\n      dup4\n        /* \"#utility.yul\":31546:31564   */\n      add\n        /* \"#utility.yul\":31539:31587   */\n      mstore\n        /* \"#utility.yul\":31604:31679   */\n      tag_593\n        /* \"#utility.yul\":31674:31678   */\n      dup2\n        /* \"#utility.yul\":31665:31671   */\n      dup5\n        /* \"#utility.yul\":31604:31679   */\n      tag_299\n      jump\t// in\n    tag_593:\n        /* \"#utility.yul\":31596:31679   */\n      swap1\n      pop\n        /* \"#utility.yul\":31159:31686   */\n      swap5\n      swap4\n      pop\n      pop\n      pop\n      pop\n      jump\t// out\n        /* \"#utility.yul\":31692:31984   */\n    tag_308:\n        /* \"#utility.yul\":31832:31866   */\n      0x4f6e6c79207265676973746572656420636f6e73756d657273206f722070726f\n        /* \"#utility.yul\":31828:31829   */\n      0x00\n        /* \"#utility.yul\":31820:31826   */\n      dup3\n        /* \"#utility.yul\":31816:31830   */\n      add\n        /* \"#utility.yul\":31809:31867   */\n      mstore\n        /* \"#utility.yul\":31901:31935   */\n      0x7669646572732063616e2061636365737320746869732066756e6374696f6e61\n        /* \"#utility.yul\":31896:31898   */\n      0x20\n        /* \"#utility.yul\":31888:31894   */\n      dup3\n        /* \"#utility.yul\":31884:31899   */\n      add\n        /* \"#utility.yul\":31877:31936   */\n      mstore\n        /* \"#utility.yul\":31970:31976   */\n      0x6c69747900000000000000000000000000000000000000000000000000000000\n        /* \"#utility.yul\":31965:31967   */\n      0x40\n        /* \"#utility.yul\":31957:31963   */\n      dup3\n        /* \"#utility.yul\":31953:31968   */\n      add\n        /* \"#utility.yul\":31946:31977   */\n      mstore\n        /* \"#utility.yul\":31692:31984   */\n      pop\n      jump\t// out\n        /* \"#utility.yul\":31990:32356   */\n    tag_309:\n        /* \"#utility.yul\":32132:32135   */\n      0x00\n        /* \"#utility.yul\":32153:32220   */\n      tag_596\n        /* \"#utility.yul\":32217:32219   */\n      0x44\n        /* \"#utility.yul\":32212:32215   */\n      dup4\n        /* \"#utility.yul\":32153:32220   */\n      tag_244\n      jump\t// in\n    tag_596:\n        /* \"#utility.yul\":32146:32220   */\n      swap2\n      pop\n        /* \"#utility.yul\":32229:32322   */\n      tag_597\n        /* \"#utility.yul\":32318:32321   */\n      dup3\n        /* \"#utility.yul\":32229:32322   */\n      tag_308\n      jump\t// in\n    tag_597:\n        /* \"#utility.yul\":32347:32349   */\n      0x60\n        /* \"#utility.yul\":32342:32345   */\n      dup3\n        /* \"#utility.yul\":32338:32350   */\n      add\n        /* \"#utility.yul\":32331:32350   */\n      swap1\n      pop\n        /* \"#utility.yul\":31990:32356   */\n      swap2\n      swap1\n      pop\n      jump\t// out\n        /* \"#utility.yul\":32362:32781   */\n    tag_186:\n        /* \"#utility.yul\":32528:32532   */\n      0x00\n        /* \"#utility.yul\":32566:32568   */\n      0x20\n        /* \"#utility.yul\":32555:32564   */\n      dup3\n        /* \"#utility.yul\":32551:32569   */\n      add\n        /* \"#utility.yul\":32543:32569   */\n      swap1\n      pop\n        /* \"#utility.yul\":32615:32624   */\n      dup2\n        /* \"#utility.yul\":32609:32613   */\n      dup2\n        /* \"#utility.yul\":32605:32625   */\n      sub\n        /* \"#utility.yul\":32601:32602   */\n      0x00\n        /* \"#utility.yul\":32590:32599   */\n      dup4\n        /* \"#utility.yul\":32586:32603   */\n      add\n        /* \"#utility.yul\":32579:32626   */\n      mstore\n        /* \"#utility.yul\":32643:32774   */\n      tag_599\n        /* \"#utility.yul\":32769:32773   */\n      dup2\n        /* \"#utility.yul\":32643:32774   */\n      tag_309\n      jump\t// in\n    tag_599:\n        /* \"#utility.yul\":32635:32774   */\n      swap1\n      pop\n        /* \"#utility.yul\":32362:32781   */\n      swap2\n      swap1\n      pop\n      jump\t// out\n        /* \"#utility.yul\":32787:33012   */\n    tag_310:\n        /* \"#utility.yul\":32927:32961   */\n      0x50726f76696465722068617320616c7265616479206f66666572656420612073\n        /* \"#utility.yul\":32923:32924   */\n      0x00\n        /* \"#utility.yul\":32915:32921   */\n      dup3\n        /* \"#utility.yul\":32911:32925   */\n      add\n        /* \"#utility.yul\":32904:32962   */\n      mstore\n        /* \"#utility.yul\":32996:33004   */\n      0x6572766963650000000000000000000000000000000000000000000000000000\n        /* \"#utility.yul\":32991:32993   */\n      0x20\n        /* \"#utility.yul\":32983:32989   */\n      dup3\n        /* \"#utility.yul\":32979:32994   */\n      add\n        /* \"#utility.yul\":32972:33005   */\n      mstore\n        /* \"#utility.yul\":32787:33012   */\n      pop\n      jump\t// out\n        /* \"#utility.yul\":33018:33384   */\n    tag_311:\n        /* \"#utility.yul\":33160:33163   */\n      0x00\n        /* \"#utility.yul\":33181:33248   */\n      tag_602\n        /* \"#utility.yul\":33245:33247   */\n      0x26\n        /* \"#utility.yul\":33240:33243   */\n      dup4\n        /* \"#utility.yul\":33181:33248   */\n      tag_244\n      jump\t// in\n    tag_602:\n        /* \"#utility.yul\":33174:33248   */\n      swap2\n      pop\n        /* \"#utility.yul\":33257:33350   */\n      tag_603\n        /* \"#utility.yul\":33346:33349   */\n      dup3\n        /* \"#utility.yul\":33257:33350   */\n      tag_310\n      jump\t// in\n    tag_603:\n        /* \"#utility.yul\":33375:33377   */\n      0x40\n        /* \"#utility.yul\":33370:33373   */\n      dup3\n        /* \"#utility.yul\":33366:33378   */\n      add\n        /* \"#utility.yul\":33359:33378   */\n      swap1\n      pop\n        /* \"#utility.yul\":33018:33384   */\n      swap2\n      swap1\n      pop\n      jump\t// out\n        /* \"#utility.yul\":33390:33809   */\n    tag_198:\n        /* \"#utility.yul\":33556:33560   */\n      0x00\n        /* \"#utility.yul\":33594:33596   */\n      0x20\n        /* \"#utility.yul\":33583:33592   */\n      dup3\n        /* \"#utility.yul\":33579:33597   */\n      add\n        /* \"#utility.yul\":33571:33597   */\n      swap1\n      pop\n        /* \"#utility.yul\":33643:33652   */\n      dup2\n        /* \"#utility.yul\":33637:33641   */\n      dup2\n        /* \"#utility.yul\":33633:33653   */\n      sub\n        /* \"#utility.yul\":33629:33630   */\n      0x00\n        /* \"#utility.yul\":33618:33627   */\n      dup4\n        /* \"#utility.yul\":33614:33631   */\n      add\n        /* \"#utility.yul\":33607:33654   */\n      mstore\n        /* \"#utility.yul\":33671:33802   */\n      tag_605\n        /* \"#utility.yul\":33797:33801   */\n      dup2\n        /* \"#utility.yul\":33671:33802   */\n      tag_311\n      jump\t// in\n    tag_605:\n        /* \"#utility.yul\":33663:33802   */\n      swap1\n      pop\n        /* \"#utility.yul\":33390:33809   */\n      swap2\n      swap1\n      pop\n      jump\t// out\n        /* \"#utility.yul\":33815:34550   */\n    tag_202:\n        /* \"#utility.yul\":34032:34036   */\n      0x00\n        /* \"#utility.yul\":34070:34073   */\n      0x80\n        /* \"#utility.yul\":34059:34068   */\n      dup3\n        /* \"#utility.yul\":34055:34074   */\n      add\n        /* \"#utility.yul\":34047:34074   */\n      swap1\n      pop\n        /* \"#utility.yul\":34084:34155   */\n      tag_607\n        /* \"#utility.yul\":34152:34153   */\n      0x00\n        /* \"#utility.yul\":34141:34150   */\n      dup4\n        /* \"#utility.yul\":34137:34154   */\n      add\n        /* \"#utility.yul\":34128:34134   */\n      dup8\n        /* \"#utility.yul\":34084:34155   */\n      tag_252\n      jump\t// in\n    tag_607:\n        /* \"#utility.yul\":34202:34211   */\n      dup2\n        /* \"#utility.yul\":34196:34200   */\n      dup2\n        /* \"#utility.yul\":34192:34212   */\n      sub\n        /* \"#utility.yul\":34187:34189   */\n      0x20\n        /* \"#utility.yul\":34176:34185   */\n      dup4\n        /* \"#utility.yul\":34172:34190   */\n      add\n        /* \"#utility.yul\":34165:34213   */\n      mstore\n        /* \"#utility.yul\":34230:34308   */\n      tag_608\n        /* \"#utility.yul\":34303:34307   */\n      dup2\n        /* \"#utility.yul\":34294:34300   */\n      dup7\n        /* \"#utility.yul\":34230:34308   */\n      tag_247\n      jump\t// in\n    tag_608:\n        /* \"#utility.yul\":34222:34308   */\n      swap1\n      pop\n        /* \"#utility.yul\":34355:34364   */\n      dup2\n        /* \"#utility.yul\":34349:34353   */\n      dup2\n        /* \"#utility.yul\":34345:34365   */\n      sub\n        /* \"#utility.yul\":34340:34342   */\n      0x40\n        /* \"#utility.yul\":34329:34338   */\n      dup4\n        /* \"#utility.yul\":34325:34343   */\n      add\n        /* \"#utility.yul\":34318:34366   */\n      mstore\n        /* \"#utility.yul\":34383:34461   */\n      tag_609\n        /* \"#utility.yul\":34456:34460   */\n      dup2\n        /* \"#utility.yul\":34447:34453   */\n      dup6\n        /* \"#utility.yul\":34383:34461   */\n      tag_247\n      jump\t// in\n    tag_609:\n        /* \"#utility.yul\":34375:34461   */\n      swap1\n      pop\n        /* \"#utility.yul\":34471:34543   */\n      tag_610\n        /* \"#utility.yul\":34539:34541   */\n      0x60\n        /* \"#utility.yul\":34528:34537   */\n      dup4\n        /* \"#utility.yul\":34524:34542   */\n      add\n        /* \"#utility.yul\":34515:34521   */\n      dup5\n        /* \"#utility.yul\":34471:34543   */\n      tag_249\n      jump\t// in\n    tag_610:\n        /* \"#utility.yul\":33815:34550   */\n      swap6\n      swap5\n      pop\n      pop\n      pop\n      pop\n      pop\n      jump\t// out\n        /* \"#utility.yul\":34556:34778   */\n    tag_312:\n        /* \"#utility.yul\":34696:34730   */\n      0x4269642076616c7565206d7573742062652067726561746572207468616e207a\n        /* \"#utility.yul\":34692:34693   */\n      0x00\n        /* \"#utility.yul\":34684:34690   */\n      dup3\n        /* \"#utility.yul\":34680:34694   */\n      add\n        /* \"#utility.yul\":34673:34731   */\n      mstore\n        /* \"#utility.yul\":34765:34770   */\n      0x65726f0000000000000000000000000000000000000000000000000000000000\n        /* \"#utility.yul\":34760:34762   */\n      0x20\n        /* \"#utility.yul\":34752:34758   */\n      dup3\n        /* \"#utility.yul\":34748:34763   */\n      add\n        /* \"#utility.yul\":34741:34771   */\n      mstore\n        /* \"#utility.yul\":34556:34778   */\n      pop\n      jump\t// out\n        /* \"#utility.yul\":34784:35150   */\n    tag_313:\n        /* \"#utility.yul\":34926:34929   */\n      0x00\n        /* \"#utility.yul\":34947:35014   */\n      tag_613\n        /* \"#utility.yul\":35011:35013   */\n      0x23\n        /* \"#utility.yul\":35006:35009   */\n      dup4\n        /* \"#utility.yul\":34947:35014   */\n      tag_244\n      jump\t// in\n    tag_613:\n        /* \"#utility.yul\":34940:35014   */\n      swap2\n      pop\n        /* \"#utility.yul\":35023:35116   */\n      tag_614\n        /* \"#utility.yul\":35112:35115   */\n      dup3\n        /* \"#utility.yul\":35023:35116   */\n      tag_312\n      jump\t// in\n    tag_614:\n        /* \"#utility.yul\":35141:35143   */\n      0x40\n        /* \"#utility.yul\":35136:35139   */\n      dup3\n        /* \"#utility.yul\":35132:35144   */\n      add\n        /* \"#utility.yul\":35125:35144   */\n      swap1\n      pop\n        /* \"#utility.yul\":34784:35150   */\n      swap2\n      swap1\n      pop\n      jump\t// out\n        /* \"#utility.yul\":35156:35575   */\n    tag_213:\n        /* \"#utility.yul\":35322:35326   */\n      0x00\n        /* \"#utility.yul\":35360:35362   */\n      0x20\n        /* \"#utility.yul\":35349:35358   */\n      dup3\n        /* \"#utility.yul\":35345:35363   */\n      add\n        /* \"#utility.yul\":35337:35363   */\n      swap1\n      pop\n        /* \"#utility.yul\":35409:35418   */\n      dup2\n        /* \"#utility.yul\":35403:35407   */\n      dup2\n        /* \"#utility.yul\":35399:35419   */\n      sub\n        /* \"#utility.yul\":35395:35396   */\n      0x00\n        /* \"#utility.yul\":35384:35393   */\n      dup4\n        /* \"#utility.yul\":35380:35397   */\n      add\n        /* \"#utility.yul\":35373:35420   */\n      mstore\n        /* \"#utility.yul\":35437:35568   */\n      tag_616\n        /* \"#utility.yul\":35563:35567   */\n      dup2\n        /* \"#utility.yul\":35437:35568   */\n      tag_313\n      jump\t// in\n    tag_616:\n        /* \"#utility.yul\":35429:35568   */\n      swap1\n      pop\n        /* \"#utility.yul\":35156:35575   */\n      swap2\n      swap1\n      pop\n      jump\t// out\n        /* \"#utility.yul\":35581:35761   */\n    tag_314:\n        /* \"#utility.yul\":35721:35753   */\n      0x50726f766964657220697320616c726561647920726567697374657265640000\n        /* \"#utility.yul\":35717:35718   */\n      0x00\n        /* \"#utility.yul\":35709:35715   */\n      dup3\n        /* \"#utility.yul\":35705:35719   */\n      add\n        /* \"#utility.yul\":35698:35754   */\n      mstore\n        /* \"#utility.yul\":35581:35761   */\n      pop\n      jump\t// out\n        /* \"#utility.yul\":35767:36133   */\n    tag_315:\n        /* \"#utility.yul\":35909:35912   */\n      0x00\n        /* \"#utility.yul\":35930:35997   */\n      tag_619\n        /* \"#utility.yul\":35994:35996   */\n      0x1e\n        /* \"#utility.yul\":35989:35992   */\n      dup4\n        /* \"#utility.yul\":35930:35997   */\n      tag_244\n      jump\t// in\n    tag_619:\n        /* \"#utility.yul\":35923:35997   */\n      swap2\n      pop\n        /* \"#utility.yul\":36006:36099   */\n      tag_620\n        /* \"#utility.yul\":36095:36098   */\n      dup3\n        /* \"#utility.yul\":36006:36099   */\n      tag_314\n      jump\t// in\n    tag_620:\n        /* \"#utility.yul\":36124:36126   */\n      0x20\n        /* \"#utility.yul\":36119:36122   */\n      dup3\n        /* \"#utility.yul\":36115:36127   */\n      add\n        /* \"#utility.yul\":36108:36127   */\n      swap1\n      pop\n        /* \"#utility.yul\":35767:36133   */\n      swap2\n      swap1\n      pop\n      jump\t// out\n        /* \"#utility.yul\":36139:36558   */\n    tag_221:\n        /* \"#utility.yul\":36305:36309   */\n      0x00\n        /* \"#utility.yul\":36343:36345   */\n      0x20\n        /* \"#utility.yul\":36332:36341   */\n      dup3\n        /* \"#utility.yul\":36328:36346   */\n      add\n        /* \"#utility.yul\":36320:36346   */\n      swap1\n      pop\n        /* \"#utility.yul\":36392:36401   */\n      dup2\n        /* \"#utility.yul\":36386:36390   */\n      dup2\n        /* \"#utility.yul\":36382:36402   */\n      sub\n        /* \"#utility.yul\":36378:36379   */\n      0x00\n        /* \"#utility.yul\":36367:36376   */\n      dup4\n        /* \"#utility.yul\":36363:36380   */\n      add\n        /* \"#utility.yul\":36356:36403   */\n      mstore\n        /* \"#utility.yul\":36420:36551   */\n      tag_622\n        /* \"#utility.yul\":36546:36550   */\n      dup2\n        /* \"#utility.yul\":36420:36551   */\n      tag_315\n      jump\t// in\n    tag_622:\n        /* \"#utility.yul\":36412:36551   */\n      swap1\n      pop\n        /* \"#utility.yul\":36139:36558   */\n      swap2\n      swap1\n      pop\n      jump\t// out\n\n    auxdata: 0xa26469706673582212201f865dd7aab71f011599d68f046598315bffad87c80ebc21181bb4426217968764736f6c63430008120033\n}\n",
				"bytecode": {
					"linkReferences": {},
					"object": "608060405234801561001057600080fd5b50613784806100206000396000f3fe6080604052600436106100c25760003560e01c806387ea07fb1161007f578063b8a76f5411610059578063b8a76f5414610279578063cb1ce0c7146102a2578063e4940157146102cb578063f769c6d0146102e7576100c2565b806387ea07fb1461021d578063b46506de14610239578063b6261d0a14610250576100c2565b80630787bc27146100c75780630bf53668146101095780631d59410a146101495780632872abbc1461018a5780637f593d9e146101b3578063862882e5146101f4575b600080fd5b3480156100d357600080fd5b506100ee60048036038101906100e991906124a6565b6102fe565b604051610100969594939291906125a6565b60405180910390f35b34801561011557600080fd5b50610130600480360381019061012b91906124a6565b610484565b6040516101409493929190612615565b60405180910390f35b34801561015557600080fd5b50610170600480360381019061016b91906124a6565b61050e565b60405161018195949392919061265a565b60405180910390f35b34801561019657600080fd5b506101b160048036038101906101ac91906124a6565b6105f9565b005b3480156101bf57600080fd5b506101da60048036038101906101d591906124a6565b610909565b6040516101eb95949392919061265a565b60405180910390f35b34801561020057600080fd5b5061021b60048036038101906102169190612815565b610b68565b005b610237600480360381019061023291906124a6565b610e9c565b005b34801561024557600080fd5b5061024e611240565b005b34801561025c57600080fd5b50610277600480360381019061027291906124a6565b61146d565b005b34801561028557600080fd5b506102a0600480360381019061029b9190612871565b6116db565b005b3480156102ae57600080fd5b506102c960048036038101906102c491906128ba565b611a2c565b005b6102e560048036038101906102e091906124a6565b611cc9565b005b3480156102f357600080fd5b506102fc6120f3565b005b600060205280600052604060002060009150905080600001805461032190612974565b80601f016020809104026020016040519081016040528092919081815260200182805461034d90612974565b801561039a5780601f1061036f5761010080835404028352916020019161039a565b820191906000526020600020905b81548152906001019060200180831161037d57829003601f168201915b5050505050908060010180546103af90612974565b80601f01602080910402602001604051908101604052809291908181526020018280546103db90612974565b80156104285780601f106103fd57610100808354040283529160200191610428565b820191906000526020600020905b81548152906001019060200180831161040b57829003601f168201915b5050505050908060020154908060030160009054906101000a900460ff16908060030160019054906101000a900460ff16908060030160029054906101000a900473ffffffffffffffffffffffffffffffffffffffff16905086565b60016020528060005260406000206000915090508060000160009054906101000a900460ff16908060000160019054906101000a900460ff16908060000160029054906101000a900473ffffffffffffffffffffffffffffffffffffffff16908060010160009054906101000a900473ffffffffffffffffffffffffffffffffffffffff16905084565b600260205280600052604060002060009150905080600001805461053190612974565b80601f016020809104026020016040519081016040528092919081815260200182805461055d90612974565b80156105aa5780601f1061057f576101008083540402835291602001916105aa565b820191906000526020600020905b81548152906001019060200180831161058d57829003601f168201915b5050505050908060010154908060030160009054906101000a900460ff16908060030160019054906101000a900473ffffffffffffffffffffffffffffffffffffffff16908060040154905085565b600160003373ffffffffffffffffffffffffffffffffffffffff1673ffffffffffffffffffffffffffffffffffffffff16815260200190815260200160002060000160009054906101000a900460ff168061069f57506000803373ffffffffffffffffffffffffffffffffffffffff1673ffffffffffffffffffffffffffffffffffffffff16815260200190815260200160002060030160009054906101000a900460ff165b6106de576040517f08c379a00000000000000000000000000000000000000000000000000000000081526004016106d590612a3d565b60405180910390fd5b6000600260008373ffffffffffffffffffffffffffffffffffffffff1673ffffffffffffffffffffffffffffffffffffffff1681526020019081526020016000209050600081600201805490501161076b576040517f08c379a000000000000000000000000000000000000000000000000000000000815260040161076290612aa9565b60405180910390fd5b8060030160009054906101000a900460ff16156107bd576040517f08c379a00000000000000000000000000000000000000000000000000000000081526004016107b490612b15565b60405180910390fd5b3373ffffffffffffffffffffffffffffffffffffffff168273ffffffffffffffffffffffffffffffffffffffff16148061084657503373ffffffffffffffffffffffffffffffffffffffff168160030160019054906101000a900473ffffffffffffffffffffffffffffffffffffffff1673ffffffffffffffffffffffffffffffffffffffff16145b610885576040517f08c379a000000000000000000000000000000000000000000000000000000000815260040161087c90612ba7565b60405180910390fd5b60018160030160006101000a81548160ff0219169083151502179055507f8d08286bc520f0199dd11872725cfed598c29e3b91002b37ccf3e0d701e7cf9e828260030160019054906101000a900473ffffffffffffffffffffffffffffffffffffffff1683600401546040516108fd93929190612bc7565b60405180910390a15050565b6060600080600080600160003373ffffffffffffffffffffffffffffffffffffffff1673ffffffffffffffffffffffffffffffffffffffff16815260200190815260200160002060000160009054906101000a900460ff16806109b757506000803373ffffffffffffffffffffffffffffffffffffffff1673ffffffffffffffffffffffffffffffffffffffff16815260200190815260200160002060030160009054906101000a900460ff165b6109f6576040517f08c379a00000000000000000000000000000000000000000000000000000000081526004016109ed90612a3d565b60405180910390fd5b6000600260008873ffffffffffffffffffffffffffffffffffffffff1673ffffffffffffffffffffffffffffffffffffffff16815260200190815260200160002090506000816002018054905011610a83576040517f08c379a0000000000000000000000000000000000000000000000000000000008152600401610a7a90612aa9565b60405180910390fd5b8060000181600101548260030160009054906101000a900460ff168360030160019054906101000a900473ffffffffffffffffffffffffffffffffffffffff168460040154848054610ad490612974565b80601f0160208091040260200160405190810160405280929190818152602001828054610b0090612974565b8015610b4d5780601f10610b2257610100808354040283529160200191610b4d565b820191906000526020600020905b815481529060010190602001808311610b3057829003601f168201915b50505050509450955095509550955095505091939590929450565b600160003373ffffffffffffffffffffffffffffffffffffffff1673ffffffffffffffffffffffffffffffffffffffff16815260200190815260200160002060000160009054906101000a900460ff1680610c0e57506000803373ffffffffffffffffffffffffffffffffffffffff1673ffffffffffffffffffffffffffffffffffffffff16815260200190815260200160002060030160009054906101000a900460ff165b610c4d576040517f08c379a0000000000000000000000000000000000000000000000000000000008152600401610c4490612a3d565b60405180910390fd5b600160003373ffffffffffffffffffffffffffffffffffffffff1673ffffffffffffffffffffffffffffffffffffffff16815260200190815260200160002060000160009054906101000a900460ff16610cdc576040517f08c379a0000000000000000000000000000000000000000000000000000000008152600401610cd390612c70565b60405180910390fd5b6040518060c00160405280838152602001828152602001600067ffffffffffffffff811115610d0e57610d0d6126be565b5b604051908082528060200260200182016040528015610d3c5781602001602082028036833780820191505090505b508152602001600015158152602001600073ffffffffffffffffffffffffffffffffffffffff1681526020016000815250600260003373ffffffffffffffffffffffffffffffffffffffff1673ffffffffffffffffffffffffffffffffffffffff1681526020019081526020016000206000820151816000019081610dc19190612e3c565b50602082015181600101556040820151816002019080519060200190610de892919061238d565b5060608201518160030160006101000a81548160ff02191690831515021790555060808201518160030160016101000a81548173ffffffffffffffffffffffffffffffffffffffff021916908373ffffffffffffffffffffffffffffffffffffffff16021790555060a082015181600401559050507f3842f077057074c5b505a9e77a772028d7808b38c902ff35febc0ea170498b41338383604051610e9093929190612f0e565b60405180910390a15050565b600160003373ffffffffffffffffffffffffffffffffffffffff1673ffffffffffffffffffffffffffffffffffffffff16815260200190815260200160002060000160009054906101000a900460ff16610f2b576040517f08c379a0000000000000000000000000000000000000000000000000000000008152600401610f2290612fbe565b60405180910390fd5b60008060008373ffffffffffffffffffffffffffffffffffffffff1673ffffffffffffffffffffffffffffffffffffffff16815260200190815260200160002090506000600160003373ffffffffffffffffffffffffffffffffffffffff1673ffffffffffffffffffffffffffffffffffffffff16815260200190815260200160002090508160030160009054906101000a900460ff16611001576040517f08c379a0000000000000000000000000000000000000000000000000000000008152600401610ff89061302a565b60405180910390fd5b8160030160019054906101000a900460ff16611052576040517f08c379a000000000000000000000000000000000000000000000000000000000815260040161104990613096565b60405180910390fd5b8060000160019054906101000a900460ff16156110a4576040517f08c379a000000000000000000000000000000000000000000000000000000000815260040161109b90613128565b60405180910390fd5b81600201543410156110eb576040517f08c379a00000000000000000000000000000000000000000000000000000000081526004016110e290613194565b60405180910390fd5b81600401339080600181540180825580915050600190039060005260206000200160009091909190916101000a81548173ffffffffffffffffffffffffffffffffffffffff021916908373ffffffffffffffffffffffffffffffffffffffff160217905550828160010160006101000a81548173ffffffffffffffffffffffffffffffffffffffff021916908373ffffffffffffffffffffffffffffffffffffffff16021790555060018160000160016101000a81548160ff0219169083151502179055508273ffffffffffffffffffffffffffffffffffffffff166108fc349081150290604051600060405180830381858888f193505050501580156111f6573d6000803e3d6000fd5b507f1d535a21afe01218bf19b671abad59ebd9a84ec50622a8ebba23a41ea7e6e76e83338460000185600201546040516112339493929190613238565b60405180910390a1505050565b600160003373ffffffffffffffffffffffffffffffffffffffff1673ffffffffffffffffffffffffffffffffffffffff16815260200190815260200160002060000160009054906101000a900460ff16156112d0576040517f08c379a00000000000000000000000000000000000000000000000000000000081526004016112c7906132d0565b60405180910390fd5b60405180608001604052806001151581526020016000151581526020013373ffffffffffffffffffffffffffffffffffffffff168152602001600073ffffffffffffffffffffffffffffffffffffffff16815250600160003373ffffffffffffffffffffffffffffffffffffffff1673ffffffffffffffffffffffffffffffffffffffff16815260200190815260200160002060008201518160000160006101000a81548160ff02191690831515021790555060208201518160000160016101000a81548160ff02191690831515021790555060408201518160000160026101000a81548173ffffffffffffffffffffffffffffffffffffffff021916908373ffffffffffffffffffffffffffffffffffffffff16021790555060608201518160010160006101000a81548173ffffffffffffffffffffffffffffffffffffffff021916908373ffffffffffffffffffffffffffffffffffffffff1602179055509050507f20f06cf92183fb3bd87d074ec788beb83367293faf2388c274b4bad9aecae7253360405161146391906132f0565b60405180910390a1565b6000803373ffffffffffffffffffffffffffffffffffffffff1673ffffffffffffffffffffffffffffffffffffffff16815260200190815260200160002060030160009054906101000a900460ff166114fb576040517f08c379a00000000000000000000000000000000000000000000000000000000081526004016114f29061337d565b60405180910390fd5b6000600160008373ffffffffffffffffffffffffffffffffffffffff1673ffffffffffffffffffffffffffffffffffffffff168152602001908152602001600020905060008060003373ffffffffffffffffffffffffffffffffffffffff1673ffffffffffffffffffffffffffffffffffffffff16815260200190815260200160002090508160000160009054906101000a900460ff166115d1576040517f08c379a00000000000000000000000000000000000000000000000000000000081526004016115c8906133e9565b60405180910390fd5b3373ffffffffffffffffffffffffffffffffffffffff168160030160029054906101000a900473ffffffffffffffffffffffffffffffffffffffff1673ffffffffffffffffffffffffffffffffffffffff1614611663576040517f08c379a000000000000000000000000000000000000000000000000000000000815260040161165a90613455565b60405180910390fd5b8160000160019054906101000a900460ff16156116d65760008160030160016101000a81548160ff0219169083151502179055507f1dd2954a39bc3b38938d38ec872f7d0eb780f62cb4eac654cb83f3c62af026893384836000016040516116cd93929190613475565b60405180910390a15b505050565b600160003373ffffffffffffffffffffffffffffffffffffffff1673ffffffffffffffffffffffffffffffffffffffff16815260200190815260200160002060000160009054906101000a900460ff168061178157506000803373ffffffffffffffffffffffffffffffffffffffff1673ffffffffffffffffffffffffffffffffffffffff16815260200190815260200160002060030160009054906101000a900460ff165b6117c0576040517f08c379a00000000000000000000000000000000000000000000000000000000081526004016117b79061354b565b60405180910390fd5b600160003373ffffffffffffffffffffffffffffffffffffffff1673ffffffffffffffffffffffffffffffffffffffff16815260200190815260200160002060000160009054906101000a900460ff161561189c576000600160003373ffffffffffffffffffffffffffffffffffffffff1673ffffffffffffffffffffffffffffffffffffffff16815260200190815260200160002060010160006101000a81548173ffffffffffffffffffffffffffffffffffffffff021916908373ffffffffffffffffffffffffffffffffffffffff16021790555061194c565b6000803373ffffffffffffffffffffffffffffffffffffffff1673ffffffffffffffffffffffffffffffffffffffff16815260200190815260200160002060030160009054906101000a900460ff161561194b5760008060003373ffffffffffffffffffffffffffffffffffffffff1673ffffffffffffffffffffffffffffffffffffffff16815260200190815260200160002060030160016101000a81548160ff0219169083151502179055505b5b7f1dd2954a39bc3b38938d38ec872f7d0eb780f62cb4eac654cb83f3c62af0268933600160003373ffffffffffffffffffffffffffffffffffffffff1673ffffffffffffffffffffffffffffffffffffffff16815260200190815260200160002060000160029054906101000a900473ffffffffffffffffffffffffffffffffffffffff166000803373ffffffffffffffffffffffffffffffffffffffff1673ffffffffffffffffffffffffffffffffffffffff168152602001908152602001600020600001604051611a2193929190613475565b60405180910390a150565b6000803373ffffffffffffffffffffffffffffffffffffffff1673ffffffffffffffffffffffffffffffffffffffff16815260200190815260200160002060030160009054906101000a900460ff16611aba576040517f08c379a0000000000000000000000000000000000000000000000000000000008152600401611ab19061337d565b60405180910390fd5b6000803373ffffffffffffffffffffffffffffffffffffffff1673ffffffffffffffffffffffffffffffffffffffff16815260200190815260200160002060030160019054906101000a900460ff1615611b49576040517f08c379a0000000000000000000000000000000000000000000000000000000008152600401611b40906135dd565b60405180910390fd5b826000803373ffffffffffffffffffffffffffffffffffffffff1673ffffffffffffffffffffffffffffffffffffffff1681526020019081526020016000206000019081611b979190612e3c565b50816000803373ffffffffffffffffffffffffffffffffffffffff1673ffffffffffffffffffffffffffffffffffffffff1681526020019081526020016000206001019081611be69190612e3c565b50806000803373ffffffffffffffffffffffffffffffffffffffff1673ffffffffffffffffffffffffffffffffffffffff1681526020019081526020016000206002018190555060016000803373ffffffffffffffffffffffffffffffffffffffff1673ffffffffffffffffffffffffffffffffffffffff16815260200190815260200160002060030160016101000a81548160ff0219169083151502179055507faf5a1f8d23219255a220656798591da6a58d145fb2a2c3ff5786922c9a6576b833848484604051611cbc94939291906135fd565b60405180910390a1505050565b6000803373ffffffffffffffffffffffffffffffffffffffff1673ffffffffffffffffffffffffffffffffffffffff16815260200190815260200160002060030160009054906101000a900460ff16611d57576040517f08c379a0000000000000000000000000000000000000000000000000000000008152600401611d4e9061337d565b60405180910390fd5b6000600260008373ffffffffffffffffffffffffffffffffffffffff1673ffffffffffffffffffffffffffffffffffffffff1681526020019081526020016000206002018054905011611ddf576040517f08c379a0000000000000000000000000000000000000000000000000000000008152600401611dd690612aa9565b60405180910390fd5b600260008273ffffffffffffffffffffffffffffffffffffffff1673ffffffffffffffffffffffffffffffffffffffff16815260200190815260200160002060030160009054906101000a900460ff1615611e6f576040517f08c379a0000000000000000000000000000000000000000000000000000000008152600401611e6690612b15565b60405180910390fd5b60003411611eb2576040517f08c379a0000000000000000000000000000000000000000000000000000000008152600401611ea9906136c2565b60405180910390fd5b600260008273ffffffffffffffffffffffffffffffffffffffff1673ffffffffffffffffffffffffffffffffffffffff168152602001908152602001600020600201339080600181540180825580915050600190039060005260206000200160009091909190916101000a81548173ffffffffffffffffffffffffffffffffffffffff021916908373ffffffffffffffffffffffffffffffffffffffff1602179055506000600260008373ffffffffffffffffffffffffffffffffffffffff1673ffffffffffffffffffffffffffffffffffffffff168152602001908152602001600020600401541480611fe75750600260008273ffffffffffffffffffffffffffffffffffffffff1673ffffffffffffffffffffffffffffffffffffffff1681526020019081526020016000206004015434105b156120b55734600260008373ffffffffffffffffffffffffffffffffffffffff1673ffffffffffffffffffffffffffffffffffffffff1681526020019081526020016000206004018190555033600260008373ffffffffffffffffffffffffffffffffffffffff1673ffffffffffffffffffffffffffffffffffffffff16815260200190815260200160002060030160016101000a81548173ffffffffffffffffffffffffffffffffffffffff021916908373ffffffffffffffffffffffffffffffffffffffff1602179055505b7f45a818213e5085f9a2d24b876128d3bb9f7200bcf3170fa08e063e1746f7e9bb3382346040516120e893929190612bc7565b60405180910390a150565b6000803373ffffffffffffffffffffffffffffffffffffffff1673ffffffffffffffffffffffffffffffffffffffff16815260200190815260200160002060030160009054906101000a900460ff1615612182576040517f08c379a00000000000000000000000000000000000000000000000000000000081526004016121799061372e565b60405180910390fd5b6040518060e00160405280604051806020016040528060008152508152602001604051806020016040528060008152508152602001600081526020016001151581526020016000151581526020013373ffffffffffffffffffffffffffffffffffffffff168152602001600067ffffffffffffffff811115612207576122066126be565b5b6040519080825280602002602001820160405280156122355781602001602082028036833780820191505090505b508152506000803373ffffffffffffffffffffffffffffffffffffffff1673ffffffffffffffffffffffffffffffffffffffff168152602001908152602001600020600082015181600001908161228c9190612e3c565b5060208201518160010190816122a29190612e3c565b506040820151816002015560608201518160030160006101000a81548160ff02191690831515021790555060808201518160030160016101000a81548160ff02191690831515021790555060a08201518160030160026101000a81548173ffffffffffffffffffffffffffffffffffffffff021916908373ffffffffffffffffffffffffffffffffffffffff16021790555060c082015181600401908051906020019061235092919061238d565b509050507f70abce74777b3838ae60a33a6b9a87d9d25532668fe4fea548554c55868579c03360405161238391906132f0565b60405180910390a1565b828054828255906000526020600020908101928215612406579160200282015b828111156124055782518260006101000a81548173ffffffffffffffffffffffffffffffffffffffff021916908373ffffffffffffffffffffffffffffffffffffffff160217905550916020019190600101906123ad565b5b5090506124139190612417565b5090565b5b80821115612430576000816000905550600101612418565b5090565b6000604051905090565b600080fd5b600080fd5b600073ffffffffffffffffffffffffffffffffffffffff82169050919050565b600061247382612448565b9050919050565b61248381612468565b811461248e57600080fd5b50565b6000813590506124a08161247a565b92915050565b6000602082840312156124bc576124bb61243e565b5b60006124ca84828501612491565b91505092915050565b600081519050919050565b600082825260208201905092915050565b60005b8381101561250d5780820151818401526020810190506124f2565b60008484015250505050565b6000601f19601f8301169050919050565b6000612535826124d3565b61253f81856124de565b935061254f8185602086016124ef565b61255881612519565b840191505092915050565b6000819050919050565b61257681612563565b82525050565b60008115159050919050565b6125918161257c565b82525050565b6125a081612468565b82525050565b600060c08201905081810360008301526125c0818961252a565b905081810360208301526125d4818861252a565b90506125e3604083018761256d565b6125f06060830186612588565b6125fd6080830185612588565b61260a60a0830184612597565b979650505050505050565b600060808201905061262a6000830187612588565b6126376020830186612588565b6126446040830185612597565b6126516060830184612597565b95945050505050565b600060a0820190508181036000830152612674818861252a565b9050612683602083018761256d565b6126906040830186612588565b61269d6060830185612597565b6126aa608083018461256d565b9695505050505050565b600080fd5b600080fd5b7f4e487b7100000000000000000000000000000000000000000000000000000000600052604160045260246000fd5b6126f682612519565b810181811067ffffffffffffffff82111715612715576127146126be565b5b80604052505050565b6000612728612434565b905061273482826126ed565b919050565b600067ffffffffffffffff821115612754576127536126be565b5b61275d82612519565b9050602081019050919050565b82818337600083830152505050565b600061278c61278784612739565b61271e565b9050828152602081018484840111156127a8576127a76126b9565b5b6127b384828561276a565b509392505050565b600082601f8301126127d0576127cf6126b4565b5b81356127e0848260208601612779565b91505092915050565b6127f281612563565b81146127fd57600080fd5b50565b60008135905061280f816127e9565b92915050565b6000806040838503121561282c5761282b61243e565b5b600083013567ffffffffffffffff81111561284a57612849612443565b5b612856858286016127bb565b925050602061286785828601612800565b9150509250929050565b6000602082840312156128875761288661243e565b5b600082013567ffffffffffffffff8111156128a5576128a4612443565b5b6128b1848285016127bb565b91505092915050565b6000806000606084860312156128d3576128d261243e565b5b600084013567ffffffffffffffff8111156128f1576128f0612443565b5b6128fd868287016127bb565b935050602084013567ffffffffffffffff81111561291e5761291d612443565b5b61292a868287016127bb565b925050604061293b86828701612800565b9150509250925092565b7f4e487b7100000000000000000000000000000000000000000000000000000000600052602260045260246000fd5b6000600282049050600182168061298c57607f821691505b60208210810361299f5761299e612945565b5b50919050565b7f4f6e6c792072656769737465726564207573657273207769746820746f6b656e60008201527f206964656e746974792063616e2061636365737320746869732066756e63746960208201527f6f6e616c69747900000000000000000000000000000000000000000000000000604082015250565b6000612a276047836124de565b9150612a32826129a5565b606082019050919050565b60006020820190508181036000830152612a5681612a1a565b9050919050565b7f41756374696f6e20646f6573206e6f7420657869737400000000000000000000600082015250565b6000612a936016836124de565b9150612a9e82612a5d565b602082019050919050565b60006020820190508181036000830152612ac281612a86565b9050919050565b7f41756374696f6e2068617320616c726561647920656e64656400000000000000600082015250565b6000612aff6019836124de565b9150612b0a82612ac9565b602082019050919050565b60006020820190508181036000830152612b2e81612af2565b9050919050565b7f4e6f7420617574686f72697a656420746f20656e64207468697320617563746960008201527f6f6e000000000000000000000000000000000000000000000000000000000000602082015250565b6000612b916022836124de565b9150612b9c82612b35565b604082019050919050565b60006020820190508181036000830152612bc081612b84565b9050919050565b6000606082019050612bdc6000830186612597565b612be96020830185612597565b612bf6604083018461256d565b949350505050565b7f4f6e6c7920636f6e73756d6572732063616e20737461727420616e206175637460008201527f696f6e0000000000000000000000000000000000000000000000000000000000602082015250565b6000612c5a6023836124de565b9150612c6582612bfe565b604082019050919050565b60006020820190508181036000830152612c8981612c4d565b9050919050565b60008190508160005260206000209050919050565b60006020601f8301049050919050565b600082821b905092915050565b600060088302612cf27fffffffffffffffffffffffffffffffffffffffffffffffffffffffffffffffff82612cb5565b612cfc8683612cb5565b95508019841693508086168417925050509392505050565b6000819050919050565b6000612d39612d34612d2f84612563565b612d14565b612563565b9050919050565b6000819050919050565b612d5383612d1e565b612d67612d5f82612d40565b848454612cc2565b825550505050565b600090565b612d7c612d6f565b612d87818484612d4a565b505050565b5b81811015612dab57612da0600082612d74565b600181019050612d8d565b5050565b601f821115612df057612dc181612c90565b612dca84612ca5565b81016020851015612dd9578190505b612ded612de585612ca5565b830182612d8c565b50505b505050565b600082821c905092915050565b6000612e1360001984600802612df5565b1980831691505092915050565b6000612e2c8383612e02565b9150826002028217905092915050565b612e45826124d3565b67ffffffffffffffff811115612e5e57612e5d6126be565b5b612e688254612974565b612e73828285612daf565b600060209050601f831160018114612ea65760008415612e94578287015190505b612e9e8582612e20565b865550612f06565b601f198416612eb486612c90565b60005b82811015612edc57848901518255600182019150602085019450602081019050612eb7565b86831015612ef95784890151612ef5601f891682612e02565b8355505b6001600288020188555050505b505050505050565b6000606082019050612f236000830186612597565b8181036020830152612f35818561252a565b9050612f44604083018461256d565b949350505050565b7f4f6e6c79207265676973746572656420636f6e73756d6572732063616e20616360008201527f6365737320746869732066756e6374696f6e616c697479000000000000000000602082015250565b6000612fa86037836124de565b9150612fb382612f4c565b604082019050919050565b60006020820190508181036000830152612fd781612f9b565b9050919050565b7f50726f7669646572206973206e6f742072656769737465726564000000000000600082015250565b6000613014601a836124de565b915061301f82612fde565b602082019050919050565b6000602082019050818103600083015261304381613007565b9050919050565b7f53657276696365206973206e6f7420617661696c61626c650000000000000000600082015250565b60006130806018836124de565b915061308b8261304a565b602082019050919050565b600060208201905081810360008301526130af81613073565b9050919050565b7f436f6e73756d65722068617320616c726561647920707572636861736564206160008201527f2073657276696365000000000000000000000000000000000000000000000000602082015250565b60006131126028836124de565b915061311d826130b6565b604082019050919050565b6000602082019050818103600083015261314181613105565b9050919050565b7f496e73756666696369656e74207061796d656e74000000000000000000000000600082015250565b600061317e6014836124de565b915061318982613148565b602082019050919050565b600060208201905081810360008301526131ad81613171565b9050919050565b600081546131c181612974565b6131cb81866124de565b945060018216600081146131e657600181146131fc5761322f565b60ff19831686528115156020028601935061322f565b61320585612c90565b60005b8381101561322757815481890152600182019150602081019050613208565b808801955050505b50505092915050565b600060808201905061324d6000830187612597565b61325a6020830186612597565b818103604083015261326c81856131b4565b905061327b606083018461256d565b95945050505050565b7f436f6e73756d657220697320616c726561647920726567697374657265640000600082015250565b60006132ba601e836124de565b91506132c582613284565b602082019050919050565b600060208201905081810360008301526132e9816132ad565b9050919050565b60006020820190506133056000830184612597565b92915050565b7f4f6e6c7920726567697374657265642070726f7669646572732063616e20616360008201527f6365737320746869732066756e6374696f6e616c697479000000000000000000602082015250565b60006133676037836124de565b91506133728261330b565b604082019050919050565b600060208201905081810360008301526133968161335a565b9050919050565b7f436f6e73756d6572206973206e6f742072656769737465726564000000000000600082015250565b60006133d3601a836124de565b91506133de8261339d565b602082019050919050565b60006020820190508181036000830152613402816133c6565b9050919050565b7f4e6f7420617574686f72697a6564000000000000000000000000000000000000600082015250565b600061343f600e836124de565b915061344a82613409565b602082019050919050565b6000602082019050818103600083015261346e81613432565b9050919050565b600060608201905061348a6000830186612597565b6134976020830185612597565b81810360408301526134a981846131b4565b9050949350505050565b7f4f6e6c79207265676973746572656420636f6e73756d657273206f722070726f60008201527f7669646572732063616e2061636365737320746869732066756e6374696f6e6160208201527f6c69747900000000000000000000000000000000000000000000000000000000604082015250565b60006135356044836124de565b9150613540826134b3565b606082019050919050565b6000602082019050818103600083015261356481613528565b9050919050565b7f50726f76696465722068617320616c7265616479206f6666657265642061207360008201527f6572766963650000000000000000000000000000000000000000000000000000602082015250565b60006135c76026836124de565b91506135d28261356b565b604082019050919050565b600060208201905081810360008301526135f6816135ba565b9050919050565b60006080820190506136126000830187612597565b8181036020830152613624818661252a565b90508181036040830152613638818561252a565b9050613647606083018461256d565b95945050505050565b7f4269642076616c7565206d7573742062652067726561746572207468616e207a60008201527f65726f0000000000000000000000000000000000000000000000000000000000602082015250565b60006136ac6023836124de565b91506136b782613650565b604082019050919050565b600060208201905081810360008301526136db8161369f565b9050919050565b7f50726f766964657220697320616c726561647920726567697374657265640000600082015250565b6000613718601e836124de565b9150613723826136e2565b602082019050919050565b600060208201905081810360008301526137478161370b565b905091905056fea26469706673582212201f865dd7aab71f011599d68f046598315bffad87c80ebc21181bb4426217968764736f6c63430008120033",
					"opcodes": "PUSH1 0x80 PUSH1 0x40 MSTORE CALLVALUE DUP1 ISZERO PUSH2 0x10 JUMPI PUSH1 0x0 DUP1 REVERT JUMPDEST POP PUSH2 0x3784 DUP1 PUSH2 0x20 PUSH1 0x0 CODECOPY PUSH1 0x0 RETURN INVALID PUSH1 0x80 PUSH1 0x40 MSTORE PUSH1 0x4 CALLDATASIZE LT PUSH2 0xC2 JUMPI PUSH1 0x0 CALLDATALOAD PUSH1 0xE0 SHR DUP1 PUSH4 0x87EA07FB GT PUSH2 0x7F JUMPI DUP1 PUSH4 0xB8A76F54 GT PUSH2 0x59 JUMPI DUP1 PUSH4 0xB8A76F54 EQ PUSH2 0x279 JUMPI DUP1 PUSH4 0xCB1CE0C7 EQ PUSH2 0x2A2 JUMPI DUP1 PUSH4 0xE4940157 EQ PUSH2 0x2CB JUMPI DUP1 PUSH4 0xF769C6D0 EQ PUSH2 0x2E7 JUMPI PUSH2 0xC2 JUMP JUMPDEST DUP1 PUSH4 0x87EA07FB EQ PUSH2 0x21D JUMPI DUP1 PUSH4 0xB46506DE EQ PUSH2 0x239 JUMPI DUP1 PUSH4 0xB6261D0A EQ PUSH2 0x250 JUMPI PUSH2 0xC2 JUMP JUMPDEST DUP1 PUSH4 0x787BC27 EQ PUSH2 0xC7 JUMPI DUP1 PUSH4 0xBF53668 EQ PUSH2 0x109 JUMPI DUP1 PUSH4 0x1D59410A EQ PUSH2 0x149 JUMPI DUP1 PUSH4 0x2872ABBC EQ PUSH2 0x18A JUMPI DUP1 PUSH4 0x7F593D9E EQ PUSH2 0x1B3 JUMPI DUP1 PUSH4 0x862882E5 EQ PUSH2 0x1F4 JUMPI JUMPDEST PUSH1 0x0 DUP1 REVERT JUMPDEST CALLVALUE DUP1 ISZERO PUSH2 0xD3 JUMPI PUSH1 0x0 DUP1 REVERT JUMPDEST POP PUSH2 0xEE PUSH1 0x4 DUP1 CALLDATASIZE SUB DUP2 ADD SWAP1 PUSH2 0xE9 SWAP2 SWAP1 PUSH2 0x24A6 JUMP JUMPDEST PUSH2 0x2FE JUMP JUMPDEST PUSH1 0x40 MLOAD PUSH2 0x100 SWAP7 SWAP6 SWAP5 SWAP4 SWAP3 SWAP2 SWAP1 PUSH2 0x25A6 JUMP JUMPDEST PUSH1 0x40 MLOAD DUP1 SWAP2 SUB SWAP1 RETURN JUMPDEST CALLVALUE DUP1 ISZERO PUSH2 0x115 JUMPI PUSH1 0x0 DUP1 REVERT JUMPDEST POP PUSH2 0x130 PUSH1 0x4 DUP1 CALLDATASIZE SUB DUP2 ADD SWAP1 PUSH2 0x12B SWAP2 SWAP1 PUSH2 0x24A6 JUMP JUMPDEST PUSH2 0x484 JUMP JUMPDEST PUSH1 0x40 MLOAD PUSH2 0x140 SWAP5 SWAP4 SWAP3 SWAP2 SWAP1 PUSH2 0x2615 JUMP JUMPDEST PUSH1 0x40 MLOAD DUP1 SWAP2 SUB SWAP1 RETURN JUMPDEST CALLVALUE DUP1 ISZERO PUSH2 0x155 JUMPI PUSH1 0x0 DUP1 REVERT JUMPDEST POP PUSH2 0x170 PUSH1 0x4 DUP1 CALLDATASIZE SUB DUP2 ADD SWAP1 PUSH2 0x16B SWAP2 SWAP1 PUSH2 0x24A6 JUMP JUMPDEST PUSH2 0x50E JUMP JUMPDEST PUSH1 0x40 MLOAD PUSH2 0x181 SWAP6 SWAP5 SWAP4 SWAP3 SWAP2 SWAP1 PUSH2 0x265A JUMP JUMPDEST PUSH1 0x40 MLOAD DUP1 SWAP2 SUB SWAP1 RETURN JUMPDEST CALLVALUE DUP1 ISZERO PUSH2 0x196 JUMPI PUSH1 0x0 DUP1 REVERT JUMPDEST POP PUSH2 0x1B1 PUSH1 0x4 DUP1 CALLDATASIZE SUB DUP2 ADD SWAP1 PUSH2 0x1AC SWAP2 SWAP1 PUSH2 0x24A6 JUMP JUMPDEST PUSH2 0x5F9 JUMP JUMPDEST STOP JUMPDEST CALLVALUE DUP1 ISZERO PUSH2 0x1BF JUMPI PUSH1 0x0 DUP1 REVERT JUMPDEST POP PUSH2 0x1DA PUSH1 0x4 DUP1 CALLDATASIZE SUB DUP2 ADD SWAP1 PUSH2 0x1D5 SWAP2 SWAP1 PUSH2 0x24A6 JUMP JUMPDEST PUSH2 0x909 JUMP JUMPDEST PUSH1 0x40 MLOAD PUSH2 0x1EB SWAP6 SWAP5 SWAP4 SWAP3 SWAP2 SWAP1 PUSH2 0x265A JUMP JUMPDEST PUSH1 0x40 MLOAD DUP1 SWAP2 SUB SWAP1 RETURN JUMPDEST CALLVALUE DUP1 ISZERO PUSH2 0x200 JUMPI PUSH1 0x0 DUP1 REVERT JUMPDEST POP PUSH2 0x21B PUSH1 0x4 DUP1 CALLDATASIZE SUB DUP2 ADD SWAP1 PUSH2 0x216 SWAP2 SWAP1 PUSH2 0x2815 JUMP JUMPDEST PUSH2 0xB68 JUMP JUMPDEST STOP JUMPDEST PUSH2 0x237 PUSH1 0x4 DUP1 CALLDATASIZE SUB DUP2 ADD SWAP1 PUSH2 0x232 SWAP2 SWAP1 PUSH2 0x24A6 JUMP JUMPDEST PUSH2 0xE9C JUMP JUMPDEST STOP JUMPDEST CALLVALUE DUP1 ISZERO PUSH2 0x245 JUMPI PUSH1 0x0 DUP1 REVERT JUMPDEST POP PUSH2 0x24E PUSH2 0x1240 JUMP JUMPDEST STOP JUMPDEST CALLVALUE DUP1 ISZERO PUSH2 0x25C JUMPI PUSH1 0x0 DUP1 REVERT JUMPDEST POP PUSH2 0x277 PUSH1 0x4 DUP1 CALLDATASIZE SUB DUP2 ADD SWAP1 PUSH2 0x272 SWAP2 SWAP1 PUSH2 0x24A6 JUMP JUMPDEST PUSH2 0x146D JUMP JUMPDEST STOP JUMPDEST CALLVALUE DUP1 ISZERO PUSH2 0x285 JUMPI PUSH1 0x0 DUP1 REVERT JUMPDEST POP PUSH2 0x2A0 PUSH1 0x4 DUP1 CALLDATASIZE SUB DUP2 ADD SWAP1 PUSH2 0x29B SWAP2 SWAP1 PUSH2 0x2871 JUMP JUMPDEST PUSH2 0x16DB JUMP JUMPDEST STOP JUMPDEST CALLVALUE DUP1 ISZERO PUSH2 0x2AE JUMPI PUSH1 0x0 DUP1 REVERT JUMPDEST POP PUSH2 0x2C9 PUSH1 0x4 DUP1 CALLDATASIZE SUB DUP2 ADD SWAP1 PUSH2 0x2C4 SWAP2 SWAP1 PUSH2 0x28BA JUMP JUMPDEST PUSH2 0x1A2C JUMP JUMPDEST STOP JUMPDEST PUSH2 0x2E5 PUSH1 0x4 DUP1 CALLDATASIZE SUB DUP2 ADD SWAP1 PUSH2 0x2E0 SWAP2 SWAP1 PUSH2 0x24A6 JUMP JUMPDEST PUSH2 0x1CC9 JUMP JUMPDEST STOP JUMPDEST CALLVALUE DUP1 ISZERO PUSH2 0x2F3 JUMPI PUSH1 0x0 DUP1 REVERT JUMPDEST POP PUSH2 0x2FC PUSH2 0x20F3 JUMP JUMPDEST STOP JUMPDEST PUSH1 0x0 PUSH1 0x20 MSTORE DUP1 PUSH1 0x0 MSTORE PUSH1 0x40 PUSH1 0x0 KECCAK256 PUSH1 0x0 SWAP2 POP SWAP1 POP DUP1 PUSH1 0x0 ADD DUP1 SLOAD PUSH2 0x321 SWAP1 PUSH2 0x2974 JUMP JUMPDEST DUP1 PUSH1 0x1F ADD PUSH1 0x20 DUP1 SWAP2 DIV MUL PUSH1 0x20 ADD PUSH1 0x40 MLOAD SWAP1 DUP2 ADD PUSH1 0x40 MSTORE DUP1 SWAP3 SWAP2 SWAP1 DUP2 DUP2 MSTORE PUSH1 0x20 ADD DUP3 DUP1 SLOAD PUSH2 0x34D SWAP1 PUSH2 0x2974 JUMP JUMPDEST DUP1 ISZERO PUSH2 0x39A JUMPI DUP1 PUSH1 0x1F LT PUSH2 0x36F JUMPI PUSH2 0x100 DUP1 DUP4 SLOAD DIV MUL DUP4 MSTORE SWAP2 PUSH1 0x20 ADD SWAP2 PUSH2 0x39A JUMP JUMPDEST DUP3 ADD SWAP2 SWAP1 PUSH1 0x0 MSTORE PUSH1 0x20 PUSH1 0x0 KECCAK256 SWAP1 JUMPDEST DUP2 SLOAD DUP2 MSTORE SWAP1 PUSH1 0x1 ADD SWAP1 PUSH1 0x20 ADD DUP1 DUP4 GT PUSH2 0x37D JUMPI DUP3 SWAP1 SUB PUSH1 0x1F AND DUP3 ADD SWAP2 JUMPDEST POP POP POP POP POP SWAP1 DUP1 PUSH1 0x1 ADD DUP1 SLOAD PUSH2 0x3AF SWAP1 PUSH2 0x2974 JUMP JUMPDEST DUP1 PUSH1 0x1F ADD PUSH1 0x20 DUP1 SWAP2 DIV MUL PUSH1 0x20 ADD PUSH1 0x40 MLOAD SWAP1 DUP2 ADD PUSH1 0x40 MSTORE DUP1 SWAP3 SWAP2 SWAP1 DUP2 DUP2 MSTORE PUSH1 0x20 ADD DUP3 DUP1 SLOAD PUSH2 0x3DB SWAP1 PUSH2 0x2974 JUMP JUMPDEST DUP1 ISZERO PUSH2 0x428 JUMPI DUP1 PUSH1 0x1F LT PUSH2 0x3FD JUMPI PUSH2 0x100 DUP1 DUP4 SLOAD DIV MUL DUP4 MSTORE SWAP2 PUSH1 0x20 ADD SWAP2 PUSH2 0x428 JUMP JUMPDEST DUP3 ADD SWAP2 SWAP1 PUSH1 0x0 MSTORE PUSH1 0x20 PUSH1 0x0 KECCAK256 SWAP1 JUMPDEST DUP2 SLOAD DUP2 MSTORE SWAP1 PUSH1 0x1 ADD SWAP1 PUSH1 0x20 ADD DUP1 DUP4 GT PUSH2 0x40B JUMPI DUP3 SWAP1 SUB PUSH1 0x1F AND DUP3 ADD SWAP2 JUMPDEST POP POP POP POP POP SWAP1 DUP1 PUSH1 0x2 ADD SLOAD SWAP1 DUP1 PUSH1 0x3 ADD PUSH1 0x0 SWAP1 SLOAD SWAP1 PUSH2 0x100 EXP SWAP1 DIV PUSH1 0xFF AND SWAP1 DUP1 PUSH1 0x3 ADD PUSH1 0x1 SWAP1 SLOAD SWAP1 PUSH2 0x100 EXP SWAP1 DIV PUSH1 0xFF AND SWAP1 DUP1 PUSH1 0x3 ADD PUSH1 0x2 SWAP1 SLOAD SWAP1 PUSH2 0x100 EXP SWAP1 DIV PUSH20 0xFFFFFFFFFFFFFFFFFFFFFFFFFFFFFFFFFFFFFFFF AND SWAP1 POP DUP7 JUMP JUMPDEST PUSH1 0x1 PUSH1 0x20 MSTORE DUP1 PUSH1 0x0 MSTORE PUSH1 0x40 PUSH1 0x0 KECCAK256 PUSH1 0x0 SWAP2 POP SWAP1 POP DUP1 PUSH1 0x0 ADD PUSH1 0x0 SWAP1 SLOAD SWAP1 PUSH2 0x100 EXP SWAP1 DIV PUSH1 0xFF AND SWAP1 DUP1 PUSH1 0x0 ADD PUSH1 0x1 SWAP1 SLOAD SWAP1 PUSH2 0x100 EXP SWAP1 DIV PUSH1 0xFF AND SWAP1 DUP1 PUSH1 0x0 ADD PUSH1 0x2 SWAP1 SLOAD SWAP1 PUSH2 0x100 EXP SWAP1 DIV PUSH20 0xFFFFFFFFFFFFFFFFFFFFFFFFFFFFFFFFFFFFFFFF AND SWAP1 DUP1 PUSH1 0x1 ADD PUSH1 0x0 SWAP1 SLOAD SWAP1 PUSH2 0x100 EXP SWAP1 DIV PUSH20 0xFFFFFFFFFFFFFFFFFFFFFFFFFFFFFFFFFFFFFFFF AND SWAP1 POP DUP5 JUMP JUMPDEST PUSH1 0x2 PUSH1 0x20 MSTORE DUP1 PUSH1 0x0 MSTORE PUSH1 0x40 PUSH1 0x0 KECCAK256 PUSH1 0x0 SWAP2 POP SWAP1 POP DUP1 PUSH1 0x0 ADD DUP1 SLOAD PUSH2 0x531 SWAP1 PUSH2 0x2974 JUMP JUMPDEST DUP1 PUSH1 0x1F ADD PUSH1 0x20 DUP1 SWAP2 DIV MUL PUSH1 0x20 ADD PUSH1 0x40 MLOAD SWAP1 DUP2 ADD PUSH1 0x40 MSTORE DUP1 SWAP3 SWAP2 SWAP1 DUP2 DUP2 MSTORE PUSH1 0x20 ADD DUP3 DUP1 SLOAD PUSH2 0x55D SWAP1 PUSH2 0x2974 JUMP JUMPDEST DUP1 ISZERO PUSH2 0x5AA JUMPI DUP1 PUSH1 0x1F LT PUSH2 0x57F JUMPI PUSH2 0x100 DUP1 DUP4 SLOAD DIV MUL DUP4 MSTORE SWAP2 PUSH1 0x20 ADD SWAP2 PUSH2 0x5AA JUMP JUMPDEST DUP3 ADD SWAP2 SWAP1 PUSH1 0x0 MSTORE PUSH1 0x20 PUSH1 0x0 KECCAK256 SWAP1 JUMPDEST DUP2 SLOAD DUP2 MSTORE SWAP1 PUSH1 0x1 ADD SWAP1 PUSH1 0x20 ADD DUP1 DUP4 GT PUSH2 0x58D JUMPI DUP3 SWAP1 SUB PUSH1 0x1F AND DUP3 ADD SWAP2 JUMPDEST POP POP POP POP POP SWAP1 DUP1 PUSH1 0x1 ADD SLOAD SWAP1 DUP1 PUSH1 0x3 ADD PUSH1 0x0 SWAP1 SLOAD SWAP1 PUSH2 0x100 EXP SWAP1 DIV PUSH1 0xFF AND SWAP1 DUP1 PUSH1 0x3 ADD PUSH1 0x1 SWAP1 SLOAD SWAP1 PUSH2 0x100 EXP SWAP1 DIV PUSH20 0xFFFFFFFFFFFFFFFFFFFFFFFFFFFFFFFFFFFFFFFF AND SWAP1 DUP1 PUSH1 0x4 ADD SLOAD SWAP1 POP DUP6 JUMP JUMPDEST PUSH1 0x1 PUSH1 0x0 CALLER PUSH20 0xFFFFFFFFFFFFFFFFFFFFFFFFFFFFFFFFFFFFFFFF AND PUSH20 0xFFFFFFFFFFFFFFFFFFFFFFFFFFFFFFFFFFFFFFFF AND DUP2 MSTORE PUSH1 0x20 ADD SWAP1 DUP2 MSTORE PUSH1 0x20 ADD PUSH1 0x0 KECCAK256 PUSH1 0x0 ADD PUSH1 0x0 SWAP1 SLOAD SWAP1 PUSH2 0x100 EXP SWAP1 DIV PUSH1 0xFF AND DUP1 PUSH2 0x69F JUMPI POP PUSH1 0x0 DUP1 CALLER PUSH20 0xFFFFFFFFFFFFFFFFFFFFFFFFFFFFFFFFFFFFFFFF AND PUSH20 0xFFFFFFFFFFFFFFFFFFFFFFFFFFFFFFFFFFFFFFFF AND DUP2 MSTORE PUSH1 0x20 ADD SWAP1 DUP2 MSTORE PUSH1 0x20 ADD PUSH1 0x0 KECCAK256 PUSH1 0x3 ADD PUSH1 0x0 SWAP1 SLOAD SWAP1 PUSH2 0x100 EXP SWAP1 DIV PUSH1 0xFF AND JUMPDEST PUSH2 0x6DE JUMPI PUSH1 0x40 MLOAD PUSH32 0x8C379A000000000000000000000000000000000000000000000000000000000 DUP2 MSTORE PUSH1 0x4 ADD PUSH2 0x6D5 SWAP1 PUSH2 0x2A3D JUMP JUMPDEST PUSH1 0x40 MLOAD DUP1 SWAP2 SUB SWAP1 REVERT JUMPDEST PUSH1 0x0 PUSH1 0x2 PUSH1 0x0 DUP4 PUSH20 0xFFFFFFFFFFFFFFFFFFFFFFFFFFFFFFFFFFFFFFFF AND PUSH20 0xFFFFFFFFFFFFFFFFFFFFFFFFFFFFFFFFFFFFFFFF AND DUP2 MSTORE PUSH1 0x20 ADD SWAP1 DUP2 MSTORE PUSH1 0x20 ADD PUSH1 0x0 KECCAK256 SWAP1 POP PUSH1 0x0 DUP2 PUSH1 0x2 ADD DUP1 SLOAD SWAP1 POP GT PUSH2 0x76B JUMPI PUSH1 0x40 MLOAD PUSH32 0x8C379A000000000000000000000000000000000000000000000000000000000 DUP2 MSTORE PUSH1 0x4 ADD PUSH2 0x762 SWAP1 PUSH2 0x2AA9 JUMP JUMPDEST PUSH1 0x40 MLOAD DUP1 SWAP2 SUB SWAP1 REVERT JUMPDEST DUP1 PUSH1 0x3 ADD PUSH1 0x0 SWAP1 SLOAD SWAP1 PUSH2 0x100 EXP SWAP1 DIV PUSH1 0xFF AND ISZERO PUSH2 0x7BD JUMPI PUSH1 0x40 MLOAD PUSH32 0x8C379A000000000000000000000000000000000000000000000000000000000 DUP2 MSTORE PUSH1 0x4 ADD PUSH2 0x7B4 SWAP1 PUSH2 0x2B15 JUMP JUMPDEST PUSH1 0x40 MLOAD DUP1 SWAP2 SUB SWAP1 REVERT JUMPDEST CALLER PUSH20 0xFFFFFFFFFFFFFFFFFFFFFFFFFFFFFFFFFFFFFFFF AND DUP3 PUSH20 0xFFFFFFFFFFFFFFFFFFFFFFFFFFFFFFFFFFFFFFFF AND EQ DUP1 PUSH2 0x846 JUMPI POP CALLER PUSH20 0xFFFFFFFFFFFFFFFFFFFFFFFFFFFFFFFFFFFFFFFF AND DUP2 PUSH1 0x3 ADD PUSH1 0x1 SWAP1 SLOAD SWAP1 PUSH2 0x100 EXP SWAP1 DIV PUSH20 0xFFFFFFFFFFFFFFFFFFFFFFFFFFFFFFFFFFFFFFFF AND PUSH20 0xFFFFFFFFFFFFFFFFFFFFFFFFFFFFFFFFFFFFFFFF AND EQ JUMPDEST PUSH2 0x885 JUMPI PUSH1 0x40 MLOAD PUSH32 0x8C379A000000000000000000000000000000000000000000000000000000000 DUP2 MSTORE PUSH1 0x4 ADD PUSH2 0x87C SWAP1 PUSH2 0x2BA7 JUMP JUMPDEST PUSH1 0x40 MLOAD DUP1 SWAP2 SUB SWAP1 REVERT JUMPDEST PUSH1 0x1 DUP2 PUSH1 0x3 ADD PUSH1 0x0 PUSH2 0x100 EXP DUP2 SLOAD DUP2 PUSH1 0xFF MUL NOT AND SWAP1 DUP4 ISZERO ISZERO MUL OR SWAP1 SSTORE POP PUSH32 0x8D08286BC520F0199DD11872725CFED598C29E3B91002B37CCF3E0D701E7CF9E DUP3 DUP3 PUSH1 0x3 ADD PUSH1 0x1 SWAP1 SLOAD SWAP1 PUSH2 0x100 EXP SWAP1 DIV PUSH20 0xFFFFFFFFFFFFFFFFFFFFFFFFFFFFFFFFFFFFFFFF AND DUP4 PUSH1 0x4 ADD SLOAD PUSH1 0x40 MLOAD PUSH2 0x8FD SWAP4 SWAP3 SWAP2 SWAP1 PUSH2 0x2BC7 JUMP JUMPDEST PUSH1 0x40 MLOAD DUP1 SWAP2 SUB SWAP1 LOG1 POP POP JUMP JUMPDEST PUSH1 0x60 PUSH1 0x0 DUP1 PUSH1 0x0 DUP1 PUSH1 0x1 PUSH1 0x0 CALLER PUSH20 0xFFFFFFFFFFFFFFFFFFFFFFFFFFFFFFFFFFFFFFFF AND PUSH20 0xFFFFFFFFFFFFFFFFFFFFFFFFFFFFFFFFFFFFFFFF AND DUP2 MSTORE PUSH1 0x20 ADD SWAP1 DUP2 MSTORE PUSH1 0x20 ADD PUSH1 0x0 KECCAK256 PUSH1 0x0 ADD PUSH1 0x0 SWAP1 SLOAD SWAP1 PUSH2 0x100 EXP SWAP1 DIV PUSH1 0xFF AND DUP1 PUSH2 0x9B7 JUMPI POP PUSH1 0x0 DUP1 CALLER PUSH20 0xFFFFFFFFFFFFFFFFFFFFFFFFFFFFFFFFFFFFFFFF AND PUSH20 0xFFFFFFFFFFFFFFFFFFFFFFFFFFFFFFFFFFFFFFFF AND DUP2 MSTORE PUSH1 0x20 ADD SWAP1 DUP2 MSTORE PUSH1 0x20 ADD PUSH1 0x0 KECCAK256 PUSH1 0x3 ADD PUSH1 0x0 SWAP1 SLOAD SWAP1 PUSH2 0x100 EXP SWAP1 DIV PUSH1 0xFF AND JUMPDEST PUSH2 0x9F6 JUMPI PUSH1 0x40 MLOAD PUSH32 0x8C379A000000000000000000000000000000000000000000000000000000000 DUP2 MSTORE PUSH1 0x4 ADD PUSH2 0x9ED SWAP1 PUSH2 0x2A3D JUMP JUMPDEST PUSH1 0x40 MLOAD DUP1 SWAP2 SUB SWAP1 REVERT JUMPDEST PUSH1 0x0 PUSH1 0x2 PUSH1 0x0 DUP9 PUSH20 0xFFFFFFFFFFFFFFFFFFFFFFFFFFFFFFFFFFFFFFFF AND PUSH20 0xFFFFFFFFFFFFFFFFFFFFFFFFFFFFFFFFFFFFFFFF AND DUP2 MSTORE PUSH1 0x20 ADD SWAP1 DUP2 MSTORE PUSH1 0x20 ADD PUSH1 0x0 KECCAK256 SWAP1 POP PUSH1 0x0 DUP2 PUSH1 0x2 ADD DUP1 SLOAD SWAP1 POP GT PUSH2 0xA83 JUMPI PUSH1 0x40 MLOAD PUSH32 0x8C379A000000000000000000000000000000000000000000000000000000000 DUP2 MSTORE PUSH1 0x4 ADD PUSH2 0xA7A SWAP1 PUSH2 0x2AA9 JUMP JUMPDEST PUSH1 0x40 MLOAD DUP1 SWAP2 SUB SWAP1 REVERT JUMPDEST DUP1 PUSH1 0x0 ADD DUP2 PUSH1 0x1 ADD SLOAD DUP3 PUSH1 0x3 ADD PUSH1 0x0 SWAP1 SLOAD SWAP1 PUSH2 0x100 EXP SWAP1 DIV PUSH1 0xFF AND DUP4 PUSH1 0x3 ADD PUSH1 0x1 SWAP1 SLOAD SWAP1 PUSH2 0x100 EXP SWAP1 DIV PUSH20 0xFFFFFFFFFFFFFFFFFFFFFFFFFFFFFFFFFFFFFFFF AND DUP5 PUSH1 0x4 ADD SLOAD DUP5 DUP1 SLOAD PUSH2 0xAD4 SWAP1 PUSH2 0x2974 JUMP JUMPDEST DUP1 PUSH1 0x1F ADD PUSH1 0x20 DUP1 SWAP2 DIV MUL PUSH1 0x20 ADD PUSH1 0x40 MLOAD SWAP1 DUP2 ADD PUSH1 0x40 MSTORE DUP1 SWAP3 SWAP2 SWAP1 DUP2 DUP2 MSTORE PUSH1 0x20 ADD DUP3 DUP1 SLOAD PUSH2 0xB00 SWAP1 PUSH2 0x2974 JUMP JUMPDEST DUP1 ISZERO PUSH2 0xB4D JUMPI DUP1 PUSH1 0x1F LT PUSH2 0xB22 JUMPI PUSH2 0x100 DUP1 DUP4 SLOAD DIV MUL DUP4 MSTORE SWAP2 PUSH1 0x20 ADD SWAP2 PUSH2 0xB4D JUMP JUMPDEST DUP3 ADD SWAP2 SWAP1 PUSH1 0x0 MSTORE PUSH1 0x20 PUSH1 0x0 KECCAK256 SWAP1 JUMPDEST DUP2 SLOAD DUP2 MSTORE SWAP1 PUSH1 0x1 ADD SWAP1 PUSH1 0x20 ADD DUP1 DUP4 GT PUSH2 0xB30 JUMPI DUP3 SWAP1 SUB PUSH1 0x1F AND DUP3 ADD SWAP2 JUMPDEST POP POP POP POP POP SWAP5 POP SWAP6 POP SWAP6 POP SWAP6 POP SWAP6 POP SWAP6 POP POP SWAP2 SWAP4 SWAP6 SWAP1 SWAP3 SWAP5 POP JUMP JUMPDEST PUSH1 0x1 PUSH1 0x0 CALLER PUSH20 0xFFFFFFFFFFFFFFFFFFFFFFFFFFFFFFFFFFFFFFFF AND PUSH20 0xFFFFFFFFFFFFFFFFFFFFFFFFFFFFFFFFFFFFFFFF AND DUP2 MSTORE PUSH1 0x20 ADD SWAP1 DUP2 MSTORE PUSH1 0x20 ADD PUSH1 0x0 KECCAK256 PUSH1 0x0 ADD PUSH1 0x0 SWAP1 SLOAD SWAP1 PUSH2 0x100 EXP SWAP1 DIV PUSH1 0xFF AND DUP1 PUSH2 0xC0E JUMPI POP PUSH1 0x0 DUP1 CALLER PUSH20 0xFFFFFFFFFFFFFFFFFFFFFFFFFFFFFFFFFFFFFFFF AND PUSH20 0xFFFFFFFFFFFFFFFFFFFFFFFFFFFFFFFFFFFFFFFF AND DUP2 MSTORE PUSH1 0x20 ADD SWAP1 DUP2 MSTORE PUSH1 0x20 ADD PUSH1 0x0 KECCAK256 PUSH1 0x3 ADD PUSH1 0x0 SWAP1 SLOAD SWAP1 PUSH2 0x100 EXP SWAP1 DIV PUSH1 0xFF AND JUMPDEST PUSH2 0xC4D JUMPI PUSH1 0x40 MLOAD PUSH32 0x8C379A000000000000000000000000000000000000000000000000000000000 DUP2 MSTORE PUSH1 0x4 ADD PUSH2 0xC44 SWAP1 PUSH2 0x2A3D JUMP JUMPDEST PUSH1 0x40 MLOAD DUP1 SWAP2 SUB SWAP1 REVERT JUMPDEST PUSH1 0x1 PUSH1 0x0 CALLER PUSH20 0xFFFFFFFFFFFFFFFFFFFFFFFFFFFFFFFFFFFFFFFF AND PUSH20 0xFFFFFFFFFFFFFFFFFFFFFFFFFFFFFFFFFFFFFFFF AND DUP2 MSTORE PUSH1 0x20 ADD SWAP1 DUP2 MSTORE PUSH1 0x20 ADD PUSH1 0x0 KECCAK256 PUSH1 0x0 ADD PUSH1 0x0 SWAP1 SLOAD SWAP1 PUSH2 0x100 EXP SWAP1 DIV PUSH1 0xFF AND PUSH2 0xCDC JUMPI PUSH1 0x40 MLOAD PUSH32 0x8C379A000000000000000000000000000000000000000000000000000000000 DUP2 MSTORE PUSH1 0x4 ADD PUSH2 0xCD3 SWAP1 PUSH2 0x2C70 JUMP JUMPDEST PUSH1 0x40 MLOAD DUP1 SWAP2 SUB SWAP1 REVERT JUMPDEST PUSH1 0x40 MLOAD DUP1 PUSH1 0xC0 ADD PUSH1 0x40 MSTORE DUP1 DUP4 DUP2 MSTORE PUSH1 0x20 ADD DUP3 DUP2 MSTORE PUSH1 0x20 ADD PUSH1 0x0 PUSH8 0xFFFFFFFFFFFFFFFF DUP2 GT ISZERO PUSH2 0xD0E JUMPI PUSH2 0xD0D PUSH2 0x26BE JUMP JUMPDEST JUMPDEST PUSH1 0x40 MLOAD SWAP1 DUP1 DUP3 MSTORE DUP1 PUSH1 0x20 MUL PUSH1 0x20 ADD DUP3 ADD PUSH1 0x40 MSTORE DUP1 ISZERO PUSH2 0xD3C JUMPI DUP2 PUSH1 0x20 ADD PUSH1 0x20 DUP3 MUL DUP1 CALLDATASIZE DUP4 CALLDATACOPY DUP1 DUP3 ADD SWAP2 POP POP SWAP1 POP JUMPDEST POP DUP2 MSTORE PUSH1 0x20 ADD PUSH1 0x0 ISZERO ISZERO DUP2 MSTORE PUSH1 0x20 ADD PUSH1 0x0 PUSH20 0xFFFFFFFFFFFFFFFFFFFFFFFFFFFFFFFFFFFFFFFF AND DUP2 MSTORE PUSH1 0x20 ADD PUSH1 0x0 DUP2 MSTORE POP PUSH1 0x2 PUSH1 0x0 CALLER PUSH20 0xFFFFFFFFFFFFFFFFFFFFFFFFFFFFFFFFFFFFFFFF AND PUSH20 0xFFFFFFFFFFFFFFFFFFFFFFFFFFFFFFFFFFFFFFFF AND DUP2 MSTORE PUSH1 0x20 ADD SWAP1 DUP2 MSTORE PUSH1 0x20 ADD PUSH1 0x0 KECCAK256 PUSH1 0x0 DUP3 ADD MLOAD DUP2 PUSH1 0x0 ADD SWAP1 DUP2 PUSH2 0xDC1 SWAP2 SWAP1 PUSH2 0x2E3C JUMP JUMPDEST POP PUSH1 0x20 DUP3 ADD MLOAD DUP2 PUSH1 0x1 ADD SSTORE PUSH1 0x40 DUP3 ADD MLOAD DUP2 PUSH1 0x2 ADD SWAP1 DUP1 MLOAD SWAP1 PUSH1 0x20 ADD SWAP1 PUSH2 0xDE8 SWAP3 SWAP2 SWAP1 PUSH2 0x238D JUMP JUMPDEST POP PUSH1 0x60 DUP3 ADD MLOAD DUP2 PUSH1 0x3 ADD PUSH1 0x0 PUSH2 0x100 EXP DUP2 SLOAD DUP2 PUSH1 0xFF MUL NOT AND SWAP1 DUP4 ISZERO ISZERO MUL OR SWAP1 SSTORE POP PUSH1 0x80 DUP3 ADD MLOAD DUP2 PUSH1 0x3 ADD PUSH1 0x1 PUSH2 0x100 EXP DUP2 SLOAD DUP2 PUSH20 0xFFFFFFFFFFFFFFFFFFFFFFFFFFFFFFFFFFFFFFFF MUL NOT AND SWAP1 DUP4 PUSH20 0xFFFFFFFFFFFFFFFFFFFFFFFFFFFFFFFFFFFFFFFF AND MUL OR SWAP1 SSTORE POP PUSH1 0xA0 DUP3 ADD MLOAD DUP2 PUSH1 0x4 ADD SSTORE SWAP1 POP POP PUSH32 0x3842F077057074C5B505A9E77A772028D7808B38C902FF35FEBC0EA170498B41 CALLER DUP4 DUP4 PUSH1 0x40 MLOAD PUSH2 0xE90 SWAP4 SWAP3 SWAP2 SWAP1 PUSH2 0x2F0E JUMP JUMPDEST PUSH1 0x40 MLOAD DUP1 SWAP2 SUB SWAP1 LOG1 POP POP JUMP JUMPDEST PUSH1 0x1 PUSH1 0x0 CALLER PUSH20 0xFFFFFFFFFFFFFFFFFFFFFFFFFFFFFFFFFFFFFFFF AND PUSH20 0xFFFFFFFFFFFFFFFFFFFFFFFFFFFFFFFFFFFFFFFF AND DUP2 MSTORE PUSH1 0x20 ADD SWAP1 DUP2 MSTORE PUSH1 0x20 ADD PUSH1 0x0 KECCAK256 PUSH1 0x0 ADD PUSH1 0x0 SWAP1 SLOAD SWAP1 PUSH2 0x100 EXP SWAP1 DIV PUSH1 0xFF AND PUSH2 0xF2B JUMPI PUSH1 0x40 MLOAD PUSH32 0x8C379A000000000000000000000000000000000000000000000000000000000 DUP2 MSTORE PUSH1 0x4 ADD PUSH2 0xF22 SWAP1 PUSH2 0x2FBE JUMP JUMPDEST PUSH1 0x40 MLOAD DUP1 SWAP2 SUB SWAP1 REVERT JUMPDEST PUSH1 0x0 DUP1 PUSH1 0x0 DUP4 PUSH20 0xFFFFFFFFFFFFFFFFFFFFFFFFFFFFFFFFFFFFFFFF AND PUSH20 0xFFFFFFFFFFFFFFFFFFFFFFFFFFFFFFFFFFFFFFFF AND DUP2 MSTORE PUSH1 0x20 ADD SWAP1 DUP2 MSTORE PUSH1 0x20 ADD PUSH1 0x0 KECCAK256 SWAP1 POP PUSH1 0x0 PUSH1 0x1 PUSH1 0x0 CALLER PUSH20 0xFFFFFFFFFFFFFFFFFFFFFFFFFFFFFFFFFFFFFFFF AND PUSH20 0xFFFFFFFFFFFFFFFFFFFFFFFFFFFFFFFFFFFFFFFF AND DUP2 MSTORE PUSH1 0x20 ADD SWAP1 DUP2 MSTORE PUSH1 0x20 ADD PUSH1 0x0 KECCAK256 SWAP1 POP DUP2 PUSH1 0x3 ADD PUSH1 0x0 SWAP1 SLOAD SWAP1 PUSH2 0x100 EXP SWAP1 DIV PUSH1 0xFF AND PUSH2 0x1001 JUMPI PUSH1 0x40 MLOAD PUSH32 0x8C379A000000000000000000000000000000000000000000000000000000000 DUP2 MSTORE PUSH1 0x4 ADD PUSH2 0xFF8 SWAP1 PUSH2 0x302A JUMP JUMPDEST PUSH1 0x40 MLOAD DUP1 SWAP2 SUB SWAP1 REVERT JUMPDEST DUP2 PUSH1 0x3 ADD PUSH1 0x1 SWAP1 SLOAD SWAP1 PUSH2 0x100 EXP SWAP1 DIV PUSH1 0xFF AND PUSH2 0x1052 JUMPI PUSH1 0x40 MLOAD PUSH32 0x8C379A000000000000000000000000000000000000000000000000000000000 DUP2 MSTORE PUSH1 0x4 ADD PUSH2 0x1049 SWAP1 PUSH2 0x3096 JUMP JUMPDEST PUSH1 0x40 MLOAD DUP1 SWAP2 SUB SWAP1 REVERT JUMPDEST DUP1 PUSH1 0x0 ADD PUSH1 0x1 SWAP1 SLOAD SWAP1 PUSH2 0x100 EXP SWAP1 DIV PUSH1 0xFF AND ISZERO PUSH2 0x10A4 JUMPI PUSH1 0x40 MLOAD PUSH32 0x8C379A000000000000000000000000000000000000000000000000000000000 DUP2 MSTORE PUSH1 0x4 ADD PUSH2 0x109B SWAP1 PUSH2 0x3128 JUMP JUMPDEST PUSH1 0x40 MLOAD DUP1 SWAP2 SUB SWAP1 REVERT JUMPDEST DUP2 PUSH1 0x2 ADD SLOAD CALLVALUE LT ISZERO PUSH2 0x10EB JUMPI PUSH1 0x40 MLOAD PUSH32 0x8C379A000000000000000000000000000000000000000000000000000000000 DUP2 MSTORE PUSH1 0x4 ADD PUSH2 0x10E2 SWAP1 PUSH2 0x3194 JUMP JUMPDEST PUSH1 0x40 MLOAD DUP1 SWAP2 SUB SWAP1 REVERT JUMPDEST DUP2 PUSH1 0x4 ADD CALLER SWAP1 DUP1 PUSH1 0x1 DUP2 SLOAD ADD DUP1 DUP3 SSTORE DUP1 SWAP2 POP POP PUSH1 0x1 SWAP1 SUB SWAP1 PUSH1 0x0 MSTORE PUSH1 0x20 PUSH1 0x0 KECCAK256 ADD PUSH1 0x0 SWAP1 SWAP2 SWAP1 SWAP2 SWAP1 SWAP2 PUSH2 0x100 EXP DUP2 SLOAD DUP2 PUSH20 0xFFFFFFFFFFFFFFFFFFFFFFFFFFFFFFFFFFFFFFFF MUL NOT AND SWAP1 DUP4 PUSH20 0xFFFFFFFFFFFFFFFFFFFFFFFFFFFFFFFFFFFFFFFF AND MUL OR SWAP1 SSTORE POP DUP3 DUP2 PUSH1 0x1 ADD PUSH1 0x0 PUSH2 0x100 EXP DUP2 SLOAD DUP2 PUSH20 0xFFFFFFFFFFFFFFFFFFFFFFFFFFFFFFFFFFFFFFFF MUL NOT AND SWAP1 DUP4 PUSH20 0xFFFFFFFFFFFFFFFFFFFFFFFFFFFFFFFFFFFFFFFF AND MUL OR SWAP1 SSTORE POP PUSH1 0x1 DUP2 PUSH1 0x0 ADD PUSH1 0x1 PUSH2 0x100 EXP DUP2 SLOAD DUP2 PUSH1 0xFF MUL NOT AND SWAP1 DUP4 ISZERO ISZERO MUL OR SWAP1 SSTORE POP DUP3 PUSH20 0xFFFFFFFFFFFFFFFFFFFFFFFFFFFFFFFFFFFFFFFF AND PUSH2 0x8FC CALLVALUE SWAP1 DUP2 ISZERO MUL SWAP1 PUSH1 0x40 MLOAD PUSH1 0x0 PUSH1 0x40 MLOAD DUP1 DUP4 SUB DUP2 DUP6 DUP9 DUP9 CALL SWAP4 POP POP POP POP ISZERO DUP1 ISZERO PUSH2 0x11F6 JUMPI RETURNDATASIZE PUSH1 0x0 DUP1 RETURNDATACOPY RETURNDATASIZE PUSH1 0x0 REVERT JUMPDEST POP PUSH32 0x1D535A21AFE01218BF19B671ABAD59EBD9A84EC50622A8EBBA23A41EA7E6E76E DUP4 CALLER DUP5 PUSH1 0x0 ADD DUP6 PUSH1 0x2 ADD SLOAD PUSH1 0x40 MLOAD PUSH2 0x1233 SWAP5 SWAP4 SWAP3 SWAP2 SWAP1 PUSH2 0x3238 JUMP JUMPDEST PUSH1 0x40 MLOAD DUP1 SWAP2 SUB SWAP1 LOG1 POP POP POP JUMP JUMPDEST PUSH1 0x1 PUSH1 0x0 CALLER PUSH20 0xFFFFFFFFFFFFFFFFFFFFFFFFFFFFFFFFFFFFFFFF AND PUSH20 0xFFFFFFFFFFFFFFFFFFFFFFFFFFFFFFFFFFFFFFFF AND DUP2 MSTORE PUSH1 0x20 ADD SWAP1 DUP2 MSTORE PUSH1 0x20 ADD PUSH1 0x0 KECCAK256 PUSH1 0x0 ADD PUSH1 0x0 SWAP1 SLOAD SWAP1 PUSH2 0x100 EXP SWAP1 DIV PUSH1 0xFF AND ISZERO PUSH2 0x12D0 JUMPI PUSH1 0x40 MLOAD PUSH32 0x8C379A000000000000000000000000000000000000000000000000000000000 DUP2 MSTORE PUSH1 0x4 ADD PUSH2 0x12C7 SWAP1 PUSH2 0x32D0 JUMP JUMPDEST PUSH1 0x40 MLOAD DUP1 SWAP2 SUB SWAP1 REVERT JUMPDEST PUSH1 0x40 MLOAD DUP1 PUSH1 0x80 ADD PUSH1 0x40 MSTORE DUP1 PUSH1 0x1 ISZERO ISZERO DUP2 MSTORE PUSH1 0x20 ADD PUSH1 0x0 ISZERO ISZERO DUP2 MSTORE PUSH1 0x20 ADD CALLER PUSH20 0xFFFFFFFFFFFFFFFFFFFFFFFFFFFFFFFFFFFFFFFF AND DUP2 MSTORE PUSH1 0x20 ADD PUSH1 0x0 PUSH20 0xFFFFFFFFFFFFFFFFFFFFFFFFFFFFFFFFFFFFFFFF AND DUP2 MSTORE POP PUSH1 0x1 PUSH1 0x0 CALLER PUSH20 0xFFFFFFFFFFFFFFFFFFFFFFFFFFFFFFFFFFFFFFFF AND PUSH20 0xFFFFFFFFFFFFFFFFFFFFFFFFFFFFFFFFFFFFFFFF AND DUP2 MSTORE PUSH1 0x20 ADD SWAP1 DUP2 MSTORE PUSH1 0x20 ADD PUSH1 0x0 KECCAK256 PUSH1 0x0 DUP3 ADD MLOAD DUP2 PUSH1 0x0 ADD PUSH1 0x0 PUSH2 0x100 EXP DUP2 SLOAD DUP2 PUSH1 0xFF MUL NOT AND SWAP1 DUP4 ISZERO ISZERO MUL OR SWAP1 SSTORE POP PUSH1 0x20 DUP3 ADD MLOAD DUP2 PUSH1 0x0 ADD PUSH1 0x1 PUSH2 0x100 EXP DUP2 SLOAD DUP2 PUSH1 0xFF MUL NOT AND SWAP1 DUP4 ISZERO ISZERO MUL OR SWAP1 SSTORE POP PUSH1 0x40 DUP3 ADD MLOAD DUP2 PUSH1 0x0 ADD PUSH1 0x2 PUSH2 0x100 EXP DUP2 SLOAD DUP2 PUSH20 0xFFFFFFFFFFFFFFFFFFFFFFFFFFFFFFFFFFFFFFFF MUL NOT AND SWAP1 DUP4 PUSH20 0xFFFFFFFFFFFFFFFFFFFFFFFFFFFFFFFFFFFFFFFF AND MUL OR SWAP1 SSTORE POP PUSH1 0x60 DUP3 ADD MLOAD DUP2 PUSH1 0x1 ADD PUSH1 0x0 PUSH2 0x100 EXP DUP2 SLOAD DUP2 PUSH20 0xFFFFFFFFFFFFFFFFFFFFFFFFFFFFFFFFFFFFFFFF MUL NOT AND SWAP1 DUP4 PUSH20 0xFFFFFFFFFFFFFFFFFFFFFFFFFFFFFFFFFFFFFFFF AND MUL OR SWAP1 SSTORE POP SWAP1 POP POP PUSH32 0x20F06CF92183FB3BD87D074EC788BEB83367293FAF2388C274B4BAD9AECAE725 CALLER PUSH1 0x40 MLOAD PUSH2 0x1463 SWAP2 SWAP1 PUSH2 0x32F0 JUMP JUMPDEST PUSH1 0x40 MLOAD DUP1 SWAP2 SUB SWAP1 LOG1 JUMP JUMPDEST PUSH1 0x0 DUP1 CALLER PUSH20 0xFFFFFFFFFFFFFFFFFFFFFFFFFFFFFFFFFFFFFFFF AND PUSH20 0xFFFFFFFFFFFFFFFFFFFFFFFFFFFFFFFFFFFFFFFF AND DUP2 MSTORE PUSH1 0x20 ADD SWAP1 DUP2 MSTORE PUSH1 0x20 ADD PUSH1 0x0 KECCAK256 PUSH1 0x3 ADD PUSH1 0x0 SWAP1 SLOAD SWAP1 PUSH2 0x100 EXP SWAP1 DIV PUSH1 0xFF AND PUSH2 0x14FB JUMPI PUSH1 0x40 MLOAD PUSH32 0x8C379A000000000000000000000000000000000000000000000000000000000 DUP2 MSTORE PUSH1 0x4 ADD PUSH2 0x14F2 SWAP1 PUSH2 0x337D JUMP JUMPDEST PUSH1 0x40 MLOAD DUP1 SWAP2 SUB SWAP1 REVERT JUMPDEST PUSH1 0x0 PUSH1 0x1 PUSH1 0x0 DUP4 PUSH20 0xFFFFFFFFFFFFFFFFFFFFFFFFFFFFFFFFFFFFFFFF AND PUSH20 0xFFFFFFFFFFFFFFFFFFFFFFFFFFFFFFFFFFFFFFFF AND DUP2 MSTORE PUSH1 0x20 ADD SWAP1 DUP2 MSTORE PUSH1 0x20 ADD PUSH1 0x0 KECCAK256 SWAP1 POP PUSH1 0x0 DUP1 PUSH1 0x0 CALLER PUSH20 0xFFFFFFFFFFFFFFFFFFFFFFFFFFFFFFFFFFFFFFFF AND PUSH20 0xFFFFFFFFFFFFFFFFFFFFFFFFFFFFFFFFFFFFFFFF AND DUP2 MSTORE PUSH1 0x20 ADD SWAP1 DUP2 MSTORE PUSH1 0x20 ADD PUSH1 0x0 KECCAK256 SWAP1 POP DUP2 PUSH1 0x0 ADD PUSH1 0x0 SWAP1 SLOAD SWAP1 PUSH2 0x100 EXP SWAP1 DIV PUSH1 0xFF AND PUSH2 0x15D1 JUMPI PUSH1 0x40 MLOAD PUSH32 0x8C379A000000000000000000000000000000000000000000000000000000000 DUP2 MSTORE PUSH1 0x4 ADD PUSH2 0x15C8 SWAP1 PUSH2 0x33E9 JUMP JUMPDEST PUSH1 0x40 MLOAD DUP1 SWAP2 SUB SWAP1 REVERT JUMPDEST CALLER PUSH20 0xFFFFFFFFFFFFFFFFFFFFFFFFFFFFFFFFFFFFFFFF AND DUP2 PUSH1 0x3 ADD PUSH1 0x2 SWAP1 SLOAD SWAP1 PUSH2 0x100 EXP SWAP1 DIV PUSH20 0xFFFFFFFFFFFFFFFFFFFFFFFFFFFFFFFFFFFFFFFF AND PUSH20 0xFFFFFFFFFFFFFFFFFFFFFFFFFFFFFFFFFFFFFFFF AND EQ PUSH2 0x1663 JUMPI PUSH1 0x40 MLOAD PUSH32 0x8C379A000000000000000000000000000000000000000000000000000000000 DUP2 MSTORE PUSH1 0x4 ADD PUSH2 0x165A SWAP1 PUSH2 0x3455 JUMP JUMPDEST PUSH1 0x40 MLOAD DUP1 SWAP2 SUB SWAP1 REVERT JUMPDEST DUP2 PUSH1 0x0 ADD PUSH1 0x1 SWAP1 SLOAD SWAP1 PUSH2 0x100 EXP SWAP1 DIV PUSH1 0xFF AND ISZERO PUSH2 0x16D6 JUMPI PUSH1 0x0 DUP2 PUSH1 0x3 ADD PUSH1 0x1 PUSH2 0x100 EXP DUP2 SLOAD DUP2 PUSH1 0xFF MUL NOT AND SWAP1 DUP4 ISZERO ISZERO MUL OR SWAP1 SSTORE POP PUSH32 0x1DD2954A39BC3B38938D38EC872F7D0EB780F62CB4EAC654CB83F3C62AF02689 CALLER DUP5 DUP4 PUSH1 0x0 ADD PUSH1 0x40 MLOAD PUSH2 0x16CD SWAP4 SWAP3 SWAP2 SWAP1 PUSH2 0x3475 JUMP JUMPDEST PUSH1 0x40 MLOAD DUP1 SWAP2 SUB SWAP1 LOG1 JUMPDEST POP POP POP JUMP JUMPDEST PUSH1 0x1 PUSH1 0x0 CALLER PUSH20 0xFFFFFFFFFFFFFFFFFFFFFFFFFFFFFFFFFFFFFFFF AND PUSH20 0xFFFFFFFFFFFFFFFFFFFFFFFFFFFFFFFFFFFFFFFF AND DUP2 MSTORE PUSH1 0x20 ADD SWAP1 DUP2 MSTORE PUSH1 0x20 ADD PUSH1 0x0 KECCAK256 PUSH1 0x0 ADD PUSH1 0x0 SWAP1 SLOAD SWAP1 PUSH2 0x100 EXP SWAP1 DIV PUSH1 0xFF AND DUP1 PUSH2 0x1781 JUMPI POP PUSH1 0x0 DUP1 CALLER PUSH20 0xFFFFFFFFFFFFFFFFFFFFFFFFFFFFFFFFFFFFFFFF AND PUSH20 0xFFFFFFFFFFFFFFFFFFFFFFFFFFFFFFFFFFFFFFFF AND DUP2 MSTORE PUSH1 0x20 ADD SWAP1 DUP2 MSTORE PUSH1 0x20 ADD PUSH1 0x0 KECCAK256 PUSH1 0x3 ADD PUSH1 0x0 SWAP1 SLOAD SWAP1 PUSH2 0x100 EXP SWAP1 DIV PUSH1 0xFF AND JUMPDEST PUSH2 0x17C0 JUMPI PUSH1 0x40 MLOAD PUSH32 0x8C379A000000000000000000000000000000000000000000000000000000000 DUP2 MSTORE PUSH1 0x4 ADD PUSH2 0x17B7 SWAP1 PUSH2 0x354B JUMP JUMPDEST PUSH1 0x40 MLOAD DUP1 SWAP2 SUB SWAP1 REVERT JUMPDEST PUSH1 0x1 PUSH1 0x0 CALLER PUSH20 0xFFFFFFFFFFFFFFFFFFFFFFFFFFFFFFFFFFFFFFFF AND PUSH20 0xFFFFFFFFFFFFFFFFFFFFFFFFFFFFFFFFFFFFFFFF AND DUP2 MSTORE PUSH1 0x20 ADD SWAP1 DUP2 MSTORE PUSH1 0x20 ADD PUSH1 0x0 KECCAK256 PUSH1 0x0 ADD PUSH1 0x0 SWAP1 SLOAD SWAP1 PUSH2 0x100 EXP SWAP1 DIV PUSH1 0xFF AND ISZERO PUSH2 0x189C JUMPI PUSH1 0x0 PUSH1 0x1 PUSH1 0x0 CALLER PUSH20 0xFFFFFFFFFFFFFFFFFFFFFFFFFFFFFFFFFFFFFFFF AND PUSH20 0xFFFFFFFFFFFFFFFFFFFFFFFFFFFFFFFFFFFFFFFF AND DUP2 MSTORE PUSH1 0x20 ADD SWAP1 DUP2 MSTORE PUSH1 0x20 ADD PUSH1 0x0 KECCAK256 PUSH1 0x1 ADD PUSH1 0x0 PUSH2 0x100 EXP DUP2 SLOAD DUP2 PUSH20 0xFFFFFFFFFFFFFFFFFFFFFFFFFFFFFFFFFFFFFFFF MUL NOT AND SWAP1 DUP4 PUSH20 0xFFFFFFFFFFFFFFFFFFFFFFFFFFFFFFFFFFFFFFFF AND MUL OR SWAP1 SSTORE POP PUSH2 0x194C JUMP JUMPDEST PUSH1 0x0 DUP1 CALLER PUSH20 0xFFFFFFFFFFFFFFFFFFFFFFFFFFFFFFFFFFFFFFFF AND PUSH20 0xFFFFFFFFFFFFFFFFFFFFFFFFFFFFFFFFFFFFFFFF AND DUP2 MSTORE PUSH1 0x20 ADD SWAP1 DUP2 MSTORE PUSH1 0x20 ADD PUSH1 0x0 KECCAK256 PUSH1 0x3 ADD PUSH1 0x0 SWAP1 SLOAD SWAP1 PUSH2 0x100 EXP SWAP1 DIV PUSH1 0xFF AND ISZERO PUSH2 0x194B JUMPI PUSH1 0x0 DUP1 PUSH1 0x0 CALLER PUSH20 0xFFFFFFFFFFFFFFFFFFFFFFFFFFFFFFFFFFFFFFFF AND PUSH20 0xFFFFFFFFFFFFFFFFFFFFFFFFFFFFFFFFFFFFFFFF AND DUP2 MSTORE PUSH1 0x20 ADD SWAP1 DUP2 MSTORE PUSH1 0x20 ADD PUSH1 0x0 KECCAK256 PUSH1 0x3 ADD PUSH1 0x1 PUSH2 0x100 EXP DUP2 SLOAD DUP2 PUSH1 0xFF MUL NOT AND SWAP1 DUP4 ISZERO ISZERO MUL OR SWAP1 SSTORE POP JUMPDEST JUMPDEST PUSH32 0x1DD2954A39BC3B38938D38EC872F7D0EB780F62CB4EAC654CB83F3C62AF02689 CALLER PUSH1 0x1 PUSH1 0x0 CALLER PUSH20 0xFFFFFFFFFFFFFFFFFFFFFFFFFFFFFFFFFFFFFFFF AND PUSH20 0xFFFFFFFFFFFFFFFFFFFFFFFFFFFFFFFFFFFFFFFF AND DUP2 MSTORE PUSH1 0x20 ADD SWAP1 DUP2 MSTORE PUSH1 0x20 ADD PUSH1 0x0 KECCAK256 PUSH1 0x0 ADD PUSH1 0x2 SWAP1 SLOAD SWAP1 PUSH2 0x100 EXP SWAP1 DIV PUSH20 0xFFFFFFFFFFFFFFFFFFFFFFFFFFFFFFFFFFFFFFFF AND PUSH1 0x0 DUP1 CALLER PUSH20 0xFFFFFFFFFFFFFFFFFFFFFFFFFFFFFFFFFFFFFFFF AND PUSH20 0xFFFFFFFFFFFFFFFFFFFFFFFFFFFFFFFFFFFFFFFF AND DUP2 MSTORE PUSH1 0x20 ADD SWAP1 DUP2 MSTORE PUSH1 0x20 ADD PUSH1 0x0 KECCAK256 PUSH1 0x0 ADD PUSH1 0x40 MLOAD PUSH2 0x1A21 SWAP4 SWAP3 SWAP2 SWAP1 PUSH2 0x3475 JUMP JUMPDEST PUSH1 0x40 MLOAD DUP1 SWAP2 SUB SWAP1 LOG1 POP JUMP JUMPDEST PUSH1 0x0 DUP1 CALLER PUSH20 0xFFFFFFFFFFFFFFFFFFFFFFFFFFFFFFFFFFFFFFFF AND PUSH20 0xFFFFFFFFFFFFFFFFFFFFFFFFFFFFFFFFFFFFFFFF AND DUP2 MSTORE PUSH1 0x20 ADD SWAP1 DUP2 MSTORE PUSH1 0x20 ADD PUSH1 0x0 KECCAK256 PUSH1 0x3 ADD PUSH1 0x0 SWAP1 SLOAD SWAP1 PUSH2 0x100 EXP SWAP1 DIV PUSH1 0xFF AND PUSH2 0x1ABA JUMPI PUSH1 0x40 MLOAD PUSH32 0x8C379A000000000000000000000000000000000000000000000000000000000 DUP2 MSTORE PUSH1 0x4 ADD PUSH2 0x1AB1 SWAP1 PUSH2 0x337D JUMP JUMPDEST PUSH1 0x40 MLOAD DUP1 SWAP2 SUB SWAP1 REVERT JUMPDEST PUSH1 0x0 DUP1 CALLER PUSH20 0xFFFFFFFFFFFFFFFFFFFFFFFFFFFFFFFFFFFFFFFF AND PUSH20 0xFFFFFFFFFFFFFFFFFFFFFFFFFFFFFFFFFFFFFFFF AND DUP2 MSTORE PUSH1 0x20 ADD SWAP1 DUP2 MSTORE PUSH1 0x20 ADD PUSH1 0x0 KECCAK256 PUSH1 0x3 ADD PUSH1 0x1 SWAP1 SLOAD SWAP1 PUSH2 0x100 EXP SWAP1 DIV PUSH1 0xFF AND ISZERO PUSH2 0x1B49 JUMPI PUSH1 0x40 MLOAD PUSH32 0x8C379A000000000000000000000000000000000000000000000000000000000 DUP2 MSTORE PUSH1 0x4 ADD PUSH2 0x1B40 SWAP1 PUSH2 0x35DD JUMP JUMPDEST PUSH1 0x40 MLOAD DUP1 SWAP2 SUB SWAP1 REVERT JUMPDEST DUP3 PUSH1 0x0 DUP1 CALLER PUSH20 0xFFFFFFFFFFFFFFFFFFFFFFFFFFFFFFFFFFFFFFFF AND PUSH20 0xFFFFFFFFFFFFFFFFFFFFFFFFFFFFFFFFFFFFFFFF AND DUP2 MSTORE PUSH1 0x20 ADD SWAP1 DUP2 MSTORE PUSH1 0x20 ADD PUSH1 0x0 KECCAK256 PUSH1 0x0 ADD SWAP1 DUP2 PUSH2 0x1B97 SWAP2 SWAP1 PUSH2 0x2E3C JUMP JUMPDEST POP DUP2 PUSH1 0x0 DUP1 CALLER PUSH20 0xFFFFFFFFFFFFFFFFFFFFFFFFFFFFFFFFFFFFFFFF AND PUSH20 0xFFFFFFFFFFFFFFFFFFFFFFFFFFFFFFFFFFFFFFFF AND DUP2 MSTORE PUSH1 0x20 ADD SWAP1 DUP2 MSTORE PUSH1 0x20 ADD PUSH1 0x0 KECCAK256 PUSH1 0x1 ADD SWAP1 DUP2 PUSH2 0x1BE6 SWAP2 SWAP1 PUSH2 0x2E3C JUMP JUMPDEST POP DUP1 PUSH1 0x0 DUP1 CALLER PUSH20 0xFFFFFFFFFFFFFFFFFFFFFFFFFFFFFFFFFFFFFFFF AND PUSH20 0xFFFFFFFFFFFFFFFFFFFFFFFFFFFFFFFFFFFFFFFF AND DUP2 MSTORE PUSH1 0x20 ADD SWAP1 DUP2 MSTORE PUSH1 0x20 ADD PUSH1 0x0 KECCAK256 PUSH1 0x2 ADD DUP2 SWAP1 SSTORE POP PUSH1 0x1 PUSH1 0x0 DUP1 CALLER PUSH20 0xFFFFFFFFFFFFFFFFFFFFFFFFFFFFFFFFFFFFFFFF AND PUSH20 0xFFFFFFFFFFFFFFFFFFFFFFFFFFFFFFFFFFFFFFFF AND DUP2 MSTORE PUSH1 0x20 ADD SWAP1 DUP2 MSTORE PUSH1 0x20 ADD PUSH1 0x0 KECCAK256 PUSH1 0x3 ADD PUSH1 0x1 PUSH2 0x100 EXP DUP2 SLOAD DUP2 PUSH1 0xFF MUL NOT AND SWAP1 DUP4 ISZERO ISZERO MUL OR SWAP1 SSTORE POP PUSH32 0xAF5A1F8D23219255A220656798591DA6A58D145FB2A2C3FF5786922C9A6576B8 CALLER DUP5 DUP5 DUP5 PUSH1 0x40 MLOAD PUSH2 0x1CBC SWAP5 SWAP4 SWAP3 SWAP2 SWAP1 PUSH2 0x35FD JUMP JUMPDEST PUSH1 0x40 MLOAD DUP1 SWAP2 SUB SWAP1 LOG1 POP POP POP JUMP JUMPDEST PUSH1 0x0 DUP1 CALLER PUSH20 0xFFFFFFFFFFFFFFFFFFFFFFFFFFFFFFFFFFFFFFFF AND PUSH20 0xFFFFFFFFFFFFFFFFFFFFFFFFFFFFFFFFFFFFFFFF AND DUP2 MSTORE PUSH1 0x20 ADD SWAP1 DUP2 MSTORE PUSH1 0x20 ADD PUSH1 0x0 KECCAK256 PUSH1 0x3 ADD PUSH1 0x0 SWAP1 SLOAD SWAP1 PUSH2 0x100 EXP SWAP1 DIV PUSH1 0xFF AND PUSH2 0x1D57 JUMPI PUSH1 0x40 MLOAD PUSH32 0x8C379A000000000000000000000000000000000000000000000000000000000 DUP2 MSTORE PUSH1 0x4 ADD PUSH2 0x1D4E SWAP1 PUSH2 0x337D JUMP JUMPDEST PUSH1 0x40 MLOAD DUP1 SWAP2 SUB SWAP1 REVERT JUMPDEST PUSH1 0x0 PUSH1 0x2 PUSH1 0x0 DUP4 PUSH20 0xFFFFFFFFFFFFFFFFFFFFFFFFFFFFFFFFFFFFFFFF AND PUSH20 0xFFFFFFFFFFFFFFFFFFFFFFFFFFFFFFFFFFFFFFFF AND DUP2 MSTORE PUSH1 0x20 ADD SWAP1 DUP2 MSTORE PUSH1 0x20 ADD PUSH1 0x0 KECCAK256 PUSH1 0x2 ADD DUP1 SLOAD SWAP1 POP GT PUSH2 0x1DDF JUMPI PUSH1 0x40 MLOAD PUSH32 0x8C379A000000000000000000000000000000000000000000000000000000000 DUP2 MSTORE PUSH1 0x4 ADD PUSH2 0x1DD6 SWAP1 PUSH2 0x2AA9 JUMP JUMPDEST PUSH1 0x40 MLOAD DUP1 SWAP2 SUB SWAP1 REVERT JUMPDEST PUSH1 0x2 PUSH1 0x0 DUP3 PUSH20 0xFFFFFFFFFFFFFFFFFFFFFFFFFFFFFFFFFFFFFFFF AND PUSH20 0xFFFFFFFFFFFFFFFFFFFFFFFFFFFFFFFFFFFFFFFF AND DUP2 MSTORE PUSH1 0x20 ADD SWAP1 DUP2 MSTORE PUSH1 0x20 ADD PUSH1 0x0 KECCAK256 PUSH1 0x3 ADD PUSH1 0x0 SWAP1 SLOAD SWAP1 PUSH2 0x100 EXP SWAP1 DIV PUSH1 0xFF AND ISZERO PUSH2 0x1E6F JUMPI PUSH1 0x40 MLOAD PUSH32 0x8C379A000000000000000000000000000000000000000000000000000000000 DUP2 MSTORE PUSH1 0x4 ADD PUSH2 0x1E66 SWAP1 PUSH2 0x2B15 JUMP JUMPDEST PUSH1 0x40 MLOAD DUP1 SWAP2 SUB SWAP1 REVERT JUMPDEST PUSH1 0x0 CALLVALUE GT PUSH2 0x1EB2 JUMPI PUSH1 0x40 MLOAD PUSH32 0x8C379A000000000000000000000000000000000000000000000000000000000 DUP2 MSTORE PUSH1 0x4 ADD PUSH2 0x1EA9 SWAP1 PUSH2 0x36C2 JUMP JUMPDEST PUSH1 0x40 MLOAD DUP1 SWAP2 SUB SWAP1 REVERT JUMPDEST PUSH1 0x2 PUSH1 0x0 DUP3 PUSH20 0xFFFFFFFFFFFFFFFFFFFFFFFFFFFFFFFFFFFFFFFF AND PUSH20 0xFFFFFFFFFFFFFFFFFFFFFFFFFFFFFFFFFFFFFFFF AND DUP2 MSTORE PUSH1 0x20 ADD SWAP1 DUP2 MSTORE PUSH1 0x20 ADD PUSH1 0x0 KECCAK256 PUSH1 0x2 ADD CALLER SWAP1 DUP1 PUSH1 0x1 DUP2 SLOAD ADD DUP1 DUP3 SSTORE DUP1 SWAP2 POP POP PUSH1 0x1 SWAP1 SUB SWAP1 PUSH1 0x0 MSTORE PUSH1 0x20 PUSH1 0x0 KECCAK256 ADD PUSH1 0x0 SWAP1 SWAP2 SWAP1 SWAP2 SWAP1 SWAP2 PUSH2 0x100 EXP DUP2 SLOAD DUP2 PUSH20 0xFFFFFFFFFFFFFFFFFFFFFFFFFFFFFFFFFFFFFFFF MUL NOT AND SWAP1 DUP4 PUSH20 0xFFFFFFFFFFFFFFFFFFFFFFFFFFFFFFFFFFFFFFFF AND MUL OR SWAP1 SSTORE POP PUSH1 0x0 PUSH1 0x2 PUSH1 0x0 DUP4 PUSH20 0xFFFFFFFFFFFFFFFFFFFFFFFFFFFFFFFFFFFFFFFF AND PUSH20 0xFFFFFFFFFFFFFFFFFFFFFFFFFFFFFFFFFFFFFFFF AND DUP2 MSTORE PUSH1 0x20 ADD SWAP1 DUP2 MSTORE PUSH1 0x20 ADD PUSH1 0x0 KECCAK256 PUSH1 0x4 ADD SLOAD EQ DUP1 PUSH2 0x1FE7 JUMPI POP PUSH1 0x2 PUSH1 0x0 DUP3 PUSH20 0xFFFFFFFFFFFFFFFFFFFFFFFFFFFFFFFFFFFFFFFF AND PUSH20 0xFFFFFFFFFFFFFFFFFFFFFFFFFFFFFFFFFFFFFFFF AND DUP2 MSTORE PUSH1 0x20 ADD SWAP1 DUP2 MSTORE PUSH1 0x20 ADD PUSH1 0x0 KECCAK256 PUSH1 0x4 ADD SLOAD CALLVALUE LT JUMPDEST ISZERO PUSH2 0x20B5 JUMPI CALLVALUE PUSH1 0x2 PUSH1 0x0 DUP4 PUSH20 0xFFFFFFFFFFFFFFFFFFFFFFFFFFFFFFFFFFFFFFFF AND PUSH20 0xFFFFFFFFFFFFFFFFFFFFFFFFFFFFFFFFFFFFFFFF AND DUP2 MSTORE PUSH1 0x20 ADD SWAP1 DUP2 MSTORE PUSH1 0x20 ADD PUSH1 0x0 KECCAK256 PUSH1 0x4 ADD DUP2 SWAP1 SSTORE POP CALLER PUSH1 0x2 PUSH1 0x0 DUP4 PUSH20 0xFFFFFFFFFFFFFFFFFFFFFFFFFFFFFFFFFFFFFFFF AND PUSH20 0xFFFFFFFFFFFFFFFFFFFFFFFFFFFFFFFFFFFFFFFF AND DUP2 MSTORE PUSH1 0x20 ADD SWAP1 DUP2 MSTORE PUSH1 0x20 ADD PUSH1 0x0 KECCAK256 PUSH1 0x3 ADD PUSH1 0x1 PUSH2 0x100 EXP DUP2 SLOAD DUP2 PUSH20 0xFFFFFFFFFFFFFFFFFFFFFFFFFFFFFFFFFFFFFFFF MUL NOT AND SWAP1 DUP4 PUSH20 0xFFFFFFFFFFFFFFFFFFFFFFFFFFFFFFFFFFFFFFFF AND MUL OR SWAP1 SSTORE POP JUMPDEST PUSH32 0x45A818213E5085F9A2D24B876128D3BB9F7200BCF3170FA08E063E1746F7E9BB CALLER DUP3 CALLVALUE PUSH1 0x40 MLOAD PUSH2 0x20E8 SWAP4 SWAP3 SWAP2 SWAP1 PUSH2 0x2BC7 JUMP JUMPDEST PUSH1 0x40 MLOAD DUP1 SWAP2 SUB SWAP1 LOG1 POP JUMP JUMPDEST PUSH1 0x0 DUP1 CALLER PUSH20 0xFFFFFFFFFFFFFFFFFFFFFFFFFFFFFFFFFFFFFFFF AND PUSH20 0xFFFFFFFFFFFFFFFFFFFFFFFFFFFFFFFFFFFFFFFF AND DUP2 MSTORE PUSH1 0x20 ADD SWAP1 DUP2 MSTORE PUSH1 0x20 ADD PUSH1 0x0 KECCAK256 PUSH1 0x3 ADD PUSH1 0x0 SWAP1 SLOAD SWAP1 PUSH2 0x100 EXP SWAP1 DIV PUSH1 0xFF AND ISZERO PUSH2 0x2182 JUMPI PUSH1 0x40 MLOAD PUSH32 0x8C379A000000000000000000000000000000000000000000000000000000000 DUP2 MSTORE PUSH1 0x4 ADD PUSH2 0x2179 SWAP1 PUSH2 0x372E JUMP JUMPDEST PUSH1 0x40 MLOAD DUP1 SWAP2 SUB SWAP1 REVERT JUMPDEST PUSH1 0x40 MLOAD DUP1 PUSH1 0xE0 ADD PUSH1 0x40 MSTORE DUP1 PUSH1 0x40 MLOAD DUP1 PUSH1 0x20 ADD PUSH1 0x40 MSTORE DUP1 PUSH1 0x0 DUP2 MSTORE POP DUP2 MSTORE PUSH1 0x20 ADD PUSH1 0x40 MLOAD DUP1 PUSH1 0x20 ADD PUSH1 0x40 MSTORE DUP1 PUSH1 0x0 DUP2 MSTORE POP DUP2 MSTORE PUSH1 0x20 ADD PUSH1 0x0 DUP2 MSTORE PUSH1 0x20 ADD PUSH1 0x1 ISZERO ISZERO DUP2 MSTORE PUSH1 0x20 ADD PUSH1 0x0 ISZERO ISZERO DUP2 MSTORE PUSH1 0x20 ADD CALLER PUSH20 0xFFFFFFFFFFFFFFFFFFFFFFFFFFFFFFFFFFFFFFFF AND DUP2 MSTORE PUSH1 0x20 ADD PUSH1 0x0 PUSH8 0xFFFFFFFFFFFFFFFF DUP2 GT ISZERO PUSH2 0x2207 JUMPI PUSH2 0x2206 PUSH2 0x26BE JUMP JUMPDEST JUMPDEST PUSH1 0x40 MLOAD SWAP1 DUP1 DUP3 MSTORE DUP1 PUSH1 0x20 MUL PUSH1 0x20 ADD DUP3 ADD PUSH1 0x40 MSTORE DUP1 ISZERO PUSH2 0x2235 JUMPI DUP2 PUSH1 0x20 ADD PUSH1 0x20 DUP3 MUL DUP1 CALLDATASIZE DUP4 CALLDATACOPY DUP1 DUP3 ADD SWAP2 POP POP SWAP1 POP JUMPDEST POP DUP2 MSTORE POP PUSH1 0x0 DUP1 CALLER PUSH20 0xFFFFFFFFFFFFFFFFFFFFFFFFFFFFFFFFFFFFFFFF AND PUSH20 0xFFFFFFFFFFFFFFFFFFFFFFFFFFFFFFFFFFFFFFFF AND DUP2 MSTORE PUSH1 0x20 ADD SWAP1 DUP2 MSTORE PUSH1 0x20 ADD PUSH1 0x0 KECCAK256 PUSH1 0x0 DUP3 ADD MLOAD DUP2 PUSH1 0x0 ADD SWAP1 DUP2 PUSH2 0x228C SWAP2 SWAP1 PUSH2 0x2E3C JUMP JUMPDEST POP PUSH1 0x20 DUP3 ADD MLOAD DUP2 PUSH1 0x1 ADD SWAP1 DUP2 PUSH2 0x22A2 SWAP2 SWAP1 PUSH2 0x2E3C JUMP JUMPDEST POP PUSH1 0x40 DUP3 ADD MLOAD DUP2 PUSH1 0x2 ADD SSTORE PUSH1 0x60 DUP3 ADD MLOAD DUP2 PUSH1 0x3 ADD PUSH1 0x0 PUSH2 0x100 EXP DUP2 SLOAD DUP2 PUSH1 0xFF MUL NOT AND SWAP1 DUP4 ISZERO ISZERO MUL OR SWAP1 SSTORE POP PUSH1 0x80 DUP3 ADD MLOAD DUP2 PUSH1 0x3 ADD PUSH1 0x1 PUSH2 0x100 EXP DUP2 SLOAD DUP2 PUSH1 0xFF MUL NOT AND SWAP1 DUP4 ISZERO ISZERO MUL OR SWAP1 SSTORE POP PUSH1 0xA0 DUP3 ADD MLOAD DUP2 PUSH1 0x3 ADD PUSH1 0x2 PUSH2 0x100 EXP DUP2 SLOAD DUP2 PUSH20 0xFFFFFFFFFFFFFFFFFFFFFFFFFFFFFFFFFFFFFFFF MUL NOT AND SWAP1 DUP4 PUSH20 0xFFFFFFFFFFFFFFFFFFFFFFFFFFFFFFFFFFFFFFFF AND MUL OR SWAP1 SSTORE POP PUSH1 0xC0 DUP3 ADD MLOAD DUP2 PUSH1 0x4 ADD SWAP1 DUP1 MLOAD SWAP1 PUSH1 0x20 ADD SWAP1 PUSH2 0x2350 SWAP3 SWAP2 SWAP1 PUSH2 0x238D JUMP JUMPDEST POP SWAP1 POP POP PUSH32 0x70ABCE74777B3838AE60A33A6B9A87D9D25532668FE4FEA548554C55868579C0 CALLER PUSH1 0x40 MLOAD PUSH2 0x2383 SWAP2 SWAP1 PUSH2 0x32F0 JUMP JUMPDEST PUSH1 0x40 MLOAD DUP1 SWAP2 SUB SWAP1 LOG1 JUMP JUMPDEST DUP3 DUP1 SLOAD DUP3 DUP3 SSTORE SWAP1 PUSH1 0x0 MSTORE PUSH1 0x20 PUSH1 0x0 KECCAK256 SWAP1 DUP2 ADD SWAP3 DUP3 ISZERO PUSH2 0x2406 JUMPI SWAP2 PUSH1 0x20 MUL DUP3 ADD JUMPDEST DUP3 DUP2 GT ISZERO PUSH2 0x2405 JUMPI DUP3 MLOAD DUP3 PUSH1 0x0 PUSH2 0x100 EXP DUP2 SLOAD DUP2 PUSH20 0xFFFFFFFFFFFFFFFFFFFFFFFFFFFFFFFFFFFFFFFF MUL NOT AND SWAP1 DUP4 PUSH20 0xFFFFFFFFFFFFFFFFFFFFFFFFFFFFFFFFFFFFFFFF AND MUL OR SWAP1 SSTORE POP SWAP2 PUSH1 0x20 ADD SWAP2 SWAP1 PUSH1 0x1 ADD SWAP1 PUSH2 0x23AD JUMP JUMPDEST JUMPDEST POP SWAP1 POP PUSH2 0x2413 SWAP2 SWAP1 PUSH2 0x2417 JUMP JUMPDEST POP SWAP1 JUMP JUMPDEST JUMPDEST DUP1 DUP3 GT ISZERO PUSH2 0x2430 JUMPI PUSH1 0x0 DUP2 PUSH1 0x0 SWAP1 SSTORE POP PUSH1 0x1 ADD PUSH2 0x2418 JUMP JUMPDEST POP SWAP1 JUMP JUMPDEST PUSH1 0x0 PUSH1 0x40 MLOAD SWAP1 POP SWAP1 JUMP JUMPDEST PUSH1 0x0 DUP1 REVERT JUMPDEST PUSH1 0x0 DUP1 REVERT JUMPDEST PUSH1 0x0 PUSH20 0xFFFFFFFFFFFFFFFFFFFFFFFFFFFFFFFFFFFFFFFF DUP3 AND SWAP1 POP SWAP2 SWAP1 POP JUMP JUMPDEST PUSH1 0x0 PUSH2 0x2473 DUP3 PUSH2 0x2448 JUMP JUMPDEST SWAP1 POP SWAP2 SWAP1 POP JUMP JUMPDEST PUSH2 0x2483 DUP2 PUSH2 0x2468 JUMP JUMPDEST DUP2 EQ PUSH2 0x248E JUMPI PUSH1 0x0 DUP1 REVERT JUMPDEST POP JUMP JUMPDEST PUSH1 0x0 DUP2 CALLDATALOAD SWAP1 POP PUSH2 0x24A0 DUP2 PUSH2 0x247A JUMP JUMPDEST SWAP3 SWAP2 POP POP JUMP JUMPDEST PUSH1 0x0 PUSH1 0x20 DUP3 DUP5 SUB SLT ISZERO PUSH2 0x24BC JUMPI PUSH2 0x24BB PUSH2 0x243E JUMP JUMPDEST JUMPDEST PUSH1 0x0 PUSH2 0x24CA DUP5 DUP3 DUP6 ADD PUSH2 0x2491 JUMP JUMPDEST SWAP2 POP POP SWAP3 SWAP2 POP POP JUMP JUMPDEST PUSH1 0x0 DUP2 MLOAD SWAP1 POP SWAP2 SWAP1 POP JUMP JUMPDEST PUSH1 0x0 DUP3 DUP3 MSTORE PUSH1 0x20 DUP3 ADD SWAP1 POP SWAP3 SWAP2 POP POP JUMP JUMPDEST PUSH1 0x0 JUMPDEST DUP4 DUP2 LT ISZERO PUSH2 0x250D JUMPI DUP1 DUP3 ADD MLOAD DUP2 DUP5 ADD MSTORE PUSH1 0x20 DUP2 ADD SWAP1 POP PUSH2 0x24F2 JUMP JUMPDEST PUSH1 0x0 DUP5 DUP5 ADD MSTORE POP POP POP POP JUMP JUMPDEST PUSH1 0x0 PUSH1 0x1F NOT PUSH1 0x1F DUP4 ADD AND SWAP1 POP SWAP2 SWAP1 POP JUMP JUMPDEST PUSH1 0x0 PUSH2 0x2535 DUP3 PUSH2 0x24D3 JUMP JUMPDEST PUSH2 0x253F DUP2 DUP6 PUSH2 0x24DE JUMP JUMPDEST SWAP4 POP PUSH2 0x254F DUP2 DUP6 PUSH1 0x20 DUP7 ADD PUSH2 0x24EF JUMP JUMPDEST PUSH2 0x2558 DUP2 PUSH2 0x2519 JUMP JUMPDEST DUP5 ADD SWAP2 POP POP SWAP3 SWAP2 POP POP JUMP JUMPDEST PUSH1 0x0 DUP2 SWAP1 POP SWAP2 SWAP1 POP JUMP JUMPDEST PUSH2 0x2576 DUP2 PUSH2 0x2563 JUMP JUMPDEST DUP3 MSTORE POP POP JUMP JUMPDEST PUSH1 0x0 DUP2 ISZERO ISZERO SWAP1 POP SWAP2 SWAP1 POP JUMP JUMPDEST PUSH2 0x2591 DUP2 PUSH2 0x257C JUMP JUMPDEST DUP3 MSTORE POP POP JUMP JUMPDEST PUSH2 0x25A0 DUP2 PUSH2 0x2468 JUMP JUMPDEST DUP3 MSTORE POP POP JUMP JUMPDEST PUSH1 0x0 PUSH1 0xC0 DUP3 ADD SWAP1 POP DUP2 DUP2 SUB PUSH1 0x0 DUP4 ADD MSTORE PUSH2 0x25C0 DUP2 DUP10 PUSH2 0x252A JUMP JUMPDEST SWAP1 POP DUP2 DUP2 SUB PUSH1 0x20 DUP4 ADD MSTORE PUSH2 0x25D4 DUP2 DUP9 PUSH2 0x252A JUMP JUMPDEST SWAP1 POP PUSH2 0x25E3 PUSH1 0x40 DUP4 ADD DUP8 PUSH2 0x256D JUMP JUMPDEST PUSH2 0x25F0 PUSH1 0x60 DUP4 ADD DUP7 PUSH2 0x2588 JUMP JUMPDEST PUSH2 0x25FD PUSH1 0x80 DUP4 ADD DUP6 PUSH2 0x2588 JUMP JUMPDEST PUSH2 0x260A PUSH1 0xA0 DUP4 ADD DUP5 PUSH2 0x2597 JUMP JUMPDEST SWAP8 SWAP7 POP POP POP POP POP POP POP JUMP JUMPDEST PUSH1 0x0 PUSH1 0x80 DUP3 ADD SWAP1 POP PUSH2 0x262A PUSH1 0x0 DUP4 ADD DUP8 PUSH2 0x2588 JUMP JUMPDEST PUSH2 0x2637 PUSH1 0x20 DUP4 ADD DUP7 PUSH2 0x2588 JUMP JUMPDEST PUSH2 0x2644 PUSH1 0x40 DUP4 ADD DUP6 PUSH2 0x2597 JUMP JUMPDEST PUSH2 0x2651 PUSH1 0x60 DUP4 ADD DUP5 PUSH2 0x2597 JUMP JUMPDEST SWAP6 SWAP5 POP POP POP POP POP JUMP JUMPDEST PUSH1 0x0 PUSH1 0xA0 DUP3 ADD SWAP1 POP DUP2 DUP2 SUB PUSH1 0x0 DUP4 ADD MSTORE PUSH2 0x2674 DUP2 DUP9 PUSH2 0x252A JUMP JUMPDEST SWAP1 POP PUSH2 0x2683 PUSH1 0x20 DUP4 ADD DUP8 PUSH2 0x256D JUMP JUMPDEST PUSH2 0x2690 PUSH1 0x40 DUP4 ADD DUP7 PUSH2 0x2588 JUMP JUMPDEST PUSH2 0x269D PUSH1 0x60 DUP4 ADD DUP6 PUSH2 0x2597 JUMP JUMPDEST PUSH2 0x26AA PUSH1 0x80 DUP4 ADD DUP5 PUSH2 0x256D JUMP JUMPDEST SWAP7 SWAP6 POP POP POP POP POP POP JUMP JUMPDEST PUSH1 0x0 DUP1 REVERT JUMPDEST PUSH1 0x0 DUP1 REVERT JUMPDEST PUSH32 0x4E487B7100000000000000000000000000000000000000000000000000000000 PUSH1 0x0 MSTORE PUSH1 0x41 PUSH1 0x4 MSTORE PUSH1 0x24 PUSH1 0x0 REVERT JUMPDEST PUSH2 0x26F6 DUP3 PUSH2 0x2519 JUMP JUMPDEST DUP2 ADD DUP2 DUP2 LT PUSH8 0xFFFFFFFFFFFFFFFF DUP3 GT OR ISZERO PUSH2 0x2715 JUMPI PUSH2 0x2714 PUSH2 0x26BE JUMP JUMPDEST JUMPDEST DUP1 PUSH1 0x40 MSTORE POP POP POP JUMP JUMPDEST PUSH1 0x0 PUSH2 0x2728 PUSH2 0x2434 JUMP JUMPDEST SWAP1 POP PUSH2 0x2734 DUP3 DUP3 PUSH2 0x26ED JUMP JUMPDEST SWAP2 SWAP1 POP JUMP JUMPDEST PUSH1 0x0 PUSH8 0xFFFFFFFFFFFFFFFF DUP3 GT ISZERO PUSH2 0x2754 JUMPI PUSH2 0x2753 PUSH2 0x26BE JUMP JUMPDEST JUMPDEST PUSH2 0x275D DUP3 PUSH2 0x2519 JUMP JUMPDEST SWAP1 POP PUSH1 0x20 DUP2 ADD SWAP1 POP SWAP2 SWAP1 POP JUMP JUMPDEST DUP3 DUP2 DUP4 CALLDATACOPY PUSH1 0x0 DUP4 DUP4 ADD MSTORE POP POP POP JUMP JUMPDEST PUSH1 0x0 PUSH2 0x278C PUSH2 0x2787 DUP5 PUSH2 0x2739 JUMP JUMPDEST PUSH2 0x271E JUMP JUMPDEST SWAP1 POP DUP3 DUP2 MSTORE PUSH1 0x20 DUP2 ADD DUP5 DUP5 DUP5 ADD GT ISZERO PUSH2 0x27A8 JUMPI PUSH2 0x27A7 PUSH2 0x26B9 JUMP JUMPDEST JUMPDEST PUSH2 0x27B3 DUP5 DUP3 DUP6 PUSH2 0x276A JUMP JUMPDEST POP SWAP4 SWAP3 POP POP POP JUMP JUMPDEST PUSH1 0x0 DUP3 PUSH1 0x1F DUP4 ADD SLT PUSH2 0x27D0 JUMPI PUSH2 0x27CF PUSH2 0x26B4 JUMP JUMPDEST JUMPDEST DUP2 CALLDATALOAD PUSH2 0x27E0 DUP5 DUP3 PUSH1 0x20 DUP7 ADD PUSH2 0x2779 JUMP JUMPDEST SWAP2 POP POP SWAP3 SWAP2 POP POP JUMP JUMPDEST PUSH2 0x27F2 DUP2 PUSH2 0x2563 JUMP JUMPDEST DUP2 EQ PUSH2 0x27FD JUMPI PUSH1 0x0 DUP1 REVERT JUMPDEST POP JUMP JUMPDEST PUSH1 0x0 DUP2 CALLDATALOAD SWAP1 POP PUSH2 0x280F DUP2 PUSH2 0x27E9 JUMP JUMPDEST SWAP3 SWAP2 POP POP JUMP JUMPDEST PUSH1 0x0 DUP1 PUSH1 0x40 DUP4 DUP6 SUB SLT ISZERO PUSH2 0x282C JUMPI PUSH2 0x282B PUSH2 0x243E JUMP JUMPDEST JUMPDEST PUSH1 0x0 DUP4 ADD CALLDATALOAD PUSH8 0xFFFFFFFFFFFFFFFF DUP2 GT ISZERO PUSH2 0x284A JUMPI PUSH2 0x2849 PUSH2 0x2443 JUMP JUMPDEST JUMPDEST PUSH2 0x2856 DUP6 DUP3 DUP7 ADD PUSH2 0x27BB JUMP JUMPDEST SWAP3 POP POP PUSH1 0x20 PUSH2 0x2867 DUP6 DUP3 DUP7 ADD PUSH2 0x2800 JUMP JUMPDEST SWAP2 POP POP SWAP3 POP SWAP3 SWAP1 POP JUMP JUMPDEST PUSH1 0x0 PUSH1 0x20 DUP3 DUP5 SUB SLT ISZERO PUSH2 0x2887 JUMPI PUSH2 0x2886 PUSH2 0x243E JUMP JUMPDEST JUMPDEST PUSH1 0x0 DUP3 ADD CALLDATALOAD PUSH8 0xFFFFFFFFFFFFFFFF DUP2 GT ISZERO PUSH2 0x28A5 JUMPI PUSH2 0x28A4 PUSH2 0x2443 JUMP JUMPDEST JUMPDEST PUSH2 0x28B1 DUP5 DUP3 DUP6 ADD PUSH2 0x27BB JUMP JUMPDEST SWAP2 POP POP SWAP3 SWAP2 POP POP JUMP JUMPDEST PUSH1 0x0 DUP1 PUSH1 0x0 PUSH1 0x60 DUP5 DUP7 SUB SLT ISZERO PUSH2 0x28D3 JUMPI PUSH2 0x28D2 PUSH2 0x243E JUMP JUMPDEST JUMPDEST PUSH1 0x0 DUP5 ADD CALLDATALOAD PUSH8 0xFFFFFFFFFFFFFFFF DUP2 GT ISZERO PUSH2 0x28F1 JUMPI PUSH2 0x28F0 PUSH2 0x2443 JUMP JUMPDEST JUMPDEST PUSH2 0x28FD DUP7 DUP3 DUP8 ADD PUSH2 0x27BB JUMP JUMPDEST SWAP4 POP POP PUSH1 0x20 DUP5 ADD CALLDATALOAD PUSH8 0xFFFFFFFFFFFFFFFF DUP2 GT ISZERO PUSH2 0x291E JUMPI PUSH2 0x291D PUSH2 0x2443 JUMP JUMPDEST JUMPDEST PUSH2 0x292A DUP7 DUP3 DUP8 ADD PUSH2 0x27BB JUMP JUMPDEST SWAP3 POP POP PUSH1 0x40 PUSH2 0x293B DUP7 DUP3 DUP8 ADD PUSH2 0x2800 JUMP JUMPDEST SWAP2 POP POP SWAP3 POP SWAP3 POP SWAP3 JUMP JUMPDEST PUSH32 0x4E487B7100000000000000000000000000000000000000000000000000000000 PUSH1 0x0 MSTORE PUSH1 0x22 PUSH1 0x4 MSTORE PUSH1 0x24 PUSH1 0x0 REVERT JUMPDEST PUSH1 0x0 PUSH1 0x2 DUP3 DIV SWAP1 POP PUSH1 0x1 DUP3 AND DUP1 PUSH2 0x298C JUMPI PUSH1 0x7F DUP3 AND SWAP2 POP JUMPDEST PUSH1 0x20 DUP3 LT DUP2 SUB PUSH2 0x299F JUMPI PUSH2 0x299E PUSH2 0x2945 JUMP JUMPDEST JUMPDEST POP SWAP2 SWAP1 POP JUMP JUMPDEST PUSH32 0x4F6E6C792072656769737465726564207573657273207769746820746F6B656E PUSH1 0x0 DUP3 ADD MSTORE PUSH32 0x206964656E746974792063616E2061636365737320746869732066756E637469 PUSH1 0x20 DUP3 ADD MSTORE PUSH32 0x6F6E616C69747900000000000000000000000000000000000000000000000000 PUSH1 0x40 DUP3 ADD MSTORE POP JUMP JUMPDEST PUSH1 0x0 PUSH2 0x2A27 PUSH1 0x47 DUP4 PUSH2 0x24DE JUMP JUMPDEST SWAP2 POP PUSH2 0x2A32 DUP3 PUSH2 0x29A5 JUMP JUMPDEST PUSH1 0x60 DUP3 ADD SWAP1 POP SWAP2 SWAP1 POP JUMP JUMPDEST PUSH1 0x0 PUSH1 0x20 DUP3 ADD SWAP1 POP DUP2 DUP2 SUB PUSH1 0x0 DUP4 ADD MSTORE PUSH2 0x2A56 DUP2 PUSH2 0x2A1A JUMP JUMPDEST SWAP1 POP SWAP2 SWAP1 POP JUMP JUMPDEST PUSH32 0x41756374696F6E20646F6573206E6F7420657869737400000000000000000000 PUSH1 0x0 DUP3 ADD MSTORE POP JUMP JUMPDEST PUSH1 0x0 PUSH2 0x2A93 PUSH1 0x16 DUP4 PUSH2 0x24DE JUMP JUMPDEST SWAP2 POP PUSH2 0x2A9E DUP3 PUSH2 0x2A5D JUMP JUMPDEST PUSH1 0x20 DUP3 ADD SWAP1 POP SWAP2 SWAP1 POP JUMP JUMPDEST PUSH1 0x0 PUSH1 0x20 DUP3 ADD SWAP1 POP DUP2 DUP2 SUB PUSH1 0x0 DUP4 ADD MSTORE PUSH2 0x2AC2 DUP2 PUSH2 0x2A86 JUMP JUMPDEST SWAP1 POP SWAP2 SWAP1 POP JUMP JUMPDEST PUSH32 0x41756374696F6E2068617320616C726561647920656E64656400000000000000 PUSH1 0x0 DUP3 ADD MSTORE POP JUMP JUMPDEST PUSH1 0x0 PUSH2 0x2AFF PUSH1 0x19 DUP4 PUSH2 0x24DE JUMP JUMPDEST SWAP2 POP PUSH2 0x2B0A DUP3 PUSH2 0x2AC9 JUMP JUMPDEST PUSH1 0x20 DUP3 ADD SWAP1 POP SWAP2 SWAP1 POP JUMP JUMPDEST PUSH1 0x0 PUSH1 0x20 DUP3 ADD SWAP1 POP DUP2 DUP2 SUB PUSH1 0x0 DUP4 ADD MSTORE PUSH2 0x2B2E DUP2 PUSH2 0x2AF2 JUMP JUMPDEST SWAP1 POP SWAP2 SWAP1 POP JUMP JUMPDEST PUSH32 0x4E6F7420617574686F72697A656420746F20656E642074686973206175637469 PUSH1 0x0 DUP3 ADD MSTORE PUSH32 0x6F6E000000000000000000000000000000000000000000000000000000000000 PUSH1 0x20 DUP3 ADD MSTORE POP JUMP JUMPDEST PUSH1 0x0 PUSH2 0x2B91 PUSH1 0x22 DUP4 PUSH2 0x24DE JUMP JUMPDEST SWAP2 POP PUSH2 0x2B9C DUP3 PUSH2 0x2B35 JUMP JUMPDEST PUSH1 0x40 DUP3 ADD SWAP1 POP SWAP2 SWAP1 POP JUMP JUMPDEST PUSH1 0x0 PUSH1 0x20 DUP3 ADD SWAP1 POP DUP2 DUP2 SUB PUSH1 0x0 DUP4 ADD MSTORE PUSH2 0x2BC0 DUP2 PUSH2 0x2B84 JUMP JUMPDEST SWAP1 POP SWAP2 SWAP1 POP JUMP JUMPDEST PUSH1 0x0 PUSH1 0x60 DUP3 ADD SWAP1 POP PUSH2 0x2BDC PUSH1 0x0 DUP4 ADD DUP7 PUSH2 0x2597 JUMP JUMPDEST PUSH2 0x2BE9 PUSH1 0x20 DUP4 ADD DUP6 PUSH2 0x2597 JUMP JUMPDEST PUSH2 0x2BF6 PUSH1 0x40 DUP4 ADD DUP5 PUSH2 0x256D JUMP JUMPDEST SWAP5 SWAP4 POP POP POP POP JUMP JUMPDEST PUSH32 0x4F6E6C7920636F6E73756D6572732063616E20737461727420616E2061756374 PUSH1 0x0 DUP3 ADD MSTORE PUSH32 0x696F6E0000000000000000000000000000000000000000000000000000000000 PUSH1 0x20 DUP3 ADD MSTORE POP JUMP JUMPDEST PUSH1 0x0 PUSH2 0x2C5A PUSH1 0x23 DUP4 PUSH2 0x24DE JUMP JUMPDEST SWAP2 POP PUSH2 0x2C65 DUP3 PUSH2 0x2BFE JUMP JUMPDEST PUSH1 0x40 DUP3 ADD SWAP1 POP SWAP2 SWAP1 POP JUMP JUMPDEST PUSH1 0x0 PUSH1 0x20 DUP3 ADD SWAP1 POP DUP2 DUP2 SUB PUSH1 0x0 DUP4 ADD MSTORE PUSH2 0x2C89 DUP2 PUSH2 0x2C4D JUMP JUMPDEST SWAP1 POP SWAP2 SWAP1 POP JUMP JUMPDEST PUSH1 0x0 DUP2 SWAP1 POP DUP2 PUSH1 0x0 MSTORE PUSH1 0x20 PUSH1 0x0 KECCAK256 SWAP1 POP SWAP2 SWAP1 POP JUMP JUMPDEST PUSH1 0x0 PUSH1 0x20 PUSH1 0x1F DUP4 ADD DIV SWAP1 POP SWAP2 SWAP1 POP JUMP JUMPDEST PUSH1 0x0 DUP3 DUP3 SHL SWAP1 POP SWAP3 SWAP2 POP POP JUMP JUMPDEST PUSH1 0x0 PUSH1 0x8 DUP4 MUL PUSH2 0x2CF2 PUSH32 0xFFFFFFFFFFFFFFFFFFFFFFFFFFFFFFFFFFFFFFFFFFFFFFFFFFFFFFFFFFFFFFFF DUP3 PUSH2 0x2CB5 JUMP JUMPDEST PUSH2 0x2CFC DUP7 DUP4 PUSH2 0x2CB5 JUMP JUMPDEST SWAP6 POP DUP1 NOT DUP5 AND SWAP4 POP DUP1 DUP7 AND DUP5 OR SWAP3 POP POP POP SWAP4 SWAP3 POP POP POP JUMP JUMPDEST PUSH1 0x0 DUP2 SWAP1 POP SWAP2 SWAP1 POP JUMP JUMPDEST PUSH1 0x0 PUSH2 0x2D39 PUSH2 0x2D34 PUSH2 0x2D2F DUP5 PUSH2 0x2563 JUMP JUMPDEST PUSH2 0x2D14 JUMP JUMPDEST PUSH2 0x2563 JUMP JUMPDEST SWAP1 POP SWAP2 SWAP1 POP JUMP JUMPDEST PUSH1 0x0 DUP2 SWAP1 POP SWAP2 SWAP1 POP JUMP JUMPDEST PUSH2 0x2D53 DUP4 PUSH2 0x2D1E JUMP JUMPDEST PUSH2 0x2D67 PUSH2 0x2D5F DUP3 PUSH2 0x2D40 JUMP JUMPDEST DUP5 DUP5 SLOAD PUSH2 0x2CC2 JUMP JUMPDEST DUP3 SSTORE POP POP POP POP JUMP JUMPDEST PUSH1 0x0 SWAP1 JUMP JUMPDEST PUSH2 0x2D7C PUSH2 0x2D6F JUMP JUMPDEST PUSH2 0x2D87 DUP2 DUP5 DUP5 PUSH2 0x2D4A JUMP JUMPDEST POP POP POP JUMP JUMPDEST JUMPDEST DUP2 DUP2 LT ISZERO PUSH2 0x2DAB JUMPI PUSH2 0x2DA0 PUSH1 0x0 DUP3 PUSH2 0x2D74 JUMP JUMPDEST PUSH1 0x1 DUP2 ADD SWAP1 POP PUSH2 0x2D8D JUMP JUMPDEST POP POP JUMP JUMPDEST PUSH1 0x1F DUP3 GT ISZERO PUSH2 0x2DF0 JUMPI PUSH2 0x2DC1 DUP2 PUSH2 0x2C90 JUMP JUMPDEST PUSH2 0x2DCA DUP5 PUSH2 0x2CA5 JUMP JUMPDEST DUP2 ADD PUSH1 0x20 DUP6 LT ISZERO PUSH2 0x2DD9 JUMPI DUP2 SWAP1 POP JUMPDEST PUSH2 0x2DED PUSH2 0x2DE5 DUP6 PUSH2 0x2CA5 JUMP JUMPDEST DUP4 ADD DUP3 PUSH2 0x2D8C JUMP JUMPDEST POP POP JUMPDEST POP POP POP JUMP JUMPDEST PUSH1 0x0 DUP3 DUP3 SHR SWAP1 POP SWAP3 SWAP2 POP POP JUMP JUMPDEST PUSH1 0x0 PUSH2 0x2E13 PUSH1 0x0 NOT DUP5 PUSH1 0x8 MUL PUSH2 0x2DF5 JUMP JUMPDEST NOT DUP1 DUP4 AND SWAP2 POP POP SWAP3 SWAP2 POP POP JUMP JUMPDEST PUSH1 0x0 PUSH2 0x2E2C DUP4 DUP4 PUSH2 0x2E02 JUMP JUMPDEST SWAP2 POP DUP3 PUSH1 0x2 MUL DUP3 OR SWAP1 POP SWAP3 SWAP2 POP POP JUMP JUMPDEST PUSH2 0x2E45 DUP3 PUSH2 0x24D3 JUMP JUMPDEST PUSH8 0xFFFFFFFFFFFFFFFF DUP2 GT ISZERO PUSH2 0x2E5E JUMPI PUSH2 0x2E5D PUSH2 0x26BE JUMP JUMPDEST JUMPDEST PUSH2 0x2E68 DUP3 SLOAD PUSH2 0x2974 JUMP JUMPDEST PUSH2 0x2E73 DUP3 DUP3 DUP6 PUSH2 0x2DAF JUMP JUMPDEST PUSH1 0x0 PUSH1 0x20 SWAP1 POP PUSH1 0x1F DUP4 GT PUSH1 0x1 DUP2 EQ PUSH2 0x2EA6 JUMPI PUSH1 0x0 DUP5 ISZERO PUSH2 0x2E94 JUMPI DUP3 DUP8 ADD MLOAD SWAP1 POP JUMPDEST PUSH2 0x2E9E DUP6 DUP3 PUSH2 0x2E20 JUMP JUMPDEST DUP7 SSTORE POP PUSH2 0x2F06 JUMP JUMPDEST PUSH1 0x1F NOT DUP5 AND PUSH2 0x2EB4 DUP7 PUSH2 0x2C90 JUMP JUMPDEST PUSH1 0x0 JUMPDEST DUP3 DUP2 LT ISZERO PUSH2 0x2EDC JUMPI DUP5 DUP10 ADD MLOAD DUP3 SSTORE PUSH1 0x1 DUP3 ADD SWAP2 POP PUSH1 0x20 DUP6 ADD SWAP5 POP PUSH1 0x20 DUP2 ADD SWAP1 POP PUSH2 0x2EB7 JUMP JUMPDEST DUP7 DUP4 LT ISZERO PUSH2 0x2EF9 JUMPI DUP5 DUP10 ADD MLOAD PUSH2 0x2EF5 PUSH1 0x1F DUP10 AND DUP3 PUSH2 0x2E02 JUMP JUMPDEST DUP4 SSTORE POP JUMPDEST PUSH1 0x1 PUSH1 0x2 DUP9 MUL ADD DUP9 SSTORE POP POP POP JUMPDEST POP POP POP POP POP POP JUMP JUMPDEST PUSH1 0x0 PUSH1 0x60 DUP3 ADD SWAP1 POP PUSH2 0x2F23 PUSH1 0x0 DUP4 ADD DUP7 PUSH2 0x2597 JUMP JUMPDEST DUP2 DUP2 SUB PUSH1 0x20 DUP4 ADD MSTORE PUSH2 0x2F35 DUP2 DUP6 PUSH2 0x252A JUMP JUMPDEST SWAP1 POP PUSH2 0x2F44 PUSH1 0x40 DUP4 ADD DUP5 PUSH2 0x256D JUMP JUMPDEST SWAP5 SWAP4 POP POP POP POP JUMP JUMPDEST PUSH32 0x4F6E6C79207265676973746572656420636F6E73756D6572732063616E206163 PUSH1 0x0 DUP3 ADD MSTORE PUSH32 0x6365737320746869732066756E6374696F6E616C697479000000000000000000 PUSH1 0x20 DUP3 ADD MSTORE POP JUMP JUMPDEST PUSH1 0x0 PUSH2 0x2FA8 PUSH1 0x37 DUP4 PUSH2 0x24DE JUMP JUMPDEST SWAP2 POP PUSH2 0x2FB3 DUP3 PUSH2 0x2F4C JUMP JUMPDEST PUSH1 0x40 DUP3 ADD SWAP1 POP SWAP2 SWAP1 POP JUMP JUMPDEST PUSH1 0x0 PUSH1 0x20 DUP3 ADD SWAP1 POP DUP2 DUP2 SUB PUSH1 0x0 DUP4 ADD MSTORE PUSH2 0x2FD7 DUP2 PUSH2 0x2F9B JUMP JUMPDEST SWAP1 POP SWAP2 SWAP1 POP JUMP JUMPDEST PUSH32 0x50726F7669646572206973206E6F742072656769737465726564000000000000 PUSH1 0x0 DUP3 ADD MSTORE POP JUMP JUMPDEST PUSH1 0x0 PUSH2 0x3014 PUSH1 0x1A DUP4 PUSH2 0x24DE JUMP JUMPDEST SWAP2 POP PUSH2 0x301F DUP3 PUSH2 0x2FDE JUMP JUMPDEST PUSH1 0x20 DUP3 ADD SWAP1 POP SWAP2 SWAP1 POP JUMP JUMPDEST PUSH1 0x0 PUSH1 0x20 DUP3 ADD SWAP1 POP DUP2 DUP2 SUB PUSH1 0x0 DUP4 ADD MSTORE PUSH2 0x3043 DUP2 PUSH2 0x3007 JUMP JUMPDEST SWAP1 POP SWAP2 SWAP1 POP JUMP JUMPDEST PUSH32 0x53657276696365206973206E6F7420617661696C61626C650000000000000000 PUSH1 0x0 DUP3 ADD MSTORE POP JUMP JUMPDEST PUSH1 0x0 PUSH2 0x3080 PUSH1 0x18 DUP4 PUSH2 0x24DE JUMP JUMPDEST SWAP2 POP PUSH2 0x308B DUP3 PUSH2 0x304A JUMP JUMPDEST PUSH1 0x20 DUP3 ADD SWAP1 POP SWAP2 SWAP1 POP JUMP JUMPDEST PUSH1 0x0 PUSH1 0x20 DUP3 ADD SWAP1 POP DUP2 DUP2 SUB PUSH1 0x0 DUP4 ADD MSTORE PUSH2 0x30AF DUP2 PUSH2 0x3073 JUMP JUMPDEST SWAP1 POP SWAP2 SWAP1 POP JUMP JUMPDEST PUSH32 0x436F6E73756D65722068617320616C7265616479207075726368617365642061 PUSH1 0x0 DUP3 ADD MSTORE PUSH32 0x2073657276696365000000000000000000000000000000000000000000000000 PUSH1 0x20 DUP3 ADD MSTORE POP JUMP JUMPDEST PUSH1 0x0 PUSH2 0x3112 PUSH1 0x28 DUP4 PUSH2 0x24DE JUMP JUMPDEST SWAP2 POP PUSH2 0x311D DUP3 PUSH2 0x30B6 JUMP JUMPDEST PUSH1 0x40 DUP3 ADD SWAP1 POP SWAP2 SWAP1 POP JUMP JUMPDEST PUSH1 0x0 PUSH1 0x20 DUP3 ADD SWAP1 POP DUP2 DUP2 SUB PUSH1 0x0 DUP4 ADD MSTORE PUSH2 0x3141 DUP2 PUSH2 0x3105 JUMP JUMPDEST SWAP1 POP SWAP2 SWAP1 POP JUMP JUMPDEST PUSH32 0x496E73756666696369656E74207061796D656E74000000000000000000000000 PUSH1 0x0 DUP3 ADD MSTORE POP JUMP JUMPDEST PUSH1 0x0 PUSH2 0x317E PUSH1 0x14 DUP4 PUSH2 0x24DE JUMP JUMPDEST SWAP2 POP PUSH2 0x3189 DUP3 PUSH2 0x3148 JUMP JUMPDEST PUSH1 0x20 DUP3 ADD SWAP1 POP SWAP2 SWAP1 POP JUMP JUMPDEST PUSH1 0x0 PUSH1 0x20 DUP3 ADD SWAP1 POP DUP2 DUP2 SUB PUSH1 0x0 DUP4 ADD MSTORE PUSH2 0x31AD DUP2 PUSH2 0x3171 JUMP JUMPDEST SWAP1 POP SWAP2 SWAP1 POP JUMP JUMPDEST PUSH1 0x0 DUP2 SLOAD PUSH2 0x31C1 DUP2 PUSH2 0x2974 JUMP JUMPDEST PUSH2 0x31CB DUP2 DUP7 PUSH2 0x24DE JUMP JUMPDEST SWAP5 POP PUSH1 0x1 DUP3 AND PUSH1 0x0 DUP2 EQ PUSH2 0x31E6 JUMPI PUSH1 0x1 DUP2 EQ PUSH2 0x31FC JUMPI PUSH2 0x322F JUMP JUMPDEST PUSH1 0xFF NOT DUP4 AND DUP7 MSTORE DUP2 ISZERO ISZERO PUSH1 0x20 MUL DUP7 ADD SWAP4 POP PUSH2 0x322F JUMP JUMPDEST PUSH2 0x3205 DUP6 PUSH2 0x2C90 JUMP JUMPDEST PUSH1 0x0 JUMPDEST DUP4 DUP2 LT ISZERO PUSH2 0x3227 JUMPI DUP2 SLOAD DUP2 DUP10 ADD MSTORE PUSH1 0x1 DUP3 ADD SWAP2 POP PUSH1 0x20 DUP2 ADD SWAP1 POP PUSH2 0x3208 JUMP JUMPDEST DUP1 DUP9 ADD SWAP6 POP POP POP JUMPDEST POP POP POP SWAP3 SWAP2 POP POP JUMP JUMPDEST PUSH1 0x0 PUSH1 0x80 DUP3 ADD SWAP1 POP PUSH2 0x324D PUSH1 0x0 DUP4 ADD DUP8 PUSH2 0x2597 JUMP JUMPDEST PUSH2 0x325A PUSH1 0x20 DUP4 ADD DUP7 PUSH2 0x2597 JUMP JUMPDEST DUP2 DUP2 SUB PUSH1 0x40 DUP4 ADD MSTORE PUSH2 0x326C DUP2 DUP6 PUSH2 0x31B4 JUMP JUMPDEST SWAP1 POP PUSH2 0x327B PUSH1 0x60 DUP4 ADD DUP5 PUSH2 0x256D JUMP JUMPDEST SWAP6 SWAP5 POP POP POP POP POP JUMP JUMPDEST PUSH32 0x436F6E73756D657220697320616C726561647920726567697374657265640000 PUSH1 0x0 DUP3 ADD MSTORE POP JUMP JUMPDEST PUSH1 0x0 PUSH2 0x32BA PUSH1 0x1E DUP4 PUSH2 0x24DE JUMP JUMPDEST SWAP2 POP PUSH2 0x32C5 DUP3 PUSH2 0x3284 JUMP JUMPDEST PUSH1 0x20 DUP3 ADD SWAP1 POP SWAP2 SWAP1 POP JUMP JUMPDEST PUSH1 0x0 PUSH1 0x20 DUP3 ADD SWAP1 POP DUP2 DUP2 SUB PUSH1 0x0 DUP4 ADD MSTORE PUSH2 0x32E9 DUP2 PUSH2 0x32AD JUMP JUMPDEST SWAP1 POP SWAP2 SWAP1 POP JUMP JUMPDEST PUSH1 0x0 PUSH1 0x20 DUP3 ADD SWAP1 POP PUSH2 0x3305 PUSH1 0x0 DUP4 ADD DUP5 PUSH2 0x2597 JUMP JUMPDEST SWAP3 SWAP2 POP POP JUMP JUMPDEST PUSH32 0x4F6E6C7920726567697374657265642070726F7669646572732063616E206163 PUSH1 0x0 DUP3 ADD MSTORE PUSH32 0x6365737320746869732066756E6374696F6E616C697479000000000000000000 PUSH1 0x20 DUP3 ADD MSTORE POP JUMP JUMPDEST PUSH1 0x0 PUSH2 0x3367 PUSH1 0x37 DUP4 PUSH2 0x24DE JUMP JUMPDEST SWAP2 POP PUSH2 0x3372 DUP3 PUSH2 0x330B JUMP JUMPDEST PUSH1 0x40 DUP3 ADD SWAP1 POP SWAP2 SWAP1 POP JUMP JUMPDEST PUSH1 0x0 PUSH1 0x20 DUP3 ADD SWAP1 POP DUP2 DUP2 SUB PUSH1 0x0 DUP4 ADD MSTORE PUSH2 0x3396 DUP2 PUSH2 0x335A JUMP JUMPDEST SWAP1 POP SWAP2 SWAP1 POP JUMP JUMPDEST PUSH32 0x436F6E73756D6572206973206E6F742072656769737465726564000000000000 PUSH1 0x0 DUP3 ADD MSTORE POP JUMP JUMPDEST PUSH1 0x0 PUSH2 0x33D3 PUSH1 0x1A DUP4 PUSH2 0x24DE JUMP JUMPDEST SWAP2 POP PUSH2 0x33DE DUP3 PUSH2 0x339D JUMP JUMPDEST PUSH1 0x20 DUP3 ADD SWAP1 POP SWAP2 SWAP1 POP JUMP JUMPDEST PUSH1 0x0 PUSH1 0x20 DUP3 ADD SWAP1 POP DUP2 DUP2 SUB PUSH1 0x0 DUP4 ADD MSTORE PUSH2 0x3402 DUP2 PUSH2 0x33C6 JUMP JUMPDEST SWAP1 POP SWAP2 SWAP1 POP JUMP JUMPDEST PUSH32 0x4E6F7420617574686F72697A6564000000000000000000000000000000000000 PUSH1 0x0 DUP3 ADD MSTORE POP JUMP JUMPDEST PUSH1 0x0 PUSH2 0x343F PUSH1 0xE DUP4 PUSH2 0x24DE JUMP JUMPDEST SWAP2 POP PUSH2 0x344A DUP3 PUSH2 0x3409 JUMP JUMPDEST PUSH1 0x20 DUP3 ADD SWAP1 POP SWAP2 SWAP1 POP JUMP JUMPDEST PUSH1 0x0 PUSH1 0x20 DUP3 ADD SWAP1 POP DUP2 DUP2 SUB PUSH1 0x0 DUP4 ADD MSTORE PUSH2 0x346E DUP2 PUSH2 0x3432 JUMP JUMPDEST SWAP1 POP SWAP2 SWAP1 POP JUMP JUMPDEST PUSH1 0x0 PUSH1 0x60 DUP3 ADD SWAP1 POP PUSH2 0x348A PUSH1 0x0 DUP4 ADD DUP7 PUSH2 0x2597 JUMP JUMPDEST PUSH2 0x3497 PUSH1 0x20 DUP4 ADD DUP6 PUSH2 0x2597 JUMP JUMPDEST DUP2 DUP2 SUB PUSH1 0x40 DUP4 ADD MSTORE PUSH2 0x34A9 DUP2 DUP5 PUSH2 0x31B4 JUMP JUMPDEST SWAP1 POP SWAP5 SWAP4 POP POP POP POP JUMP JUMPDEST PUSH32 0x4F6E6C79207265676973746572656420636F6E73756D657273206F722070726F PUSH1 0x0 DUP3 ADD MSTORE PUSH32 0x7669646572732063616E2061636365737320746869732066756E6374696F6E61 PUSH1 0x20 DUP3 ADD MSTORE PUSH32 0x6C69747900000000000000000000000000000000000000000000000000000000 PUSH1 0x40 DUP3 ADD MSTORE POP JUMP JUMPDEST PUSH1 0x0 PUSH2 0x3535 PUSH1 0x44 DUP4 PUSH2 0x24DE JUMP JUMPDEST SWAP2 POP PUSH2 0x3540 DUP3 PUSH2 0x34B3 JUMP JUMPDEST PUSH1 0x60 DUP3 ADD SWAP1 POP SWAP2 SWAP1 POP JUMP JUMPDEST PUSH1 0x0 PUSH1 0x20 DUP3 ADD SWAP1 POP DUP2 DUP2 SUB PUSH1 0x0 DUP4 ADD MSTORE PUSH2 0x3564 DUP2 PUSH2 0x3528 JUMP JUMPDEST SWAP1 POP SWAP2 SWAP1 POP JUMP JUMPDEST PUSH32 0x50726F76696465722068617320616C7265616479206F66666572656420612073 PUSH1 0x0 DUP3 ADD MSTORE PUSH32 0x6572766963650000000000000000000000000000000000000000000000000000 PUSH1 0x20 DUP3 ADD MSTORE POP JUMP JUMPDEST PUSH1 0x0 PUSH2 0x35C7 PUSH1 0x26 DUP4 PUSH2 0x24DE JUMP JUMPDEST SWAP2 POP PUSH2 0x35D2 DUP3 PUSH2 0x356B JUMP JUMPDEST PUSH1 0x40 DUP3 ADD SWAP1 POP SWAP2 SWAP1 POP JUMP JUMPDEST PUSH1 0x0 PUSH1 0x20 DUP3 ADD SWAP1 POP DUP2 DUP2 SUB PUSH1 0x0 DUP4 ADD MSTORE PUSH2 0x35F6 DUP2 PUSH2 0x35BA JUMP JUMPDEST SWAP1 POP SWAP2 SWAP1 POP JUMP JUMPDEST PUSH1 0x0 PUSH1 0x80 DUP3 ADD SWAP1 POP PUSH2 0x3612 PUSH1 0x0 DUP4 ADD DUP8 PUSH2 0x2597 JUMP JUMPDEST DUP2 DUP2 SUB PUSH1 0x20 DUP4 ADD MSTORE PUSH2 0x3624 DUP2 DUP7 PUSH2 0x252A JUMP JUMPDEST SWAP1 POP DUP2 DUP2 SUB PUSH1 0x40 DUP4 ADD MSTORE PUSH2 0x3638 DUP2 DUP6 PUSH2 0x252A JUMP JUMPDEST SWAP1 POP PUSH2 0x3647 PUSH1 0x60 DUP4 ADD DUP5 PUSH2 0x256D JUMP JUMPDEST SWAP6 SWAP5 POP POP POP POP POP JUMP JUMPDEST PUSH32 0x4269642076616C7565206D7573742062652067726561746572207468616E207A PUSH1 0x0 DUP3 ADD MSTORE PUSH32 0x65726F0000000000000000000000000000000000000000000000000000000000 PUSH1 0x20 DUP3 ADD MSTORE POP JUMP JUMPDEST PUSH1 0x0 PUSH2 0x36AC PUSH1 0x23 DUP4 PUSH2 0x24DE JUMP JUMPDEST SWAP2 POP PUSH2 0x36B7 DUP3 PUSH2 0x3650 JUMP JUMPDEST PUSH1 0x40 DUP3 ADD SWAP1 POP SWAP2 SWAP1 POP JUMP JUMPDEST PUSH1 0x0 PUSH1 0x20 DUP3 ADD SWAP1 POP DUP2 DUP2 SUB PUSH1 0x0 DUP4 ADD MSTORE PUSH2 0x36DB DUP2 PUSH2 0x369F JUMP JUMPDEST SWAP1 POP SWAP2 SWAP1 POP JUMP JUMPDEST PUSH32 0x50726F766964657220697320616C726561647920726567697374657265640000 PUSH1 0x0 DUP3 ADD MSTORE POP JUMP JUMPDEST PUSH1 0x0 PUSH2 0x3718 PUSH1 0x1E DUP4 PUSH2 0x24DE JUMP JUMPDEST SWAP2 POP PUSH2 0x3723 DUP3 PUSH2 0x36E2 JUMP JUMPDEST PUSH1 0x20 DUP3 ADD SWAP1 POP SWAP2 SWAP1 POP JUMP JUMPDEST PUSH1 0x0 PUSH1 0x20 DUP3 ADD SWAP1 POP DUP2 DUP2 SUB PUSH1 0x0 DUP4 ADD MSTORE PUSH2 0x3747 DUP2 PUSH2 0x370B JUMP JUMPDEST SWAP1 POP SWAP2 SWAP1 POP JUMP INVALID LOG2 PUSH5 0x6970667358 0x22 SLT KECCAK256 0x1F DUP7 0x5D 0xD7 0xAA 0xB7 0x1F ADD ISZERO SWAP10 0xD6 DUP16 DIV PUSH6 0x98315BFFAD87 0xC8 0xE 0xBC 0x21 XOR SHL 0xB4 TIMESTAMP PUSH3 0x179687 PUSH5 0x736F6C6343 STOP ADDMOD SLT STOP CALLER "
				},
				"gasEstimates": {
					"creation": {
						"codeDepositCost": "2842400",
						"executionCost": "3107",
						"totalCost": "2845507"
					},
					"external": {
						"acceptOffer(address)": "infinite",
						"auctions(address)": "infinite",
						"consumers(address)": "infinite",
						"endAuction(address)": "infinite",
						"getAuctionDetails(address)": "infinite",
						"offerService(string,string,uint256)": "infinite",
						"placeBid(address)": "infinite",
						"providers(address)": "infinite",
						"purchaseService(address)": "infinite",
						"registerConsumer()": "101121",
						"registerProvider()": "infinite",
						"setIPFSHash(string)": "infinite",
						"startAuction(string,uint256)": "infinite"
					}
				},
				"methodIdentifiers": {
					"acceptOffer(address)": "b6261d0a",
					"auctions(address)": "1d59410a",
					"consumers(address)": "0bf53668",
					"endAuction(address)": "2872abbc",
					"getAuctionDetails(address)": "7f593d9e",
					"offerService(string,string,uint256)": "cb1ce0c7",
					"placeBid(address)": "e4940157",
					"providers(address)": "0787bc27",
					"purchaseService(address)": "87ea07fb",
					"registerConsumer()": "b46506de",
					"registerProvider()": "f769c6d0",
					"setIPFSHash(string)": "b8a76f54",
					"startAuction(string,uint256)": "862882e5"
				}
			},
			"storageLayout": {
				"storage": [
					{
						"astId": 31,
						"contract": "Smart Contract/ReverseAuction.sol:ReverseAuction",
						"label": "providers",
						"offset": 0,
						"slot": "0",
						"type": "t_mapping(t_address,t_struct(Provider)17_storage)"
					},
					{
						"astId": 36,
						"contract": "Smart Contract/ReverseAuction.sol:ReverseAuction",
						"label": "consumers",
						"offset": 0,
						"slot": "1",
						"type": "t_mapping(t_address,t_struct(Consumer)26_storage)"
					},
					{
						"astId": 481,
						"contract": "Smart Contract/ReverseAuction.sol:ReverseAuction",
						"label": "auctions",
						"offset": 0,
						"slot": "2",
						"type": "t_mapping(t_address,t_struct(Auction)476_storage)"
					}
				],
				"types": {
					"t_address": {
						"encoding": "inplace",
						"label": "address",
						"numberOfBytes": "20"
					},
					"t_array(t_address)dyn_storage": {
						"base": "t_address",
						"encoding": "dynamic_array",
						"label": "address[]",
						"numberOfBytes": "32"
					},
					"t_bool": {
						"encoding": "inplace",
						"label": "bool",
						"numberOfBytes": "1"
					},
					"t_mapping(t_address,t_struct(Auction)476_storage)": {
						"encoding": "mapping",
						"key": "t_address",
						"label": "mapping(address => struct ReverseAuction.Auction)",
						"numberOfBytes": "32",
						"value": "t_struct(Auction)476_storage"
					},
					"t_mapping(t_address,t_struct(Consumer)26_storage)": {
						"encoding": "mapping",
						"key": "t_address",
						"label": "mapping(address => struct DecentralizedMarketplace.Consumer)",
						"numberOfBytes": "32",
						"value": "t_struct(Consumer)26_storage"
					},
					"t_mapping(t_address,t_struct(Provider)17_storage)": {
						"encoding": "mapping",
						"key": "t_address",
						"label": "mapping(address => struct DecentralizedMarketplace.Provider)",
						"numberOfBytes": "32",
						"value": "t_struct(Provider)17_storage"
					},
					"t_string_storage": {
						"encoding": "bytes",
						"label": "string",
						"numberOfBytes": "32"
					},
					"t_struct(Auction)476_storage": {
						"encoding": "inplace",
						"label": "struct ReverseAuction.Auction",
						"members": [
							{
								"astId": 464,
								"contract": "Smart Contract/ReverseAuction.sol:ReverseAuction",
								"label": "features",
								"offset": 0,
								"slot": "0",
								"type": "t_string_storage"
							},
							{
								"astId": 466,
								"contract": "Smart Contract/ReverseAuction.sol:ReverseAuction",
								"label": "duration",
								"offset": 0,
								"slot": "1",
								"type": "t_uint256"
							},
							{
								"astId": 469,
								"contract": "Smart Contract/ReverseAuction.sol:ReverseAuction",
								"label": "providers",
								"offset": 0,
								"slot": "2",
								"type": "t_array(t_address)dyn_storage"
							},
							{
								"astId": 471,
								"contract": "Smart Contract/ReverseAuction.sol:ReverseAuction",
								"label": "auctionEnded",
								"offset": 0,
								"slot": "3",
								"type": "t_bool"
							},
							{
								"astId": 473,
								"contract": "Smart Contract/ReverseAuction.sol:ReverseAuction",
								"label": "winner",
								"offset": 1,
								"slot": "3",
								"type": "t_address"
							},
							{
								"astId": 475,
								"contract": "Smart Contract/ReverseAuction.sol:ReverseAuction",
								"label": "lowestBid",
								"offset": 0,
								"slot": "4",
								"type": "t_uint256"
							}
						],
						"numberOfBytes": "160"
					},
					"t_struct(Consumer)26_storage": {
						"encoding": "inplace",
						"label": "struct DecentralizedMarketplace.Consumer",
						"members": [
							{
								"astId": 19,
								"contract": "Smart Contract/ReverseAuction.sol:ReverseAuction",
								"label": "isRegistered",
								"offset": 0,
								"slot": "0",
								"type": "t_bool"
							},
							{
								"astId": 21,
								"contract": "Smart Contract/ReverseAuction.sol:ReverseAuction",
								"label": "hasPurchased",
								"offset": 1,
								"slot": "0",
								"type": "t_bool"
							},
							{
								"astId": 23,
								"contract": "Smart Contract/ReverseAuction.sol:ReverseAuction",
								"label": "consumerAddress",
								"offset": 2,
								"slot": "0",
								"type": "t_address"
							},
							{
								"astId": 25,
								"contract": "Smart Contract/ReverseAuction.sol:ReverseAuction",
								"label": "providerAddress",
								"offset": 0,
								"slot": "1",
								"type": "t_address"
							}
						],
						"numberOfBytes": "64"
					},
					"t_struct(Provider)17_storage": {
						"encoding": "inplace",
						"label": "struct DecentralizedMarketplace.Provider",
						"members": [
							{
								"astId": 3,
								"contract": "Smart Contract/ReverseAuction.sol:ReverseAuction",
								"label": "serviceName",
								"offset": 0,
								"slot": "0",
								"type": "t_string_storage"
							},
							{
								"astId": 5,
								"contract": "Smart Contract/ReverseAuction.sol:ReverseAuction",
								"label": "features",
								"offset": 0,
								"slot": "1",
								"type": "t_string_storage"
							},
							{
								"astId": 7,
								"contract": "Smart Contract/ReverseAuction.sol:ReverseAuction",
								"label": "price",
								"offset": 0,
								"slot": "2",
								"type": "t_uint256"
							},
							{
								"astId": 9,
								"contract": "Smart Contract/ReverseAuction.sol:ReverseAuction",
								"label": "isRegistered",
								"offset": 0,
								"slot": "3",
								"type": "t_bool"
							},
							{
								"astId": 11,
								"contract": "Smart Contract/ReverseAuction.sol:ReverseAuction",
								"label": "isServiceAvailable",
								"offset": 1,
								"slot": "3",
								"type": "t_bool"
							},
							{
								"astId": 13,
								"contract": "Smart Contract/ReverseAuction.sol:ReverseAuction",
								"label": "providerAddress",
								"offset": 2,
								"slot": "3",
								"type": "t_address"
							},
							{
								"astId": 16,
								"contract": "Smart Contract/ReverseAuction.sol:ReverseAuction",
								"label": "consumers",
								"offset": 0,
								"slot": "4",
								"type": "t_array(t_address)dyn_storage"
							}
						],
						"numberOfBytes": "160"
					},
					"t_uint256": {
						"encoding": "inplace",
						"label": "uint256",
						"numberOfBytes": "32"
					}
				}
			},
			"userdoc": {
				"kind": "user",
				"methods": {},
				"version": 1
			}
		}
	}
}